{
	"src/FightLogic.sol": {
		"FightLogic": {
			"abi": [
				{
					"inputs": [
						{
							"internalType": "contract IBillionaireDojo",
							"name": "_dojo",
							"type": "address"
						}
					],
					"stateMutability": "nonpayable",
					"type": "constructor"
				},
				{
					"inputs": [
						{
							"internalType": "uint256",
							"name": "player1",
							"type": "uint256"
						},
						{
							"internalType": "uint256",
							"name": "player2",
							"type": "uint256"
						}
					],
					"name": "fight",
					"outputs": [
						{
							"internalType": "uint256",
							"name": "winner",
							"type": "uint256"
						}
					],
					"stateMutability": "view",
					"type": "function"
				},
				{
					"inputs": [
						{
							"internalType": "contract IOctagon",
							"name": "_octagon",
							"type": "address"
						}
					],
					"name": "setOctagon",
					"outputs": [],
					"stateMutability": "nonpayable",
					"type": "function"
				}
			],
			"devdoc": {
				"kind": "dev",
				"methods": {},
				"version": 1
			},
			"evm": {
				"assembly": "    /* \"src/FightLogic.sol\":202:2245  contract FightLogic is IFightLogic {... */\n  mstore(0x40, 0xa0)\n    /* \"src/FightLogic.sol\":359:424  constructor(IBillionaireDojo _dojo) {... */\n  callvalue\n  dup1\n  iszero\n  tag_1\n  jumpi\n  0x00\n  dup1\n  revert\ntag_1:\n  pop\n  mload(0x40)\n  sub(codesize, bytecodeSize)\n  dup1\n  bytecodeSize\n  dup4\n  codecopy\n  dup2\n  add\n  0x40\n  dup2\n  swap1\n  mstore\n  tag_2\n  swap2\n  tag_3\n  jump\t// in\ntag_2:\n  sub(shl(0xa0, 0x01), 0x01)\n    /* \"src/FightLogic.sol\":405:417  dojo = _dojo */\n  and\n  0x80\n  mstore\n    /* \"src/FightLogic.sol\":202:2245  contract FightLogic is IFightLogic {... */\n  jump(tag_7)\n    /* \"#utility.yul\":14:328   */\ntag_3:\n    /* \"#utility.yul\":108:114   */\n  0x00\n    /* \"#utility.yul\":161:163   */\n  0x20\n    /* \"#utility.yul\":149:158   */\n  dup3\n    /* \"#utility.yul\":140:147   */\n  dup5\n    /* \"#utility.yul\":136:159   */\n  sub\n    /* \"#utility.yul\":132:164   */\n  slt\n    /* \"#utility.yul\":129:181   */\n  iszero\n  tag_9\n  jumpi\n    /* \"#utility.yul\":177:178   */\n  0x00\n    /* \"#utility.yul\":174:175   */\n  dup1\n    /* \"#utility.yul\":167:179   */\n  revert\n    /* \"#utility.yul\":129:181   */\ntag_9:\n    /* \"#utility.yul\":203:219   */\n  dup2\n  mload\n  sub(shl(0xa0, 0x01), 0x01)\n    /* \"#utility.yul\":248:279   */\n  dup2\n  and\n    /* \"#utility.yul\":238:280   */\n  dup2\n  eq\n    /* \"#utility.yul\":228:298   */\n  tag_10\n  jumpi\n    /* \"#utility.yul\":294:295   */\n  0x00\n    /* \"#utility.yul\":291:292   */\n  dup1\n    /* \"#utility.yul\":284:296   */\n  revert\n    /* \"#utility.yul\":228:298   */\ntag_10:\n    /* \"#utility.yul\":317:322   */\n  swap4\n    /* \"#utility.yul\":14:328   */\n  swap3\n  pop\n  pop\n  pop\n  jump\t// out\ntag_7:\n    /* \"src/FightLogic.sol\":202:2245  contract FightLogic is IFightLogic {... */\n  mload(0x80)\n  codecopy(0x00, dataOffset(sub_0), dataSize(sub_0))\n  0x00\n  assignImmutable(\"0x789bcdf275fa270780a52ae3b79bb1ce0fda7e0aaad87b57b74bb99ac290714a\")\n  return(0x00, dataSize(sub_0))\nstop\n\nsub_0: assembly {\n        /* \"src/FightLogic.sol\":202:2245  contract FightLogic is IFightLogic {... */\n      mstore(0x40, 0x80)\n      callvalue\n      dup1\n      iszero\n      tag_1\n      jumpi\n      0x00\n      dup1\n      revert\n    tag_1:\n      pop\n      jumpi(tag_2, lt(calldatasize, 0x04))\n      shr(0xe0, calldataload(0x00))\n      dup1\n      0xca39e5ef\n      eq\n      tag_3\n      jumpi\n      dup1\n      0xfdfd8058\n      eq\n      tag_4\n      jumpi\n    tag_2:\n      0x00\n      dup1\n      revert\n        /* \"src/FightLogic.sol\":600:1855  function fight(... */\n    tag_3:\n      tag_5\n      tag_6\n      calldatasize\n      0x04\n      tag_7\n      jump\t// in\n    tag_6:\n      tag_8\n      jump\t// in\n    tag_5:\n      mload(0x40)\n        /* \"#utility.yul\":413:438   */\n      swap1\n      dup2\n      mstore\n        /* \"#utility.yul\":401:403   */\n      0x20\n        /* \"#utility.yul\":386:404   */\n      add\n        /* \"src/FightLogic.sol\":600:1855  function fight(... */\n      mload(0x40)\n      dup1\n      swap2\n      sub\n      swap1\n      return\n        /* \"src/FightLogic.sol\":430:594  function setOctagon(IOctagon _octagon) external {... */\n    tag_4:\n      tag_11\n      tag_12\n      calldatasize\n      0x04\n      tag_13\n      jump\t// in\n    tag_12:\n      tag_14\n      jump\t// in\n    tag_11:\n      stop\n        /* \"src/FightLogic.sol\":600:1855  function fight(... */\n    tag_8:\n        /* \"src/FightLogic.sol\":757:778  dojo.getStat(player1) */\n      mload(0x40)\n      shl(0xe0, 0x17609459)\n      dup2\n      mstore\n      0x04\n      dup2\n      add\n        /* \"#utility.yul\":413:438   */\n      dup4\n      swap1\n      mstore\n        /* \"src/FightLogic.sol\":692:706  uint256 winner */\n      0x00\n      swap1\n      dup2\n      swap1\n      sub(shl(0xa0, 0x01), 0x01)\n        /* \"src/FightLogic.sol\":757:761  dojo */\n      immutable(\"0x789bcdf275fa270780a52ae3b79bb1ce0fda7e0aaad87b57b74bb99ac290714a\")\n        /* \"src/FightLogic.sol\":757:769  dojo.getStat */\n      and\n      swap1\n      0x17609459\n      swap1\n        /* \"#utility.yul\":386:404   */\n      0x24\n      add\n        /* \"src/FightLogic.sol\":757:778  dojo.getStat(player1) */\n      0xe0\n      mload(0x40)\n      dup1\n      dup4\n      sub\n      dup2\n      dup7\n      gas\n      staticcall\n      iszero\n      dup1\n      iszero\n      tag_18\n      jumpi\n      returndatasize\n      0x00\n      dup1\n      returndatacopy\n      revert(0x00, returndatasize)\n    tag_18:\n      pop\n      pop\n      pop\n      pop\n      mload(0x40)\n      returndatasize\n      not(0x1f)\n      0x1f\n      dup3\n      add\n      and\n      dup3\n      add\n      dup1\n      0x40\n      mstore\n      pop\n      dup2\n      add\n      swap1\n      tag_19\n      swap2\n      swap1\n      tag_20\n      jump\t// in\n    tag_19:\n        /* \"src/FightLogic.sol\":827:848  dojo.getStat(player2) */\n      mload(0x40)\n      shl(0xe0, 0x17609459)\n      dup2\n      mstore\n      0x04\n      dup2\n      add\n        /* \"#utility.yul\":413:438   */\n      dup6\n      swap1\n      mstore\n        /* \"src/FightLogic.sol\":718:778  BillionaireStats memory statsPlayer1 = dojo.getStat(player1) */\n      swap1\n      swap2\n      pop\n        /* \"src/FightLogic.sol\":788:824  BillionaireStats memory statsPlayer2 */\n      0x00\n      swap1\n      sub(shl(0xa0, 0x01), 0x01)\n        /* \"src/FightLogic.sol\":827:831  dojo */\n      immutable(\"0x789bcdf275fa270780a52ae3b79bb1ce0fda7e0aaad87b57b74bb99ac290714a\")\n        /* \"src/FightLogic.sol\":827:839  dojo.getStat */\n      and\n      swap1\n      0x17609459\n      swap1\n        /* \"#utility.yul\":386:404   */\n      0x24\n      add\n        /* \"src/FightLogic.sol\":827:848  dojo.getStat(player2) */\n      0xe0\n      mload(0x40)\n      dup1\n      dup4\n      sub\n      dup2\n      dup7\n      gas\n      staticcall\n      iszero\n      dup1\n      iszero\n      tag_23\n      jumpi\n      returndatasize\n      0x00\n      dup1\n      returndatacopy\n      revert(0x00, returndatasize)\n    tag_23:\n      pop\n      pop\n      pop\n      pop\n      mload(0x40)\n      returndatasize\n      not(0x1f)\n      0x1f\n      dup3\n      add\n      and\n      dup3\n      add\n      dup1\n      0x40\n      mstore\n      pop\n      dup2\n      add\n      swap1\n      tag_24\n      swap2\n      swap1\n      tag_20\n      jump\t// in\n    tag_24:\n        /* \"src/FightLogic.sol\":897:922  OctagonEntry memory entry */\n      0x00\n        /* \"src/FightLogic.sol\":925:932  octagon */\n      dup1\n      sload\n        /* \"src/FightLogic.sol\":925:965  octagon.getOctagonEntryForToken(player2) */\n      mload(0x40)\n      shl(0xe0, 0x9fffc3dd)\n      dup2\n      mstore\n      0x04\n      dup2\n      add\n        /* \"#utility.yul\":413:438   */\n      dup9\n      swap1\n      mstore\n        /* \"src/FightLogic.sol\":788:848  BillionaireStats memory statsPlayer2 = dojo.getStat(player2) */\n      swap3\n      swap4\n      pop\n        /* \"src/FightLogic.sol\":897:922  OctagonEntry memory entry */\n      swap1\n      swap2\n      sub(shl(0xa0, 0x01), 0x01)\n        /* \"src/FightLogic.sol\":925:932  octagon */\n      swap1\n      swap2\n      and\n      swap1\n        /* \"src/FightLogic.sol\":925:956  octagon.getOctagonEntryForToken */\n      0x9fffc3dd\n      swap1\n        /* \"#utility.yul\":386:404   */\n      0x24\n      add\n        /* \"src/FightLogic.sol\":925:965  octagon.getOctagonEntryForToken(player2) */\n      0x80\n      mload(0x40)\n      dup1\n      dup4\n      sub\n      dup2\n      dup7\n      gas\n      staticcall\n      iszero\n      dup1\n      iszero\n      tag_27\n      jumpi\n      returndatasize\n      0x00\n      dup1\n      returndatacopy\n      revert(0x00, returndatasize)\n    tag_27:\n      pop\n      pop\n      pop\n      pop\n      mload(0x40)\n      returndatasize\n      not(0x1f)\n      0x1f\n      dup3\n      add\n      and\n      dup3\n      add\n      dup1\n      0x40\n      mstore\n      pop\n      dup2\n      add\n      swap1\n      tag_28\n      swap2\n      swap1\n      tag_29\n      jump\t// in\n    tag_28:\n        /* \"src/FightLogic.sol\":976:1002  LevelInfo memory levelInfo */\n      0x00\n        /* \"src/FightLogic.sol\":1005:1012  octagon */\n      dup1\n      sload\n        /* \"src/FightLogic.sol\":1026:1037  entry.level */\n      dup3\n      mload\n        /* \"src/FightLogic.sol\":1005:1038  octagon.getLevelInfo(entry.level) */\n      mload(0x40)\n      shl(0xe0, 0x6e37da1b)\n      dup2\n      mstore\n        /* \"src/FightLogic.sol\":897:965  OctagonEntry memory entry = octagon.getOctagonEntryForToken(player2) */\n      swap4\n      swap5\n      pop\n        /* \"src/FightLogic.sol\":976:1002  LevelInfo memory levelInfo */\n      swap2\n      swap3\n      sub(shl(0xa0, 0x01), 0x01)\n        /* \"src/FightLogic.sol\":1005:1012  octagon */\n      swap1\n      swap2\n      and\n      swap2\n        /* \"src/FightLogic.sol\":1005:1025  octagon.getLevelInfo */\n      0x6e37da1b\n      swap2\n        /* \"src/FightLogic.sol\":1005:1038  octagon.getLevelInfo(entry.level) */\n      tag_30\n      swap2\n        /* \"src/FightLogic.sol\":1026:1037  entry.level */\n      swap1\n        /* \"src/FightLogic.sol\":1005:1038  octagon.getLevelInfo(entry.level) */\n      0x04\n      add\n      tag_31\n      jump\t// in\n    tag_30:\n      0x60\n      mload(0x40)\n      dup1\n      dup4\n      sub\n      dup2\n      dup7\n      gas\n      staticcall\n      iszero\n      dup1\n      iszero\n      tag_33\n      jumpi\n      returndatasize\n      0x00\n      dup1\n      returndatacopy\n      revert(0x00, returndatasize)\n    tag_33:\n      pop\n      pop\n      pop\n      pop\n      mload(0x40)\n      returndatasize\n      not(0x1f)\n      0x1f\n      dup3\n      add\n      and\n      dup3\n      add\n      dup1\n      0x40\n      mstore\n      pop\n      dup2\n      add\n      swap1\n      tag_34\n      swap2\n      swap1\n      tag_35\n      jump\t// in\n    tag_34:\n        /* \"src/FightLogic.sol\":976:1038  LevelInfo memory levelInfo = octagon.getLevelInfo(entry.level) */\n      swap1\n      pop\n        /* \"src/FightLogic.sol\":1049:1068  uint256 saltPlayer1 */\n      0x00\n        /* \"src/FightLogic.sol\":1116:1132  block.number - 1 */\n      tag_36\n        /* \"src/FightLogic.sol\":1131:1132  1 */\n      0x01\n        /* \"src/FightLogic.sol\":1116:1128  block.number */\n      number\n        /* \"src/FightLogic.sol\":1116:1132  block.number - 1 */\n      tag_37\n      jump\t// in\n    tag_36:\n        /* \"src/FightLogic.sol\":1089:1160  abi.encodePacked(blockhash(block.number - 1), block.timestamp, player2) */\n      0x40\n      dup1\n      mload\n        /* \"src/FightLogic.sol\":1106:1133  blockhash(block.number - 1) */\n      swap2\n      blockhash\n        /* \"src/FightLogic.sol\":1089:1160  abi.encodePacked(blockhash(block.number - 1), block.timestamp, player2) */\n      0x20\n      dup4\n      add\n        /* \"#utility.yul\":4110:4129   */\n      mstore\n        /* \"src/FightLogic.sol\":1135:1150  block.timestamp */\n      timestamp\n        /* \"#utility.yul\":4145:4157   */\n      swap1\n      dup3\n      add\n        /* \"#utility.yul\":4138:4166   */\n      mstore\n        /* \"#utility.yul\":4182:4194   */\n      0x60\n      dup2\n      add\n        /* \"#utility.yul\":4175:4203   */\n      dup9\n      swap1\n      mstore\n        /* \"#utility.yul\":4219:4231   */\n      0x80\n      add\n        /* \"src/FightLogic.sol\":1089:1160  abi.encodePacked(blockhash(block.number - 1), block.timestamp, player2) */\n      0x40\n      dup1\n      mload\n      not(0x1f)\n      dup2\n      dup5\n      sub\n      add\n      dup2\n      mstore\n      swap2\n      swap1\n      mstore\n        /* \"src/FightLogic.sol\":1079:1161  keccak256(abi.encodePacked(blockhash(block.number - 1), block.timestamp, player2)) */\n      dup1\n      mload\n        /* \"src/FightLogic.sol\":1089:1160  abi.encodePacked(blockhash(block.number - 1), block.timestamp, player2) */\n      0x20\n        /* \"src/FightLogic.sol\":1079:1161  keccak256(abi.encodePacked(blockhash(block.number - 1), block.timestamp, player2)) */\n      swap1\n      swap2\n      add\n      keccak256\n      swap1\n      pop\n        /* \"src/FightLogic.sol\":1071:1162  uint256(keccak256(abi.encodePacked(blockhash(block.number - 1), block.timestamp, player2))) */\n      0x00\n        /* \"src/FightLogic.sol\":1239:1255  block.number - 1 */\n      tag_40\n        /* \"src/FightLogic.sol\":1254:1255  1 */\n      0x01\n        /* \"src/FightLogic.sol\":1239:1251  block.number */\n      number\n        /* \"src/FightLogic.sol\":1239:1255  block.number - 1 */\n      tag_37\n      jump\t// in\n    tag_40:\n        /* \"src/FightLogic.sol\":1212:1283  abi.encodePacked(blockhash(block.number - 1), block.timestamp, player1) */\n      0x40\n      dup1\n      mload\n        /* \"src/FightLogic.sol\":1229:1256  blockhash(block.number - 1) */\n      swap2\n      blockhash\n        /* \"src/FightLogic.sol\":1212:1283  abi.encodePacked(blockhash(block.number - 1), block.timestamp, player1) */\n      0x20\n      dup4\n      add\n        /* \"#utility.yul\":4110:4129   */\n      mstore\n        /* \"src/FightLogic.sol\":1258:1273  block.timestamp */\n      timestamp\n        /* \"#utility.yul\":4145:4157   */\n      swap1\n      dup3\n      add\n        /* \"#utility.yul\":4138:4166   */\n      mstore\n        /* \"#utility.yul\":4182:4194   */\n      0x60\n      dup2\n      add\n        /* \"#utility.yul\":4175:4203   */\n      dup11\n      swap1\n      mstore\n        /* \"#utility.yul\":4219:4231   */\n      0x80\n      add\n        /* \"src/FightLogic.sol\":1212:1283  abi.encodePacked(blockhash(block.number - 1), block.timestamp, player1) */\n      mload(0x40)\n      0x20\n      dup2\n      dup4\n      sub\n      sub\n      dup2\n      mstore\n      swap1\n      0x40\n      mstore\n        /* \"src/FightLogic.sol\":1202:1284  keccak256(abi.encodePacked(blockhash(block.number - 1), block.timestamp, player1)) */\n      dup1\n      mload\n      swap1\n      0x20\n      add\n      keccak256\n        /* \"src/FightLogic.sol\":1194:1285  uint256(keccak256(abi.encodePacked(blockhash(block.number - 1), block.timestamp, player1))) */\n      0x00\n      shr\n        /* \"src/FightLogic.sol\":1172:1285  uint256 saltPlayer2 = uint256(keccak256(abi.encodePacked(blockhash(block.number - 1), block.timestamp, player1))) */\n      swap1\n      pop\n        /* \"src/FightLogic.sol\":1296:1320  uint256 randomValPlayer1 */\n      0x00\n        /* \"src/FightLogic.sol\":1364:1373  levelInfo */\n      dup4\n        /* \"src/FightLogic.sol\":1364:1386  levelInfo.minRandomVal */\n      0x40\n      add\n      mload\n        /* \"src/FightLogic.sol\":1338:1347  levelInfo */\n      dup5\n        /* \"src/FightLogic.sol\":1338:1360  levelInfo.maxRandomVal */\n      0x20\n      add\n      mload\n        /* \"src/FightLogic.sol\":1324:1335  saltPlayer1 */\n      dup5\n        /* \"src/FightLogic.sol\":1324:1360  saltPlayer1 % levelInfo.maxRandomVal */\n      tag_42\n      swap2\n      swap1\n      tag_43\n      jump\t// in\n    tag_42:\n        /* \"src/FightLogic.sol\":1323:1386  (saltPlayer1 % levelInfo.maxRandomVal) + levelInfo.minRandomVal */\n      tag_44\n      swap2\n      swap1\n      tag_45\n      jump\t// in\n    tag_44:\n        /* \"src/FightLogic.sol\":1296:1386  uint256 randomValPlayer1 = (saltPlayer1 % levelInfo.maxRandomVal) + levelInfo.minRandomVal */\n      swap1\n      pop\n        /* \"src/FightLogic.sol\":1396:1420  uint256 randomValPlayer2 */\n      0x00\n        /* \"src/FightLogic.sol\":1464:1473  levelInfo */\n      dup5\n        /* \"src/FightLogic.sol\":1464:1486  levelInfo.minRandomVal */\n      0x40\n      add\n      mload\n        /* \"src/FightLogic.sol\":1438:1447  levelInfo */\n      dup6\n        /* \"src/FightLogic.sol\":1438:1460  levelInfo.maxRandomVal */\n      0x20\n      add\n      mload\n        /* \"src/FightLogic.sol\":1424:1435  saltPlayer2 */\n      dup5\n        /* \"src/FightLogic.sol\":1424:1460  saltPlayer2 % levelInfo.maxRandomVal */\n      tag_46\n      swap2\n      swap1\n      tag_43\n      jump\t// in\n    tag_46:\n        /* \"src/FightLogic.sol\":1423:1486  (saltPlayer2 % levelInfo.maxRandomVal) + levelInfo.minRandomVal */\n      tag_47\n      swap2\n      swap1\n      tag_45\n      jump\t// in\n    tag_47:\n        /* \"src/FightLogic.sol\":1396:1486  uint256 randomValPlayer2 = (saltPlayer2 % levelInfo.maxRandomVal) + levelInfo.minRandomVal */\n      swap1\n      pop\n        /* \"src/FightLogic.sol\":1497:1517  uint256 scorePlayer1 */\n      0x00\n        /* \"src/FightLogic.sol\":1545:1561  randomValPlayer1 */\n      dup3\n        /* \"src/FightLogic.sol\":1520:1542  sumStats(statsPlayer1) */\n      tag_48\n        /* \"src/FightLogic.sol\":1529:1541  statsPlayer1 */\n      dup11\n        /* \"src/FightLogic.sol\":1520:1528  sumStats */\n      tag_49\n        /* \"src/FightLogic.sol\":1520:1542  sumStats(statsPlayer1) */\n      jump\t// in\n    tag_48:\n        /* \"src/FightLogic.sol\":1520:1561  sumStats(statsPlayer1) + randomValPlayer1 */\n      tag_50\n      swap2\n      swap1\n      tag_45\n      jump\t// in\n    tag_50:\n        /* \"src/FightLogic.sol\":1497:1561  uint256 scorePlayer1 = sumStats(statsPlayer1) + randomValPlayer1 */\n      swap1\n      pop\n        /* \"src/FightLogic.sol\":1571:1591  uint256 scorePlayer2 */\n      0x00\n        /* \"src/FightLogic.sol\":1619:1635  randomValPlayer2 */\n      dup3\n        /* \"src/FightLogic.sol\":1594:1616  sumStats(statsPlayer2) */\n      tag_51\n        /* \"src/FightLogic.sol\":1603:1615  statsPlayer2 */\n      dup11\n        /* \"src/FightLogic.sol\":1594:1602  sumStats */\n      tag_49\n        /* \"src/FightLogic.sol\":1594:1616  sumStats(statsPlayer2) */\n      jump\t// in\n    tag_51:\n        /* \"src/FightLogic.sol\":1594:1635  sumStats(statsPlayer2) + randomValPlayer2 */\n      tag_52\n      swap2\n      swap1\n      tag_45\n      jump\t// in\n    tag_52:\n        /* \"src/FightLogic.sol\":1571:1635  uint256 scorePlayer2 = sumStats(statsPlayer2) + randomValPlayer2 */\n      swap1\n      pop\n        /* \"src/FightLogic.sol\":1665:1677  scorePlayer2 */\n      dup1\n        /* \"src/FightLogic.sol\":1650:1662  scorePlayer1 */\n      dup3\n        /* \"src/FightLogic.sol\":1650:1677  scorePlayer1 > scorePlayer2 */\n      gt\n        /* \"src/FightLogic.sol\":1646:1849  if (scorePlayer1 > scorePlayer2) {... */\n      iszero\n      tag_53\n      jumpi\n        /* \"src/FightLogic.sol\":1700:1707  player1 */\n      dup13\n        /* \"src/FightLogic.sol\":1693:1707  return player1 */\n      swap11\n      pop\n      pop\n      pop\n      pop\n      pop\n      pop\n      pop\n      pop\n      pop\n      pop\n      pop\n      jump(tag_15)\n        /* \"src/FightLogic.sol\":1646:1849  if (scorePlayer1 > scorePlayer2) {... */\n    tag_53:\n        /* \"src/FightLogic.sol\":1743:1755  scorePlayer1 */\n      dup2\n        /* \"src/FightLogic.sol\":1728:1740  scorePlayer2 */\n      dup2\n        /* \"src/FightLogic.sol\":1728:1755  scorePlayer2 > scorePlayer1 */\n      gt\n        /* \"src/FightLogic.sol\":1724:1849  if (scorePlayer2 > scorePlayer1) {... */\n      iszero\n      tag_55\n      jumpi\n        /* \"src/FightLogic.sol\":1778:1785  player2 */\n      dup12\n        /* \"src/FightLogic.sol\":1771:1785  return player2 */\n      swap11\n      pop\n      pop\n      pop\n      pop\n      pop\n      pop\n      pop\n      pop\n      pop\n      pop\n      pop\n      jump(tag_15)\n        /* \"src/FightLogic.sol\":1724:1849  if (scorePlayer2 > scorePlayer1) {... */\n    tag_55:\n        /* \"src/FightLogic.sol\":1823:1824  0 */\n      0x00\n        /* \"src/FightLogic.sol\":1816:1824  return 0 */\n      swap11\n      pop\n      pop\n      pop\n      pop\n      pop\n      pop\n      pop\n      pop\n      pop\n      pop\n      pop\n        /* \"src/FightLogic.sol\":600:1855  function fight(... */\n    tag_15:\n      swap3\n      swap2\n      pop\n      pop\n      jump\t// out\n        /* \"src/FightLogic.sol\":430:594  function setOctagon(IOctagon _octagon) external {... */\n    tag_14:\n        /* \"src/FightLogic.sol\":524:525  0 */\n      0x00\n        /* \"src/FightLogic.sol\":504:511  octagon */\n      sload\n      sub(shl(0xa0, 0x01), 0x01)\n      and\n        /* \"src/FightLogic.sol\":496:526  address(octagon) == address(0) */\n      iszero\n        /* \"src/FightLogic.sol\":488:559  require(address(octagon) == address(0), \"Octagon has been set already\") */\n      tag_58\n      jumpi\n      mload(0x40)\n      shl(0xe5, 0x461bcd)\n      dup2\n      mstore\n        /* \"#utility.yul\":4823:4825   */\n      0x20\n        /* \"src/FightLogic.sol\":488:559  require(address(octagon) == address(0), \"Octagon has been set already\") */\n      0x04\n      dup3\n      add\n        /* \"#utility.yul\":4805:4826   */\n      mstore\n        /* \"#utility.yul\":4862:4864   */\n      0x1c\n        /* \"#utility.yul\":4842:4860   */\n      0x24\n      dup3\n      add\n        /* \"#utility.yul\":4835:4865   */\n      mstore\n        /* \"#utility.yul\":4901:4931   */\n      0x4f637461676f6e20686173206265656e2073657420616c726561647900000000\n        /* \"#utility.yul\":4881:4899   */\n      0x44\n      dup3\n      add\n        /* \"#utility.yul\":4874:4932   */\n      mstore\n        /* \"#utility.yul\":4949:4967   */\n      0x64\n      add\n        /* \"src/FightLogic.sol\":488:559  require(address(octagon) == address(0), \"Octagon has been set already\") */\n      mload(0x40)\n      dup1\n      swap2\n      sub\n      swap1\n      revert\n    tag_58:\n        /* \"src/FightLogic.sol\":569:576  octagon */\n      0x00\n        /* \"src/FightLogic.sol\":569:587  octagon = _octagon */\n      dup1\n      sload\n      not(sub(shl(0xa0, 0x01), 0x01))\n      and\n      sub(shl(0xa0, 0x01), 0x01)\n      swap3\n      swap1\n      swap3\n      and\n      swap2\n      swap1\n      swap2\n      or\n      swap1\n      sstore\n        /* \"src/FightLogic.sol\":430:594  function setOctagon(IOctagon _octagon) external {... */\n      jump\t// out\n        /* \"src/FightLogic.sol\":1861:2086  function sumStats(BillionaireStats memory stat) internal pure returns (uint256) {... */\n    tag_49:\n        /* \"src/FightLogic.sol\":1932:1939  uint256 */\n      0x00\n        /* \"src/FightLogic.sol\":1951:1966  uint256 empathy */\n      dup1\n        /* \"src/FightLogic.sol\":1969:1995  empathyScore(stat.empathy) */\n      tag_62\n        /* \"src/FightLogic.sol\":1982:1986  stat */\n      dup4\n        /* \"src/FightLogic.sol\":1982:1994  stat.empathy */\n      0x80\n      add\n      mload\n        /* \"src/FightLogic.sol\":1969:1981  empathyScore */\n      tag_63\n        /* \"src/FightLogic.sol\":1969:1995  empathyScore(stat.empathy) */\n      jump\t// in\n    tag_62:\n        /* \"src/FightLogic.sol\":1951:1995  uint256 empathy = empathyScore(stat.empathy) */\n      swap1\n      pop\n        /* \"src/FightLogic.sol\":2066:2070  stat */\n      dup3\n        /* \"src/FightLogic.sol\":2066:2079  stat.strength */\n      0x60\n      add\n      mload\n        /* \"src/FightLogic.sol\":2051:2055  stat */\n      dup4\n        /* \"src/FightLogic.sol\":2051:2063  stat.stamina */\n      0xa0\n      add\n      mload\n        /* \"src/FightLogic.sol\":2041:2048  empathy */\n      dup3\n        /* \"src/FightLogic.sol\":2025:2029  stat */\n      dup6\n        /* \"src/FightLogic.sol\":2025:2038  stat.charisma */\n      0x40\n      add\n      mload\n        /* \"src/FightLogic.sol\":2012:2016  stat */\n      dup7\n        /* \"src/FightLogic.sol\":2012:2022  stat.money */\n      0x20\n      add\n      mload\n        /* \"src/FightLogic.sol\":2012:2038  stat.money + stat.charisma */\n      tag_64\n      swap2\n      swap1\n      tag_45\n      jump\t// in\n    tag_64:\n        /* \"src/FightLogic.sol\":2012:2048  stat.money + stat.charisma + empathy */\n      tag_65\n      swap2\n      swap1\n      tag_45\n      jump\t// in\n    tag_65:\n        /* \"src/FightLogic.sol\":2012:2063  stat.money + stat.charisma + empathy + stat.stamina */\n      tag_66\n      swap2\n      swap1\n      tag_45\n      jump\t// in\n    tag_66:\n        /* \"src/FightLogic.sol\":2012:2079  stat.money + stat.charisma + empathy + stat.stamina + stat.strength */\n      tag_67\n      swap2\n      swap1\n      tag_45\n      jump\t// in\n    tag_67:\n        /* \"src/FightLogic.sol\":2005:2079  return stat.money + stat.charisma + empathy + stat.stamina + stat.strength */\n      swap4\n        /* \"src/FightLogic.sol\":1861:2086  function sumStats(BillionaireStats memory stat) internal pure returns (uint256) {... */\n      swap3\n      pop\n      pop\n      pop\n      jump\t// out\n        /* \"src/FightLogic.sol\":2092:2243  function empathyScore(uint256 _val) internal pure returns (uint256) {... */\n    tag_63:\n        /* \"src/FightLogic.sol\":2151:2158  uint256 */\n      0x00\n      dup1\n        /* \"src/FightLogic.sol\":2184:2209  _val * EMPATHY_MULTIPLIER */\n      tag_69\n        /* \"src/FightLogic.sol\":282:284  15 */\n      0x0f\n        /* \"src/FightLogic.sol\":2184:2188  _val */\n      dup5\n        /* \"src/FightLogic.sol\":2184:2209  _val * EMPATHY_MULTIPLIER */\n      tag_70\n      jump\t// in\n    tag_69:\n        /* \"src/FightLogic.sol\":2170:2209  uint256 res = _val * EMPATHY_MULTIPLIER */\n      swap1\n      pop\n        /* \"src/FightLogic.sol\":2227:2235  res / 10 */\n      tag_67\n        /* \"src/FightLogic.sol\":2233:2235  10 */\n      0x0a\n        /* \"src/FightLogic.sol\":2170:2209  uint256 res = _val * EMPATHY_MULTIPLIER */\n      dup3\n        /* \"src/FightLogic.sol\":2227:2235  res / 10 */\n      tag_72\n      jump\t// in\n        /* \"#utility.yul\":14:262   */\n    tag_7:\n        /* \"#utility.yul\":82:88   */\n      0x00\n        /* \"#utility.yul\":90:96   */\n      dup1\n        /* \"#utility.yul\":143:145   */\n      0x40\n        /* \"#utility.yul\":131:140   */\n      dup4\n        /* \"#utility.yul\":122:129   */\n      dup6\n        /* \"#utility.yul\":118:141   */\n      sub\n        /* \"#utility.yul\":114:146   */\n      slt\n        /* \"#utility.yul\":111:163   */\n      iszero\n      tag_77\n      jumpi\n        /* \"#utility.yul\":159:160   */\n      0x00\n        /* \"#utility.yul\":156:157   */\n      dup1\n        /* \"#utility.yul\":149:161   */\n      revert\n        /* \"#utility.yul\":111:163   */\n    tag_77:\n      pop\n      pop\n        /* \"#utility.yul\":182:205   */\n      dup1\n      calldataload\n      swap3\n        /* \"#utility.yul\":252:254   */\n      0x20\n        /* \"#utility.yul\":237:255   */\n      swap1\n      swap2\n      add\n        /* \"#utility.yul\":224:256   */\n      calldataload\n      swap2\n      pop\n        /* \"#utility.yul\":14:262   */\n      jump\t// out\n        /* \"#utility.yul\":449:751   */\n    tag_13:\n        /* \"#utility.yul\":524:530   */\n      0x00\n        /* \"#utility.yul\":577:579   */\n      0x20\n        /* \"#utility.yul\":565:574   */\n      dup3\n        /* \"#utility.yul\":556:563   */\n      dup5\n        /* \"#utility.yul\":552:575   */\n      sub\n        /* \"#utility.yul\":548:580   */\n      slt\n        /* \"#utility.yul\":545:597   */\n      iszero\n      tag_80\n      jumpi\n        /* \"#utility.yul\":593:594   */\n      0x00\n        /* \"#utility.yul\":590:591   */\n      dup1\n        /* \"#utility.yul\":583:595   */\n      revert\n        /* \"#utility.yul\":545:597   */\n    tag_80:\n        /* \"#utility.yul\":619:642   */\n      dup2\n      calldataload\n      sub(shl(0xa0, 0x01), 0x01)\n        /* \"#utility.yul\":671:702   */\n      dup2\n      and\n        /* \"#utility.yul\":661:703   */\n      dup2\n      eq\n        /* \"#utility.yul\":651:721   */\n      tag_67\n      jumpi\n        /* \"#utility.yul\":717:718   */\n      0x00\n        /* \"#utility.yul\":714:715   */\n      dup1\n        /* \"#utility.yul\":707:719   */\n      revert\n        /* \"#utility.yul\":756:1741   */\n    tag_20:\n        /* \"#utility.yul\":859:865   */\n      0x00\n        /* \"#utility.yul\":912:915   */\n      0xe0\n        /* \"#utility.yul\":900:909   */\n      dup3\n        /* \"#utility.yul\":891:898   */\n      dup5\n        /* \"#utility.yul\":887:910   */\n      sub\n        /* \"#utility.yul\":883:916   */\n      slt\n        /* \"#utility.yul\":880:933   */\n      iszero\n      tag_83\n      jumpi\n        /* \"#utility.yul\":929:930   */\n      0x00\n        /* \"#utility.yul\":926:927   */\n      dup1\n        /* \"#utility.yul\":919:931   */\n      revert\n        /* \"#utility.yul\":880:933   */\n    tag_83:\n        /* \"#utility.yul\":962:964   */\n      0x40\n        /* \"#utility.yul\":956:965   */\n      mload\n        /* \"#utility.yul\":1004:1007   */\n      0xe0\n        /* \"#utility.yul\":996:1002   */\n      dup2\n        /* \"#utility.yul\":992:1008   */\n      add\n        /* \"#utility.yul\":1074:1080   */\n      dup2\n        /* \"#utility.yul\":1062:1072   */\n      dup2\n        /* \"#utility.yul\":1059:1081   */\n      lt\n        /* \"#utility.yul\":1038:1056   */\n      0xffffffffffffffff\n        /* \"#utility.yul\":1026:1036   */\n      dup3\n        /* \"#utility.yul\":1023:1057   */\n      gt\n        /* \"#utility.yul\":1020:1082   */\n      or\n        /* \"#utility.yul\":1017:1202   */\n      iszero\n      tag_84\n      jumpi\n        /* \"#utility.yul\":1124:1134   */\n      0x4e487b71\n        /* \"#utility.yul\":1119:1122   */\n      0xe0\n        /* \"#utility.yul\":1115:1135   */\n      shl\n        /* \"#utility.yul\":1112:1113   */\n      0x00\n        /* \"#utility.yul\":1105:1136   */\n      mstore\n        /* \"#utility.yul\":1159:1163   */\n      0x41\n        /* \"#utility.yul\":1156:1157   */\n      0x04\n        /* \"#utility.yul\":1149:1164   */\n      mstore\n        /* \"#utility.yul\":1187:1191   */\n      0x24\n        /* \"#utility.yul\":1184:1185   */\n      0x00\n        /* \"#utility.yul\":1177:1192   */\n      revert\n        /* \"#utility.yul\":1017:1202   */\n    tag_84:\n        /* \"#utility.yul\":1218:1220   */\n      0x40\n        /* \"#utility.yul\":1211:1233   */\n      mstore\n        /* \"#utility.yul\":1255:1271   */\n      dup3\n      mload\n        /* \"#utility.yul\":1300:1301   */\n      0x06\n        /* \"#utility.yul\":1290:1302   */\n      dup2\n      lt\n        /* \"#utility.yul\":1280:1320   */\n      tag_85\n      jumpi\n        /* \"#utility.yul\":1316:1317   */\n      0x00\n        /* \"#utility.yul\":1313:1314   */\n      dup1\n        /* \"#utility.yul\":1306:1318   */\n      revert\n        /* \"#utility.yul\":1280:1320   */\n    tag_85:\n        /* \"#utility.yul\":1344:1349   */\n      dup1\n        /* \"#utility.yul\":1336:1342   */\n      dup3\n        /* \"#utility.yul\":1329:1350   */\n      mstore\n      pop\n        /* \"#utility.yul\":1404:1406   */\n      0x20\n        /* \"#utility.yul\":1393:1402   */\n      dup4\n        /* \"#utility.yul\":1389:1407   */\n      add\n        /* \"#utility.yul\":1383:1408   */\n      mload\n        /* \"#utility.yul\":1378:1380   */\n      0x20\n        /* \"#utility.yul\":1370:1376   */\n      dup3\n        /* \"#utility.yul\":1366:1381   */\n      add\n        /* \"#utility.yul\":1359:1409   */\n      mstore\n        /* \"#utility.yul\":1463:1465   */\n      0x40\n        /* \"#utility.yul\":1452:1461   */\n      dup4\n        /* \"#utility.yul\":1448:1466   */\n      add\n        /* \"#utility.yul\":1442:1467   */\n      mload\n        /* \"#utility.yul\":1437:1439   */\n      0x40\n        /* \"#utility.yul\":1429:1435   */\n      dup3\n        /* \"#utility.yul\":1425:1440   */\n      add\n        /* \"#utility.yul\":1418:1468   */\n      mstore\n        /* \"#utility.yul\":1522:1524   */\n      0x60\n        /* \"#utility.yul\":1511:1520   */\n      dup4\n        /* \"#utility.yul\":1507:1525   */\n      add\n        /* \"#utility.yul\":1501:1526   */\n      mload\n        /* \"#utility.yul\":1496:1498   */\n      0x60\n        /* \"#utility.yul\":1488:1494   */\n      dup3\n        /* \"#utility.yul\":1484:1499   */\n      add\n        /* \"#utility.yul\":1477:1527   */\n      mstore\n        /* \"#utility.yul\":1582:1585   */\n      0x80\n        /* \"#utility.yul\":1571:1580   */\n      dup4\n        /* \"#utility.yul\":1567:1586   */\n      add\n        /* \"#utility.yul\":1561:1587   */\n      mload\n        /* \"#utility.yul\":1555:1558   */\n      0x80\n        /* \"#utility.yul\":1547:1553   */\n      dup3\n        /* \"#utility.yul\":1543:1559   */\n      add\n        /* \"#utility.yul\":1536:1588   */\n      mstore\n        /* \"#utility.yul\":1643:1646   */\n      0xa0\n        /* \"#utility.yul\":1632:1641   */\n      dup4\n        /* \"#utility.yul\":1628:1647   */\n      add\n        /* \"#utility.yul\":1622:1648   */\n      mload\n        /* \"#utility.yul\":1616:1619   */\n      0xa0\n        /* \"#utility.yul\":1608:1614   */\n      dup3\n        /* \"#utility.yul\":1604:1620   */\n      add\n        /* \"#utility.yul\":1597:1649   */\n      mstore\n        /* \"#utility.yul\":1704:1707   */\n      0xc0\n        /* \"#utility.yul\":1693:1702   */\n      dup4\n        /* \"#utility.yul\":1689:1708   */\n      add\n        /* \"#utility.yul\":1683:1709   */\n      mload\n        /* \"#utility.yul\":1677:1680   */\n      0xc0\n        /* \"#utility.yul\":1669:1675   */\n      dup3\n        /* \"#utility.yul\":1665:1681   */\n      add\n        /* \"#utility.yul\":1658:1710   */\n      mstore\n        /* \"#utility.yul\":1729:1735   */\n      dup1\n        /* \"#utility.yul\":1719:1735   */\n      swap2\n      pop\n      pop\n        /* \"#utility.yul\":756:1741   */\n      swap3\n      swap2\n      pop\n      pop\n      jump\t// out\n        /* \"#utility.yul\":1746:2643   */\n    tag_29:\n        /* \"#utility.yul\":1845:1851   */\n      0x00\n        /* \"#utility.yul\":1898:1901   */\n      0x80\n        /* \"#utility.yul\":1886:1895   */\n      dup3\n        /* \"#utility.yul\":1877:1884   */\n      dup5\n        /* \"#utility.yul\":1873:1896   */\n      sub\n        /* \"#utility.yul\":1869:1902   */\n      slt\n        /* \"#utility.yul\":1866:1919   */\n      iszero\n      tag_87\n      jumpi\n        /* \"#utility.yul\":1915:1916   */\n      0x00\n        /* \"#utility.yul\":1912:1913   */\n      dup1\n        /* \"#utility.yul\":1905:1917   */\n      revert\n        /* \"#utility.yul\":1866:1919   */\n    tag_87:\n        /* \"#utility.yul\":1948:1950   */\n      0x40\n        /* \"#utility.yul\":1942:1951   */\n      mload\n        /* \"#utility.yul\":1990:1993   */\n      0x80\n        /* \"#utility.yul\":1982:1988   */\n      dup2\n        /* \"#utility.yul\":1978:1994   */\n      add\n        /* \"#utility.yul\":2060:2066   */\n      dup2\n        /* \"#utility.yul\":2048:2058   */\n      dup2\n        /* \"#utility.yul\":2045:2067   */\n      lt\n        /* \"#utility.yul\":2024:2042   */\n      0xffffffffffffffff\n        /* \"#utility.yul\":2012:2022   */\n      dup3\n        /* \"#utility.yul\":2009:2043   */\n      gt\n        /* \"#utility.yul\":2006:2068   */\n      or\n        /* \"#utility.yul\":2003:2188   */\n      iszero\n      tag_88\n      jumpi\n        /* \"#utility.yul\":2110:2120   */\n      0x4e487b71\n        /* \"#utility.yul\":2105:2108   */\n      0xe0\n        /* \"#utility.yul\":2101:2121   */\n      shl\n        /* \"#utility.yul\":2098:2099   */\n      0x00\n        /* \"#utility.yul\":2091:2122   */\n      mstore\n        /* \"#utility.yul\":2145:2149   */\n      0x41\n        /* \"#utility.yul\":2142:2143   */\n      0x04\n        /* \"#utility.yul\":2135:2150   */\n      mstore\n        /* \"#utility.yul\":2173:2177   */\n      0x24\n        /* \"#utility.yul\":2170:2171   */\n      0x00\n        /* \"#utility.yul\":2163:2178   */\n      revert\n        /* \"#utility.yul\":2003:2188   */\n    tag_88:\n        /* \"#utility.yul\":2204:2206   */\n      0x40\n        /* \"#utility.yul\":2197:2219   */\n      mstore\n        /* \"#utility.yul\":2241:2257   */\n      dup3\n      mload\n        /* \"#utility.yul\":2286:2287   */\n      0x03\n        /* \"#utility.yul\":2276:2288   */\n      dup2\n      lt\n        /* \"#utility.yul\":2266:2306   */\n      tag_89\n      jumpi\n        /* \"#utility.yul\":2302:2303   */\n      0x00\n        /* \"#utility.yul\":2299:2300   */\n      dup1\n        /* \"#utility.yul\":2292:2304   */\n      revert\n        /* \"#utility.yul\":2266:2306   */\n    tag_89:\n        /* \"#utility.yul\":2315:2336   */\n      dup2\n      mstore\n        /* \"#utility.yul\":2381:2383   */\n      0x20\n        /* \"#utility.yul\":2366:2384   */\n      dup4\n      add\n        /* \"#utility.yul\":2360:2385   */\n      mload\n        /* \"#utility.yul\":2429:2433   */\n      0xff\n        /* \"#utility.yul\":2416:2434   */\n      dup2\n      and\n        /* \"#utility.yul\":2404:2435   */\n      dup2\n      eq\n        /* \"#utility.yul\":2394:2453   */\n      tag_90\n      jumpi\n        /* \"#utility.yul\":2449:2450   */\n      0x00\n        /* \"#utility.yul\":2446:2447   */\n      dup1\n        /* \"#utility.yul\":2439:2451   */\n      revert\n        /* \"#utility.yul\":2394:2453   */\n    tag_90:\n        /* \"#utility.yul\":2481:2483   */\n      0x20\n        /* \"#utility.yul\":2469:2484   */\n      dup3\n      add\n        /* \"#utility.yul\":2462:2494   */\n      mstore\n        /* \"#utility.yul\":2548:2550   */\n      0x40\n        /* \"#utility.yul\":2533:2551   */\n      dup4\n      dup2\n      add\n        /* \"#utility.yul\":2527:2552   */\n      mload\n        /* \"#utility.yul\":2510:2525   */\n      swap1\n      dup3\n      add\n        /* \"#utility.yul\":2503:2553   */\n      mstore\n        /* \"#utility.yul\":2607:2609   */\n      0x60\n        /* \"#utility.yul\":2592:2610   */\n      swap3\n      dup4\n      add\n        /* \"#utility.yul\":2586:2611   */\n      mload\n        /* \"#utility.yul\":2569:2584   */\n      swap3\n      dup2\n      add\n        /* \"#utility.yul\":2562:2612   */\n      swap3\n      swap1\n      swap3\n      mstore\n      pop\n        /* \"#utility.yul\":2473:2479   */\n      swap2\n        /* \"#utility.yul\":1746:2643   */\n      swap1\n      pop\n      jump\t// out\n        /* \"#utility.yul\":2648:2992   */\n    tag_31:\n        /* \"#utility.yul\":2796:2798   */\n      0x20\n        /* \"#utility.yul\":2781:2799   */\n      dup2\n      add\n        /* \"#utility.yul\":2829:2830   */\n      0x03\n        /* \"#utility.yul\":2818:2831   */\n      dup4\n      lt\n        /* \"#utility.yul\":2808:2952   */\n      tag_92\n      jumpi\n        /* \"#utility.yul\":2874:2884   */\n      0x4e487b71\n        /* \"#utility.yul\":2869:2872   */\n      0xe0\n        /* \"#utility.yul\":2865:2885   */\n      shl\n        /* \"#utility.yul\":2862:2863   */\n      0x00\n        /* \"#utility.yul\":2855:2886   */\n      mstore\n        /* \"#utility.yul\":2909:2913   */\n      0x21\n        /* \"#utility.yul\":2906:2907   */\n      0x04\n        /* \"#utility.yul\":2899:2914   */\n      mstore\n        /* \"#utility.yul\":2937:2941   */\n      0x24\n        /* \"#utility.yul\":2934:2935   */\n      0x00\n        /* \"#utility.yul\":2927:2942   */\n      revert\n        /* \"#utility.yul\":2808:2952   */\n    tag_92:\n        /* \"#utility.yul\":2961:2986   */\n      swap2\n      swap1\n      mstore\n        /* \"#utility.yul\":2648:2992   */\n      swap1\n      jump\t// out\n        /* \"#utility.yul\":2997:3655   */\n    tag_35:\n        /* \"#utility.yul\":3093:3099   */\n      0x00\n        /* \"#utility.yul\":3146:3148   */\n      0x60\n        /* \"#utility.yul\":3134:3143   */\n      dup3\n        /* \"#utility.yul\":3125:3132   */\n      dup5\n        /* \"#utility.yul\":3121:3144   */\n      sub\n        /* \"#utility.yul\":3117:3149   */\n      slt\n        /* \"#utility.yul\":3114:3166   */\n      iszero\n      tag_94\n      jumpi\n        /* \"#utility.yul\":3162:3163   */\n      0x00\n        /* \"#utility.yul\":3159:3160   */\n      dup1\n        /* \"#utility.yul\":3152:3164   */\n      revert\n        /* \"#utility.yul\":3114:3166   */\n    tag_94:\n        /* \"#utility.yul\":3195:3197   */\n      0x40\n        /* \"#utility.yul\":3189:3198   */\n      mload\n        /* \"#utility.yul\":3237:3239   */\n      0x60\n        /* \"#utility.yul\":3229:3235   */\n      dup2\n        /* \"#utility.yul\":3225:3240   */\n      add\n        /* \"#utility.yul\":3306:3312   */\n      dup2\n        /* \"#utility.yul\":3294:3304   */\n      dup2\n        /* \"#utility.yul\":3291:3313   */\n      lt\n        /* \"#utility.yul\":3270:3288   */\n      0xffffffffffffffff\n        /* \"#utility.yul\":3258:3268   */\n      dup3\n        /* \"#utility.yul\":3255:3289   */\n      gt\n        /* \"#utility.yul\":3252:3314   */\n      or\n        /* \"#utility.yul\":3249:3434   */\n      iszero\n      tag_95\n      jumpi\n        /* \"#utility.yul\":3356:3366   */\n      0x4e487b71\n        /* \"#utility.yul\":3351:3354   */\n      0xe0\n        /* \"#utility.yul\":3347:3367   */\n      shl\n        /* \"#utility.yul\":3344:3345   */\n      0x00\n        /* \"#utility.yul\":3337:3368   */\n      mstore\n        /* \"#utility.yul\":3391:3395   */\n      0x41\n        /* \"#utility.yul\":3388:3389   */\n      0x04\n        /* \"#utility.yul\":3381:3396   */\n      mstore\n        /* \"#utility.yul\":3419:3423   */\n      0x24\n        /* \"#utility.yul\":3416:3417   */\n      0x00\n        /* \"#utility.yul\":3409:3424   */\n      revert\n        /* \"#utility.yul\":3249:3434   */\n    tag_95:\n        /* \"#utility.yul\":3454:3464   */\n      dup1\n        /* \"#utility.yul\":3450:3452   */\n      0x40\n        /* \"#utility.yul\":3443:3465   */\n      mstore\n      pop\n        /* \"#utility.yul\":3495:3504   */\n      dup3\n        /* \"#utility.yul\":3489:3505   */\n      mload\n        /* \"#utility.yul\":3481:3487   */\n      dup2\n        /* \"#utility.yul\":3474:3506   */\n      mstore\n        /* \"#utility.yul\":3560:3562   */\n      0x20\n        /* \"#utility.yul\":3549:3558   */\n      dup4\n        /* \"#utility.yul\":3545:3563   */\n      add\n        /* \"#utility.yul\":3539:3564   */\n      mload\n        /* \"#utility.yul\":3534:3536   */\n      0x20\n        /* \"#utility.yul\":3526:3532   */\n      dup3\n        /* \"#utility.yul\":3522:3537   */\n      add\n        /* \"#utility.yul\":3515:3565   */\n      mstore\n        /* \"#utility.yul\":3619:3621   */\n      0x40\n        /* \"#utility.yul\":3608:3617   */\n      dup4\n        /* \"#utility.yul\":3604:3622   */\n      add\n        /* \"#utility.yul\":3598:3623   */\n      mload\n        /* \"#utility.yul\":3593:3595   */\n      0x40\n        /* \"#utility.yul\":3585:3591   */\n      dup3\n        /* \"#utility.yul\":3581:3596   */\n      add\n        /* \"#utility.yul\":3574:3624   */\n      mstore\n        /* \"#utility.yul\":3643:3649   */\n      dup1\n        /* \"#utility.yul\":3633:3649   */\n      swap2\n      pop\n      pop\n        /* \"#utility.yul\":2997:3655   */\n      swap3\n      swap2\n      pop\n      pop\n      jump\t// out\n        /* \"#utility.yul\":3660:3787   */\n    tag_73:\n        /* \"#utility.yul\":3721:3731   */\n      0x4e487b71\n        /* \"#utility.yul\":3716:3719   */\n      0xe0\n        /* \"#utility.yul\":3712:3732   */\n      shl\n        /* \"#utility.yul\":3709:3710   */\n      0x00\n        /* \"#utility.yul\":3702:3733   */\n      mstore\n        /* \"#utility.yul\":3752:3756   */\n      0x11\n        /* \"#utility.yul\":3749:3750   */\n      0x04\n        /* \"#utility.yul\":3742:3757   */\n      mstore\n        /* \"#utility.yul\":3776:3780   */\n      0x24\n        /* \"#utility.yul\":3773:3774   */\n      0x00\n        /* \"#utility.yul\":3766:3781   */\n      revert\n        /* \"#utility.yul\":3792:3920   */\n    tag_37:\n        /* \"#utility.yul\":3859:3868   */\n      dup2\n      dup2\n      sub\n        /* \"#utility.yul\":3880:3891   */\n      dup2\n      dup2\n      gt\n        /* \"#utility.yul\":3877:3914   */\n      iszero\n      tag_15\n      jumpi\n        /* \"#utility.yul\":3894:3912   */\n      tag_15\n      tag_73\n      jump\t// in\n        /* \"#utility.yul\":4242:4369   */\n    tag_74:\n        /* \"#utility.yul\":4303:4313   */\n      0x4e487b71\n        /* \"#utility.yul\":4298:4301   */\n      0xe0\n        /* \"#utility.yul\":4294:4314   */\n      shl\n        /* \"#utility.yul\":4291:4292   */\n      0x00\n        /* \"#utility.yul\":4284:4315   */\n      mstore\n        /* \"#utility.yul\":4334:4338   */\n      0x12\n        /* \"#utility.yul\":4331:4332   */\n      0x04\n        /* \"#utility.yul\":4324:4339   */\n      mstore\n        /* \"#utility.yul\":4358:4362   */\n      0x24\n        /* \"#utility.yul\":4355:4356   */\n      0x00\n        /* \"#utility.yul\":4348:4363   */\n      revert\n        /* \"#utility.yul\":4374:4486   */\n    tag_43:\n        /* \"#utility.yul\":4406:4407   */\n      0x00\n        /* \"#utility.yul\":4432:4433   */\n      dup3\n        /* \"#utility.yul\":4422:4457   */\n      tag_104\n      jumpi\n        /* \"#utility.yul\":4437:4455   */\n      tag_104\n      tag_74\n      jump\t// in\n    tag_104:\n      pop\n        /* \"#utility.yul\":4471:4480   */\n      mod\n      swap1\n        /* \"#utility.yul\":4374:4486   */\n      jump\t// out\n        /* \"#utility.yul\":4491:4616   */\n    tag_45:\n        /* \"#utility.yul\":4556:4565   */\n      dup1\n      dup3\n      add\n        /* \"#utility.yul\":4577:4587   */\n      dup1\n      dup3\n      gt\n        /* \"#utility.yul\":4574:4610   */\n      iszero\n      tag_15\n      jumpi\n        /* \"#utility.yul\":4590:4608   */\n      tag_15\n      tag_73\n      jump\t// in\n        /* \"#utility.yul\":4978:5146   */\n    tag_70:\n        /* \"#utility.yul\":5051:5060   */\n      dup1\n      dup3\n      mul\n        /* \"#utility.yul\":5082:5091   */\n      dup2\n      iszero\n        /* \"#utility.yul\":5099:5114   */\n      dup3\n      dup3\n      div\n        /* \"#utility.yul\":5093:5115   */\n      dup5\n      eq\n        /* \"#utility.yul\":5079:5116   */\n      or\n        /* \"#utility.yul\":5069:5140   */\n      tag_15\n      jumpi\n        /* \"#utility.yul\":5120:5138   */\n      tag_15\n      tag_73\n      jump\t// in\n        /* \"#utility.yul\":5151:5271   */\n    tag_72:\n        /* \"#utility.yul\":5191:5192   */\n      0x00\n        /* \"#utility.yul\":5217:5218   */\n      dup3\n        /* \"#utility.yul\":5207:5242   */\n      tag_114\n      jumpi\n        /* \"#utility.yul\":5222:5240   */\n      tag_114\n      tag_74\n      jump\t// in\n    tag_114:\n      pop\n        /* \"#utility.yul\":5256:5265   */\n      div\n      swap1\n        /* \"#utility.yul\":5151:5271   */\n      jump\t// out\n\n    auxdata: 0xa2646970667358221220bf5f4c4b82aa3fb027082c97f1930066fdabc589ba4820ce5c56b44507e4150764736f6c63430008160033\n}\n",
				"bytecode": {
					"linkReferences": {},
					"object": "60a060405234801561000f575f80fd5b506040516107d43803806107d483398101604081905261002e9161003f565b6001600160a01b031660805261006c565b5f6020828403121561004f575f80fd5b81516001600160a01b0381168114610065575f80fd5b9392505050565b60805161074a61008a5f395f818160940152610120015261074a5ff3fe608060405234801561000f575f80fd5b5060043610610034575f3560e01c8063ca39e5ef14610038578063fdfd80581461005d575b5f80fd5b61004b610046366004610496565b610072565b60405190815260200160405180910390f35b61007061006b3660046104b6565b6103aa565b005b604051631760945960e01b8152600481018390525f9081906001600160a01b037f0000000000000000000000000000000000000000000000000000000000000000169063176094599060240160e060405180830381865afa1580156100d9573d5f803e3d5ffd5b505050506040513d601f19601f820116820180604052508101906100fd91906104dc565b604051631760945960e01b8152600481018590529091505f906001600160a01b037f0000000000000000000000000000000000000000000000000000000000000000169063176094599060240160e060405180830381865afa158015610165573d5f803e3d5ffd5b505050506040513d601f19601f8201168201806040525081019061018991906104dc565b5f8054604051639fffc3dd60e01b81526004810188905292935090916001600160a01b0390911690639fffc3dd90602401608060405180830381865afa1580156101d5573d5f803e3d5ffd5b505050506040513d601f19601f820116820180604052508101906101f99190610576565b5f80548251604051636e37da1b60e01b815293945091926001600160a01b0390911691636e37da1b9161022f91906004016105fd565b606060405180830381865afa15801561024a573d5f803e3d5ffd5b505050506040513d601f19601f8201168201806040525081019061026e9190610623565b90505f61027c60014361069d565b604080519140602083015242908201526060810188905260800160408051601f19818403018152919052805160209091012090505f6102bc60014361069d565b60408051914060208301524290820152606081018a9052608001604051602081830303815290604052805190602001205f1c90505f836040015184602001518461030691906106c4565b61031091906106d7565b90505f846040015185602001518461032891906106c4565b61033291906106d7565b90505f8261033f8a610427565b61034991906106d7565b90505f826103568a610427565b61036091906106d7565b90508082111561037c578c9a50505050505050505050506103a4565b81811115610396578b9a50505050505050505050506103a4565b5f9a50505050505050505050505b92915050565b5f546001600160a01b0316156104065760405162461bcd60e51b815260206004820152601c60248201527f4f637461676f6e20686173206265656e2073657420616c726561647900000000604482015260640160405180910390fd5b5f80546001600160a01b0319166001600160a01b0392909216919091179055565b5f80610436836080015161047c565b905082606001518360a00151828560400151866020015161045791906106d7565b61046191906106d7565b61046b91906106d7565b61047591906106d7565b9392505050565b5f80610489600f846106ea565b9050610475600a82610701565b5f80604083850312156104a7575f80fd5b50508035926020909101359150565b5f602082840312156104c6575f80fd5b81356001600160a01b0381168114610475575f80fd5b5f60e082840312156104ec575f80fd5b60405160e0810181811067ffffffffffffffff8211171561051b57634e487b7160e01b5f52604160045260245ffd5b60405282516006811061052c575f80fd5b808252506020830151602082015260408301516040820152606083015160608201526080830151608082015260a083015160a082015260c083015160c08201528091505092915050565b5f60808284031215610586575f80fd5b6040516080810181811067ffffffffffffffff821117156105b557634e487b7160e01b5f52604160045260245ffd5b6040528251600381106105c6575f80fd5b8152602083015160ff811681146105db575f80fd5b6020820152604083810151908201526060928301519281019290925250919050565b602081016003831061061d57634e487b7160e01b5f52602160045260245ffd5b91905290565b5f60608284031215610633575f80fd5b6040516060810181811067ffffffffffffffff8211171561066257634e487b7160e01b5f52604160045260245ffd5b80604052508251815260208301516020820152604083015160408201528091505092915050565b634e487b7160e01b5f52601160045260245ffd5b818103818111156103a4576103a4610689565b634e487b7160e01b5f52601260045260245ffd5b5f826106d2576106d26106b0565b500690565b808201808211156103a4576103a4610689565b80820281158282048414176103a4576103a4610689565b5f8261070f5761070f6106b0565b50049056fea2646970667358221220bf5f4c4b82aa3fb027082c97f1930066fdabc589ba4820ce5c56b44507e4150764736f6c63430008160033",
					"opcodes": "PUSH1 0xA0 PUSH1 0x40 MSTORE CALLVALUE DUP1 ISZERO PUSH2 0xF JUMPI PUSH0 DUP1 REVERT JUMPDEST POP PUSH1 0x40 MLOAD PUSH2 0x7D4 CODESIZE SUB DUP1 PUSH2 0x7D4 DUP4 CODECOPY DUP2 ADD PUSH1 0x40 DUP2 SWAP1 MSTORE PUSH2 0x2E SWAP2 PUSH2 0x3F JUMP JUMPDEST PUSH1 0x1 PUSH1 0x1 PUSH1 0xA0 SHL SUB AND PUSH1 0x80 MSTORE PUSH2 0x6C JUMP JUMPDEST PUSH0 PUSH1 0x20 DUP3 DUP5 SUB SLT ISZERO PUSH2 0x4F JUMPI PUSH0 DUP1 REVERT JUMPDEST DUP2 MLOAD PUSH1 0x1 PUSH1 0x1 PUSH1 0xA0 SHL SUB DUP2 AND DUP2 EQ PUSH2 0x65 JUMPI PUSH0 DUP1 REVERT JUMPDEST SWAP4 SWAP3 POP POP POP JUMP JUMPDEST PUSH1 0x80 MLOAD PUSH2 0x74A PUSH2 0x8A PUSH0 CODECOPY PUSH0 DUP2 DUP2 PUSH1 0x94 ADD MSTORE PUSH2 0x120 ADD MSTORE PUSH2 0x74A PUSH0 RETURN INVALID PUSH1 0x80 PUSH1 0x40 MSTORE CALLVALUE DUP1 ISZERO PUSH2 0xF JUMPI PUSH0 DUP1 REVERT JUMPDEST POP PUSH1 0x4 CALLDATASIZE LT PUSH2 0x34 JUMPI PUSH0 CALLDATALOAD PUSH1 0xE0 SHR DUP1 PUSH4 0xCA39E5EF EQ PUSH2 0x38 JUMPI DUP1 PUSH4 0xFDFD8058 EQ PUSH2 0x5D JUMPI JUMPDEST PUSH0 DUP1 REVERT JUMPDEST PUSH2 0x4B PUSH2 0x46 CALLDATASIZE PUSH1 0x4 PUSH2 0x496 JUMP JUMPDEST PUSH2 0x72 JUMP JUMPDEST PUSH1 0x40 MLOAD SWAP1 DUP2 MSTORE PUSH1 0x20 ADD PUSH1 0x40 MLOAD DUP1 SWAP2 SUB SWAP1 RETURN JUMPDEST PUSH2 0x70 PUSH2 0x6B CALLDATASIZE PUSH1 0x4 PUSH2 0x4B6 JUMP JUMPDEST PUSH2 0x3AA JUMP JUMPDEST STOP JUMPDEST PUSH1 0x40 MLOAD PUSH4 0x17609459 PUSH1 0xE0 SHL DUP2 MSTORE PUSH1 0x4 DUP2 ADD DUP4 SWAP1 MSTORE PUSH0 SWAP1 DUP2 SWAP1 PUSH1 0x1 PUSH1 0x1 PUSH1 0xA0 SHL SUB PUSH32 0x0 AND SWAP1 PUSH4 0x17609459 SWAP1 PUSH1 0x24 ADD PUSH1 0xE0 PUSH1 0x40 MLOAD DUP1 DUP4 SUB DUP2 DUP7 GAS STATICCALL ISZERO DUP1 ISZERO PUSH2 0xD9 JUMPI RETURNDATASIZE PUSH0 DUP1 RETURNDATACOPY RETURNDATASIZE PUSH0 REVERT JUMPDEST POP POP POP POP PUSH1 0x40 MLOAD RETURNDATASIZE PUSH1 0x1F NOT PUSH1 0x1F DUP3 ADD AND DUP3 ADD DUP1 PUSH1 0x40 MSTORE POP DUP2 ADD SWAP1 PUSH2 0xFD SWAP2 SWAP1 PUSH2 0x4DC JUMP JUMPDEST PUSH1 0x40 MLOAD PUSH4 0x17609459 PUSH1 0xE0 SHL DUP2 MSTORE PUSH1 0x4 DUP2 ADD DUP6 SWAP1 MSTORE SWAP1 SWAP2 POP PUSH0 SWAP1 PUSH1 0x1 PUSH1 0x1 PUSH1 0xA0 SHL SUB PUSH32 0x0 AND SWAP1 PUSH4 0x17609459 SWAP1 PUSH1 0x24 ADD PUSH1 0xE0 PUSH1 0x40 MLOAD DUP1 DUP4 SUB DUP2 DUP7 GAS STATICCALL ISZERO DUP1 ISZERO PUSH2 0x165 JUMPI RETURNDATASIZE PUSH0 DUP1 RETURNDATACOPY RETURNDATASIZE PUSH0 REVERT JUMPDEST POP POP POP POP PUSH1 0x40 MLOAD RETURNDATASIZE PUSH1 0x1F NOT PUSH1 0x1F DUP3 ADD AND DUP3 ADD DUP1 PUSH1 0x40 MSTORE POP DUP2 ADD SWAP1 PUSH2 0x189 SWAP2 SWAP1 PUSH2 0x4DC JUMP JUMPDEST PUSH0 DUP1 SLOAD PUSH1 0x40 MLOAD PUSH4 0x9FFFC3DD PUSH1 0xE0 SHL DUP2 MSTORE PUSH1 0x4 DUP2 ADD DUP9 SWAP1 MSTORE SWAP3 SWAP4 POP SWAP1 SWAP2 PUSH1 0x1 PUSH1 0x1 PUSH1 0xA0 SHL SUB SWAP1 SWAP2 AND SWAP1 PUSH4 0x9FFFC3DD SWAP1 PUSH1 0x24 ADD PUSH1 0x80 PUSH1 0x40 MLOAD DUP1 DUP4 SUB DUP2 DUP7 GAS STATICCALL ISZERO DUP1 ISZERO PUSH2 0x1D5 JUMPI RETURNDATASIZE PUSH0 DUP1 RETURNDATACOPY RETURNDATASIZE PUSH0 REVERT JUMPDEST POP POP POP POP PUSH1 0x40 MLOAD RETURNDATASIZE PUSH1 0x1F NOT PUSH1 0x1F DUP3 ADD AND DUP3 ADD DUP1 PUSH1 0x40 MSTORE POP DUP2 ADD SWAP1 PUSH2 0x1F9 SWAP2 SWAP1 PUSH2 0x576 JUMP JUMPDEST PUSH0 DUP1 SLOAD DUP3 MLOAD PUSH1 0x40 MLOAD PUSH4 0x6E37DA1B PUSH1 0xE0 SHL DUP2 MSTORE SWAP4 SWAP5 POP SWAP2 SWAP3 PUSH1 0x1 PUSH1 0x1 PUSH1 0xA0 SHL SUB SWAP1 SWAP2 AND SWAP2 PUSH4 0x6E37DA1B SWAP2 PUSH2 0x22F SWAP2 SWAP1 PUSH1 0x4 ADD PUSH2 0x5FD JUMP JUMPDEST PUSH1 0x60 PUSH1 0x40 MLOAD DUP1 DUP4 SUB DUP2 DUP7 GAS STATICCALL ISZERO DUP1 ISZERO PUSH2 0x24A JUMPI RETURNDATASIZE PUSH0 DUP1 RETURNDATACOPY RETURNDATASIZE PUSH0 REVERT JUMPDEST POP POP POP POP PUSH1 0x40 MLOAD RETURNDATASIZE PUSH1 0x1F NOT PUSH1 0x1F DUP3 ADD AND DUP3 ADD DUP1 PUSH1 0x40 MSTORE POP DUP2 ADD SWAP1 PUSH2 0x26E SWAP2 SWAP1 PUSH2 0x623 JUMP JUMPDEST SWAP1 POP PUSH0 PUSH2 0x27C PUSH1 0x1 NUMBER PUSH2 0x69D JUMP JUMPDEST PUSH1 0x40 DUP1 MLOAD SWAP2 BLOCKHASH PUSH1 0x20 DUP4 ADD MSTORE TIMESTAMP SWAP1 DUP3 ADD MSTORE PUSH1 0x60 DUP2 ADD DUP9 SWAP1 MSTORE PUSH1 0x80 ADD PUSH1 0x40 DUP1 MLOAD PUSH1 0x1F NOT DUP2 DUP5 SUB ADD DUP2 MSTORE SWAP2 SWAP1 MSTORE DUP1 MLOAD PUSH1 0x20 SWAP1 SWAP2 ADD KECCAK256 SWAP1 POP PUSH0 PUSH2 0x2BC PUSH1 0x1 NUMBER PUSH2 0x69D JUMP JUMPDEST PUSH1 0x40 DUP1 MLOAD SWAP2 BLOCKHASH PUSH1 0x20 DUP4 ADD MSTORE TIMESTAMP SWAP1 DUP3 ADD MSTORE PUSH1 0x60 DUP2 ADD DUP11 SWAP1 MSTORE PUSH1 0x80 ADD PUSH1 0x40 MLOAD PUSH1 0x20 DUP2 DUP4 SUB SUB DUP2 MSTORE SWAP1 PUSH1 0x40 MSTORE DUP1 MLOAD SWAP1 PUSH1 0x20 ADD KECCAK256 PUSH0 SHR SWAP1 POP PUSH0 DUP4 PUSH1 0x40 ADD MLOAD DUP5 PUSH1 0x20 ADD MLOAD DUP5 PUSH2 0x306 SWAP2 SWAP1 PUSH2 0x6C4 JUMP JUMPDEST PUSH2 0x310 SWAP2 SWAP1 PUSH2 0x6D7 JUMP JUMPDEST SWAP1 POP PUSH0 DUP5 PUSH1 0x40 ADD MLOAD DUP6 PUSH1 0x20 ADD MLOAD DUP5 PUSH2 0x328 SWAP2 SWAP1 PUSH2 0x6C4 JUMP JUMPDEST PUSH2 0x332 SWAP2 SWAP1 PUSH2 0x6D7 JUMP JUMPDEST SWAP1 POP PUSH0 DUP3 PUSH2 0x33F DUP11 PUSH2 0x427 JUMP JUMPDEST PUSH2 0x349 SWAP2 SWAP1 PUSH2 0x6D7 JUMP JUMPDEST SWAP1 POP PUSH0 DUP3 PUSH2 0x356 DUP11 PUSH2 0x427 JUMP JUMPDEST PUSH2 0x360 SWAP2 SWAP1 PUSH2 0x6D7 JUMP JUMPDEST SWAP1 POP DUP1 DUP3 GT ISZERO PUSH2 0x37C JUMPI DUP13 SWAP11 POP POP POP POP POP POP POP POP POP POP POP PUSH2 0x3A4 JUMP JUMPDEST DUP2 DUP2 GT ISZERO PUSH2 0x396 JUMPI DUP12 SWAP11 POP POP POP POP POP POP POP POP POP POP POP PUSH2 0x3A4 JUMP JUMPDEST PUSH0 SWAP11 POP POP POP POP POP POP POP POP POP POP POP JUMPDEST SWAP3 SWAP2 POP POP JUMP JUMPDEST PUSH0 SLOAD PUSH1 0x1 PUSH1 0x1 PUSH1 0xA0 SHL SUB AND ISZERO PUSH2 0x406 JUMPI PUSH1 0x40 MLOAD PUSH3 0x461BCD PUSH1 0xE5 SHL DUP2 MSTORE PUSH1 0x20 PUSH1 0x4 DUP3 ADD MSTORE PUSH1 0x1C PUSH1 0x24 DUP3 ADD MSTORE PUSH32 0x4F637461676F6E20686173206265656E2073657420616C726561647900000000 PUSH1 0x44 DUP3 ADD MSTORE PUSH1 0x64 ADD PUSH1 0x40 MLOAD DUP1 SWAP2 SUB SWAP1 REVERT JUMPDEST PUSH0 DUP1 SLOAD PUSH1 0x1 PUSH1 0x1 PUSH1 0xA0 SHL SUB NOT AND PUSH1 0x1 PUSH1 0x1 PUSH1 0xA0 SHL SUB SWAP3 SWAP1 SWAP3 AND SWAP2 SWAP1 SWAP2 OR SWAP1 SSTORE JUMP JUMPDEST PUSH0 DUP1 PUSH2 0x436 DUP4 PUSH1 0x80 ADD MLOAD PUSH2 0x47C JUMP JUMPDEST SWAP1 POP DUP3 PUSH1 0x60 ADD MLOAD DUP4 PUSH1 0xA0 ADD MLOAD DUP3 DUP6 PUSH1 0x40 ADD MLOAD DUP7 PUSH1 0x20 ADD MLOAD PUSH2 0x457 SWAP2 SWAP1 PUSH2 0x6D7 JUMP JUMPDEST PUSH2 0x461 SWAP2 SWAP1 PUSH2 0x6D7 JUMP JUMPDEST PUSH2 0x46B SWAP2 SWAP1 PUSH2 0x6D7 JUMP JUMPDEST PUSH2 0x475 SWAP2 SWAP1 PUSH2 0x6D7 JUMP JUMPDEST SWAP4 SWAP3 POP POP POP JUMP JUMPDEST PUSH0 DUP1 PUSH2 0x489 PUSH1 0xF DUP5 PUSH2 0x6EA JUMP JUMPDEST SWAP1 POP PUSH2 0x475 PUSH1 0xA DUP3 PUSH2 0x701 JUMP JUMPDEST PUSH0 DUP1 PUSH1 0x40 DUP4 DUP6 SUB SLT ISZERO PUSH2 0x4A7 JUMPI PUSH0 DUP1 REVERT JUMPDEST POP POP DUP1 CALLDATALOAD SWAP3 PUSH1 0x20 SWAP1 SWAP2 ADD CALLDATALOAD SWAP2 POP JUMP JUMPDEST PUSH0 PUSH1 0x20 DUP3 DUP5 SUB SLT ISZERO PUSH2 0x4C6 JUMPI PUSH0 DUP1 REVERT JUMPDEST DUP2 CALLDATALOAD PUSH1 0x1 PUSH1 0x1 PUSH1 0xA0 SHL SUB DUP2 AND DUP2 EQ PUSH2 0x475 JUMPI PUSH0 DUP1 REVERT JUMPDEST PUSH0 PUSH1 0xE0 DUP3 DUP5 SUB SLT ISZERO PUSH2 0x4EC JUMPI PUSH0 DUP1 REVERT JUMPDEST PUSH1 0x40 MLOAD PUSH1 0xE0 DUP2 ADD DUP2 DUP2 LT PUSH8 0xFFFFFFFFFFFFFFFF DUP3 GT OR ISZERO PUSH2 0x51B JUMPI PUSH4 0x4E487B71 PUSH1 0xE0 SHL PUSH0 MSTORE PUSH1 0x41 PUSH1 0x4 MSTORE PUSH1 0x24 PUSH0 REVERT JUMPDEST PUSH1 0x40 MSTORE DUP3 MLOAD PUSH1 0x6 DUP2 LT PUSH2 0x52C JUMPI PUSH0 DUP1 REVERT JUMPDEST DUP1 DUP3 MSTORE POP PUSH1 0x20 DUP4 ADD MLOAD PUSH1 0x20 DUP3 ADD MSTORE PUSH1 0x40 DUP4 ADD MLOAD PUSH1 0x40 DUP3 ADD MSTORE PUSH1 0x60 DUP4 ADD MLOAD PUSH1 0x60 DUP3 ADD MSTORE PUSH1 0x80 DUP4 ADD MLOAD PUSH1 0x80 DUP3 ADD MSTORE PUSH1 0xA0 DUP4 ADD MLOAD PUSH1 0xA0 DUP3 ADD MSTORE PUSH1 0xC0 DUP4 ADD MLOAD PUSH1 0xC0 DUP3 ADD MSTORE DUP1 SWAP2 POP POP SWAP3 SWAP2 POP POP JUMP JUMPDEST PUSH0 PUSH1 0x80 DUP3 DUP5 SUB SLT ISZERO PUSH2 0x586 JUMPI PUSH0 DUP1 REVERT JUMPDEST PUSH1 0x40 MLOAD PUSH1 0x80 DUP2 ADD DUP2 DUP2 LT PUSH8 0xFFFFFFFFFFFFFFFF DUP3 GT OR ISZERO PUSH2 0x5B5 JUMPI PUSH4 0x4E487B71 PUSH1 0xE0 SHL PUSH0 MSTORE PUSH1 0x41 PUSH1 0x4 MSTORE PUSH1 0x24 PUSH0 REVERT JUMPDEST PUSH1 0x40 MSTORE DUP3 MLOAD PUSH1 0x3 DUP2 LT PUSH2 0x5C6 JUMPI PUSH0 DUP1 REVERT JUMPDEST DUP2 MSTORE PUSH1 0x20 DUP4 ADD MLOAD PUSH1 0xFF DUP2 AND DUP2 EQ PUSH2 0x5DB JUMPI PUSH0 DUP1 REVERT JUMPDEST PUSH1 0x20 DUP3 ADD MSTORE PUSH1 0x40 DUP4 DUP2 ADD MLOAD SWAP1 DUP3 ADD MSTORE PUSH1 0x60 SWAP3 DUP4 ADD MLOAD SWAP3 DUP2 ADD SWAP3 SWAP1 SWAP3 MSTORE POP SWAP2 SWAP1 POP JUMP JUMPDEST PUSH1 0x20 DUP2 ADD PUSH1 0x3 DUP4 LT PUSH2 0x61D JUMPI PUSH4 0x4E487B71 PUSH1 0xE0 SHL PUSH0 MSTORE PUSH1 0x21 PUSH1 0x4 MSTORE PUSH1 0x24 PUSH0 REVERT JUMPDEST SWAP2 SWAP1 MSTORE SWAP1 JUMP JUMPDEST PUSH0 PUSH1 0x60 DUP3 DUP5 SUB SLT ISZERO PUSH2 0x633 JUMPI PUSH0 DUP1 REVERT JUMPDEST PUSH1 0x40 MLOAD PUSH1 0x60 DUP2 ADD DUP2 DUP2 LT PUSH8 0xFFFFFFFFFFFFFFFF DUP3 GT OR ISZERO PUSH2 0x662 JUMPI PUSH4 0x4E487B71 PUSH1 0xE0 SHL PUSH0 MSTORE PUSH1 0x41 PUSH1 0x4 MSTORE PUSH1 0x24 PUSH0 REVERT JUMPDEST DUP1 PUSH1 0x40 MSTORE POP DUP3 MLOAD DUP2 MSTORE PUSH1 0x20 DUP4 ADD MLOAD PUSH1 0x20 DUP3 ADD MSTORE PUSH1 0x40 DUP4 ADD MLOAD PUSH1 0x40 DUP3 ADD MSTORE DUP1 SWAP2 POP POP SWAP3 SWAP2 POP POP JUMP JUMPDEST PUSH4 0x4E487B71 PUSH1 0xE0 SHL PUSH0 MSTORE PUSH1 0x11 PUSH1 0x4 MSTORE PUSH1 0x24 PUSH0 REVERT JUMPDEST DUP2 DUP2 SUB DUP2 DUP2 GT ISZERO PUSH2 0x3A4 JUMPI PUSH2 0x3A4 PUSH2 0x689 JUMP JUMPDEST PUSH4 0x4E487B71 PUSH1 0xE0 SHL PUSH0 MSTORE PUSH1 0x12 PUSH1 0x4 MSTORE PUSH1 0x24 PUSH0 REVERT JUMPDEST PUSH0 DUP3 PUSH2 0x6D2 JUMPI PUSH2 0x6D2 PUSH2 0x6B0 JUMP JUMPDEST POP MOD SWAP1 JUMP JUMPDEST DUP1 DUP3 ADD DUP1 DUP3 GT ISZERO PUSH2 0x3A4 JUMPI PUSH2 0x3A4 PUSH2 0x689 JUMP JUMPDEST DUP1 DUP3 MUL DUP2 ISZERO DUP3 DUP3 DIV DUP5 EQ OR PUSH2 0x3A4 JUMPI PUSH2 0x3A4 PUSH2 0x689 JUMP JUMPDEST PUSH0 DUP3 PUSH2 0x70F JUMPI PUSH2 0x70F PUSH2 0x6B0 JUMP JUMPDEST POP DIV SWAP1 JUMP INVALID LOG2 PUSH5 0x6970667358 0x22 SLT KECCAK256 0xBF PUSH0 0x4C 0x4B DUP3 0xAA EXTCODEHASH 0xB0 0x27 ADDMOD 0x2C SWAP8 CALL SWAP4 STOP PUSH7 0xFDABC589BA4820 0xCE 0x5C JUMP 0xB4 GASLIMIT SMOD 0xE4 ISZERO SMOD PUSH5 0x736F6C6343 STOP ADDMOD AND STOP CALLER "
				},
				"gasEstimates": {
					"creation": {
						"codeDepositCost": "373200",
						"executionCost": "infinite",
						"totalCost": "infinite"
					},
					"external": {
						"fight(uint256,uint256)": "infinite",
						"setOctagon(address)": "26670"
					},
					"internal": {
						"empathyScore(uint256)": "181",
						"sumStats(struct BillionaireStats memory)": "infinite"
					}
				},
				"methodIdentifiers": {
					"fight(uint256,uint256)": "ca39e5ef",
					"setOctagon(address)": "fdfd8058"
				}
			},
			"storageLayout": {
				"storage": [
					{
						"astId": 16,
						"contract": "src/FightLogic.sol:FightLogic",
						"label": "octagon",
						"offset": 0,
						"slot": "0",
						"type": "t_contract(IOctagon)479"
					}
				],
				"types": {
					"t_contract(IOctagon)479": {
						"encoding": "inplace",
						"label": "contract IOctagon",
						"numberOfBytes": "20"
					}
				}
			},
			"userdoc": {
				"kind": "user",
				"methods": {},
				"version": 1
			}
		}
	}
}