{
	"data": {
		"bytecode": {
			"linkReferences": {
				"src/Base64.sol": {
					"Base64": [
						{
							"length": 20,
							"start": 12419
						}
					]
				}
			},
			"object": "600a610140908152694a6566662042657a6f7360b01b61016052608090815260086101808181526754696d20436f6f6b60c01b6101a05260a052600b6101c09081526a4a61636b20446f7273657960a81b6101e05260c052600961020090815268456c6f6e204d75736b60b81b6102205260e052600d6102409081526c53756e6461722050696368616960981b61026052610100526102c0604052600f6102809081526e4d61726b205a75636b65726265726760881b6102a05261012052620000ca91600662000819565b50604080516101408101909152604260c0820181815282916200544460e084013981526020016040518060800160405280604581526020016200528d6045913981526020016040518060600160405280603781526020016200538f603791398152602001604051806060016040528060368152602001620051f66036913981526020016040518060600160405280603a81526020016200522c603a91398152602001604051806060016040528060278152602001620052666027913990526200019890600e90600662000819565b50604080516101208101909152603f60c0820181815282916200535060e084013981526020016040518060600160405280603f815260200162005311603f913981526020016040518060600160405280603f815260200162005486603f913981526020016040518060600160405280603f8152602001620053c6603f913981526020016040518060600160405280603f8152602001620052d2603f913981526020016040518060600160405280603f815260200162005405603f913990526200026690601490600662000819565b506618de76816d8000601d553480156200027e575f80fd5b50604080518082018252601081526f42696c6c696f6e6169726520446f6a6f60801b60208083019190915282518084019093526004835263444f4a4f60e01b9083015290335f838383838383838080620002eb576040516306b620db60e21b815260040160405180910390fd5b620002f6816200051d565b506040805180820190915260048152632936598960e21b60208201526200033f907feafec4d89fa9619884b60000a4d96624a38f7ac2d8d9a604ecf07c12c77e480c9062000588565b6200036b7fdeba1e292f8ba88238e10ab3c7f88bd4be4fac56cad5194b6ecceaf653468af18462000588565b620003977f2f0a68ab07768e01943a599e73362a0e17a63a72e94dd2e384d2c1d4db9327568362000588565b50506040805160208101849052620003e392507f715f248956de7ce65e94d9d836bfead479f7e70d69b718d47bfe7b00e05b4fe4910160408051601f19818403018152919052620005ce565b50506001601a81905560408051808201909152908152600160f81b60208201526200043896507f114bd03b3a46d48759680d81ebb2b414fda7d030a7105a851867accf1c2352e79550935050620006b0915050565b60408051808201909152601481527f4e86b0301067ab10e505b0d4c44e9e01d024a06800000000000000000000000060208201526200048c906f0452f40ece91b521d65a03607aecad0560821b90620006b0565b6040805169036f42f57aecc15a72ed60b51b60208201527f4e86b0301067ab10e505b0d4c44e9e01d024a068000000000000000000000000602c8201525f9101604051602081830303815290604052620004e690620008d5565b905062000516816040518060400160405280600c8152602001636676749760e01b815250620006b060201b60201c565b5062000ad4565b5f546001600160a01b0382811691161462000585575f80546040516001600160a01b03808516939216917f8be0079c531659141344cd1fd0a4f28419497f9722a3daafe3b4186f6b6457e091a35f80546001600160a01b0319166001600160a01b0383161790555b50565b5f828152600160205260409020620005a1828262000994565b50815f80516020620054c583398151915282604051620005c2919062000a60565b60405180910390a25050565b7f2145e1d6d074577dc71ef54c3807742b41b053a9352ae6b491331509acb9750f82016200060f576040516385c169bd60e01b815260040160405180910390fd5b7fd0f59754f88971fe6bc5a6618cc9d5f1e859c58d16b22d1c7b2d3e2b246cd8aa82016200065057604051630eceab6760e31b815260040160405180910390fd5b5f82815260016020526040902062000669828262000994565b50815f80516020620054c5833981519152610100835111156200069b5762000695835f610100620006fd565b6200069d565b825b604051620005c2919062000a60565b5050565b7f8ea0db76a9218319a16b2627c940152b860818f29648e72b840184ff1fa4b01c8201620006f1576040516329de089160e11b815260040160405180910390fd5b620006ac8282620005ce565b6060816200070d81601f62000aae565b1015620007525760405162461bcd60e51b815260206004820152600e60248201526d736c6963655f6f766572666c6f7760901b60448201526064015b60405180910390fd5b6200075e828462000aae565b84511015620007a45760405162461bcd60e51b8152602060048201526011602482015270736c6963655f6f75744f66426f756e647360781b604482015260640162000749565b606082158015620007c45760405191505f82526020820160405262000810565b6040519150601f8416801560200281840101858101878315602002848b0101015b81831015620007ff578051835260209283019201620007e5565b5050858452601f01601f1916604052505b50949350505050565b826006810192821562000857579160200282015b8281111562000857578251829062000846908262000994565b50916020019190600101906200082d565b506200086592915062000869565b5090565b8082111562000865575f6200087f828262000889565b5060010162000869565b508054620008979062000910565b5f825580601f10620008a7575050565b601f0160209004905f5260205f20908101906200058591905b8082111562000865575f8155600101620008c0565b80516020808301519190811015620008f6575f198160200360031b1b821691505b50919050565b634e487b7160e01b5f52604160045260245ffd5b600181811c908216806200092557607f821691505b602082108103620008f657634e487b7160e01b5f52602260045260245ffd5b601f8211156200098f57805f5260205f20601f840160051c810160208510156200096b5750805b601f840160051c820191505b818110156200098c575f815560010162000977565b50505b505050565b81516001600160401b03811115620009b057620009b0620008fc565b620009c881620009c1845462000910565b8462000944565b602080601f831160018114620009fe575f8415620009e65750858301515b5f19600386901b1c1916600185901b17855562000a58565b5f85815260208120601f198616915b8281101562000a2e5788860151825594840194600190910190840162000a0d565b508582101562000a4c57878501515f19600388901b60f8161c191681555b505060018460011b0185555b505050505050565b5f602080835283518060208501525f5b8181101562000a8e5785810183015185820160400152820162000a70565b505f604082860101526040601f19601f8301168501019250505092915050565b8082018082111562000ace57634e487b7160e01b5f52601160045260245ffd5b92915050565b6147148062000ae25f395ff3fe608060405260043610610275575f3560e01c80636817c76c1161014e578063a22cb465116100c0578063db8c966311610079578063db8c9663146107d1578063dedff9c6146107f0578063e985e9c51461081c578063f2fde38b1461083b578063f4a0a5281461085a578063fdfd805814610879576102ce565b8063a22cb4651461070a578063a3b261f214610729578063b88d4fde14610755578063c635a78914610774578063c87b56dd14610793578063d9cff232146107b2576102ce565b80637f23690c116101125780637f23690c1461066a57806386a10ddd1461067d5780638da5cb5b1461069c57806394a02353146106b857806395d89b41146106e357806397902421146106f7576102ce565b80636817c76c146105f05780636ecd23061461060557806370a0823114610618578063715018a6146106375780637e87632c1461064b576102ce565b806323b872dd116101e757806349a6078d116101ab57806349a6078d1461051e5780634b0534091461054a578063511b69521461057457806351cff8d91461059357806354f6127f146105b25780636352211e146105d1576102ce565b806323b872dd1461048f5780632a3654a4146104ae5780632b809568146104cd5780632cc27bfd146104ec57806342842e0e146104ff576102ce565b8063164170a211610239578063164170a2146103de57806317609459146103fd57806318160ddd146104295780631e0104391461043d57806320f5e8dd1461045c578063217b227014610470576102ce565b806301ffc9a71461030e57806306661abd1461034257806306fdde0314610365578063081812fc14610386578063095ea7b3146103bd576102ce565b366102ce57345f036102b55760405163e5099ee360e01b81526004016102ac9060208082526004908201525f604082015260600190565b60405180910390fd5b6040516330fa4a2160e11b815260040160405180910390fd5b5f36606060048210156102f857828260405163e5099ee360e01b81526004016102ac929190613416565b6103028383610898565b80519350602001915050f35b348015610319575f80fd5b5061032d610328366004613459565b610987565b60405190151581526020015b60405180910390f35b34801561034d575f80fd5b50610357601c5481565b604051908152602001610339565b348015610370575f80fd5b506103796109c6565b60405161033991906134c1565b348015610391575f80fd5b506103a56103a03660046134d3565b6109f2565b6040516001600160a01b039091168152602001610339565b3480156103c8575f80fd5b506103dc6103d7366004613505565b610a54565b005b3480156103e9575f80fd5b506103dc6103f83660046135fa565b610a73565b348015610408575f80fd5b5061041c6104173660046134d3565b610a87565b60405161033991906136b5565b348015610434575f80fd5b50600254610357565b348015610448575f80fd5b506103576104573660046134d3565b610aca565b348015610467575f80fd5b506103dc610ae0565b34801561047b575f80fd5b506103a561048a3660046134d3565b610b9d565b34801561049a575f80fd5b506103dc6104a936600461371e565b610bd5565b3480156104b9575f80fd5b5061032d6104c8366004613505565b610bf8565b3480156104d8575f80fd5b506103dc6104e73660046135fa565b610c13565b6103dc6104fa366004613763565b610c24565b34801561050a575f80fd5b506103dc61051936600461371e565b610f2f565b348015610529575f80fd5b5061053d6105383660046134d3565b610f49565b604051610339919061377f565b348015610555575f80fd5b506103576105643660046137cb565b602080525f908152604090205481565b34801561057f575f80fd5b506103dc61058e366004613813565b610f6a565b34801561059e575f80fd5b506103dc6105ad366004613886565b610fae565b3480156105bd575f80fd5b506103796105cc3660046134d3565b6110a8565b3480156105dc575f80fd5b506103a56105eb3660046134d3565b6110b3565b3480156105fb575f80fd5b50610357601d5481565b6103dc6106133660046137cb565b6110bd565b348015610623575f80fd5b50610357610632366004613886565b611330565b348015610642575f80fd5b506103dc61133a565b348015610656575f80fd5b506103dc610665366004613a68565b61134d565b6103dc610678366004613b23565b61143b565b348015610688575f80fd5b506103dc610697366004613b66565b61146c565b3480156106a7575f80fd5b505f546001600160a01b03166103a5565b3480156106c3575f80fd5b506103576106d23660046137cb565b601f6020525f908152604090205481565b3480156106ee575f80fd5b50610379611668565b6103dc610705366004613bb8565b611694565b348015610715575f80fd5b506103dc610724366004613c0d565b61174d565b348015610734575f80fd5b50610748610743366004613886565b611758565b6040516103399190613c3e565b348015610760575f80fd5b506103dc61076f366004613c75565b61177b565b34801561077f575f80fd5b506103dc61078e366004613cd8565b61178d565b34801561079e575f80fd5b506103796107ad3660046134d3565b611831565b3480156107bd575f80fd5b506103dc6107cc366004613cd8565b611897565b3480156107dc575f80fd5b506103dc6107eb366004613cf8565b611931565b3480156107fb575f80fd5b5061080f61080a366004613d43565b611a02565b6040516103399190613d74565b348015610827575f80fd5b5061032d610836366004613dd6565b611aab565b348015610846575f80fd5b506103dc610855366004613886565b611ad8565b348015610865575f80fd5b506103dc6108743660046134d3565b611b10565b348015610884575f80fd5b506103dc610893366004613886565b611b1d565b60605f6108af5f356001600160e01b031916611be0565b5090506001600160a01b0381166108e65760405163bb370b2b60e01b81526001600160e01b03195f351660048201526024016102ac565b5f80826001600160a01b0316348787333460405160200161090a9493929190613dfe565b60408051601f198184030181529082905261092491613e44565b5f6040518083038185875af1925050503d805f811461095e576040519150601f19603f3d011682016040523d82523d5f602084013e610963565b606091505b50915091508115610978579250610981915050565b80518060208301fd5b92915050565b5f6001600160e01b031982166380ac58cd60e01b14806109b757506001600160e01b03198216635b5e139f60e01b145b80610981575061098182611c5c565b60605f6109817fdeba1e292f8ba88238e10ab3c7f88bd4be4fac56cad5194b6ecceaf653468af1611c8f565b5f816109fd81611d2e565b5f610a0782610f49565b80519091505f819003610a1e57505f949350505050565b81610a2a600183613e73565b81518110610a3a57610a3a613e86565b60200260200101519350505050919050565b505050919050565b610a6f82825f1b60405180602001604052805f81525061146c565b5050565b610a7b611d65565b610a8481611da0565b50565b610ac16040805160e08101909152805f81526020015f81526020015f81526020015f81526020015f81526020015f81526020015f81525090565b61098182611dad565b5f80610ad583611dad565b60c001519392505050565b601e546001600160a01b03163314610b0a5760405162461bcd60e51b81526004016102ac90613e9a565b6040805160c0810182525f808252600160208301526002928201929092526003606082015260046080820152600560a0820152905b6006811015610a6f575f60205f848460068110610b5e57610b5e613e86565b60200201516005811115610b7457610b746136a1565b6005811115610b8557610b856136a1565b815260208101919091526040015f2055600101610b3f565b5f818152600360205260408120546001600160a01b03168061098157604051635747cd1b60e11b8152600481018490526024016102ac565b610bf38383835f1b600160405180602001604052805f815250611e07565b505050565b5f610c0282611d2e565b610c0c8383611e93565b9392505050565b610c1b611d65565b610a8481611ece565b610c2c611edb565b5f81601d54610c3b9190613ec9565b90505f82118015610c4c5750600682105b610cae5760405162461bcd60e51b815260206004820152602d60248201527f4d696e696d756d203120616e64206d6178696d756d20352063616e206265206d60448201526c696e746564206174206f6e636560981b60648201526084016102ac565b803414610ccd5760405162461bcd60e51b81526004016102ac90613ee0565b601f5f846005811115610ce257610ce26136a1565b6005811115610cf357610cf36136a1565b81526020019081526020015f20545f1480610d4057505f60205f856005811115610d1f57610d1f6136a1565b6005811115610d3057610d306136a1565b81526020019081526020015f2054115b610d8c5760405162461bcd60e51b815260206004820152601a60248201527f546869732062696c6c696f6e616972652069732062757374656400000000000060448201526064016102ac565b5f5b82811015610f23575f610d9f611f05565b90505f610daa611f78565b90505f610db5611f78565b90505f610dc0611fe5565b90505f610dcb611f78565b601c80549192505f610ddc83613f2e565b91905055505f6040518060e001604052808b6005811115610dff57610dff6136a1565b81526020018781526020018681526020018581526020018481526020018381526020016103e88152509050610e36601c5482612067565b610e5533601c545f1b600160405180602001604052805f815250612095565b601f5f8b6005811115610e6a57610e6a6136a1565b6005811115610e7b57610e7b6136a1565b81526020019081526020015f205f815480929190610e9890613f2e565b91905055506103e860205f8c6005811115610eb557610eb56136a1565b6005811115610ec657610ec66136a1565b81526020019081526020015f205f828254610ee19190613f46565b9091555050601c546040517f2cb1b896cb2443e021c3b8001eea2cbcb70464ef5e9d050fa95a1e20a0dbc1ce905f90a2505060019094019350610d8e92505050565b5050610a6f6001601a55565b610bf383838360405180602001604052805f8152506120d8565b6060610f5482611d2e565b5f8281526005602052604090206109819061210e565b610f743384611e93565b610f9a57604051631294d2a960e01b8152600481018490523360248201526044016102ac565b610fa78585858585611e07565b5050505050565b610fb6611d65565b6001600160a01b0381166110175760405162461bcd60e51b815260206004820152602260248201527f43616e277420776974686472617720746f20746865207a65726f206164647265604482015261737360f01b60648201526084016102ac565b5f816001600160a01b0316476040515f6040518083038185875af1925050503d805f8114611060576040519150601f19603f3d011682016040523d82523d5f602084013e611065565b606091505b5050905080610a6f5760405162461bcd60e51b815260206004820152600f60248201526e15da5d1a191c985dc819985a5b1959608a1b60448201526064016102ac565b606061098182611c8f565b5f61098182610b9d565b6110c5611edb565b601d5434146110e65760405162461bcd60e51b81526004016102ac90613ee0565b601f5f8260058111156110fb576110fb6136a1565b600581111561110c5761110c6136a1565b81526020019081526020015f20545f148061115957505f60205f836005811115611138576111386136a1565b6005811115611149576111496136a1565b81526020019081526020015f2054115b6111a55760405162461bcd60e51b815260206004820152601a60248201527f546869732062696c6c696f6e616972652069732062757374656400000000000060448201526064016102ac565b5f6111ae611f05565b90505f6111b9611f78565b90505f6111c4611f78565b90505f6111cf611fe5565b90505f6111da611f78565b601c80549192505f6111eb83613f2e565b91905055505f6040518060e0016040528088600581111561120e5761120e6136a1565b81526020018781526020018681526020018581526020018481526020018381526020016103e88152509050611245601c5482612067565b61126433601c545f1b600160405180602001604052805f815250612095565b601f5f886005811115611279576112796136a1565b600581111561128a5761128a6136a1565b81526020019081526020015f205f8154809291906112a790613f2e565b91905055506103e860205f8960058111156112c4576112c46136a1565b60058111156112d5576112d56136a1565b81526020019081526020015f205f8282546112f09190613f46565b9091555050601c546040517f2cb1b896cb2443e021c3b8001eea2cbcb70464ef5e9d050fa95a1e20a0dbc1ce905f90a2505050505050610a846001601a55565b5f6109818261211a565b611342611d65565b61134b5f61213a565b565b8451845181141580611360575083518114155b8061136c575082518114155b80611378575081518114155b15611396576040516393a8311960e01b815260040160405180910390fd5b5f5b818110156114325761142a8782815181106113b5576113b5613e86565b60200260200101518783815181106113cf576113cf613e86565b60200260200101518784815181106113e9576113e9613e86565b602002602001015187858151811061140357611403613e86565b602002602001015187868151811061141d5761141d613e86565b6020026020010151610f6a565b600101611398565b50505050505050565b611443611d65565b34156114625760405163f36ba73760e01b815260040160405180910390fd5b610a6f82826121a5565b5f61147683610b9d565b90506001600160a01b038116331480159061149857506114968133611aab565b155b156114ce57604051632d938f5160e11b81526001600160a01b0382166004820152602481018490523360448201526064016102ac565b6001600160a01b0384166114f557604051639577b8b360e01b815260040160405180910390fd5b836001600160a01b0316816001600160a01b031603611527576040516344fed6b160e11b815260040160405180910390fd5b5f83815260056020526040812061153e90866121ef565b905080611570576040516314ec4d6d60e31b81526001600160a01b0386166004820152602481018590526044016102ac565b83826001600160a01b0316866001600160a01b03167e52e433f2d4225671bc164dd1cdc9a76044356091f27ad234798bd0cbf08349866040516115b391906134c1565b60405180910390a4836001600160a01b0386166115cf82610b9d565b6001600160a01b03167f8c5be1e5ebec7d5bd14f71427d1e84f3dd0314c0f7b2291e5b200ac8c7c3b92560405160405180910390a45f33858560405160200161161a93929190613f59565b60408051601f1981840301815291905290506116606001600160a01b0387167f8a1c15a8799f71b547e08e2bcb2e85257e81b0a07eee2ce6712549eef1f0097083612203565b505050505050565b60605f6109817f2f0a68ab07768e01943a599e73362a0e17a63a72e94dd2e384d2c1d4db932756611c8f565b61169c611d65565b34156116bb5760405163f36ba73760e01b815260040160405180910390fd5b80518251146116dd57604051633bcc897960e01b815260040160405180910390fd5b81515f036116fe576040516397da5f9560e01b815260040160405180910390fd5b5f5b8251811015610bf35761174583828151811061171e5761171e613e86565b602002602001015183838151811061173857611738613e86565b60200260200101516121a5565b600101611700565b610a6f338383612292565b6001600160a01b0381165f9081526004602052604090206060906109819061210e565b611787848484846120d8565b50505050565b601e546001600160a01b031633146117b75760405162461bcd60e51b81526004016102ac90613e9a565b5f6117c183611dad565b9050818160c0018181516117d59190613e73565b9052506117e28382612067565b8160205f835f015160058111156117fb576117fb6136a1565b600581111561180c5761180c6136a1565b81526020019081526020015f205f8282546118279190613e73565b9091555050505050565b5f818152600360205260409020546060906001600160a01b031661188e5760405162461bcd60e51b8152602060048201526014602482015273151bdad95b88191bd95cc81b9bdd08195e1a5cdd60621b60448201526064016102ac565b6109818261236f565b601e546001600160a01b031633146118c15760405162461bcd60e51b81526004016102ac90613e9a565b5f6118cb83611dad565b9050818160c0018181516118df9190613f46565b9052506118ec8382612067565b8160205f835f01516005811115611905576119056136a1565b6005811115611916576119166136a1565b81526020019081526020015f205f8282546118279190613f46565b5f61193b84610b9d565b90506001600160a01b038116331461197e57604051632d938f5160e11b81526001600160a01b0382166004820152602481018590523360448201526064016102ac565b6001600160a01b0385166119a557604051639577b8b360e01b815260040160405180910390fd5b846001600160a01b0316816001600160a01b0316036119d7576040516344fed6b160e11b815260040160405180910390fd5b6119e48582868686612667565b8215610fa7575f33855f8560405160200161161a9493929190613f88565b606081516001600160401b03811115611a1d57611a1d61352d565b604051908082528060200260200182016040528015611a5057816020015b6060815260200190600190039081611a3b5790505b5090505f5b8251811015611aa557611a80838281518110611a7357611a73613e86565b6020026020010151611c8f565b828281518110611a9257611a92613e86565b6020908102919091010152600101611a55565b50919050565b6001600160a01b039182165f90815260076020908152604080832093909416825291909152205460ff1690565b611ae0611d65565b6001600160a01b038116611b07576040516306b620db60e21b815260040160405180910390fd5b610a848161213a565b611b18611d65565b601d55565b611b25611d65565b6001600160a01b038116611b8c5760405162461bcd60e51b815260206004820152602860248201527f4f637461676f6e2063616e27742062652073657420746f20746865207a65726f604482015267206164647265737360c01b60648201526084016102ac565b601e80546001600160a01b0319166001600160a01b0383169081179091556040519081527f4b60d87e496254be24af02fb2c6ee2ba6f522282e6753c112d7bf86212d236ea9060200160405180910390a150565b5f8080611c04696773c5a04a6d4300884b60b11b6001600160e01b03198616612706565b90505f611c1082611c8f565b90508051601414158015611c245750805115155b15611c4457806040516342bfe79f60e01b81526004016102ac91906134c1565b611c4d81613fc0565b60601c95600195509350505050565b5f6001600160e01b0319821663061b8a4f60e31b1480611c805750611c8082612759565b8061098157506109818261277d565b5f818152600160205260409020805460609190611cab90613ff3565b80601f0160208091040260200160405190810160405280929190818152602001828054611cd790613ff3565b8015611d225780601f10611cf957610100808354040283529160200191611d22565b820191905f5260205f20905b815481529060010190602001808311611d0557829003601f168201915b50505050509050919050565b5f818152600360205260409020546001600160a01b0316610a8457604051635747cd1b60e11b8152600481018290526024016102ac565b33611d775f546001600160a01b031690565b6001600160a01b03161461134b5760405163bf1169c560e01b81523360048201526024016102ac565b610a6f6014826006613373565b611de76040805160e08101909152805f81526020015f81526020015f81526020015f81526020015f81526020015f81526020015f81525090565b5f611df183611c8f565b905080806020019051810190610c0c9190614025565b611e118533611aab565b158015611e255750611e233384611e93565b155b15611e4c57604051631294d2a960e01b8152600481018490523360248201526044016102ac565b60405183906001600160a01b0380871691908816907fddf252ad1be2c89b69c2b068fc378daa952ba7f163c4a11628f55a4df523b3ef905f90a4610fa785858585856127b2565b5f611e9d82610b9d565b6001600160a01b0316836001600160a01b03161480610c0c57505f828152600560205260409020610c0c9084612992565b610a6f600e826006613373565b6002601a5403611efe57604051633ee5aeb560e01b815260040160405180910390fd5b6002601a55565b601b80545f9182611f1583613f2e565b909155505f9050611f27600143613e73565b601b5460408051924060208401524290830152606082015260800160408051601f1981840301815291905280516020909101209050611f67600b826140af565b611f7290605a613f46565b91505090565b601b80545f9182611f8883613f2e565b909155505f9050611f9a600143613e73565b601b5460408051924060208401524290830152606082015260800160408051601f1981840301815291905280516020909101209050611fda6064826140af565b611f72906001613f46565b601b80545f9182611ff583613f2e565b909155505f9050612007600143613e73565b601b5460408051924060208401524290830152606082015260800160408051601f1981840301815291905280516020909101209050612047600a826140af565b5f0361205857611fda6064826140af565b611fda6014826140af565b5090565b5f8160405160200161207991906136b5565b60408051601f198184030181529190529050610bf383826121a5565b60405183906001600160a01b038616905f907fddf252ad1be2c89b69c2b068fc378daa952ba7f163c4a11628f55a4df523b3ef908290a4611787848484846129b3565b6120e6848484600185611e07565b6120f284848484612ae2565b6117875760405162461bcd60e51b81526004016102ac906140ce565b60605f610c0c83612be0565b6001600160a01b0381165f90815260046020526040812061098190612c38565b5f546001600160a01b03828116911614610a84575f80546040516001600160a01b03808516939216917f8be0079c531659141344cd1fd0a4f28419497f9722a3daafe3b4186f6b6457e091a35f80546001600160a01b0383166001600160a01b031990911617905550565b7f8ea0db76a9218319a16b2627c940152b860818f29648e72b840184ff1fa4b01c82016121e5576040516329de089160e11b815260040160405180910390fd5b610a6f8282612c41565b5f610c0c836001600160a01b038416612d33565b61221d6001600160a01b038416631aed5a8560e21b612d7f565b15610bf357604051631aed5a8560e21b81526001600160a01b03841690636bb56a1490612250908590859060040161412c565b5f604051808303815f875af115801561226b573d5f803e3d5ffd5b505050506040513d5f823e601f3d908101601f191682016040526117879190810190614172565b816001600160a01b0316836001600160a01b0316036123035760405162461bcd60e51b815260206004820152602760248201527f4c535038436f6d70617469626c654552433732313a20617070726f766520746f6044820152661031b0b63632b960c91b60648201526084016102ac565b6001600160a01b038381165f81815260076020908152604080832094871680845294825291829020805460ff191686151590811790915591519182527f17307eab39ab6107e8899845ad3d59bd9653f200f220920489ca2b5937696c31910160405180910390a3505050565b60605f61237b83611dad565b90505f6008825f01516005811115612395576123956136a1565b600681106123a5576123a5613e86565b0180546123b190613ff3565b80601f01602080910402602001604051908101604052809291908181526020018280546123dd90613ff3565b80156124285780601f106123ff57610100808354040283529160200191612428565b820191905f5260205f20905b81548152906001019060200180831161240b57829003601f168201915b505050505090505f600e835f01516005811115612447576124476136a1565b6006811061245757612457613e86565b01805461246390613ff3565b80601f016020809104026020016040519081016040528092919081815260200182805461248f90613ff3565b80156124da5780601f106124b1576101008083540402835291602001916124da565b820191905f5260205f20905b8154815290600101906020018083116124bd57829003601f168201915b505050505090505f6014845f015160058111156124f9576124f96136a1565b6006811061250957612509613e86565b01805461251590613ff3565b80601f016020809104026020016040519081016040528092919081815260200182805461254190613ff3565b801561258c5780601f106125635761010080835404028352916020019161258c565b820191905f5260205f20905b81548152906001019060200180831161256f57829003601f168201915b505050505090505f61259d85612e05565b905073__$0d0f7d13378704776f4c810c0bf34868c5$__6312496a1b838686856040516020016125d094939291906141b6565b6040516020818303038152906040526040518263ffffffff1660e01b81526004016125fb91906134c1565b5f60405180830381865af4158015612615573d5f803e3d5ffd5b505050506040513d5f823e601f3d908101601f1916820160405261263c9190810190614172565b60405160200161264c919061438c565b60405160208183030381529060405295505050505050919050565b5f83815260056020526040812061267e9087612e72565b9050806126b0576040516312a8c6a360e21b81526001600160a01b0387166004820152602481018590526044016102ac565b83856001600160a01b0316876001600160a01b03167f3ee932cea40ebbbfd8577d47156cc17cce8683802c57bbd1fb8c131c6f07af0a86866040516126f69291906143d0565b60405180910390a4505050505050565b604080516001600160b01b0319841660208201525f602a82018190526001600160601b03198416602c83015291829101604051602081830303815290604052905080612751906143ea565b949350505050565b5f6001600160e01b0319821663a918fa6b60e01b1480610981575061098182612e86565b5f8061278f6301ffc9a760e01b611be0565b5090506001600160a01b0381166127a857505f92915050565b610c0c8184612d7f565b836001600160a01b0316856001600160a01b0316036127e457604051635d67d6c160e01b815260040160405180910390fd5b5f6127ee84610b9d565b9050856001600160a01b0316816001600160a01b03161461283c57604051632d938f5160e11b81526001600160a01b03808316600483015260248201869052871660448201526064016102ac565b6001600160a01b038516612863576040516324ecef4d60e01b815260040160405180910390fd5b61286c84610b9d565b90506128788685612eba565b6001600160a01b0386165f9081526004602052604090206128999085612f0d565b506001600160a01b0385165f9081526004602052604090206128bb9085612f18565b505f848152600360205260409081902080546001600160a01b0319166001600160a01b0388811691821790925591518692918916907fb333c813a7426a7a11e2b190cad52c44119421594b47f6f32ace6d8c7207b2bf906129219033908990899061440d565b60405180910390a45f868686856040516020016129419493929190614438565b60408051601f1981840301815291905290506129876001600160a01b0388167fb23eae7e6d1564b295b4c3e3be402d9a2f0776c57bdf365903496f6fa481ab0083612203565b611432868583612f23565b6001600160a01b0381165f9081526001830160205260408120541515610c0c565b6001600160a01b0384166129da576040516324ecef4d60e01b815260040160405180910390fd5b5f838152600360205260409020546001600160a01b031615612a12576040516334c7b51160e01b8152600481018490526024016102ac565b60025f8154612a2090613f2e565b909155506001600160a01b0384165f908152600460205260409020612a459084612f18565b505f8381526003602052604080822080546001600160a01b0319166001600160a01b03881690811790915590518592907fb333c813a7426a7a11e2b190cad52c44119421594b47f6f32ace6d8c7207b2bf90612aa69033908890889061440d565b60405180910390a45f80858584604051602001612ac69493929190614438565b6040516020818303038152906040529050610fa7858483612f23565b5f836001600160a01b03163b5f03612afc57506001612751565b604051630a85bd0160e11b81526001600160a01b0385169063150b7a0290612b2e903390899088908890600401614438565b6020604051808303815f875af1925050508015612b68575060408051601f3d908101601f19168201909252612b659181019061446a565b60015b612bc3573d808015612b95576040519150601f19603f3d011682016040523d82523d5f602084013e612b9a565b606091505b5080515f03612bbb5760405162461bcd60e51b81526004016102ac906140ce565b805181602001fd5b6001600160e01b031916630a85bd0160e11b149050949350505050565b6060815f01805480602002602001604051908101604052809291908181526020018280548015611d2257602002820191905f5260205f20905b815481526020019060010190808311612c195750505050509050919050565b5f610981825490565b7f2145e1d6d074577dc71ef54c3807742b41b053a9352ae6b491331509acb9750f8201612c81576040516385c169bd60e01b815260040160405180910390fd5b7fd0f59754f88971fe6bc5a6618cc9d5f1e859c58d16b22d1c7b2d3e2b246cd8aa8201612cc157604051630eceab6760e31b815260040160405180910390fd5b5f828152600160205260409020612cd882826144c9565b50817fece574603820d07bc9b91f2a932baadf4628aabcb8afba49776529c14a6104b261010083511115612d1857612d13835f610100612fed565b612d1a565b825b604051612d2791906134c1565b60405180910390a25050565b5f818152600183016020526040812054612d7857508154600181810184555f848152602080822090930184905584548482528286019093526040902091909155610981565b505f610981565b6040516001600160e01b0319821660248201525f90819060440160408051601f19818403018152919052602080820180516001600160e01b03166301ffc9a760e01b17815282519293505f9283928392909183918a617530fa92503d91505f519050828015612def575060208210155b8015612dfa57505f81115b979650505050505050565b6060612e1482602001516130f9565b612e2183604001516130f9565b612e2e84606001516130f9565b612e3b85608001516130f9565b612e488660a001516130f9565b604051602001612e5c959493929190614584565b6040516020818303038152906040529050919050565b5f610c0c836001600160a01b038416613188565b5f6001600160e01b031982166318a6a9a560e21b148061098157506301ffc9a760e01b6001600160e01b0319831614610981565b5f81815260056020526040812090612ed182612c38565b90505f805b8281101561166057612ee8845f61326b565b9150612f058287875f60405180602001604052805f815250612667565b600101612ed6565b5f610c0c8383613188565b5f610c0c8383612d33565b612f3d6001600160a01b038416631aed5a8560e21b612d7f565b15612f9057604051631aed5a8560e21b81526001600160a01b03841690636bb56a1490612250907f0b084a55ebf70fd3c06fd755269dac2212c4d3f0f4d09079780bfa50c1b2984d90859060040161412c565b81610bf3576001600160a01b0383163b15612fc957604051634349776d60e01b81526001600160a01b03841660048201526024016102ac565b604051630317313760e01b81526001600160a01b03841660048201526024016102ac565b606081612ffb81601f613f46565b101561303a5760405162461bcd60e51b815260206004820152600e60248201526d736c6963655f6f766572666c6f7760901b60448201526064016102ac565b6130448284613f46565b845110156130885760405162461bcd60e51b8152602060048201526011602482015270736c6963655f6f75744f66426f756e647360781b60448201526064016102ac565b6060821580156130a65760405191505f8252602082016040526130f0565b6040519150601f8416801560200281840101858101878315602002848b0101015b818310156130df5780518352602092830192016130c7565b5050858452601f01601f1916604052505b50949350505050565b60605f61310583613276565b60010190505f816001600160401b038111156131235761312361352d565b6040519080825280601f01601f19166020018201604052801561314d576020820181803683370190505b5090508181016020015b5f19016f181899199a1a9b1b9c1cb0b131b232b360811b600a86061a8153600a850494508461315757509392505050565b5f8181526001830160205260408120548015613262575f6131aa600183613e73565b85549091505f906131bd90600190613e73565b905080821461321c575f865f0182815481106131db576131db613e86565b905f5260205f200154905080875f0184815481106131fb576131fb613e86565b5f918252602080832090910192909255918252600188019052604090208390555b855486908061322d5761322d6146ca565b600190038181905f5260205f20015f90559055856001015f8681526020019081526020015f205f905560019350505050610981565b5f915050610981565b5f610c0c838361334d565b5f8072184f03e93ff9f4daa797ed6e38ed64bf6a1f0160401b83106132b45772184f03e93ff9f4daa797ed6e38ed64bf6a1f0160401b830492506040015b6d04ee2d6d415b85acef810000000083106132e0576d04ee2d6d415b85acef8100000000830492506020015b662386f26fc1000083106132fe57662386f26fc10000830492506010015b6305f5e1008310613316576305f5e100830492506008015b612710831061332a57612710830492506004015b6064831061333c576064830492506002015b600a83106109815760010192915050565b5f825f01828154811061336257613362613e86565b905f5260205f200154905092915050565b82600681019282156133ac579160200282015b828111156133ac578251829061339c90826144c9565b5091602001919060010190613386565b506120639291505b80821115612063575f6133c782826133d0565b506001016133b4565b5080546133dc90613ff3565b5f825580601f106133eb575050565b601f0160209004905f5260205f2090810190610a8491905b80821115612063575f8155600101613403565b60208152816020820152818360408301375f818301604090810191909152601f909201601f19160101919050565b6001600160e01b031981168114610a84575f80fd5b5f60208284031215613469575f80fd5b8135610c0c81613444565b5f5b8381101561348e578181015183820152602001613476565b50505f910152565b5f81518084526134ad816020860160208601613474565b601f01601f19169290920160200192915050565b602081525f610c0c6020830184613496565b5f602082840312156134e3575f80fd5b5035919050565b80356001600160a01b0381168114613500575f80fd5b919050565b5f8060408385031215613516575f80fd5b61351f836134ea565b946020939093013593505050565b634e487b7160e01b5f52604160045260245ffd5b60405160c081016001600160401b03811182821017156135635761356361352d565b60405290565b604051601f8201601f191681016001600160401b03811182821017156135915761359161352d565b604052919050565b5f6001600160401b038211156135b1576135b161352d565b50601f01601f191660200190565b5f6135d16135cc84613599565b613569565b90508281528383830111156135e4575f80fd5b828260208301375f602084830101529392505050565b5f602080838503121561360b575f80fd5b82356001600160401b0380821115613621575f80fd5b8185019150601f86601f840112613636575f80fd5b61363e613541565b8060c085018981111561364f575f80fd5b855b8181101561369257803586811115613667575f80fd5b87018581018c13613676575f80fd5b6136848c82358b84016135bf565b855250928701928701613651565b50909998505050505050505050565b634e487b7160e01b5f52602160045260245ffd5b815160e0820190600681106136d857634e487b7160e01b5f52602160045260245ffd5b808352506020830151602083015260408301516040830152606083015160608301526080830151608083015260a083015160a083015260c083015160c083015292915050565b5f805f60608486031215613730575f80fd5b613739846134ea565b9250613747602085016134ea565b9150604084013590509250925092565b60068110610a84575f80fd5b5f8060408385031215613774575f80fd5b823561351f81613757565b602080825282518282018190525f9190848201906040850190845b818110156137bf5783516001600160a01b03168352928401929184019160010161379a565b50909695505050505050565b5f602082840312156137db575f80fd5b8135610c0c81613757565b80358015158114613500575f80fd5b5f82601f830112613804575f80fd5b610c0c838335602085016135bf565b5f805f805f60a08688031215613827575f80fd5b613830866134ea565b945061383e602087016134ea565b935060408601359250613853606087016137e6565b915060808601356001600160401b0381111561386d575f80fd5b613879888289016137f5565b9150509295509295909350565b5f60208284031215613896575f80fd5b610c0c826134ea565b5f6001600160401b038211156138b7576138b761352d565b5060051b60200190565b5f82601f8301126138d0575f80fd5b813560206138e06135cc8361389f565b8083825260208201915060208460051b870101935086841115613901575f80fd5b602086015b8481101561392457613917816134ea565b8352918301918301613906565b509695505050505050565b5f82601f83011261393e575f80fd5b8135602061394e6135cc8361389f565b8083825260208201915060208460051b87010193508684111561396f575f80fd5b602086015b848110156139245780358352918301918301613974565b5f82601f83011261399a575f80fd5b813560206139aa6135cc8361389f565b8083825260208201915060208460051b8701019350868411156139cb575f80fd5b602086015b84811015613924576139e1816137e6565b83529183019183016139d0565b5f82601f8301126139fd575f80fd5b81356020613a0d6135cc8361389f565b82815260059290921b84018101918181019086841115613a2b575f80fd5b8286015b848110156139245780356001600160401b03811115613a4c575f80fd5b613a5a8986838b01016137f5565b845250918301918301613a2f565b5f805f805f60a08688031215613a7c575f80fd5b85356001600160401b0380821115613a92575f80fd5b613a9e89838a016138c1565b96506020880135915080821115613ab3575f80fd5b613abf89838a016138c1565b95506040880135915080821115613ad4575f80fd5b613ae089838a0161392f565b94506060880135915080821115613af5575f80fd5b613b0189838a0161398b565b93506080880135915080821115613b16575f80fd5b50613879888289016139ee565b5f8060408385031215613b34575f80fd5b8235915060208301356001600160401b03811115613b50575f80fd5b613b5c858286016137f5565b9150509250929050565b5f805f60608486031215613b78575f80fd5b613b81846134ea565b92506020840135915060408401356001600160401b03811115613ba2575f80fd5b613bae868287016137f5565b9150509250925092565b5f8060408385031215613bc9575f80fd5b82356001600160401b0380821115613bdf575f80fd5b613beb8683870161392f565b93506020850135915080821115613c00575f80fd5b50613b5c858286016139ee565b5f8060408385031215613c1e575f80fd5b613c27836134ea565b9150613c35602084016137e6565b90509250929050565b602080825282518282018190525f9190848201906040850190845b818110156137bf57835183529284019291840191600101613c59565b5f805f8060808587031215613c88575f80fd5b613c91856134ea565b9350613c9f602086016134ea565b92506040850135915060608501356001600160401b03811115613cc0575f80fd5b613ccc878288016137f5565b91505092959194509250565b5f8060408385031215613ce9575f80fd5b50508035926020909101359150565b5f805f8060808587031215613d0b575f80fd5b613d14856134ea565b935060208501359250613d29604086016137e6565b915060608501356001600160401b03811115613cc0575f80fd5b5f60208284031215613d53575f80fd5b81356001600160401b03811115613d68575f80fd5b6127518482850161392f565b5f60208083016020845280855180835260408601915060408160051b8701019250602087015f5b82811015613dc957603f19888603018452613db7858351613496565b94509285019290850190600101613d9b565b5092979650505050505050565b5f8060408385031215613de7575f80fd5b613df0836134ea565b9150613c35602084016134ea565b8385823760609290921b6001600160601b031916919092019081526014810191909152603401919050565b5f8151613e3a818560208601613474565b9290920192915050565b5f8251613e55818460208701613474565b9190910192915050565b634e487b7160e01b5f52601160045260245ffd5b8181038181111561098157610981613e5f565b634e487b7160e01b5f52603260045260245ffd5b60208082526015908201527413db9b1e481bd8dd1859dbdb8818d85b8818d85b1b605a1b604082015260600190565b808202811582820484141761098157610981613e5f565b6020808252602e908201527f54686f7365206d6567612079616368747320776f6e27742070617920666f722060408201526d1d1a195b5cd95b1d995cc81ada5960921b606082015260800190565b5f60018201613f3f57613f3f613e5f565b5060010190565b8082018082111561098157610981613e5f565b60018060a01b0384168152826020820152606060408201525f613f7f6060830184613496565b95945050505050565b60018060a01b03851681528360208201528215156040820152608060608201525f613fb66080830184613496565b9695505050505050565b805160208201516001600160601b03198082169291906014831015610a4c5760149290920360031b82901b161692915050565b600181811c9082168061400757607f821691505b602082108103611aa557634e487b7160e01b5f52602260045260245ffd5b5f60e08284031215614035575f80fd5b60405160e081018181106001600160401b03821117156140575761405761352d565b604052825161406581613757565b808252506020830151602082015260408301516040820152606083015160608201526080830151608082015260a083015160a082015260c083015160c08201528091505092915050565b5f826140c957634e487b7160e01b5f52601260045260245ffd5b500690565b602080825260409082018190527f4c535038436f6d70617469626c654552433732313a207472616e736665722074908201527f6f206e6f6e20455243373231526563656976657220696d706c656d656e746572606082015260800190565b828152604060208201525f6127516040830184613496565b5f6141516135cc84613599565b9050828152838383011115614164575f80fd5b610c0c836020830184613474565b5f60208284031215614182575f80fd5b81516001600160401b03811115614197575f80fd5b8201601f810184136141a7575f80fd5b61275184825160208401614144565b7f7b226e616d65223a202242696c6c696f6e6169726520446f6a6f222c2022646581527f736372697074696f6e223a202253696d756c6174696f6e206879706f7468657360208201527f697320636f6e6669726d65642e2057696c6c2074686573652062696c6c696f6e60408201527f6169726573206675636b2065616368206f746865722075703f222c2022696d6160608201526533b2911d101160d11b60808201525f855161426e816086850160208a01613474565b71222c202261747472696275746573223a205b60701b6086918401918201527f7b2274726169745f74797065223a202262696c6c696f6e61697265222c20227660988201526730b63ab2911d101160c11b60b882015285516142d78160c0840160208a01613474565b61438061437a61432b61432560c0858701017f227d2c207b2274726169745f74797065223a202270756e63686c696e65222c20815269113b30b63ab2911d101160b11b6020820152602a0190565b89613e29565b7f227d2c207b22646973706c61795f74797065223a20226e756d626572222c202281527f74726169745f74797065223a20226d6f6e6579222c202276616c7565223a20006020820152603f0190565b86613e29565b98975050505050505050565b7f646174613a6170706c69636174696f6e2f6a736f6e3b6261736536342c00000081525f82516143c381601d850160208701613474565b91909101601d0192915050565b8215158152604060208201525f6127516040830184613496565b80516020808301519190811015611aa5575f1960209190910360031b1b16919050565b6001600160a01b038416815282151560208201526060604082018190525f90613f7f90830184613496565b6001600160a01b03858116825284166020820152604081018390526080606082018190525f90613fb690830184613496565b5f6020828403121561447a575f80fd5b8151610c0c81613444565b601f821115610bf357805f5260205f20601f840160051c810160208510156144aa5750805b601f840160051c820191505b81811015610fa7575f81556001016144b6565b81516001600160401b038111156144e2576144e261352d565b6144f6816144f08454613ff3565b84614485565b602080601f831160018114614529575f84156145125750858301515b5f19600386901b1c1916600185901b178555611660565b5f85815260208120601f198616915b8281101561455757888601518255948401946001909101908401614538565b508582101561457457878501515f19600388901b60f8161c191681555b5050505050600190811b01905550565b5f8651614595818460208b01613474565b80830190507f7d2c7b22646973706c61795f74797065223a20226e756d626572222c202274728082527f6169745f74797065223a20226368617269736d61222c202276616c7565223a20602083015287516145f7816040850160208c01613474565b604092019182018190527f6169745f74797065223a2022737472656e677468222c202276616c7565223a206060830152865161463a816080850160208b01613474565b608092019182018190527f6169745f74797065223a2022656d7061746879222c202276616c7565223a200060a0830152855161467d8160bf850160208a01613474565b60bf9201918201527f6169745f74797065223a20227374616d696e61222c202276616c7565223a200060df8201526143806146bb60fe830186613e29565b627d5d7d60e81b815260030190565b634e487b7160e01b5f52603160045260245ffdfea26469706673582212207936ffa936a1157e6461dd8fa4f309160af66b089a44a9553e824406e4ed7c1164736f6c634300081600334c65742773206b69636b2074686573652070757373696573206f7574206f662074686520736f6c61722073797374656d2c206b6964214c657427732073686f772074686573652070757373696573207768617420274265204576696c27207265616c6c79206d65616e732c206b6964214c6574277320667265616b696e27205a55434b20746865736520707573736965732c206b6964214c65742773206d616b652073757265207468657365207075737369657320776f6e27742062652061626c6520746f20757365206120566973696f6e2050726f2c206b69642168747470733a2f2f617277656176652e6e65742f416d7657727a6a316e4b786e487372346a586b77586665746538303337565a6a783236387230346e34345568747470733a2f2f617277656176652e6e65742f42755f7632734c5a6b674c51304e774149416b3470437a46326b6b66364154317268526372476a79424c5568747470733a2f2f617277656176652e6e65742f67742d695f506846575167374d65444f704c526274506771704f3755363661505478554b6139362d4639304c65742773207475726e207468657365207075737369657320696e746f20426974636f696e206d696e696e6720676561722c206b69642168747470733a2f2f617277656176652e6e65742f5a6f6f2d416b414c53454a716a67696f474c4d775a724f5f554b656b4746484364584d42537430434f563468747470733a2f2f617277656176652e6e65742f5166576a34333362474f49734f335351564d4e334c352d575467595a6b676a78354e3743376d3238682d594c65742773206f7574207468657365207075737369657320666173746572207468616e20616e20416d617a6f6e205072696d652064656c69766572792c206b69642168747470733a2f2f617277656176652e6e65742f6b7943495f4737765f377772706749746671674164664c6b73637a573270782d7637696650595f5a393551ece574603820d07bc9b91f2a932baadf4628aabcb8afba49776529c14a6104b2",
			"opcodes": "PUSH1 0xA PUSH2 0x140 SWAP1 DUP2 MSTORE PUSH10 0x4A6566662042657A6F73 PUSH1 0xB0 SHL PUSH2 0x160 MSTORE PUSH1 0x80 SWAP1 DUP2 MSTORE PUSH1 0x8 PUSH2 0x180 DUP2 DUP2 MSTORE PUSH8 0x54696D20436F6F6B PUSH1 0xC0 SHL PUSH2 0x1A0 MSTORE PUSH1 0xA0 MSTORE PUSH1 0xB PUSH2 0x1C0 SWAP1 DUP2 MSTORE PUSH11 0x4A61636B20446F72736579 PUSH1 0xA8 SHL PUSH2 0x1E0 MSTORE PUSH1 0xC0 MSTORE PUSH1 0x9 PUSH2 0x200 SWAP1 DUP2 MSTORE PUSH9 0x456C6F6E204D75736B PUSH1 0xB8 SHL PUSH2 0x220 MSTORE PUSH1 0xE0 MSTORE PUSH1 0xD PUSH2 0x240 SWAP1 DUP2 MSTORE PUSH13 0x53756E64617220506963686169 PUSH1 0x98 SHL PUSH2 0x260 MSTORE PUSH2 0x100 MSTORE PUSH2 0x2C0 PUSH1 0x40 MSTORE PUSH1 0xF PUSH2 0x280 SWAP1 DUP2 MSTORE PUSH15 0x4D61726B205A75636B657262657267 PUSH1 0x88 SHL PUSH2 0x2A0 MSTORE PUSH2 0x120 MSTORE PUSH3 0xCA SWAP2 PUSH1 0x6 PUSH3 0x819 JUMP JUMPDEST POP PUSH1 0x40 DUP1 MLOAD PUSH2 0x140 DUP2 ADD SWAP1 SWAP2 MSTORE PUSH1 0x42 PUSH1 0xC0 DUP3 ADD DUP2 DUP2 MSTORE DUP3 SWAP2 PUSH3 0x5444 PUSH1 0xE0 DUP5 ADD CODECOPY DUP2 MSTORE PUSH1 0x20 ADD PUSH1 0x40 MLOAD DUP1 PUSH1 0x80 ADD PUSH1 0x40 MSTORE DUP1 PUSH1 0x45 DUP2 MSTORE PUSH1 0x20 ADD PUSH3 0x528D PUSH1 0x45 SWAP2 CODECOPY DUP2 MSTORE PUSH1 0x20 ADD PUSH1 0x40 MLOAD DUP1 PUSH1 0x60 ADD PUSH1 0x40 MSTORE DUP1 PUSH1 0x37 DUP2 MSTORE PUSH1 0x20 ADD PUSH3 0x538F PUSH1 0x37 SWAP2 CODECOPY DUP2 MSTORE PUSH1 0x20 ADD PUSH1 0x40 MLOAD DUP1 PUSH1 0x60 ADD PUSH1 0x40 MSTORE DUP1 PUSH1 0x36 DUP2 MSTORE PUSH1 0x20 ADD PUSH3 0x51F6 PUSH1 0x36 SWAP2 CODECOPY DUP2 MSTORE PUSH1 0x20 ADD PUSH1 0x40 MLOAD DUP1 PUSH1 0x60 ADD PUSH1 0x40 MSTORE DUP1 PUSH1 0x3A DUP2 MSTORE PUSH1 0x20 ADD PUSH3 0x522C PUSH1 0x3A SWAP2 CODECOPY DUP2 MSTORE PUSH1 0x20 ADD PUSH1 0x40 MLOAD DUP1 PUSH1 0x60 ADD PUSH1 0x40 MSTORE DUP1 PUSH1 0x27 DUP2 MSTORE PUSH1 0x20 ADD PUSH3 0x5266 PUSH1 0x27 SWAP2 CODECOPY SWAP1 MSTORE PUSH3 0x198 SWAP1 PUSH1 0xE SWAP1 PUSH1 0x6 PUSH3 0x819 JUMP JUMPDEST POP PUSH1 0x40 DUP1 MLOAD PUSH2 0x120 DUP2 ADD SWAP1 SWAP2 MSTORE PUSH1 0x3F PUSH1 0xC0 DUP3 ADD DUP2 DUP2 MSTORE DUP3 SWAP2 PUSH3 0x5350 PUSH1 0xE0 DUP5 ADD CODECOPY DUP2 MSTORE PUSH1 0x20 ADD PUSH1 0x40 MLOAD DUP1 PUSH1 0x60 ADD PUSH1 0x40 MSTORE DUP1 PUSH1 0x3F DUP2 MSTORE PUSH1 0x20 ADD PUSH3 0x5311 PUSH1 0x3F SWAP2 CODECOPY DUP2 MSTORE PUSH1 0x20 ADD PUSH1 0x40 MLOAD DUP1 PUSH1 0x60 ADD PUSH1 0x40 MSTORE DUP1 PUSH1 0x3F DUP2 MSTORE PUSH1 0x20 ADD PUSH3 0x5486 PUSH1 0x3F SWAP2 CODECOPY DUP2 MSTORE PUSH1 0x20 ADD PUSH1 0x40 MLOAD DUP1 PUSH1 0x60 ADD PUSH1 0x40 MSTORE DUP1 PUSH1 0x3F DUP2 MSTORE PUSH1 0x20 ADD PUSH3 0x53C6 PUSH1 0x3F SWAP2 CODECOPY DUP2 MSTORE PUSH1 0x20 ADD PUSH1 0x40 MLOAD DUP1 PUSH1 0x60 ADD PUSH1 0x40 MSTORE DUP1 PUSH1 0x3F DUP2 MSTORE PUSH1 0x20 ADD PUSH3 0x52D2 PUSH1 0x3F SWAP2 CODECOPY DUP2 MSTORE PUSH1 0x20 ADD PUSH1 0x40 MLOAD DUP1 PUSH1 0x60 ADD PUSH1 0x40 MSTORE DUP1 PUSH1 0x3F DUP2 MSTORE PUSH1 0x20 ADD PUSH3 0x5405 PUSH1 0x3F SWAP2 CODECOPY SWAP1 MSTORE PUSH3 0x266 SWAP1 PUSH1 0x14 SWAP1 PUSH1 0x6 PUSH3 0x819 JUMP JUMPDEST POP PUSH7 0x18DE76816D8000 PUSH1 0x1D SSTORE CALLVALUE DUP1 ISZERO PUSH3 0x27E JUMPI PUSH0 DUP1 REVERT JUMPDEST POP PUSH1 0x40 DUP1 MLOAD DUP1 DUP3 ADD DUP3 MSTORE PUSH1 0x10 DUP2 MSTORE PUSH16 0x42696C6C696F6E6169726520446F6A6F PUSH1 0x80 SHL PUSH1 0x20 DUP1 DUP4 ADD SWAP2 SWAP1 SWAP2 MSTORE DUP3 MLOAD DUP1 DUP5 ADD SWAP1 SWAP4 MSTORE PUSH1 0x4 DUP4 MSTORE PUSH4 0x444F4A4F PUSH1 0xE0 SHL SWAP1 DUP4 ADD MSTORE SWAP1 CALLER PUSH0 DUP4 DUP4 DUP4 DUP4 DUP4 DUP4 DUP4 DUP1 DUP1 PUSH3 0x2EB JUMPI PUSH1 0x40 MLOAD PUSH4 0x6B620DB PUSH1 0xE2 SHL DUP2 MSTORE PUSH1 0x4 ADD PUSH1 0x40 MLOAD DUP1 SWAP2 SUB SWAP1 REVERT JUMPDEST PUSH3 0x2F6 DUP2 PUSH3 0x51D JUMP JUMPDEST POP PUSH1 0x40 DUP1 MLOAD DUP1 DUP3 ADD SWAP1 SWAP2 MSTORE PUSH1 0x4 DUP2 MSTORE PUSH4 0x29365989 PUSH1 0xE2 SHL PUSH1 0x20 DUP3 ADD MSTORE PUSH3 0x33F SWAP1 PUSH32 0xEAFEC4D89FA9619884B60000A4D96624A38F7AC2D8D9A604ECF07C12C77E480C SWAP1 PUSH3 0x588 JUMP JUMPDEST PUSH3 0x36B PUSH32 0xDEBA1E292F8BA88238E10AB3C7F88BD4BE4FAC56CAD5194B6ECCEAF653468AF1 DUP5 PUSH3 0x588 JUMP JUMPDEST PUSH3 0x397 PUSH32 0x2F0A68AB07768E01943A599E73362A0E17A63A72E94DD2E384D2C1D4DB932756 DUP4 PUSH3 0x588 JUMP JUMPDEST POP POP PUSH1 0x40 DUP1 MLOAD PUSH1 0x20 DUP2 ADD DUP5 SWAP1 MSTORE PUSH3 0x3E3 SWAP3 POP PUSH32 0x715F248956DE7CE65E94D9D836BFEAD479F7E70D69B718D47BFE7B00E05B4FE4 SWAP2 ADD PUSH1 0x40 DUP1 MLOAD PUSH1 0x1F NOT DUP2 DUP5 SUB ADD DUP2 MSTORE SWAP2 SWAP1 MSTORE PUSH3 0x5CE JUMP JUMPDEST POP POP PUSH1 0x1 PUSH1 0x1A DUP2 SWAP1 SSTORE PUSH1 0x40 DUP1 MLOAD DUP1 DUP3 ADD SWAP1 SWAP2 MSTORE SWAP1 DUP2 MSTORE PUSH1 0x1 PUSH1 0xF8 SHL PUSH1 0x20 DUP3 ADD MSTORE PUSH3 0x438 SWAP7 POP PUSH32 0x114BD03B3A46D48759680D81EBB2B414FDA7D030A7105A851867ACCF1C2352E7 SWAP6 POP SWAP4 POP POP PUSH3 0x6B0 SWAP2 POP POP JUMP JUMPDEST PUSH1 0x40 DUP1 MLOAD DUP1 DUP3 ADD SWAP1 SWAP2 MSTORE PUSH1 0x14 DUP2 MSTORE PUSH32 0x4E86B0301067AB10E505B0D4C44E9E01D024A068000000000000000000000000 PUSH1 0x20 DUP3 ADD MSTORE PUSH3 0x48C SWAP1 PUSH16 0x452F40ECE91B521D65A03607AECAD05 PUSH1 0x82 SHL SWAP1 PUSH3 0x6B0 JUMP JUMPDEST PUSH1 0x40 DUP1 MLOAD PUSH10 0x36F42F57AECC15A72ED PUSH1 0xB5 SHL PUSH1 0x20 DUP3 ADD MSTORE PUSH32 0x4E86B0301067AB10E505B0D4C44E9E01D024A068000000000000000000000000 PUSH1 0x2C DUP3 ADD MSTORE PUSH0 SWAP2 ADD PUSH1 0x40 MLOAD PUSH1 0x20 DUP2 DUP4 SUB SUB DUP2 MSTORE SWAP1 PUSH1 0x40 MSTORE PUSH3 0x4E6 SWAP1 PUSH3 0x8D5 JUMP JUMPDEST SWAP1 POP PUSH3 0x516 DUP2 PUSH1 0x40 MLOAD DUP1 PUSH1 0x40 ADD PUSH1 0x40 MSTORE DUP1 PUSH1 0xC DUP2 MSTORE PUSH1 0x20 ADD PUSH4 0x66767497 PUSH1 0xE0 SHL DUP2 MSTORE POP PUSH3 0x6B0 PUSH1 0x20 SHL PUSH1 0x20 SHR JUMP JUMPDEST POP PUSH3 0xAD4 JUMP JUMPDEST PUSH0 SLOAD PUSH1 0x1 PUSH1 0x1 PUSH1 0xA0 SHL SUB DUP3 DUP2 AND SWAP2 AND EQ PUSH3 0x585 JUMPI PUSH0 DUP1 SLOAD PUSH1 0x40 MLOAD PUSH1 0x1 PUSH1 0x1 PUSH1 0xA0 SHL SUB DUP1 DUP6 AND SWAP4 SWAP3 AND SWAP2 PUSH32 0x8BE0079C531659141344CD1FD0A4F28419497F9722A3DAAFE3B4186F6B6457E0 SWAP2 LOG3 PUSH0 DUP1 SLOAD PUSH1 0x1 PUSH1 0x1 PUSH1 0xA0 SHL SUB NOT AND PUSH1 0x1 PUSH1 0x1 PUSH1 0xA0 SHL SUB DUP4 AND OR SWAP1 SSTORE JUMPDEST POP JUMP JUMPDEST PUSH0 DUP3 DUP2 MSTORE PUSH1 0x1 PUSH1 0x20 MSTORE PUSH1 0x40 SWAP1 KECCAK256 PUSH3 0x5A1 DUP3 DUP3 PUSH3 0x994 JUMP JUMPDEST POP DUP2 PUSH0 DUP1 MLOAD PUSH1 0x20 PUSH3 0x54C5 DUP4 CODECOPY DUP2 MLOAD SWAP2 MSTORE DUP3 PUSH1 0x40 MLOAD PUSH3 0x5C2 SWAP2 SWAP1 PUSH3 0xA60 JUMP JUMPDEST PUSH1 0x40 MLOAD DUP1 SWAP2 SUB SWAP1 LOG2 POP POP JUMP JUMPDEST PUSH32 0x2145E1D6D074577DC71EF54C3807742B41B053A9352AE6B491331509ACB9750F DUP3 ADD PUSH3 0x60F JUMPI PUSH1 0x40 MLOAD PUSH4 0x85C169BD PUSH1 0xE0 SHL DUP2 MSTORE PUSH1 0x4 ADD PUSH1 0x40 MLOAD DUP1 SWAP2 SUB SWAP1 REVERT JUMPDEST PUSH32 0xD0F59754F88971FE6BC5A6618CC9D5F1E859C58D16B22D1C7B2D3E2B246CD8AA DUP3 ADD PUSH3 0x650 JUMPI PUSH1 0x40 MLOAD PUSH4 0xECEAB67 PUSH1 0xE3 SHL DUP2 MSTORE PUSH1 0x4 ADD PUSH1 0x40 MLOAD DUP1 SWAP2 SUB SWAP1 REVERT JUMPDEST PUSH0 DUP3 DUP2 MSTORE PUSH1 0x1 PUSH1 0x20 MSTORE PUSH1 0x40 SWAP1 KECCAK256 PUSH3 0x669 DUP3 DUP3 PUSH3 0x994 JUMP JUMPDEST POP DUP2 PUSH0 DUP1 MLOAD PUSH1 0x20 PUSH3 0x54C5 DUP4 CODECOPY DUP2 MLOAD SWAP2 MSTORE PUSH2 0x100 DUP4 MLOAD GT ISZERO PUSH3 0x69B JUMPI PUSH3 0x695 DUP4 PUSH0 PUSH2 0x100 PUSH3 0x6FD JUMP JUMPDEST PUSH3 0x69D JUMP JUMPDEST DUP3 JUMPDEST PUSH1 0x40 MLOAD PUSH3 0x5C2 SWAP2 SWAP1 PUSH3 0xA60 JUMP JUMPDEST POP POP JUMP JUMPDEST PUSH32 0x8EA0DB76A9218319A16B2627C940152B860818F29648E72B840184FF1FA4B01C DUP3 ADD PUSH3 0x6F1 JUMPI PUSH1 0x40 MLOAD PUSH4 0x29DE0891 PUSH1 0xE1 SHL DUP2 MSTORE PUSH1 0x4 ADD PUSH1 0x40 MLOAD DUP1 SWAP2 SUB SWAP1 REVERT JUMPDEST PUSH3 0x6AC DUP3 DUP3 PUSH3 0x5CE JUMP JUMPDEST PUSH1 0x60 DUP2 PUSH3 0x70D DUP2 PUSH1 0x1F PUSH3 0xAAE JUMP JUMPDEST LT ISZERO PUSH3 0x752 JUMPI PUSH1 0x40 MLOAD PUSH3 0x461BCD PUSH1 0xE5 SHL DUP2 MSTORE PUSH1 0x20 PUSH1 0x4 DUP3 ADD MSTORE PUSH1 0xE PUSH1 0x24 DUP3 ADD MSTORE PUSH14 0x736C6963655F6F766572666C6F77 PUSH1 0x90 SHL PUSH1 0x44 DUP3 ADD MSTORE PUSH1 0x64 ADD JUMPDEST PUSH1 0x40 MLOAD DUP1 SWAP2 SUB SWAP1 REVERT JUMPDEST PUSH3 0x75E DUP3 DUP5 PUSH3 0xAAE JUMP JUMPDEST DUP5 MLOAD LT ISZERO PUSH3 0x7A4 JUMPI PUSH1 0x40 MLOAD PUSH3 0x461BCD PUSH1 0xE5 SHL DUP2 MSTORE PUSH1 0x20 PUSH1 0x4 DUP3 ADD MSTORE PUSH1 0x11 PUSH1 0x24 DUP3 ADD MSTORE PUSH17 0x736C6963655F6F75744F66426F756E6473 PUSH1 0x78 SHL PUSH1 0x44 DUP3 ADD MSTORE PUSH1 0x64 ADD PUSH3 0x749 JUMP JUMPDEST PUSH1 0x60 DUP3 ISZERO DUP1 ISZERO PUSH3 0x7C4 JUMPI PUSH1 0x40 MLOAD SWAP2 POP PUSH0 DUP3 MSTORE PUSH1 0x20 DUP3 ADD PUSH1 0x40 MSTORE PUSH3 0x810 JUMP JUMPDEST PUSH1 0x40 MLOAD SWAP2 POP PUSH1 0x1F DUP5 AND DUP1 ISZERO PUSH1 0x20 MUL DUP2 DUP5 ADD ADD DUP6 DUP2 ADD DUP8 DUP4 ISZERO PUSH1 0x20 MUL DUP5 DUP12 ADD ADD ADD JUMPDEST DUP2 DUP4 LT ISZERO PUSH3 0x7FF JUMPI DUP1 MLOAD DUP4 MSTORE PUSH1 0x20 SWAP3 DUP4 ADD SWAP3 ADD PUSH3 0x7E5 JUMP JUMPDEST POP POP DUP6 DUP5 MSTORE PUSH1 0x1F ADD PUSH1 0x1F NOT AND PUSH1 0x40 MSTORE POP JUMPDEST POP SWAP5 SWAP4 POP POP POP POP JUMP JUMPDEST DUP3 PUSH1 0x6 DUP2 ADD SWAP3 DUP3 ISZERO PUSH3 0x857 JUMPI SWAP2 PUSH1 0x20 MUL DUP3 ADD JUMPDEST DUP3 DUP2 GT ISZERO PUSH3 0x857 JUMPI DUP3 MLOAD DUP3 SWAP1 PUSH3 0x846 SWAP1 DUP3 PUSH3 0x994 JUMP JUMPDEST POP SWAP2 PUSH1 0x20 ADD SWAP2 SWAP1 PUSH1 0x1 ADD SWAP1 PUSH3 0x82D JUMP JUMPDEST POP PUSH3 0x865 SWAP3 SWAP2 POP PUSH3 0x869 JUMP JUMPDEST POP SWAP1 JUMP JUMPDEST DUP1 DUP3 GT ISZERO PUSH3 0x865 JUMPI PUSH0 PUSH3 0x87F DUP3 DUP3 PUSH3 0x889 JUMP JUMPDEST POP PUSH1 0x1 ADD PUSH3 0x869 JUMP JUMPDEST POP DUP1 SLOAD PUSH3 0x897 SWAP1 PUSH3 0x910 JUMP JUMPDEST PUSH0 DUP3 SSTORE DUP1 PUSH1 0x1F LT PUSH3 0x8A7 JUMPI POP POP JUMP JUMPDEST PUSH1 0x1F ADD PUSH1 0x20 SWAP1 DIV SWAP1 PUSH0 MSTORE PUSH1 0x20 PUSH0 KECCAK256 SWAP1 DUP2 ADD SWAP1 PUSH3 0x585 SWAP2 SWAP1 JUMPDEST DUP1 DUP3 GT ISZERO PUSH3 0x865 JUMPI PUSH0 DUP2 SSTORE PUSH1 0x1 ADD PUSH3 0x8C0 JUMP JUMPDEST DUP1 MLOAD PUSH1 0x20 DUP1 DUP4 ADD MLOAD SWAP2 SWAP1 DUP2 LT ISZERO PUSH3 0x8F6 JUMPI PUSH0 NOT DUP2 PUSH1 0x20 SUB PUSH1 0x3 SHL SHL DUP3 AND SWAP2 POP JUMPDEST POP SWAP2 SWAP1 POP JUMP JUMPDEST PUSH4 0x4E487B71 PUSH1 0xE0 SHL PUSH0 MSTORE PUSH1 0x41 PUSH1 0x4 MSTORE PUSH1 0x24 PUSH0 REVERT JUMPDEST PUSH1 0x1 DUP2 DUP2 SHR SWAP1 DUP3 AND DUP1 PUSH3 0x925 JUMPI PUSH1 0x7F DUP3 AND SWAP2 POP JUMPDEST PUSH1 0x20 DUP3 LT DUP2 SUB PUSH3 0x8F6 JUMPI PUSH4 0x4E487B71 PUSH1 0xE0 SHL PUSH0 MSTORE PUSH1 0x22 PUSH1 0x4 MSTORE PUSH1 0x24 PUSH0 REVERT JUMPDEST PUSH1 0x1F DUP3 GT ISZERO PUSH3 0x98F JUMPI DUP1 PUSH0 MSTORE PUSH1 0x20 PUSH0 KECCAK256 PUSH1 0x1F DUP5 ADD PUSH1 0x5 SHR DUP2 ADD PUSH1 0x20 DUP6 LT ISZERO PUSH3 0x96B JUMPI POP DUP1 JUMPDEST PUSH1 0x1F DUP5 ADD PUSH1 0x5 SHR DUP3 ADD SWAP2 POP JUMPDEST DUP2 DUP2 LT ISZERO PUSH3 0x98C JUMPI PUSH0 DUP2 SSTORE PUSH1 0x1 ADD PUSH3 0x977 JUMP JUMPDEST POP POP JUMPDEST POP POP POP JUMP JUMPDEST DUP2 MLOAD PUSH1 0x1 PUSH1 0x1 PUSH1 0x40 SHL SUB DUP2 GT ISZERO PUSH3 0x9B0 JUMPI PUSH3 0x9B0 PUSH3 0x8FC JUMP JUMPDEST PUSH3 0x9C8 DUP2 PUSH3 0x9C1 DUP5 SLOAD PUSH3 0x910 JUMP JUMPDEST DUP5 PUSH3 0x944 JUMP JUMPDEST PUSH1 0x20 DUP1 PUSH1 0x1F DUP4 GT PUSH1 0x1 DUP2 EQ PUSH3 0x9FE JUMPI PUSH0 DUP5 ISZERO PUSH3 0x9E6 JUMPI POP DUP6 DUP4 ADD MLOAD JUMPDEST PUSH0 NOT PUSH1 0x3 DUP7 SWAP1 SHL SHR NOT AND PUSH1 0x1 DUP6 SWAP1 SHL OR DUP6 SSTORE PUSH3 0xA58 JUMP JUMPDEST PUSH0 DUP6 DUP2 MSTORE PUSH1 0x20 DUP2 KECCAK256 PUSH1 0x1F NOT DUP7 AND SWAP2 JUMPDEST DUP3 DUP2 LT ISZERO PUSH3 0xA2E JUMPI DUP9 DUP7 ADD MLOAD DUP3 SSTORE SWAP5 DUP5 ADD SWAP5 PUSH1 0x1 SWAP1 SWAP2 ADD SWAP1 DUP5 ADD PUSH3 0xA0D JUMP JUMPDEST POP DUP6 DUP3 LT ISZERO PUSH3 0xA4C JUMPI DUP8 DUP6 ADD MLOAD PUSH0 NOT PUSH1 0x3 DUP9 SWAP1 SHL PUSH1 0xF8 AND SHR NOT AND DUP2 SSTORE JUMPDEST POP POP PUSH1 0x1 DUP5 PUSH1 0x1 SHL ADD DUP6 SSTORE JUMPDEST POP POP POP POP POP POP JUMP JUMPDEST PUSH0 PUSH1 0x20 DUP1 DUP4 MSTORE DUP4 MLOAD DUP1 PUSH1 0x20 DUP6 ADD MSTORE PUSH0 JUMPDEST DUP2 DUP2 LT ISZERO PUSH3 0xA8E JUMPI DUP6 DUP2 ADD DUP4 ADD MLOAD DUP6 DUP3 ADD PUSH1 0x40 ADD MSTORE DUP3 ADD PUSH3 0xA70 JUMP JUMPDEST POP PUSH0 PUSH1 0x40 DUP3 DUP7 ADD ADD MSTORE PUSH1 0x40 PUSH1 0x1F NOT PUSH1 0x1F DUP4 ADD AND DUP6 ADD ADD SWAP3 POP POP POP SWAP3 SWAP2 POP POP JUMP JUMPDEST DUP1 DUP3 ADD DUP1 DUP3 GT ISZERO PUSH3 0xACE JUMPI PUSH4 0x4E487B71 PUSH1 0xE0 SHL PUSH0 MSTORE PUSH1 0x11 PUSH1 0x4 MSTORE PUSH1 0x24 PUSH0 REVERT JUMPDEST SWAP3 SWAP2 POP POP JUMP JUMPDEST PUSH2 0x4714 DUP1 PUSH3 0xAE2 PUSH0 CODECOPY PUSH0 RETURN INVALID PUSH1 0x80 PUSH1 0x40 MSTORE PUSH1 0x4 CALLDATASIZE LT PUSH2 0x275 JUMPI PUSH0 CALLDATALOAD PUSH1 0xE0 SHR DUP1 PUSH4 0x6817C76C GT PUSH2 0x14E JUMPI DUP1 PUSH4 0xA22CB465 GT PUSH2 0xC0 JUMPI DUP1 PUSH4 0xDB8C9663 GT PUSH2 0x79 JUMPI DUP1 PUSH4 0xDB8C9663 EQ PUSH2 0x7D1 JUMPI DUP1 PUSH4 0xDEDFF9C6 EQ PUSH2 0x7F0 JUMPI DUP1 PUSH4 0xE985E9C5 EQ PUSH2 0x81C JUMPI DUP1 PUSH4 0xF2FDE38B EQ PUSH2 0x83B JUMPI DUP1 PUSH4 0xF4A0A528 EQ PUSH2 0x85A JUMPI DUP1 PUSH4 0xFDFD8058 EQ PUSH2 0x879 JUMPI PUSH2 0x2CE JUMP JUMPDEST DUP1 PUSH4 0xA22CB465 EQ PUSH2 0x70A JUMPI DUP1 PUSH4 0xA3B261F2 EQ PUSH2 0x729 JUMPI DUP1 PUSH4 0xB88D4FDE EQ PUSH2 0x755 JUMPI DUP1 PUSH4 0xC635A789 EQ PUSH2 0x774 JUMPI DUP1 PUSH4 0xC87B56DD EQ PUSH2 0x793 JUMPI DUP1 PUSH4 0xD9CFF232 EQ PUSH2 0x7B2 JUMPI PUSH2 0x2CE JUMP JUMPDEST DUP1 PUSH4 0x7F23690C GT PUSH2 0x112 JUMPI DUP1 PUSH4 0x7F23690C EQ PUSH2 0x66A JUMPI DUP1 PUSH4 0x86A10DDD EQ PUSH2 0x67D JUMPI DUP1 PUSH4 0x8DA5CB5B EQ PUSH2 0x69C JUMPI DUP1 PUSH4 0x94A02353 EQ PUSH2 0x6B8 JUMPI DUP1 PUSH4 0x95D89B41 EQ PUSH2 0x6E3 JUMPI DUP1 PUSH4 0x97902421 EQ PUSH2 0x6F7 JUMPI PUSH2 0x2CE JUMP JUMPDEST DUP1 PUSH4 0x6817C76C EQ PUSH2 0x5F0 JUMPI DUP1 PUSH4 0x6ECD2306 EQ PUSH2 0x605 JUMPI DUP1 PUSH4 0x70A08231 EQ PUSH2 0x618 JUMPI DUP1 PUSH4 0x715018A6 EQ PUSH2 0x637 JUMPI DUP1 PUSH4 0x7E87632C EQ PUSH2 0x64B JUMPI PUSH2 0x2CE JUMP JUMPDEST DUP1 PUSH4 0x23B872DD GT PUSH2 0x1E7 JUMPI DUP1 PUSH4 0x49A6078D GT PUSH2 0x1AB JUMPI DUP1 PUSH4 0x49A6078D EQ PUSH2 0x51E JUMPI DUP1 PUSH4 0x4B053409 EQ PUSH2 0x54A JUMPI DUP1 PUSH4 0x511B6952 EQ PUSH2 0x574 JUMPI DUP1 PUSH4 0x51CFF8D9 EQ PUSH2 0x593 JUMPI DUP1 PUSH4 0x54F6127F EQ PUSH2 0x5B2 JUMPI DUP1 PUSH4 0x6352211E EQ PUSH2 0x5D1 JUMPI PUSH2 0x2CE JUMP JUMPDEST DUP1 PUSH4 0x23B872DD EQ PUSH2 0x48F JUMPI DUP1 PUSH4 0x2A3654A4 EQ PUSH2 0x4AE JUMPI DUP1 PUSH4 0x2B809568 EQ PUSH2 0x4CD JUMPI DUP1 PUSH4 0x2CC27BFD EQ PUSH2 0x4EC JUMPI DUP1 PUSH4 0x42842E0E EQ PUSH2 0x4FF JUMPI PUSH2 0x2CE JUMP JUMPDEST DUP1 PUSH4 0x164170A2 GT PUSH2 0x239 JUMPI DUP1 PUSH4 0x164170A2 EQ PUSH2 0x3DE JUMPI DUP1 PUSH4 0x17609459 EQ PUSH2 0x3FD JUMPI DUP1 PUSH4 0x18160DDD EQ PUSH2 0x429 JUMPI DUP1 PUSH4 0x1E010439 EQ PUSH2 0x43D JUMPI DUP1 PUSH4 0x20F5E8DD EQ PUSH2 0x45C JUMPI DUP1 PUSH4 0x217B2270 EQ PUSH2 0x470 JUMPI PUSH2 0x2CE JUMP JUMPDEST DUP1 PUSH4 0x1FFC9A7 EQ PUSH2 0x30E JUMPI DUP1 PUSH4 0x6661ABD EQ PUSH2 0x342 JUMPI DUP1 PUSH4 0x6FDDE03 EQ PUSH2 0x365 JUMPI DUP1 PUSH4 0x81812FC EQ PUSH2 0x386 JUMPI DUP1 PUSH4 0x95EA7B3 EQ PUSH2 0x3BD JUMPI PUSH2 0x2CE JUMP JUMPDEST CALLDATASIZE PUSH2 0x2CE JUMPI CALLVALUE PUSH0 SUB PUSH2 0x2B5 JUMPI PUSH1 0x40 MLOAD PUSH4 0xE5099EE3 PUSH1 0xE0 SHL DUP2 MSTORE PUSH1 0x4 ADD PUSH2 0x2AC SWAP1 PUSH1 0x20 DUP1 DUP3 MSTORE PUSH1 0x4 SWAP1 DUP3 ADD MSTORE PUSH0 PUSH1 0x40 DUP3 ADD MSTORE PUSH1 0x60 ADD SWAP1 JUMP JUMPDEST PUSH1 0x40 MLOAD DUP1 SWAP2 SUB SWAP1 REVERT JUMPDEST PUSH1 0x40 MLOAD PUSH4 0x30FA4A21 PUSH1 0xE1 SHL DUP2 MSTORE PUSH1 0x4 ADD PUSH1 0x40 MLOAD DUP1 SWAP2 SUB SWAP1 REVERT JUMPDEST PUSH0 CALLDATASIZE PUSH1 0x60 PUSH1 0x4 DUP3 LT ISZERO PUSH2 0x2F8 JUMPI DUP3 DUP3 PUSH1 0x40 MLOAD PUSH4 0xE5099EE3 PUSH1 0xE0 SHL DUP2 MSTORE PUSH1 0x4 ADD PUSH2 0x2AC SWAP3 SWAP2 SWAP1 PUSH2 0x3416 JUMP JUMPDEST PUSH2 0x302 DUP4 DUP4 PUSH2 0x898 JUMP JUMPDEST DUP1 MLOAD SWAP4 POP PUSH1 0x20 ADD SWAP2 POP POP RETURN JUMPDEST CALLVALUE DUP1 ISZERO PUSH2 0x319 JUMPI PUSH0 DUP1 REVERT JUMPDEST POP PUSH2 0x32D PUSH2 0x328 CALLDATASIZE PUSH1 0x4 PUSH2 0x3459 JUMP JUMPDEST PUSH2 0x987 JUMP JUMPDEST PUSH1 0x40 MLOAD SWAP1 ISZERO ISZERO DUP2 MSTORE PUSH1 0x20 ADD JUMPDEST PUSH1 0x40 MLOAD DUP1 SWAP2 SUB SWAP1 RETURN JUMPDEST CALLVALUE DUP1 ISZERO PUSH2 0x34D JUMPI PUSH0 DUP1 REVERT JUMPDEST POP PUSH2 0x357 PUSH1 0x1C SLOAD DUP2 JUMP JUMPDEST PUSH1 0x40 MLOAD SWAP1 DUP2 MSTORE PUSH1 0x20 ADD PUSH2 0x339 JUMP JUMPDEST CALLVALUE DUP1 ISZERO PUSH2 0x370 JUMPI PUSH0 DUP1 REVERT JUMPDEST POP PUSH2 0x379 PUSH2 0x9C6 JUMP JUMPDEST PUSH1 0x40 MLOAD PUSH2 0x339 SWAP2 SWAP1 PUSH2 0x34C1 JUMP JUMPDEST CALLVALUE DUP1 ISZERO PUSH2 0x391 JUMPI PUSH0 DUP1 REVERT JUMPDEST POP PUSH2 0x3A5 PUSH2 0x3A0 CALLDATASIZE PUSH1 0x4 PUSH2 0x34D3 JUMP JUMPDEST PUSH2 0x9F2 JUMP JUMPDEST PUSH1 0x40 MLOAD PUSH1 0x1 PUSH1 0x1 PUSH1 0xA0 SHL SUB SWAP1 SWAP2 AND DUP2 MSTORE PUSH1 0x20 ADD PUSH2 0x339 JUMP JUMPDEST CALLVALUE DUP1 ISZERO PUSH2 0x3C8 JUMPI PUSH0 DUP1 REVERT JUMPDEST POP PUSH2 0x3DC PUSH2 0x3D7 CALLDATASIZE PUSH1 0x4 PUSH2 0x3505 JUMP JUMPDEST PUSH2 0xA54 JUMP JUMPDEST STOP JUMPDEST CALLVALUE DUP1 ISZERO PUSH2 0x3E9 JUMPI PUSH0 DUP1 REVERT JUMPDEST POP PUSH2 0x3DC PUSH2 0x3F8 CALLDATASIZE PUSH1 0x4 PUSH2 0x35FA JUMP JUMPDEST PUSH2 0xA73 JUMP JUMPDEST CALLVALUE DUP1 ISZERO PUSH2 0x408 JUMPI PUSH0 DUP1 REVERT JUMPDEST POP PUSH2 0x41C PUSH2 0x417 CALLDATASIZE PUSH1 0x4 PUSH2 0x34D3 JUMP JUMPDEST PUSH2 0xA87 JUMP JUMPDEST PUSH1 0x40 MLOAD PUSH2 0x339 SWAP2 SWAP1 PUSH2 0x36B5 JUMP JUMPDEST CALLVALUE DUP1 ISZERO PUSH2 0x434 JUMPI PUSH0 DUP1 REVERT JUMPDEST POP PUSH1 0x2 SLOAD PUSH2 0x357 JUMP JUMPDEST CALLVALUE DUP1 ISZERO PUSH2 0x448 JUMPI PUSH0 DUP1 REVERT JUMPDEST POP PUSH2 0x357 PUSH2 0x457 CALLDATASIZE PUSH1 0x4 PUSH2 0x34D3 JUMP JUMPDEST PUSH2 0xACA JUMP JUMPDEST CALLVALUE DUP1 ISZERO PUSH2 0x467 JUMPI PUSH0 DUP1 REVERT JUMPDEST POP PUSH2 0x3DC PUSH2 0xAE0 JUMP JUMPDEST CALLVALUE DUP1 ISZERO PUSH2 0x47B JUMPI PUSH0 DUP1 REVERT JUMPDEST POP PUSH2 0x3A5 PUSH2 0x48A CALLDATASIZE PUSH1 0x4 PUSH2 0x34D3 JUMP JUMPDEST PUSH2 0xB9D JUMP JUMPDEST CALLVALUE DUP1 ISZERO PUSH2 0x49A JUMPI PUSH0 DUP1 REVERT JUMPDEST POP PUSH2 0x3DC PUSH2 0x4A9 CALLDATASIZE PUSH1 0x4 PUSH2 0x371E JUMP JUMPDEST PUSH2 0xBD5 JUMP JUMPDEST CALLVALUE DUP1 ISZERO PUSH2 0x4B9 JUMPI PUSH0 DUP1 REVERT JUMPDEST POP PUSH2 0x32D PUSH2 0x4C8 CALLDATASIZE PUSH1 0x4 PUSH2 0x3505 JUMP JUMPDEST PUSH2 0xBF8 JUMP JUMPDEST CALLVALUE DUP1 ISZERO PUSH2 0x4D8 JUMPI PUSH0 DUP1 REVERT JUMPDEST POP PUSH2 0x3DC PUSH2 0x4E7 CALLDATASIZE PUSH1 0x4 PUSH2 0x35FA JUMP JUMPDEST PUSH2 0xC13 JUMP JUMPDEST PUSH2 0x3DC PUSH2 0x4FA CALLDATASIZE PUSH1 0x4 PUSH2 0x3763 JUMP JUMPDEST PUSH2 0xC24 JUMP JUMPDEST CALLVALUE DUP1 ISZERO PUSH2 0x50A JUMPI PUSH0 DUP1 REVERT JUMPDEST POP PUSH2 0x3DC PUSH2 0x519 CALLDATASIZE PUSH1 0x4 PUSH2 0x371E JUMP JUMPDEST PUSH2 0xF2F JUMP JUMPDEST CALLVALUE DUP1 ISZERO PUSH2 0x529 JUMPI PUSH0 DUP1 REVERT JUMPDEST POP PUSH2 0x53D PUSH2 0x538 CALLDATASIZE PUSH1 0x4 PUSH2 0x34D3 JUMP JUMPDEST PUSH2 0xF49 JUMP JUMPDEST PUSH1 0x40 MLOAD PUSH2 0x339 SWAP2 SWAP1 PUSH2 0x377F JUMP JUMPDEST CALLVALUE DUP1 ISZERO PUSH2 0x555 JUMPI PUSH0 DUP1 REVERT JUMPDEST POP PUSH2 0x357 PUSH2 0x564 CALLDATASIZE PUSH1 0x4 PUSH2 0x37CB JUMP JUMPDEST PUSH1 0x20 DUP1 MSTORE PUSH0 SWAP1 DUP2 MSTORE PUSH1 0x40 SWAP1 KECCAK256 SLOAD DUP2 JUMP JUMPDEST CALLVALUE DUP1 ISZERO PUSH2 0x57F JUMPI PUSH0 DUP1 REVERT JUMPDEST POP PUSH2 0x3DC PUSH2 0x58E CALLDATASIZE PUSH1 0x4 PUSH2 0x3813 JUMP JUMPDEST PUSH2 0xF6A JUMP JUMPDEST CALLVALUE DUP1 ISZERO PUSH2 0x59E JUMPI PUSH0 DUP1 REVERT JUMPDEST POP PUSH2 0x3DC PUSH2 0x5AD CALLDATASIZE PUSH1 0x4 PUSH2 0x3886 JUMP JUMPDEST PUSH2 0xFAE JUMP JUMPDEST CALLVALUE DUP1 ISZERO PUSH2 0x5BD JUMPI PUSH0 DUP1 REVERT JUMPDEST POP PUSH2 0x379 PUSH2 0x5CC CALLDATASIZE PUSH1 0x4 PUSH2 0x34D3 JUMP JUMPDEST PUSH2 0x10A8 JUMP JUMPDEST CALLVALUE DUP1 ISZERO PUSH2 0x5DC JUMPI PUSH0 DUP1 REVERT JUMPDEST POP PUSH2 0x3A5 PUSH2 0x5EB CALLDATASIZE PUSH1 0x4 PUSH2 0x34D3 JUMP JUMPDEST PUSH2 0x10B3 JUMP JUMPDEST CALLVALUE DUP1 ISZERO PUSH2 0x5FB JUMPI PUSH0 DUP1 REVERT JUMPDEST POP PUSH2 0x357 PUSH1 0x1D SLOAD DUP2 JUMP JUMPDEST PUSH2 0x3DC PUSH2 0x613 CALLDATASIZE PUSH1 0x4 PUSH2 0x37CB JUMP JUMPDEST PUSH2 0x10BD JUMP JUMPDEST CALLVALUE DUP1 ISZERO PUSH2 0x623 JUMPI PUSH0 DUP1 REVERT JUMPDEST POP PUSH2 0x357 PUSH2 0x632 CALLDATASIZE PUSH1 0x4 PUSH2 0x3886 JUMP JUMPDEST PUSH2 0x1330 JUMP JUMPDEST CALLVALUE DUP1 ISZERO PUSH2 0x642 JUMPI PUSH0 DUP1 REVERT JUMPDEST POP PUSH2 0x3DC PUSH2 0x133A JUMP JUMPDEST CALLVALUE DUP1 ISZERO PUSH2 0x656 JUMPI PUSH0 DUP1 REVERT JUMPDEST POP PUSH2 0x3DC PUSH2 0x665 CALLDATASIZE PUSH1 0x4 PUSH2 0x3A68 JUMP JUMPDEST PUSH2 0x134D JUMP JUMPDEST PUSH2 0x3DC PUSH2 0x678 CALLDATASIZE PUSH1 0x4 PUSH2 0x3B23 JUMP JUMPDEST PUSH2 0x143B JUMP JUMPDEST CALLVALUE DUP1 ISZERO PUSH2 0x688 JUMPI PUSH0 DUP1 REVERT JUMPDEST POP PUSH2 0x3DC PUSH2 0x697 CALLDATASIZE PUSH1 0x4 PUSH2 0x3B66 JUMP JUMPDEST PUSH2 0x146C JUMP JUMPDEST CALLVALUE DUP1 ISZERO PUSH2 0x6A7 JUMPI PUSH0 DUP1 REVERT JUMPDEST POP PUSH0 SLOAD PUSH1 0x1 PUSH1 0x1 PUSH1 0xA0 SHL SUB AND PUSH2 0x3A5 JUMP JUMPDEST CALLVALUE DUP1 ISZERO PUSH2 0x6C3 JUMPI PUSH0 DUP1 REVERT JUMPDEST POP PUSH2 0x357 PUSH2 0x6D2 CALLDATASIZE PUSH1 0x4 PUSH2 0x37CB JUMP JUMPDEST PUSH1 0x1F PUSH1 0x20 MSTORE PUSH0 SWAP1 DUP2 MSTORE PUSH1 0x40 SWAP1 KECCAK256 SLOAD DUP2 JUMP JUMPDEST CALLVALUE DUP1 ISZERO PUSH2 0x6EE JUMPI PUSH0 DUP1 REVERT JUMPDEST POP PUSH2 0x379 PUSH2 0x1668 JUMP JUMPDEST PUSH2 0x3DC PUSH2 0x705 CALLDATASIZE PUSH1 0x4 PUSH2 0x3BB8 JUMP JUMPDEST PUSH2 0x1694 JUMP JUMPDEST CALLVALUE DUP1 ISZERO PUSH2 0x715 JUMPI PUSH0 DUP1 REVERT JUMPDEST POP PUSH2 0x3DC PUSH2 0x724 CALLDATASIZE PUSH1 0x4 PUSH2 0x3C0D JUMP JUMPDEST PUSH2 0x174D JUMP JUMPDEST CALLVALUE DUP1 ISZERO PUSH2 0x734 JUMPI PUSH0 DUP1 REVERT JUMPDEST POP PUSH2 0x748 PUSH2 0x743 CALLDATASIZE PUSH1 0x4 PUSH2 0x3886 JUMP JUMPDEST PUSH2 0x1758 JUMP JUMPDEST PUSH1 0x40 MLOAD PUSH2 0x339 SWAP2 SWAP1 PUSH2 0x3C3E JUMP JUMPDEST CALLVALUE DUP1 ISZERO PUSH2 0x760 JUMPI PUSH0 DUP1 REVERT JUMPDEST POP PUSH2 0x3DC PUSH2 0x76F CALLDATASIZE PUSH1 0x4 PUSH2 0x3C75 JUMP JUMPDEST PUSH2 0x177B JUMP JUMPDEST CALLVALUE DUP1 ISZERO PUSH2 0x77F JUMPI PUSH0 DUP1 REVERT JUMPDEST POP PUSH2 0x3DC PUSH2 0x78E CALLDATASIZE PUSH1 0x4 PUSH2 0x3CD8 JUMP JUMPDEST PUSH2 0x178D JUMP JUMPDEST CALLVALUE DUP1 ISZERO PUSH2 0x79E JUMPI PUSH0 DUP1 REVERT JUMPDEST POP PUSH2 0x379 PUSH2 0x7AD CALLDATASIZE PUSH1 0x4 PUSH2 0x34D3 JUMP JUMPDEST PUSH2 0x1831 JUMP JUMPDEST CALLVALUE DUP1 ISZERO PUSH2 0x7BD JUMPI PUSH0 DUP1 REVERT JUMPDEST POP PUSH2 0x3DC PUSH2 0x7CC CALLDATASIZE PUSH1 0x4 PUSH2 0x3CD8 JUMP JUMPDEST PUSH2 0x1897 JUMP JUMPDEST CALLVALUE DUP1 ISZERO PUSH2 0x7DC JUMPI PUSH0 DUP1 REVERT JUMPDEST POP PUSH2 0x3DC PUSH2 0x7EB CALLDATASIZE PUSH1 0x4 PUSH2 0x3CF8 JUMP JUMPDEST PUSH2 0x1931 JUMP JUMPDEST CALLVALUE DUP1 ISZERO PUSH2 0x7FB JUMPI PUSH0 DUP1 REVERT JUMPDEST POP PUSH2 0x80F PUSH2 0x80A CALLDATASIZE PUSH1 0x4 PUSH2 0x3D43 JUMP JUMPDEST PUSH2 0x1A02 JUMP JUMPDEST PUSH1 0x40 MLOAD PUSH2 0x339 SWAP2 SWAP1 PUSH2 0x3D74 JUMP JUMPDEST CALLVALUE DUP1 ISZERO PUSH2 0x827 JUMPI PUSH0 DUP1 REVERT JUMPDEST POP PUSH2 0x32D PUSH2 0x836 CALLDATASIZE PUSH1 0x4 PUSH2 0x3DD6 JUMP JUMPDEST PUSH2 0x1AAB JUMP JUMPDEST CALLVALUE DUP1 ISZERO PUSH2 0x846 JUMPI PUSH0 DUP1 REVERT JUMPDEST POP PUSH2 0x3DC PUSH2 0x855 CALLDATASIZE PUSH1 0x4 PUSH2 0x3886 JUMP JUMPDEST PUSH2 0x1AD8 JUMP JUMPDEST CALLVALUE DUP1 ISZERO PUSH2 0x865 JUMPI PUSH0 DUP1 REVERT JUMPDEST POP PUSH2 0x3DC PUSH2 0x874 CALLDATASIZE PUSH1 0x4 PUSH2 0x34D3 JUMP JUMPDEST PUSH2 0x1B10 JUMP JUMPDEST CALLVALUE DUP1 ISZERO PUSH2 0x884 JUMPI PUSH0 DUP1 REVERT JUMPDEST POP PUSH2 0x3DC PUSH2 0x893 CALLDATASIZE PUSH1 0x4 PUSH2 0x3886 JUMP JUMPDEST PUSH2 0x1B1D JUMP JUMPDEST PUSH1 0x60 PUSH0 PUSH2 0x8AF PUSH0 CALLDATALOAD PUSH1 0x1 PUSH1 0x1 PUSH1 0xE0 SHL SUB NOT AND PUSH2 0x1BE0 JUMP JUMPDEST POP SWAP1 POP PUSH1 0x1 PUSH1 0x1 PUSH1 0xA0 SHL SUB DUP2 AND PUSH2 0x8E6 JUMPI PUSH1 0x40 MLOAD PUSH4 0xBB370B2B PUSH1 0xE0 SHL DUP2 MSTORE PUSH1 0x1 PUSH1 0x1 PUSH1 0xE0 SHL SUB NOT PUSH0 CALLDATALOAD AND PUSH1 0x4 DUP3 ADD MSTORE PUSH1 0x24 ADD PUSH2 0x2AC JUMP JUMPDEST PUSH0 DUP1 DUP3 PUSH1 0x1 PUSH1 0x1 PUSH1 0xA0 SHL SUB AND CALLVALUE DUP8 DUP8 CALLER CALLVALUE PUSH1 0x40 MLOAD PUSH1 0x20 ADD PUSH2 0x90A SWAP5 SWAP4 SWAP3 SWAP2 SWAP1 PUSH2 0x3DFE JUMP JUMPDEST PUSH1 0x40 DUP1 MLOAD PUSH1 0x1F NOT DUP2 DUP5 SUB ADD DUP2 MSTORE SWAP1 DUP3 SWAP1 MSTORE PUSH2 0x924 SWAP2 PUSH2 0x3E44 JUMP JUMPDEST PUSH0 PUSH1 0x40 MLOAD DUP1 DUP4 SUB DUP2 DUP6 DUP8 GAS CALL SWAP3 POP POP POP RETURNDATASIZE DUP1 PUSH0 DUP2 EQ PUSH2 0x95E JUMPI PUSH1 0x40 MLOAD SWAP2 POP PUSH1 0x1F NOT PUSH1 0x3F RETURNDATASIZE ADD AND DUP3 ADD PUSH1 0x40 MSTORE RETURNDATASIZE DUP3 MSTORE RETURNDATASIZE PUSH0 PUSH1 0x20 DUP5 ADD RETURNDATACOPY PUSH2 0x963 JUMP JUMPDEST PUSH1 0x60 SWAP2 POP JUMPDEST POP SWAP2 POP SWAP2 POP DUP2 ISZERO PUSH2 0x978 JUMPI SWAP3 POP PUSH2 0x981 SWAP2 POP POP JUMP JUMPDEST DUP1 MLOAD DUP1 PUSH1 0x20 DUP4 ADD REVERT JUMPDEST SWAP3 SWAP2 POP POP JUMP JUMPDEST PUSH0 PUSH1 0x1 PUSH1 0x1 PUSH1 0xE0 SHL SUB NOT DUP3 AND PUSH4 0x80AC58CD PUSH1 0xE0 SHL EQ DUP1 PUSH2 0x9B7 JUMPI POP PUSH1 0x1 PUSH1 0x1 PUSH1 0xE0 SHL SUB NOT DUP3 AND PUSH4 0x5B5E139F PUSH1 0xE0 SHL EQ JUMPDEST DUP1 PUSH2 0x981 JUMPI POP PUSH2 0x981 DUP3 PUSH2 0x1C5C JUMP JUMPDEST PUSH1 0x60 PUSH0 PUSH2 0x981 PUSH32 0xDEBA1E292F8BA88238E10AB3C7F88BD4BE4FAC56CAD5194B6ECCEAF653468AF1 PUSH2 0x1C8F JUMP JUMPDEST PUSH0 DUP2 PUSH2 0x9FD DUP2 PUSH2 0x1D2E JUMP JUMPDEST PUSH0 PUSH2 0xA07 DUP3 PUSH2 0xF49 JUMP JUMPDEST DUP1 MLOAD SWAP1 SWAP2 POP PUSH0 DUP2 SWAP1 SUB PUSH2 0xA1E JUMPI POP PUSH0 SWAP5 SWAP4 POP POP POP POP JUMP JUMPDEST DUP2 PUSH2 0xA2A PUSH1 0x1 DUP4 PUSH2 0x3E73 JUMP JUMPDEST DUP2 MLOAD DUP2 LT PUSH2 0xA3A JUMPI PUSH2 0xA3A PUSH2 0x3E86 JUMP JUMPDEST PUSH1 0x20 MUL PUSH1 0x20 ADD ADD MLOAD SWAP4 POP POP POP POP SWAP2 SWAP1 POP JUMP JUMPDEST POP POP POP SWAP2 SWAP1 POP JUMP JUMPDEST PUSH2 0xA6F DUP3 DUP3 PUSH0 SHL PUSH1 0x40 MLOAD DUP1 PUSH1 0x20 ADD PUSH1 0x40 MSTORE DUP1 PUSH0 DUP2 MSTORE POP PUSH2 0x146C JUMP JUMPDEST POP POP JUMP JUMPDEST PUSH2 0xA7B PUSH2 0x1D65 JUMP JUMPDEST PUSH2 0xA84 DUP2 PUSH2 0x1DA0 JUMP JUMPDEST POP JUMP JUMPDEST PUSH2 0xAC1 PUSH1 0x40 DUP1 MLOAD PUSH1 0xE0 DUP2 ADD SWAP1 SWAP2 MSTORE DUP1 PUSH0 DUP2 MSTORE PUSH1 0x20 ADD PUSH0 DUP2 MSTORE PUSH1 0x20 ADD PUSH0 DUP2 MSTORE PUSH1 0x20 ADD PUSH0 DUP2 MSTORE PUSH1 0x20 ADD PUSH0 DUP2 MSTORE PUSH1 0x20 ADD PUSH0 DUP2 MSTORE PUSH1 0x20 ADD PUSH0 DUP2 MSTORE POP SWAP1 JUMP JUMPDEST PUSH2 0x981 DUP3 PUSH2 0x1DAD JUMP JUMPDEST PUSH0 DUP1 PUSH2 0xAD5 DUP4 PUSH2 0x1DAD JUMP JUMPDEST PUSH1 0xC0 ADD MLOAD SWAP4 SWAP3 POP POP POP JUMP JUMPDEST PUSH1 0x1E SLOAD PUSH1 0x1 PUSH1 0x1 PUSH1 0xA0 SHL SUB AND CALLER EQ PUSH2 0xB0A JUMPI PUSH1 0x40 MLOAD PUSH3 0x461BCD PUSH1 0xE5 SHL DUP2 MSTORE PUSH1 0x4 ADD PUSH2 0x2AC SWAP1 PUSH2 0x3E9A JUMP JUMPDEST PUSH1 0x40 DUP1 MLOAD PUSH1 0xC0 DUP2 ADD DUP3 MSTORE PUSH0 DUP1 DUP3 MSTORE PUSH1 0x1 PUSH1 0x20 DUP4 ADD MSTORE PUSH1 0x2 SWAP3 DUP3 ADD SWAP3 SWAP1 SWAP3 MSTORE PUSH1 0x3 PUSH1 0x60 DUP3 ADD MSTORE PUSH1 0x4 PUSH1 0x80 DUP3 ADD MSTORE PUSH1 0x5 PUSH1 0xA0 DUP3 ADD MSTORE SWAP1 JUMPDEST PUSH1 0x6 DUP2 LT ISZERO PUSH2 0xA6F JUMPI PUSH0 PUSH1 0x20 PUSH0 DUP5 DUP5 PUSH1 0x6 DUP2 LT PUSH2 0xB5E JUMPI PUSH2 0xB5E PUSH2 0x3E86 JUMP JUMPDEST PUSH1 0x20 MUL ADD MLOAD PUSH1 0x5 DUP2 GT ISZERO PUSH2 0xB74 JUMPI PUSH2 0xB74 PUSH2 0x36A1 JUMP JUMPDEST PUSH1 0x5 DUP2 GT ISZERO PUSH2 0xB85 JUMPI PUSH2 0xB85 PUSH2 0x36A1 JUMP JUMPDEST DUP2 MSTORE PUSH1 0x20 DUP2 ADD SWAP2 SWAP1 SWAP2 MSTORE PUSH1 0x40 ADD PUSH0 KECCAK256 SSTORE PUSH1 0x1 ADD PUSH2 0xB3F JUMP JUMPDEST PUSH0 DUP2 DUP2 MSTORE PUSH1 0x3 PUSH1 0x20 MSTORE PUSH1 0x40 DUP2 KECCAK256 SLOAD PUSH1 0x1 PUSH1 0x1 PUSH1 0xA0 SHL SUB AND DUP1 PUSH2 0x981 JUMPI PUSH1 0x40 MLOAD PUSH4 0x5747CD1B PUSH1 0xE1 SHL DUP2 MSTORE PUSH1 0x4 DUP2 ADD DUP5 SWAP1 MSTORE PUSH1 0x24 ADD PUSH2 0x2AC JUMP JUMPDEST PUSH2 0xBF3 DUP4 DUP4 DUP4 PUSH0 SHL PUSH1 0x1 PUSH1 0x40 MLOAD DUP1 PUSH1 0x20 ADD PUSH1 0x40 MSTORE DUP1 PUSH0 DUP2 MSTORE POP PUSH2 0x1E07 JUMP JUMPDEST POP POP POP JUMP JUMPDEST PUSH0 PUSH2 0xC02 DUP3 PUSH2 0x1D2E JUMP JUMPDEST PUSH2 0xC0C DUP4 DUP4 PUSH2 0x1E93 JUMP JUMPDEST SWAP4 SWAP3 POP POP POP JUMP JUMPDEST PUSH2 0xC1B PUSH2 0x1D65 JUMP JUMPDEST PUSH2 0xA84 DUP2 PUSH2 0x1ECE JUMP JUMPDEST PUSH2 0xC2C PUSH2 0x1EDB JUMP JUMPDEST PUSH0 DUP2 PUSH1 0x1D SLOAD PUSH2 0xC3B SWAP2 SWAP1 PUSH2 0x3EC9 JUMP JUMPDEST SWAP1 POP PUSH0 DUP3 GT DUP1 ISZERO PUSH2 0xC4C JUMPI POP PUSH1 0x6 DUP3 LT JUMPDEST PUSH2 0xCAE JUMPI PUSH1 0x40 MLOAD PUSH3 0x461BCD PUSH1 0xE5 SHL DUP2 MSTORE PUSH1 0x20 PUSH1 0x4 DUP3 ADD MSTORE PUSH1 0x2D PUSH1 0x24 DUP3 ADD MSTORE PUSH32 0x4D696E696D756D203120616E64206D6178696D756D20352063616E206265206D PUSH1 0x44 DUP3 ADD MSTORE PUSH13 0x696E746564206174206F6E6365 PUSH1 0x98 SHL PUSH1 0x64 DUP3 ADD MSTORE PUSH1 0x84 ADD PUSH2 0x2AC JUMP JUMPDEST DUP1 CALLVALUE EQ PUSH2 0xCCD JUMPI PUSH1 0x40 MLOAD PUSH3 0x461BCD PUSH1 0xE5 SHL DUP2 MSTORE PUSH1 0x4 ADD PUSH2 0x2AC SWAP1 PUSH2 0x3EE0 JUMP JUMPDEST PUSH1 0x1F PUSH0 DUP5 PUSH1 0x5 DUP2 GT ISZERO PUSH2 0xCE2 JUMPI PUSH2 0xCE2 PUSH2 0x36A1 JUMP JUMPDEST PUSH1 0x5 DUP2 GT ISZERO PUSH2 0xCF3 JUMPI PUSH2 0xCF3 PUSH2 0x36A1 JUMP JUMPDEST DUP2 MSTORE PUSH1 0x20 ADD SWAP1 DUP2 MSTORE PUSH1 0x20 ADD PUSH0 KECCAK256 SLOAD PUSH0 EQ DUP1 PUSH2 0xD40 JUMPI POP PUSH0 PUSH1 0x20 PUSH0 DUP6 PUSH1 0x5 DUP2 GT ISZERO PUSH2 0xD1F JUMPI PUSH2 0xD1F PUSH2 0x36A1 JUMP JUMPDEST PUSH1 0x5 DUP2 GT ISZERO PUSH2 0xD30 JUMPI PUSH2 0xD30 PUSH2 0x36A1 JUMP JUMPDEST DUP2 MSTORE PUSH1 0x20 ADD SWAP1 DUP2 MSTORE PUSH1 0x20 ADD PUSH0 KECCAK256 SLOAD GT JUMPDEST PUSH2 0xD8C JUMPI PUSH1 0x40 MLOAD PUSH3 0x461BCD PUSH1 0xE5 SHL DUP2 MSTORE PUSH1 0x20 PUSH1 0x4 DUP3 ADD MSTORE PUSH1 0x1A PUSH1 0x24 DUP3 ADD MSTORE PUSH32 0x546869732062696C6C696F6E6169726520697320627573746564000000000000 PUSH1 0x44 DUP3 ADD MSTORE PUSH1 0x64 ADD PUSH2 0x2AC JUMP JUMPDEST PUSH0 JUMPDEST DUP3 DUP2 LT ISZERO PUSH2 0xF23 JUMPI PUSH0 PUSH2 0xD9F PUSH2 0x1F05 JUMP JUMPDEST SWAP1 POP PUSH0 PUSH2 0xDAA PUSH2 0x1F78 JUMP JUMPDEST SWAP1 POP PUSH0 PUSH2 0xDB5 PUSH2 0x1F78 JUMP JUMPDEST SWAP1 POP PUSH0 PUSH2 0xDC0 PUSH2 0x1FE5 JUMP JUMPDEST SWAP1 POP PUSH0 PUSH2 0xDCB PUSH2 0x1F78 JUMP JUMPDEST PUSH1 0x1C DUP1 SLOAD SWAP2 SWAP3 POP PUSH0 PUSH2 0xDDC DUP4 PUSH2 0x3F2E JUMP JUMPDEST SWAP2 SWAP1 POP SSTORE POP PUSH0 PUSH1 0x40 MLOAD DUP1 PUSH1 0xE0 ADD PUSH1 0x40 MSTORE DUP1 DUP12 PUSH1 0x5 DUP2 GT ISZERO PUSH2 0xDFF JUMPI PUSH2 0xDFF PUSH2 0x36A1 JUMP JUMPDEST DUP2 MSTORE PUSH1 0x20 ADD DUP8 DUP2 MSTORE PUSH1 0x20 ADD DUP7 DUP2 MSTORE PUSH1 0x20 ADD DUP6 DUP2 MSTORE PUSH1 0x20 ADD DUP5 DUP2 MSTORE PUSH1 0x20 ADD DUP4 DUP2 MSTORE PUSH1 0x20 ADD PUSH2 0x3E8 DUP2 MSTORE POP SWAP1 POP PUSH2 0xE36 PUSH1 0x1C SLOAD DUP3 PUSH2 0x2067 JUMP JUMPDEST PUSH2 0xE55 CALLER PUSH1 0x1C SLOAD PUSH0 SHL PUSH1 0x1 PUSH1 0x40 MLOAD DUP1 PUSH1 0x20 ADD PUSH1 0x40 MSTORE DUP1 PUSH0 DUP2 MSTORE POP PUSH2 0x2095 JUMP JUMPDEST PUSH1 0x1F PUSH0 DUP12 PUSH1 0x5 DUP2 GT ISZERO PUSH2 0xE6A JUMPI PUSH2 0xE6A PUSH2 0x36A1 JUMP JUMPDEST PUSH1 0x5 DUP2 GT ISZERO PUSH2 0xE7B JUMPI PUSH2 0xE7B PUSH2 0x36A1 JUMP JUMPDEST DUP2 MSTORE PUSH1 0x20 ADD SWAP1 DUP2 MSTORE PUSH1 0x20 ADD PUSH0 KECCAK256 PUSH0 DUP2 SLOAD DUP1 SWAP3 SWAP2 SWAP1 PUSH2 0xE98 SWAP1 PUSH2 0x3F2E JUMP JUMPDEST SWAP2 SWAP1 POP SSTORE POP PUSH2 0x3E8 PUSH1 0x20 PUSH0 DUP13 PUSH1 0x5 DUP2 GT ISZERO PUSH2 0xEB5 JUMPI PUSH2 0xEB5 PUSH2 0x36A1 JUMP JUMPDEST PUSH1 0x5 DUP2 GT ISZERO PUSH2 0xEC6 JUMPI PUSH2 0xEC6 PUSH2 0x36A1 JUMP JUMPDEST DUP2 MSTORE PUSH1 0x20 ADD SWAP1 DUP2 MSTORE PUSH1 0x20 ADD PUSH0 KECCAK256 PUSH0 DUP3 DUP3 SLOAD PUSH2 0xEE1 SWAP2 SWAP1 PUSH2 0x3F46 JUMP JUMPDEST SWAP1 SWAP2 SSTORE POP POP PUSH1 0x1C SLOAD PUSH1 0x40 MLOAD PUSH32 0x2CB1B896CB2443E021C3B8001EEA2CBCB70464EF5E9D050FA95A1E20A0DBC1CE SWAP1 PUSH0 SWAP1 LOG2 POP POP PUSH1 0x1 SWAP1 SWAP5 ADD SWAP4 POP PUSH2 0xD8E SWAP3 POP POP POP JUMP JUMPDEST POP POP PUSH2 0xA6F PUSH1 0x1 PUSH1 0x1A SSTORE JUMP JUMPDEST PUSH2 0xBF3 DUP4 DUP4 DUP4 PUSH1 0x40 MLOAD DUP1 PUSH1 0x20 ADD PUSH1 0x40 MSTORE DUP1 PUSH0 DUP2 MSTORE POP PUSH2 0x20D8 JUMP JUMPDEST PUSH1 0x60 PUSH2 0xF54 DUP3 PUSH2 0x1D2E JUMP JUMPDEST PUSH0 DUP3 DUP2 MSTORE PUSH1 0x5 PUSH1 0x20 MSTORE PUSH1 0x40 SWAP1 KECCAK256 PUSH2 0x981 SWAP1 PUSH2 0x210E JUMP JUMPDEST PUSH2 0xF74 CALLER DUP5 PUSH2 0x1E93 JUMP JUMPDEST PUSH2 0xF9A JUMPI PUSH1 0x40 MLOAD PUSH4 0x1294D2A9 PUSH1 0xE0 SHL DUP2 MSTORE PUSH1 0x4 DUP2 ADD DUP5 SWAP1 MSTORE CALLER PUSH1 0x24 DUP3 ADD MSTORE PUSH1 0x44 ADD PUSH2 0x2AC JUMP JUMPDEST PUSH2 0xFA7 DUP6 DUP6 DUP6 DUP6 DUP6 PUSH2 0x1E07 JUMP JUMPDEST POP POP POP POP POP JUMP JUMPDEST PUSH2 0xFB6 PUSH2 0x1D65 JUMP JUMPDEST PUSH1 0x1 PUSH1 0x1 PUSH1 0xA0 SHL SUB DUP2 AND PUSH2 0x1017 JUMPI PUSH1 0x40 MLOAD PUSH3 0x461BCD PUSH1 0xE5 SHL DUP2 MSTORE PUSH1 0x20 PUSH1 0x4 DUP3 ADD MSTORE PUSH1 0x22 PUSH1 0x24 DUP3 ADD MSTORE PUSH32 0x43616E277420776974686472617720746F20746865207A65726F206164647265 PUSH1 0x44 DUP3 ADD MSTORE PUSH2 0x7373 PUSH1 0xF0 SHL PUSH1 0x64 DUP3 ADD MSTORE PUSH1 0x84 ADD PUSH2 0x2AC JUMP JUMPDEST PUSH0 DUP2 PUSH1 0x1 PUSH1 0x1 PUSH1 0xA0 SHL SUB AND SELFBALANCE PUSH1 0x40 MLOAD PUSH0 PUSH1 0x40 MLOAD DUP1 DUP4 SUB DUP2 DUP6 DUP8 GAS CALL SWAP3 POP POP POP RETURNDATASIZE DUP1 PUSH0 DUP2 EQ PUSH2 0x1060 JUMPI PUSH1 0x40 MLOAD SWAP2 POP PUSH1 0x1F NOT PUSH1 0x3F RETURNDATASIZE ADD AND DUP3 ADD PUSH1 0x40 MSTORE RETURNDATASIZE DUP3 MSTORE RETURNDATASIZE PUSH0 PUSH1 0x20 DUP5 ADD RETURNDATACOPY PUSH2 0x1065 JUMP JUMPDEST PUSH1 0x60 SWAP2 POP JUMPDEST POP POP SWAP1 POP DUP1 PUSH2 0xA6F JUMPI PUSH1 0x40 MLOAD PUSH3 0x461BCD PUSH1 0xE5 SHL DUP2 MSTORE PUSH1 0x20 PUSH1 0x4 DUP3 ADD MSTORE PUSH1 0xF PUSH1 0x24 DUP3 ADD MSTORE PUSH15 0x15DA5D1A191C985DC819985A5B1959 PUSH1 0x8A SHL PUSH1 0x44 DUP3 ADD MSTORE PUSH1 0x64 ADD PUSH2 0x2AC JUMP JUMPDEST PUSH1 0x60 PUSH2 0x981 DUP3 PUSH2 0x1C8F JUMP JUMPDEST PUSH0 PUSH2 0x981 DUP3 PUSH2 0xB9D JUMP JUMPDEST PUSH2 0x10C5 PUSH2 0x1EDB JUMP JUMPDEST PUSH1 0x1D SLOAD CALLVALUE EQ PUSH2 0x10E6 JUMPI PUSH1 0x40 MLOAD PUSH3 0x461BCD PUSH1 0xE5 SHL DUP2 MSTORE PUSH1 0x4 ADD PUSH2 0x2AC SWAP1 PUSH2 0x3EE0 JUMP JUMPDEST PUSH1 0x1F PUSH0 DUP3 PUSH1 0x5 DUP2 GT ISZERO PUSH2 0x10FB JUMPI PUSH2 0x10FB PUSH2 0x36A1 JUMP JUMPDEST PUSH1 0x5 DUP2 GT ISZERO PUSH2 0x110C JUMPI PUSH2 0x110C PUSH2 0x36A1 JUMP JUMPDEST DUP2 MSTORE PUSH1 0x20 ADD SWAP1 DUP2 MSTORE PUSH1 0x20 ADD PUSH0 KECCAK256 SLOAD PUSH0 EQ DUP1 PUSH2 0x1159 JUMPI POP PUSH0 PUSH1 0x20 PUSH0 DUP4 PUSH1 0x5 DUP2 GT ISZERO PUSH2 0x1138 JUMPI PUSH2 0x1138 PUSH2 0x36A1 JUMP JUMPDEST PUSH1 0x5 DUP2 GT ISZERO PUSH2 0x1149 JUMPI PUSH2 0x1149 PUSH2 0x36A1 JUMP JUMPDEST DUP2 MSTORE PUSH1 0x20 ADD SWAP1 DUP2 MSTORE PUSH1 0x20 ADD PUSH0 KECCAK256 SLOAD GT JUMPDEST PUSH2 0x11A5 JUMPI PUSH1 0x40 MLOAD PUSH3 0x461BCD PUSH1 0xE5 SHL DUP2 MSTORE PUSH1 0x20 PUSH1 0x4 DUP3 ADD MSTORE PUSH1 0x1A PUSH1 0x24 DUP3 ADD MSTORE PUSH32 0x546869732062696C6C696F6E6169726520697320627573746564000000000000 PUSH1 0x44 DUP3 ADD MSTORE PUSH1 0x64 ADD PUSH2 0x2AC JUMP JUMPDEST PUSH0 PUSH2 0x11AE PUSH2 0x1F05 JUMP JUMPDEST SWAP1 POP PUSH0 PUSH2 0x11B9 PUSH2 0x1F78 JUMP JUMPDEST SWAP1 POP PUSH0 PUSH2 0x11C4 PUSH2 0x1F78 JUMP JUMPDEST SWAP1 POP PUSH0 PUSH2 0x11CF PUSH2 0x1FE5 JUMP JUMPDEST SWAP1 POP PUSH0 PUSH2 0x11DA PUSH2 0x1F78 JUMP JUMPDEST PUSH1 0x1C DUP1 SLOAD SWAP2 SWAP3 POP PUSH0 PUSH2 0x11EB DUP4 PUSH2 0x3F2E JUMP JUMPDEST SWAP2 SWAP1 POP SSTORE POP PUSH0 PUSH1 0x40 MLOAD DUP1 PUSH1 0xE0 ADD PUSH1 0x40 MSTORE DUP1 DUP9 PUSH1 0x5 DUP2 GT ISZERO PUSH2 0x120E JUMPI PUSH2 0x120E PUSH2 0x36A1 JUMP JUMPDEST DUP2 MSTORE PUSH1 0x20 ADD DUP8 DUP2 MSTORE PUSH1 0x20 ADD DUP7 DUP2 MSTORE PUSH1 0x20 ADD DUP6 DUP2 MSTORE PUSH1 0x20 ADD DUP5 DUP2 MSTORE PUSH1 0x20 ADD DUP4 DUP2 MSTORE PUSH1 0x20 ADD PUSH2 0x3E8 DUP2 MSTORE POP SWAP1 POP PUSH2 0x1245 PUSH1 0x1C SLOAD DUP3 PUSH2 0x2067 JUMP JUMPDEST PUSH2 0x1264 CALLER PUSH1 0x1C SLOAD PUSH0 SHL PUSH1 0x1 PUSH1 0x40 MLOAD DUP1 PUSH1 0x20 ADD PUSH1 0x40 MSTORE DUP1 PUSH0 DUP2 MSTORE POP PUSH2 0x2095 JUMP JUMPDEST PUSH1 0x1F PUSH0 DUP9 PUSH1 0x5 DUP2 GT ISZERO PUSH2 0x1279 JUMPI PUSH2 0x1279 PUSH2 0x36A1 JUMP JUMPDEST PUSH1 0x5 DUP2 GT ISZERO PUSH2 0x128A JUMPI PUSH2 0x128A PUSH2 0x36A1 JUMP JUMPDEST DUP2 MSTORE PUSH1 0x20 ADD SWAP1 DUP2 MSTORE PUSH1 0x20 ADD PUSH0 KECCAK256 PUSH0 DUP2 SLOAD DUP1 SWAP3 SWAP2 SWAP1 PUSH2 0x12A7 SWAP1 PUSH2 0x3F2E JUMP JUMPDEST SWAP2 SWAP1 POP SSTORE POP PUSH2 0x3E8 PUSH1 0x20 PUSH0 DUP10 PUSH1 0x5 DUP2 GT ISZERO PUSH2 0x12C4 JUMPI PUSH2 0x12C4 PUSH2 0x36A1 JUMP JUMPDEST PUSH1 0x5 DUP2 GT ISZERO PUSH2 0x12D5 JUMPI PUSH2 0x12D5 PUSH2 0x36A1 JUMP JUMPDEST DUP2 MSTORE PUSH1 0x20 ADD SWAP1 DUP2 MSTORE PUSH1 0x20 ADD PUSH0 KECCAK256 PUSH0 DUP3 DUP3 SLOAD PUSH2 0x12F0 SWAP2 SWAP1 PUSH2 0x3F46 JUMP JUMPDEST SWAP1 SWAP2 SSTORE POP POP PUSH1 0x1C SLOAD PUSH1 0x40 MLOAD PUSH32 0x2CB1B896CB2443E021C3B8001EEA2CBCB70464EF5E9D050FA95A1E20A0DBC1CE SWAP1 PUSH0 SWAP1 LOG2 POP POP POP POP POP POP PUSH2 0xA84 PUSH1 0x1 PUSH1 0x1A SSTORE JUMP JUMPDEST PUSH0 PUSH2 0x981 DUP3 PUSH2 0x211A JUMP JUMPDEST PUSH2 0x1342 PUSH2 0x1D65 JUMP JUMPDEST PUSH2 0x134B PUSH0 PUSH2 0x213A JUMP JUMPDEST JUMP JUMPDEST DUP5 MLOAD DUP5 MLOAD DUP2 EQ ISZERO DUP1 PUSH2 0x1360 JUMPI POP DUP4 MLOAD DUP2 EQ ISZERO JUMPDEST DUP1 PUSH2 0x136C JUMPI POP DUP3 MLOAD DUP2 EQ ISZERO JUMPDEST DUP1 PUSH2 0x1378 JUMPI POP DUP2 MLOAD DUP2 EQ ISZERO JUMPDEST ISZERO PUSH2 0x1396 JUMPI PUSH1 0x40 MLOAD PUSH4 0x93A83119 PUSH1 0xE0 SHL DUP2 MSTORE PUSH1 0x4 ADD PUSH1 0x40 MLOAD DUP1 SWAP2 SUB SWAP1 REVERT JUMPDEST PUSH0 JUMPDEST DUP2 DUP2 LT ISZERO PUSH2 0x1432 JUMPI PUSH2 0x142A DUP8 DUP3 DUP2 MLOAD DUP2 LT PUSH2 0x13B5 JUMPI PUSH2 0x13B5 PUSH2 0x3E86 JUMP JUMPDEST PUSH1 0x20 MUL PUSH1 0x20 ADD ADD MLOAD DUP8 DUP4 DUP2 MLOAD DUP2 LT PUSH2 0x13CF JUMPI PUSH2 0x13CF PUSH2 0x3E86 JUMP JUMPDEST PUSH1 0x20 MUL PUSH1 0x20 ADD ADD MLOAD DUP8 DUP5 DUP2 MLOAD DUP2 LT PUSH2 0x13E9 JUMPI PUSH2 0x13E9 PUSH2 0x3E86 JUMP JUMPDEST PUSH1 0x20 MUL PUSH1 0x20 ADD ADD MLOAD DUP8 DUP6 DUP2 MLOAD DUP2 LT PUSH2 0x1403 JUMPI PUSH2 0x1403 PUSH2 0x3E86 JUMP JUMPDEST PUSH1 0x20 MUL PUSH1 0x20 ADD ADD MLOAD DUP8 DUP7 DUP2 MLOAD DUP2 LT PUSH2 0x141D JUMPI PUSH2 0x141D PUSH2 0x3E86 JUMP JUMPDEST PUSH1 0x20 MUL PUSH1 0x20 ADD ADD MLOAD PUSH2 0xF6A JUMP JUMPDEST PUSH1 0x1 ADD PUSH2 0x1398 JUMP JUMPDEST POP POP POP POP POP POP POP JUMP JUMPDEST PUSH2 0x1443 PUSH2 0x1D65 JUMP JUMPDEST CALLVALUE ISZERO PUSH2 0x1462 JUMPI PUSH1 0x40 MLOAD PUSH4 0xF36BA737 PUSH1 0xE0 SHL DUP2 MSTORE PUSH1 0x4 ADD PUSH1 0x40 MLOAD DUP1 SWAP2 SUB SWAP1 REVERT JUMPDEST PUSH2 0xA6F DUP3 DUP3 PUSH2 0x21A5 JUMP JUMPDEST PUSH0 PUSH2 0x1476 DUP4 PUSH2 0xB9D JUMP JUMPDEST SWAP1 POP PUSH1 0x1 PUSH1 0x1 PUSH1 0xA0 SHL SUB DUP2 AND CALLER EQ DUP1 ISZERO SWAP1 PUSH2 0x1498 JUMPI POP PUSH2 0x1496 DUP2 CALLER PUSH2 0x1AAB JUMP JUMPDEST ISZERO JUMPDEST ISZERO PUSH2 0x14CE JUMPI PUSH1 0x40 MLOAD PUSH4 0x2D938F51 PUSH1 0xE1 SHL DUP2 MSTORE PUSH1 0x1 PUSH1 0x1 PUSH1 0xA0 SHL SUB DUP3 AND PUSH1 0x4 DUP3 ADD MSTORE PUSH1 0x24 DUP2 ADD DUP5 SWAP1 MSTORE CALLER PUSH1 0x44 DUP3 ADD MSTORE PUSH1 0x64 ADD PUSH2 0x2AC JUMP JUMPDEST PUSH1 0x1 PUSH1 0x1 PUSH1 0xA0 SHL SUB DUP5 AND PUSH2 0x14F5 JUMPI PUSH1 0x40 MLOAD PUSH4 0x9577B8B3 PUSH1 0xE0 SHL DUP2 MSTORE PUSH1 0x4 ADD PUSH1 0x40 MLOAD DUP1 SWAP2 SUB SWAP1 REVERT JUMPDEST DUP4 PUSH1 0x1 PUSH1 0x1 PUSH1 0xA0 SHL SUB AND DUP2 PUSH1 0x1 PUSH1 0x1 PUSH1 0xA0 SHL SUB AND SUB PUSH2 0x1527 JUMPI PUSH1 0x40 MLOAD PUSH4 0x44FED6B1 PUSH1 0xE1 SHL DUP2 MSTORE PUSH1 0x4 ADD PUSH1 0x40 MLOAD DUP1 SWAP2 SUB SWAP1 REVERT JUMPDEST PUSH0 DUP4 DUP2 MSTORE PUSH1 0x5 PUSH1 0x20 MSTORE PUSH1 0x40 DUP2 KECCAK256 PUSH2 0x153E SWAP1 DUP7 PUSH2 0x21EF JUMP JUMPDEST SWAP1 POP DUP1 PUSH2 0x1570 JUMPI PUSH1 0x40 MLOAD PUSH4 0x14EC4D6D PUSH1 0xE3 SHL DUP2 MSTORE PUSH1 0x1 PUSH1 0x1 PUSH1 0xA0 SHL SUB DUP7 AND PUSH1 0x4 DUP3 ADD MSTORE PUSH1 0x24 DUP2 ADD DUP6 SWAP1 MSTORE PUSH1 0x44 ADD PUSH2 0x2AC JUMP JUMPDEST DUP4 DUP3 PUSH1 0x1 PUSH1 0x1 PUSH1 0xA0 SHL SUB AND DUP7 PUSH1 0x1 PUSH1 0x1 PUSH1 0xA0 SHL SUB AND PUSH31 0x52E433F2D4225671BC164DD1CDC9A76044356091F27AD234798BD0CBF08349 DUP7 PUSH1 0x40 MLOAD PUSH2 0x15B3 SWAP2 SWAP1 PUSH2 0x34C1 JUMP JUMPDEST PUSH1 0x40 MLOAD DUP1 SWAP2 SUB SWAP1 LOG4 DUP4 PUSH1 0x1 PUSH1 0x1 PUSH1 0xA0 SHL SUB DUP7 AND PUSH2 0x15CF DUP3 PUSH2 0xB9D JUMP JUMPDEST PUSH1 0x1 PUSH1 0x1 PUSH1 0xA0 SHL SUB AND PUSH32 0x8C5BE1E5EBEC7D5BD14F71427D1E84F3DD0314C0F7B2291E5B200AC8C7C3B925 PUSH1 0x40 MLOAD PUSH1 0x40 MLOAD DUP1 SWAP2 SUB SWAP1 LOG4 PUSH0 CALLER DUP6 DUP6 PUSH1 0x40 MLOAD PUSH1 0x20 ADD PUSH2 0x161A SWAP4 SWAP3 SWAP2 SWAP1 PUSH2 0x3F59 JUMP JUMPDEST PUSH1 0x40 DUP1 MLOAD PUSH1 0x1F NOT DUP2 DUP5 SUB ADD DUP2 MSTORE SWAP2 SWAP1 MSTORE SWAP1 POP PUSH2 0x1660 PUSH1 0x1 PUSH1 0x1 PUSH1 0xA0 SHL SUB DUP8 AND PUSH32 0x8A1C15A8799F71B547E08E2BCB2E85257E81B0A07EEE2CE6712549EEF1F00970 DUP4 PUSH2 0x2203 JUMP JUMPDEST POP POP POP POP POP POP JUMP JUMPDEST PUSH1 0x60 PUSH0 PUSH2 0x981 PUSH32 0x2F0A68AB07768E01943A599E73362A0E17A63A72E94DD2E384D2C1D4DB932756 PUSH2 0x1C8F JUMP JUMPDEST PUSH2 0x169C PUSH2 0x1D65 JUMP JUMPDEST CALLVALUE ISZERO PUSH2 0x16BB JUMPI PUSH1 0x40 MLOAD PUSH4 0xF36BA737 PUSH1 0xE0 SHL DUP2 MSTORE PUSH1 0x4 ADD PUSH1 0x40 MLOAD DUP1 SWAP2 SUB SWAP1 REVERT JUMPDEST DUP1 MLOAD DUP3 MLOAD EQ PUSH2 0x16DD JUMPI PUSH1 0x40 MLOAD PUSH4 0x3BCC8979 PUSH1 0xE0 SHL DUP2 MSTORE PUSH1 0x4 ADD PUSH1 0x40 MLOAD DUP1 SWAP2 SUB SWAP1 REVERT JUMPDEST DUP2 MLOAD PUSH0 SUB PUSH2 0x16FE JUMPI PUSH1 0x40 MLOAD PUSH4 0x97DA5F95 PUSH1 0xE0 SHL DUP2 MSTORE PUSH1 0x4 ADD PUSH1 0x40 MLOAD DUP1 SWAP2 SUB SWAP1 REVERT JUMPDEST PUSH0 JUMPDEST DUP3 MLOAD DUP2 LT ISZERO PUSH2 0xBF3 JUMPI PUSH2 0x1745 DUP4 DUP3 DUP2 MLOAD DUP2 LT PUSH2 0x171E JUMPI PUSH2 0x171E PUSH2 0x3E86 JUMP JUMPDEST PUSH1 0x20 MUL PUSH1 0x20 ADD ADD MLOAD DUP4 DUP4 DUP2 MLOAD DUP2 LT PUSH2 0x1738 JUMPI PUSH2 0x1738 PUSH2 0x3E86 JUMP JUMPDEST PUSH1 0x20 MUL PUSH1 0x20 ADD ADD MLOAD PUSH2 0x21A5 JUMP JUMPDEST PUSH1 0x1 ADD PUSH2 0x1700 JUMP JUMPDEST PUSH2 0xA6F CALLER DUP4 DUP4 PUSH2 0x2292 JUMP JUMPDEST PUSH1 0x1 PUSH1 0x1 PUSH1 0xA0 SHL SUB DUP2 AND PUSH0 SWAP1 DUP2 MSTORE PUSH1 0x4 PUSH1 0x20 MSTORE PUSH1 0x40 SWAP1 KECCAK256 PUSH1 0x60 SWAP1 PUSH2 0x981 SWAP1 PUSH2 0x210E JUMP JUMPDEST PUSH2 0x1787 DUP5 DUP5 DUP5 DUP5 PUSH2 0x20D8 JUMP JUMPDEST POP POP POP POP JUMP JUMPDEST PUSH1 0x1E SLOAD PUSH1 0x1 PUSH1 0x1 PUSH1 0xA0 SHL SUB AND CALLER EQ PUSH2 0x17B7 JUMPI PUSH1 0x40 MLOAD PUSH3 0x461BCD PUSH1 0xE5 SHL DUP2 MSTORE PUSH1 0x4 ADD PUSH2 0x2AC SWAP1 PUSH2 0x3E9A JUMP JUMPDEST PUSH0 PUSH2 0x17C1 DUP4 PUSH2 0x1DAD JUMP JUMPDEST SWAP1 POP DUP2 DUP2 PUSH1 0xC0 ADD DUP2 DUP2 MLOAD PUSH2 0x17D5 SWAP2 SWAP1 PUSH2 0x3E73 JUMP JUMPDEST SWAP1 MSTORE POP PUSH2 0x17E2 DUP4 DUP3 PUSH2 0x2067 JUMP JUMPDEST DUP2 PUSH1 0x20 PUSH0 DUP4 PUSH0 ADD MLOAD PUSH1 0x5 DUP2 GT ISZERO PUSH2 0x17FB JUMPI PUSH2 0x17FB PUSH2 0x36A1 JUMP JUMPDEST PUSH1 0x5 DUP2 GT ISZERO PUSH2 0x180C JUMPI PUSH2 0x180C PUSH2 0x36A1 JUMP JUMPDEST DUP2 MSTORE PUSH1 0x20 ADD SWAP1 DUP2 MSTORE PUSH1 0x20 ADD PUSH0 KECCAK256 PUSH0 DUP3 DUP3 SLOAD PUSH2 0x1827 SWAP2 SWAP1 PUSH2 0x3E73 JUMP JUMPDEST SWAP1 SWAP2 SSTORE POP POP POP POP POP JUMP JUMPDEST PUSH0 DUP2 DUP2 MSTORE PUSH1 0x3 PUSH1 0x20 MSTORE PUSH1 0x40 SWAP1 KECCAK256 SLOAD PUSH1 0x60 SWAP1 PUSH1 0x1 PUSH1 0x1 PUSH1 0xA0 SHL SUB AND PUSH2 0x188E JUMPI PUSH1 0x40 MLOAD PUSH3 0x461BCD PUSH1 0xE5 SHL DUP2 MSTORE PUSH1 0x20 PUSH1 0x4 DUP3 ADD MSTORE PUSH1 0x14 PUSH1 0x24 DUP3 ADD MSTORE PUSH20 0x151BDAD95B88191BD95CC81B9BDD08195E1A5CDD PUSH1 0x62 SHL PUSH1 0x44 DUP3 ADD MSTORE PUSH1 0x64 ADD PUSH2 0x2AC JUMP JUMPDEST PUSH2 0x981 DUP3 PUSH2 0x236F JUMP JUMPDEST PUSH1 0x1E SLOAD PUSH1 0x1 PUSH1 0x1 PUSH1 0xA0 SHL SUB AND CALLER EQ PUSH2 0x18C1 JUMPI PUSH1 0x40 MLOAD PUSH3 0x461BCD PUSH1 0xE5 SHL DUP2 MSTORE PUSH1 0x4 ADD PUSH2 0x2AC SWAP1 PUSH2 0x3E9A JUMP JUMPDEST PUSH0 PUSH2 0x18CB DUP4 PUSH2 0x1DAD JUMP JUMPDEST SWAP1 POP DUP2 DUP2 PUSH1 0xC0 ADD DUP2 DUP2 MLOAD PUSH2 0x18DF SWAP2 SWAP1 PUSH2 0x3F46 JUMP JUMPDEST SWAP1 MSTORE POP PUSH2 0x18EC DUP4 DUP3 PUSH2 0x2067 JUMP JUMPDEST DUP2 PUSH1 0x20 PUSH0 DUP4 PUSH0 ADD MLOAD PUSH1 0x5 DUP2 GT ISZERO PUSH2 0x1905 JUMPI PUSH2 0x1905 PUSH2 0x36A1 JUMP JUMPDEST PUSH1 0x5 DUP2 GT ISZERO PUSH2 0x1916 JUMPI PUSH2 0x1916 PUSH2 0x36A1 JUMP JUMPDEST DUP2 MSTORE PUSH1 0x20 ADD SWAP1 DUP2 MSTORE PUSH1 0x20 ADD PUSH0 KECCAK256 PUSH0 DUP3 DUP3 SLOAD PUSH2 0x1827 SWAP2 SWAP1 PUSH2 0x3F46 JUMP JUMPDEST PUSH0 PUSH2 0x193B DUP5 PUSH2 0xB9D JUMP JUMPDEST SWAP1 POP PUSH1 0x1 PUSH1 0x1 PUSH1 0xA0 SHL SUB DUP2 AND CALLER EQ PUSH2 0x197E JUMPI PUSH1 0x40 MLOAD PUSH4 0x2D938F51 PUSH1 0xE1 SHL DUP2 MSTORE PUSH1 0x1 PUSH1 0x1 PUSH1 0xA0 SHL SUB DUP3 AND PUSH1 0x4 DUP3 ADD MSTORE PUSH1 0x24 DUP2 ADD DUP6 SWAP1 MSTORE CALLER PUSH1 0x44 DUP3 ADD MSTORE PUSH1 0x64 ADD PUSH2 0x2AC JUMP JUMPDEST PUSH1 0x1 PUSH1 0x1 PUSH1 0xA0 SHL SUB DUP6 AND PUSH2 0x19A5 JUMPI PUSH1 0x40 MLOAD PUSH4 0x9577B8B3 PUSH1 0xE0 SHL DUP2 MSTORE PUSH1 0x4 ADD PUSH1 0x40 MLOAD DUP1 SWAP2 SUB SWAP1 REVERT JUMPDEST DUP5 PUSH1 0x1 PUSH1 0x1 PUSH1 0xA0 SHL SUB AND DUP2 PUSH1 0x1 PUSH1 0x1 PUSH1 0xA0 SHL SUB AND SUB PUSH2 0x19D7 JUMPI PUSH1 0x40 MLOAD PUSH4 0x44FED6B1 PUSH1 0xE1 SHL DUP2 MSTORE PUSH1 0x4 ADD PUSH1 0x40 MLOAD DUP1 SWAP2 SUB SWAP1 REVERT JUMPDEST PUSH2 0x19E4 DUP6 DUP3 DUP7 DUP7 DUP7 PUSH2 0x2667 JUMP JUMPDEST DUP3 ISZERO PUSH2 0xFA7 JUMPI PUSH0 CALLER DUP6 PUSH0 DUP6 PUSH1 0x40 MLOAD PUSH1 0x20 ADD PUSH2 0x161A SWAP5 SWAP4 SWAP3 SWAP2 SWAP1 PUSH2 0x3F88 JUMP JUMPDEST PUSH1 0x60 DUP2 MLOAD PUSH1 0x1 PUSH1 0x1 PUSH1 0x40 SHL SUB DUP2 GT ISZERO PUSH2 0x1A1D JUMPI PUSH2 0x1A1D PUSH2 0x352D JUMP JUMPDEST PUSH1 0x40 MLOAD SWAP1 DUP1 DUP3 MSTORE DUP1 PUSH1 0x20 MUL PUSH1 0x20 ADD DUP3 ADD PUSH1 0x40 MSTORE DUP1 ISZERO PUSH2 0x1A50 JUMPI DUP2 PUSH1 0x20 ADD JUMPDEST PUSH1 0x60 DUP2 MSTORE PUSH1 0x20 ADD SWAP1 PUSH1 0x1 SWAP1 SUB SWAP1 DUP2 PUSH2 0x1A3B JUMPI SWAP1 POP JUMPDEST POP SWAP1 POP PUSH0 JUMPDEST DUP3 MLOAD DUP2 LT ISZERO PUSH2 0x1AA5 JUMPI PUSH2 0x1A80 DUP4 DUP3 DUP2 MLOAD DUP2 LT PUSH2 0x1A73 JUMPI PUSH2 0x1A73 PUSH2 0x3E86 JUMP JUMPDEST PUSH1 0x20 MUL PUSH1 0x20 ADD ADD MLOAD PUSH2 0x1C8F JUMP JUMPDEST DUP3 DUP3 DUP2 MLOAD DUP2 LT PUSH2 0x1A92 JUMPI PUSH2 0x1A92 PUSH2 0x3E86 JUMP JUMPDEST PUSH1 0x20 SWAP1 DUP2 MUL SWAP2 SWAP1 SWAP2 ADD ADD MSTORE PUSH1 0x1 ADD PUSH2 0x1A55 JUMP JUMPDEST POP SWAP2 SWAP1 POP JUMP JUMPDEST PUSH1 0x1 PUSH1 0x1 PUSH1 0xA0 SHL SUB SWAP2 DUP3 AND PUSH0 SWAP1 DUP2 MSTORE PUSH1 0x7 PUSH1 0x20 SWAP1 DUP2 MSTORE PUSH1 0x40 DUP1 DUP4 KECCAK256 SWAP4 SWAP1 SWAP5 AND DUP3 MSTORE SWAP2 SWAP1 SWAP2 MSTORE KECCAK256 SLOAD PUSH1 0xFF AND SWAP1 JUMP JUMPDEST PUSH2 0x1AE0 PUSH2 0x1D65 JUMP JUMPDEST PUSH1 0x1 PUSH1 0x1 PUSH1 0xA0 SHL SUB DUP2 AND PUSH2 0x1B07 JUMPI PUSH1 0x40 MLOAD PUSH4 0x6B620DB PUSH1 0xE2 SHL DUP2 MSTORE PUSH1 0x4 ADD PUSH1 0x40 MLOAD DUP1 SWAP2 SUB SWAP1 REVERT JUMPDEST PUSH2 0xA84 DUP2 PUSH2 0x213A JUMP JUMPDEST PUSH2 0x1B18 PUSH2 0x1D65 JUMP JUMPDEST PUSH1 0x1D SSTORE JUMP JUMPDEST PUSH2 0x1B25 PUSH2 0x1D65 JUMP JUMPDEST PUSH1 0x1 PUSH1 0x1 PUSH1 0xA0 SHL SUB DUP2 AND PUSH2 0x1B8C JUMPI PUSH1 0x40 MLOAD PUSH3 0x461BCD PUSH1 0xE5 SHL DUP2 MSTORE PUSH1 0x20 PUSH1 0x4 DUP3 ADD MSTORE PUSH1 0x28 PUSH1 0x24 DUP3 ADD MSTORE PUSH32 0x4F637461676F6E2063616E27742062652073657420746F20746865207A65726F PUSH1 0x44 DUP3 ADD MSTORE PUSH8 0x2061646472657373 PUSH1 0xC0 SHL PUSH1 0x64 DUP3 ADD MSTORE PUSH1 0x84 ADD PUSH2 0x2AC JUMP JUMPDEST PUSH1 0x1E DUP1 SLOAD PUSH1 0x1 PUSH1 0x1 PUSH1 0xA0 SHL SUB NOT AND PUSH1 0x1 PUSH1 0x1 PUSH1 0xA0 SHL SUB DUP4 AND SWAP1 DUP2 OR SWAP1 SWAP2 SSTORE PUSH1 0x40 MLOAD SWAP1 DUP2 MSTORE PUSH32 0x4B60D87E496254BE24AF02FB2C6EE2BA6F522282E6753C112D7BF86212D236EA SWAP1 PUSH1 0x20 ADD PUSH1 0x40 MLOAD DUP1 SWAP2 SUB SWAP1 LOG1 POP JUMP JUMPDEST PUSH0 DUP1 DUP1 PUSH2 0x1C04 PUSH10 0x6773C5A04A6D4300884B PUSH1 0xB1 SHL PUSH1 0x1 PUSH1 0x1 PUSH1 0xE0 SHL SUB NOT DUP7 AND PUSH2 0x2706 JUMP JUMPDEST SWAP1 POP PUSH0 PUSH2 0x1C10 DUP3 PUSH2 0x1C8F JUMP JUMPDEST SWAP1 POP DUP1 MLOAD PUSH1 0x14 EQ ISZERO DUP1 ISZERO PUSH2 0x1C24 JUMPI POP DUP1 MLOAD ISZERO ISZERO JUMPDEST ISZERO PUSH2 0x1C44 JUMPI DUP1 PUSH1 0x40 MLOAD PUSH4 0x42BFE79F PUSH1 0xE0 SHL DUP2 MSTORE PUSH1 0x4 ADD PUSH2 0x2AC SWAP2 SWAP1 PUSH2 0x34C1 JUMP JUMPDEST PUSH2 0x1C4D DUP2 PUSH2 0x3FC0 JUMP JUMPDEST PUSH1 0x60 SHR SWAP6 PUSH1 0x1 SWAP6 POP SWAP4 POP POP POP POP JUMP JUMPDEST PUSH0 PUSH1 0x1 PUSH1 0x1 PUSH1 0xE0 SHL SUB NOT DUP3 AND PUSH4 0x61B8A4F PUSH1 0xE3 SHL EQ DUP1 PUSH2 0x1C80 JUMPI POP PUSH2 0x1C80 DUP3 PUSH2 0x2759 JUMP JUMPDEST DUP1 PUSH2 0x981 JUMPI POP PUSH2 0x981 DUP3 PUSH2 0x277D JUMP JUMPDEST PUSH0 DUP2 DUP2 MSTORE PUSH1 0x1 PUSH1 0x20 MSTORE PUSH1 0x40 SWAP1 KECCAK256 DUP1 SLOAD PUSH1 0x60 SWAP2 SWAP1 PUSH2 0x1CAB SWAP1 PUSH2 0x3FF3 JUMP JUMPDEST DUP1 PUSH1 0x1F ADD PUSH1 0x20 DUP1 SWAP2 DIV MUL PUSH1 0x20 ADD PUSH1 0x40 MLOAD SWAP1 DUP2 ADD PUSH1 0x40 MSTORE DUP1 SWAP3 SWAP2 SWAP1 DUP2 DUP2 MSTORE PUSH1 0x20 ADD DUP3 DUP1 SLOAD PUSH2 0x1CD7 SWAP1 PUSH2 0x3FF3 JUMP JUMPDEST DUP1 ISZERO PUSH2 0x1D22 JUMPI DUP1 PUSH1 0x1F LT PUSH2 0x1CF9 JUMPI PUSH2 0x100 DUP1 DUP4 SLOAD DIV MUL DUP4 MSTORE SWAP2 PUSH1 0x20 ADD SWAP2 PUSH2 0x1D22 JUMP JUMPDEST DUP3 ADD SWAP2 SWAP1 PUSH0 MSTORE PUSH1 0x20 PUSH0 KECCAK256 SWAP1 JUMPDEST DUP2 SLOAD DUP2 MSTORE SWAP1 PUSH1 0x1 ADD SWAP1 PUSH1 0x20 ADD DUP1 DUP4 GT PUSH2 0x1D05 JUMPI DUP3 SWAP1 SUB PUSH1 0x1F AND DUP3 ADD SWAP2 JUMPDEST POP POP POP POP POP SWAP1 POP SWAP2 SWAP1 POP JUMP JUMPDEST PUSH0 DUP2 DUP2 MSTORE PUSH1 0x3 PUSH1 0x20 MSTORE PUSH1 0x40 SWAP1 KECCAK256 SLOAD PUSH1 0x1 PUSH1 0x1 PUSH1 0xA0 SHL SUB AND PUSH2 0xA84 JUMPI PUSH1 0x40 MLOAD PUSH4 0x5747CD1B PUSH1 0xE1 SHL DUP2 MSTORE PUSH1 0x4 DUP2 ADD DUP3 SWAP1 MSTORE PUSH1 0x24 ADD PUSH2 0x2AC JUMP JUMPDEST CALLER PUSH2 0x1D77 PUSH0 SLOAD PUSH1 0x1 PUSH1 0x1 PUSH1 0xA0 SHL SUB AND SWAP1 JUMP JUMPDEST PUSH1 0x1 PUSH1 0x1 PUSH1 0xA0 SHL SUB AND EQ PUSH2 0x134B JUMPI PUSH1 0x40 MLOAD PUSH4 0xBF1169C5 PUSH1 0xE0 SHL DUP2 MSTORE CALLER PUSH1 0x4 DUP3 ADD MSTORE PUSH1 0x24 ADD PUSH2 0x2AC JUMP JUMPDEST PUSH2 0xA6F PUSH1 0x14 DUP3 PUSH1 0x6 PUSH2 0x3373 JUMP JUMPDEST PUSH2 0x1DE7 PUSH1 0x40 DUP1 MLOAD PUSH1 0xE0 DUP2 ADD SWAP1 SWAP2 MSTORE DUP1 PUSH0 DUP2 MSTORE PUSH1 0x20 ADD PUSH0 DUP2 MSTORE PUSH1 0x20 ADD PUSH0 DUP2 MSTORE PUSH1 0x20 ADD PUSH0 DUP2 MSTORE PUSH1 0x20 ADD PUSH0 DUP2 MSTORE PUSH1 0x20 ADD PUSH0 DUP2 MSTORE PUSH1 0x20 ADD PUSH0 DUP2 MSTORE POP SWAP1 JUMP JUMPDEST PUSH0 PUSH2 0x1DF1 DUP4 PUSH2 0x1C8F JUMP JUMPDEST SWAP1 POP DUP1 DUP1 PUSH1 0x20 ADD SWAP1 MLOAD DUP2 ADD SWAP1 PUSH2 0xC0C SWAP2 SWAP1 PUSH2 0x4025 JUMP JUMPDEST PUSH2 0x1E11 DUP6 CALLER PUSH2 0x1AAB JUMP JUMPDEST ISZERO DUP1 ISZERO PUSH2 0x1E25 JUMPI POP PUSH2 0x1E23 CALLER DUP5 PUSH2 0x1E93 JUMP JUMPDEST ISZERO JUMPDEST ISZERO PUSH2 0x1E4C JUMPI PUSH1 0x40 MLOAD PUSH4 0x1294D2A9 PUSH1 0xE0 SHL DUP2 MSTORE PUSH1 0x4 DUP2 ADD DUP5 SWAP1 MSTORE CALLER PUSH1 0x24 DUP3 ADD MSTORE PUSH1 0x44 ADD PUSH2 0x2AC JUMP JUMPDEST PUSH1 0x40 MLOAD DUP4 SWAP1 PUSH1 0x1 PUSH1 0x1 PUSH1 0xA0 SHL SUB DUP1 DUP8 AND SWAP2 SWAP1 DUP9 AND SWAP1 PUSH32 0xDDF252AD1BE2C89B69C2B068FC378DAA952BA7F163C4A11628F55A4DF523B3EF SWAP1 PUSH0 SWAP1 LOG4 PUSH2 0xFA7 DUP6 DUP6 DUP6 DUP6 DUP6 PUSH2 0x27B2 JUMP JUMPDEST PUSH0 PUSH2 0x1E9D DUP3 PUSH2 0xB9D JUMP JUMPDEST PUSH1 0x1 PUSH1 0x1 PUSH1 0xA0 SHL SUB AND DUP4 PUSH1 0x1 PUSH1 0x1 PUSH1 0xA0 SHL SUB AND EQ DUP1 PUSH2 0xC0C JUMPI POP PUSH0 DUP3 DUP2 MSTORE PUSH1 0x5 PUSH1 0x20 MSTORE PUSH1 0x40 SWAP1 KECCAK256 PUSH2 0xC0C SWAP1 DUP5 PUSH2 0x2992 JUMP JUMPDEST PUSH2 0xA6F PUSH1 0xE DUP3 PUSH1 0x6 PUSH2 0x3373 JUMP JUMPDEST PUSH1 0x2 PUSH1 0x1A SLOAD SUB PUSH2 0x1EFE JUMPI PUSH1 0x40 MLOAD PUSH4 0x3EE5AEB5 PUSH1 0xE0 SHL DUP2 MSTORE PUSH1 0x4 ADD PUSH1 0x40 MLOAD DUP1 SWAP2 SUB SWAP1 REVERT JUMPDEST PUSH1 0x2 PUSH1 0x1A SSTORE JUMP JUMPDEST PUSH1 0x1B DUP1 SLOAD PUSH0 SWAP2 DUP3 PUSH2 0x1F15 DUP4 PUSH2 0x3F2E JUMP JUMPDEST SWAP1 SWAP2 SSTORE POP PUSH0 SWAP1 POP PUSH2 0x1F27 PUSH1 0x1 NUMBER PUSH2 0x3E73 JUMP JUMPDEST PUSH1 0x1B SLOAD PUSH1 0x40 DUP1 MLOAD SWAP3 BLOCKHASH PUSH1 0x20 DUP5 ADD MSTORE TIMESTAMP SWAP1 DUP4 ADD MSTORE PUSH1 0x60 DUP3 ADD MSTORE PUSH1 0x80 ADD PUSH1 0x40 DUP1 MLOAD PUSH1 0x1F NOT DUP2 DUP5 SUB ADD DUP2 MSTORE SWAP2 SWAP1 MSTORE DUP1 MLOAD PUSH1 0x20 SWAP1 SWAP2 ADD KECCAK256 SWAP1 POP PUSH2 0x1F67 PUSH1 0xB DUP3 PUSH2 0x40AF JUMP JUMPDEST PUSH2 0x1F72 SWAP1 PUSH1 0x5A PUSH2 0x3F46 JUMP JUMPDEST SWAP2 POP POP SWAP1 JUMP JUMPDEST PUSH1 0x1B DUP1 SLOAD PUSH0 SWAP2 DUP3 PUSH2 0x1F88 DUP4 PUSH2 0x3F2E JUMP JUMPDEST SWAP1 SWAP2 SSTORE POP PUSH0 SWAP1 POP PUSH2 0x1F9A PUSH1 0x1 NUMBER PUSH2 0x3E73 JUMP JUMPDEST PUSH1 0x1B SLOAD PUSH1 0x40 DUP1 MLOAD SWAP3 BLOCKHASH PUSH1 0x20 DUP5 ADD MSTORE TIMESTAMP SWAP1 DUP4 ADD MSTORE PUSH1 0x60 DUP3 ADD MSTORE PUSH1 0x80 ADD PUSH1 0x40 DUP1 MLOAD PUSH1 0x1F NOT DUP2 DUP5 SUB ADD DUP2 MSTORE SWAP2 SWAP1 MSTORE DUP1 MLOAD PUSH1 0x20 SWAP1 SWAP2 ADD KECCAK256 SWAP1 POP PUSH2 0x1FDA PUSH1 0x64 DUP3 PUSH2 0x40AF JUMP JUMPDEST PUSH2 0x1F72 SWAP1 PUSH1 0x1 PUSH2 0x3F46 JUMP JUMPDEST PUSH1 0x1B DUP1 SLOAD PUSH0 SWAP2 DUP3 PUSH2 0x1FF5 DUP4 PUSH2 0x3F2E JUMP JUMPDEST SWAP1 SWAP2 SSTORE POP PUSH0 SWAP1 POP PUSH2 0x2007 PUSH1 0x1 NUMBER PUSH2 0x3E73 JUMP JUMPDEST PUSH1 0x1B SLOAD PUSH1 0x40 DUP1 MLOAD SWAP3 BLOCKHASH PUSH1 0x20 DUP5 ADD MSTORE TIMESTAMP SWAP1 DUP4 ADD MSTORE PUSH1 0x60 DUP3 ADD MSTORE PUSH1 0x80 ADD PUSH1 0x40 DUP1 MLOAD PUSH1 0x1F NOT DUP2 DUP5 SUB ADD DUP2 MSTORE SWAP2 SWAP1 MSTORE DUP1 MLOAD PUSH1 0x20 SWAP1 SWAP2 ADD KECCAK256 SWAP1 POP PUSH2 0x2047 PUSH1 0xA DUP3 PUSH2 0x40AF JUMP JUMPDEST PUSH0 SUB PUSH2 0x2058 JUMPI PUSH2 0x1FDA PUSH1 0x64 DUP3 PUSH2 0x40AF JUMP JUMPDEST PUSH2 0x1FDA PUSH1 0x14 DUP3 PUSH2 0x40AF JUMP JUMPDEST POP SWAP1 JUMP JUMPDEST PUSH0 DUP2 PUSH1 0x40 MLOAD PUSH1 0x20 ADD PUSH2 0x2079 SWAP2 SWAP1 PUSH2 0x36B5 JUMP JUMPDEST PUSH1 0x40 DUP1 MLOAD PUSH1 0x1F NOT DUP2 DUP5 SUB ADD DUP2 MSTORE SWAP2 SWAP1 MSTORE SWAP1 POP PUSH2 0xBF3 DUP4 DUP3 PUSH2 0x21A5 JUMP JUMPDEST PUSH1 0x40 MLOAD DUP4 SWAP1 PUSH1 0x1 PUSH1 0x1 PUSH1 0xA0 SHL SUB DUP7 AND SWAP1 PUSH0 SWAP1 PUSH32 0xDDF252AD1BE2C89B69C2B068FC378DAA952BA7F163C4A11628F55A4DF523B3EF SWAP1 DUP3 SWAP1 LOG4 PUSH2 0x1787 DUP5 DUP5 DUP5 DUP5 PUSH2 0x29B3 JUMP JUMPDEST PUSH2 0x20E6 DUP5 DUP5 DUP5 PUSH1 0x1 DUP6 PUSH2 0x1E07 JUMP JUMPDEST PUSH2 0x20F2 DUP5 DUP5 DUP5 DUP5 PUSH2 0x2AE2 JUMP JUMPDEST PUSH2 0x1787 JUMPI PUSH1 0x40 MLOAD PUSH3 0x461BCD PUSH1 0xE5 SHL DUP2 MSTORE PUSH1 0x4 ADD PUSH2 0x2AC SWAP1 PUSH2 0x40CE JUMP JUMPDEST PUSH1 0x60 PUSH0 PUSH2 0xC0C DUP4 PUSH2 0x2BE0 JUMP JUMPDEST PUSH1 0x1 PUSH1 0x1 PUSH1 0xA0 SHL SUB DUP2 AND PUSH0 SWAP1 DUP2 MSTORE PUSH1 0x4 PUSH1 0x20 MSTORE PUSH1 0x40 DUP2 KECCAK256 PUSH2 0x981 SWAP1 PUSH2 0x2C38 JUMP JUMPDEST PUSH0 SLOAD PUSH1 0x1 PUSH1 0x1 PUSH1 0xA0 SHL SUB DUP3 DUP2 AND SWAP2 AND EQ PUSH2 0xA84 JUMPI PUSH0 DUP1 SLOAD PUSH1 0x40 MLOAD PUSH1 0x1 PUSH1 0x1 PUSH1 0xA0 SHL SUB DUP1 DUP6 AND SWAP4 SWAP3 AND SWAP2 PUSH32 0x8BE0079C531659141344CD1FD0A4F28419497F9722A3DAAFE3B4186F6B6457E0 SWAP2 LOG3 PUSH0 DUP1 SLOAD PUSH1 0x1 PUSH1 0x1 PUSH1 0xA0 SHL SUB DUP4 AND PUSH1 0x1 PUSH1 0x1 PUSH1 0xA0 SHL SUB NOT SWAP1 SWAP2 AND OR SWAP1 SSTORE POP JUMP JUMPDEST PUSH32 0x8EA0DB76A9218319A16B2627C940152B860818F29648E72B840184FF1FA4B01C DUP3 ADD PUSH2 0x21E5 JUMPI PUSH1 0x40 MLOAD PUSH4 0x29DE0891 PUSH1 0xE1 SHL DUP2 MSTORE PUSH1 0x4 ADD PUSH1 0x40 MLOAD DUP1 SWAP2 SUB SWAP1 REVERT JUMPDEST PUSH2 0xA6F DUP3 DUP3 PUSH2 0x2C41 JUMP JUMPDEST PUSH0 PUSH2 0xC0C DUP4 PUSH1 0x1 PUSH1 0x1 PUSH1 0xA0 SHL SUB DUP5 AND PUSH2 0x2D33 JUMP JUMPDEST PUSH2 0x221D PUSH1 0x1 PUSH1 0x1 PUSH1 0xA0 SHL SUB DUP5 AND PUSH4 0x1AED5A85 PUSH1 0xE2 SHL PUSH2 0x2D7F JUMP JUMPDEST ISZERO PUSH2 0xBF3 JUMPI PUSH1 0x40 MLOAD PUSH4 0x1AED5A85 PUSH1 0xE2 SHL DUP2 MSTORE PUSH1 0x1 PUSH1 0x1 PUSH1 0xA0 SHL SUB DUP5 AND SWAP1 PUSH4 0x6BB56A14 SWAP1 PUSH2 0x2250 SWAP1 DUP6 SWAP1 DUP6 SWAP1 PUSH1 0x4 ADD PUSH2 0x412C JUMP JUMPDEST PUSH0 PUSH1 0x40 MLOAD DUP1 DUP4 SUB DUP2 PUSH0 DUP8 GAS CALL ISZERO DUP1 ISZERO PUSH2 0x226B JUMPI RETURNDATASIZE PUSH0 DUP1 RETURNDATACOPY RETURNDATASIZE PUSH0 REVERT JUMPDEST POP POP POP POP PUSH1 0x40 MLOAD RETURNDATASIZE PUSH0 DUP3 RETURNDATACOPY PUSH1 0x1F RETURNDATASIZE SWAP1 DUP2 ADD PUSH1 0x1F NOT AND DUP3 ADD PUSH1 0x40 MSTORE PUSH2 0x1787 SWAP2 SWAP1 DUP2 ADD SWAP1 PUSH2 0x4172 JUMP JUMPDEST DUP2 PUSH1 0x1 PUSH1 0x1 PUSH1 0xA0 SHL SUB AND DUP4 PUSH1 0x1 PUSH1 0x1 PUSH1 0xA0 SHL SUB AND SUB PUSH2 0x2303 JUMPI PUSH1 0x40 MLOAD PUSH3 0x461BCD PUSH1 0xE5 SHL DUP2 MSTORE PUSH1 0x20 PUSH1 0x4 DUP3 ADD MSTORE PUSH1 0x27 PUSH1 0x24 DUP3 ADD MSTORE PUSH32 0x4C535038436F6D70617469626C654552433732313A20617070726F766520746F PUSH1 0x44 DUP3 ADD MSTORE PUSH7 0x1031B0B63632B9 PUSH1 0xC9 SHL PUSH1 0x64 DUP3 ADD MSTORE PUSH1 0x84 ADD PUSH2 0x2AC JUMP JUMPDEST PUSH1 0x1 PUSH1 0x1 PUSH1 0xA0 SHL SUB DUP4 DUP2 AND PUSH0 DUP2 DUP2 MSTORE PUSH1 0x7 PUSH1 0x20 SWAP1 DUP2 MSTORE PUSH1 0x40 DUP1 DUP4 KECCAK256 SWAP5 DUP8 AND DUP1 DUP5 MSTORE SWAP5 DUP3 MSTORE SWAP2 DUP3 SWAP1 KECCAK256 DUP1 SLOAD PUSH1 0xFF NOT AND DUP7 ISZERO ISZERO SWAP1 DUP2 OR SWAP1 SWAP2 SSTORE SWAP2 MLOAD SWAP2 DUP3 MSTORE PUSH32 0x17307EAB39AB6107E8899845AD3D59BD9653F200F220920489CA2B5937696C31 SWAP2 ADD PUSH1 0x40 MLOAD DUP1 SWAP2 SUB SWAP1 LOG3 POP POP POP JUMP JUMPDEST PUSH1 0x60 PUSH0 PUSH2 0x237B DUP4 PUSH2 0x1DAD JUMP JUMPDEST SWAP1 POP PUSH0 PUSH1 0x8 DUP3 PUSH0 ADD MLOAD PUSH1 0x5 DUP2 GT ISZERO PUSH2 0x2395 JUMPI PUSH2 0x2395 PUSH2 0x36A1 JUMP JUMPDEST PUSH1 0x6 DUP2 LT PUSH2 0x23A5 JUMPI PUSH2 0x23A5 PUSH2 0x3E86 JUMP JUMPDEST ADD DUP1 SLOAD PUSH2 0x23B1 SWAP1 PUSH2 0x3FF3 JUMP JUMPDEST DUP1 PUSH1 0x1F ADD PUSH1 0x20 DUP1 SWAP2 DIV MUL PUSH1 0x20 ADD PUSH1 0x40 MLOAD SWAP1 DUP2 ADD PUSH1 0x40 MSTORE DUP1 SWAP3 SWAP2 SWAP1 DUP2 DUP2 MSTORE PUSH1 0x20 ADD DUP3 DUP1 SLOAD PUSH2 0x23DD SWAP1 PUSH2 0x3FF3 JUMP JUMPDEST DUP1 ISZERO PUSH2 0x2428 JUMPI DUP1 PUSH1 0x1F LT PUSH2 0x23FF JUMPI PUSH2 0x100 DUP1 DUP4 SLOAD DIV MUL DUP4 MSTORE SWAP2 PUSH1 0x20 ADD SWAP2 PUSH2 0x2428 JUMP JUMPDEST DUP3 ADD SWAP2 SWAP1 PUSH0 MSTORE PUSH1 0x20 PUSH0 KECCAK256 SWAP1 JUMPDEST DUP2 SLOAD DUP2 MSTORE SWAP1 PUSH1 0x1 ADD SWAP1 PUSH1 0x20 ADD DUP1 DUP4 GT PUSH2 0x240B JUMPI DUP3 SWAP1 SUB PUSH1 0x1F AND DUP3 ADD SWAP2 JUMPDEST POP POP POP POP POP SWAP1 POP PUSH0 PUSH1 0xE DUP4 PUSH0 ADD MLOAD PUSH1 0x5 DUP2 GT ISZERO PUSH2 0x2447 JUMPI PUSH2 0x2447 PUSH2 0x36A1 JUMP JUMPDEST PUSH1 0x6 DUP2 LT PUSH2 0x2457 JUMPI PUSH2 0x2457 PUSH2 0x3E86 JUMP JUMPDEST ADD DUP1 SLOAD PUSH2 0x2463 SWAP1 PUSH2 0x3FF3 JUMP JUMPDEST DUP1 PUSH1 0x1F ADD PUSH1 0x20 DUP1 SWAP2 DIV MUL PUSH1 0x20 ADD PUSH1 0x40 MLOAD SWAP1 DUP2 ADD PUSH1 0x40 MSTORE DUP1 SWAP3 SWAP2 SWAP1 DUP2 DUP2 MSTORE PUSH1 0x20 ADD DUP3 DUP1 SLOAD PUSH2 0x248F SWAP1 PUSH2 0x3FF3 JUMP JUMPDEST DUP1 ISZERO PUSH2 0x24DA JUMPI DUP1 PUSH1 0x1F LT PUSH2 0x24B1 JUMPI PUSH2 0x100 DUP1 DUP4 SLOAD DIV MUL DUP4 MSTORE SWAP2 PUSH1 0x20 ADD SWAP2 PUSH2 0x24DA JUMP JUMPDEST DUP3 ADD SWAP2 SWAP1 PUSH0 MSTORE PUSH1 0x20 PUSH0 KECCAK256 SWAP1 JUMPDEST DUP2 SLOAD DUP2 MSTORE SWAP1 PUSH1 0x1 ADD SWAP1 PUSH1 0x20 ADD DUP1 DUP4 GT PUSH2 0x24BD JUMPI DUP3 SWAP1 SUB PUSH1 0x1F AND DUP3 ADD SWAP2 JUMPDEST POP POP POP POP POP SWAP1 POP PUSH0 PUSH1 0x14 DUP5 PUSH0 ADD MLOAD PUSH1 0x5 DUP2 GT ISZERO PUSH2 0x24F9 JUMPI PUSH2 0x24F9 PUSH2 0x36A1 JUMP JUMPDEST PUSH1 0x6 DUP2 LT PUSH2 0x2509 JUMPI PUSH2 0x2509 PUSH2 0x3E86 JUMP JUMPDEST ADD DUP1 SLOAD PUSH2 0x2515 SWAP1 PUSH2 0x3FF3 JUMP JUMPDEST DUP1 PUSH1 0x1F ADD PUSH1 0x20 DUP1 SWAP2 DIV MUL PUSH1 0x20 ADD PUSH1 0x40 MLOAD SWAP1 DUP2 ADD PUSH1 0x40 MSTORE DUP1 SWAP3 SWAP2 SWAP1 DUP2 DUP2 MSTORE PUSH1 0x20 ADD DUP3 DUP1 SLOAD PUSH2 0x2541 SWAP1 PUSH2 0x3FF3 JUMP JUMPDEST DUP1 ISZERO PUSH2 0x258C JUMPI DUP1 PUSH1 0x1F LT PUSH2 0x2563 JUMPI PUSH2 0x100 DUP1 DUP4 SLOAD DIV MUL DUP4 MSTORE SWAP2 PUSH1 0x20 ADD SWAP2 PUSH2 0x258C JUMP JUMPDEST DUP3 ADD SWAP2 SWAP1 PUSH0 MSTORE PUSH1 0x20 PUSH0 KECCAK256 SWAP1 JUMPDEST DUP2 SLOAD DUP2 MSTORE SWAP1 PUSH1 0x1 ADD SWAP1 PUSH1 0x20 ADD DUP1 DUP4 GT PUSH2 0x256F JUMPI DUP3 SWAP1 SUB PUSH1 0x1F AND DUP3 ADD SWAP2 JUMPDEST POP POP POP POP POP SWAP1 POP PUSH0 PUSH2 0x259D DUP6 PUSH2 0x2E05 JUMP JUMPDEST SWAP1 POP PUSH20 0x0 PUSH4 0x12496A1B DUP4 DUP7 DUP7 DUP6 PUSH1 0x40 MLOAD PUSH1 0x20 ADD PUSH2 0x25D0 SWAP5 SWAP4 SWAP3 SWAP2 SWAP1 PUSH2 0x41B6 JUMP JUMPDEST PUSH1 0x40 MLOAD PUSH1 0x20 DUP2 DUP4 SUB SUB DUP2 MSTORE SWAP1 PUSH1 0x40 MSTORE PUSH1 0x40 MLOAD DUP3 PUSH4 0xFFFFFFFF AND PUSH1 0xE0 SHL DUP2 MSTORE PUSH1 0x4 ADD PUSH2 0x25FB SWAP2 SWAP1 PUSH2 0x34C1 JUMP JUMPDEST PUSH0 PUSH1 0x40 MLOAD DUP1 DUP4 SUB DUP2 DUP7 GAS DELEGATECALL ISZERO DUP1 ISZERO PUSH2 0x2615 JUMPI RETURNDATASIZE PUSH0 DUP1 RETURNDATACOPY RETURNDATASIZE PUSH0 REVERT JUMPDEST POP POP POP POP PUSH1 0x40 MLOAD RETURNDATASIZE PUSH0 DUP3 RETURNDATACOPY PUSH1 0x1F RETURNDATASIZE SWAP1 DUP2 ADD PUSH1 0x1F NOT AND DUP3 ADD PUSH1 0x40 MSTORE PUSH2 0x263C SWAP2 SWAP1 DUP2 ADD SWAP1 PUSH2 0x4172 JUMP JUMPDEST PUSH1 0x40 MLOAD PUSH1 0x20 ADD PUSH2 0x264C SWAP2 SWAP1 PUSH2 0x438C JUMP JUMPDEST PUSH1 0x40 MLOAD PUSH1 0x20 DUP2 DUP4 SUB SUB DUP2 MSTORE SWAP1 PUSH1 0x40 MSTORE SWAP6 POP POP POP POP POP POP SWAP2 SWAP1 POP JUMP JUMPDEST PUSH0 DUP4 DUP2 MSTORE PUSH1 0x5 PUSH1 0x20 MSTORE PUSH1 0x40 DUP2 KECCAK256 PUSH2 0x267E SWAP1 DUP8 PUSH2 0x2E72 JUMP JUMPDEST SWAP1 POP DUP1 PUSH2 0x26B0 JUMPI PUSH1 0x40 MLOAD PUSH4 0x12A8C6A3 PUSH1 0xE2 SHL DUP2 MSTORE PUSH1 0x1 PUSH1 0x1 PUSH1 0xA0 SHL SUB DUP8 AND PUSH1 0x4 DUP3 ADD MSTORE PUSH1 0x24 DUP2 ADD DUP6 SWAP1 MSTORE PUSH1 0x44 ADD PUSH2 0x2AC JUMP JUMPDEST DUP4 DUP6 PUSH1 0x1 PUSH1 0x1 PUSH1 0xA0 SHL SUB AND DUP8 PUSH1 0x1 PUSH1 0x1 PUSH1 0xA0 SHL SUB AND PUSH32 0x3EE932CEA40EBBBFD8577D47156CC17CCE8683802C57BBD1FB8C131C6F07AF0A DUP7 DUP7 PUSH1 0x40 MLOAD PUSH2 0x26F6 SWAP3 SWAP2 SWAP1 PUSH2 0x43D0 JUMP JUMPDEST PUSH1 0x40 MLOAD DUP1 SWAP2 SUB SWAP1 LOG4 POP POP POP POP POP POP JUMP JUMPDEST PUSH1 0x40 DUP1 MLOAD PUSH1 0x1 PUSH1 0x1 PUSH1 0xB0 SHL SUB NOT DUP5 AND PUSH1 0x20 DUP3 ADD MSTORE PUSH0 PUSH1 0x2A DUP3 ADD DUP2 SWAP1 MSTORE PUSH1 0x1 PUSH1 0x1 PUSH1 0x60 SHL SUB NOT DUP5 AND PUSH1 0x2C DUP4 ADD MSTORE SWAP2 DUP3 SWAP2 ADD PUSH1 0x40 MLOAD PUSH1 0x20 DUP2 DUP4 SUB SUB DUP2 MSTORE SWAP1 PUSH1 0x40 MSTORE SWAP1 POP DUP1 PUSH2 0x2751 SWAP1 PUSH2 0x43EA JUMP JUMPDEST SWAP5 SWAP4 POP POP POP POP JUMP JUMPDEST PUSH0 PUSH1 0x1 PUSH1 0x1 PUSH1 0xE0 SHL SUB NOT DUP3 AND PUSH4 0xA918FA6B PUSH1 0xE0 SHL EQ DUP1 PUSH2 0x981 JUMPI POP PUSH2 0x981 DUP3 PUSH2 0x2E86 JUMP JUMPDEST PUSH0 DUP1 PUSH2 0x278F PUSH4 0x1FFC9A7 PUSH1 0xE0 SHL PUSH2 0x1BE0 JUMP JUMPDEST POP SWAP1 POP PUSH1 0x1 PUSH1 0x1 PUSH1 0xA0 SHL SUB DUP2 AND PUSH2 0x27A8 JUMPI POP PUSH0 SWAP3 SWAP2 POP POP JUMP JUMPDEST PUSH2 0xC0C DUP2 DUP5 PUSH2 0x2D7F JUMP JUMPDEST DUP4 PUSH1 0x1 PUSH1 0x1 PUSH1 0xA0 SHL SUB AND DUP6 PUSH1 0x1 PUSH1 0x1 PUSH1 0xA0 SHL SUB AND SUB PUSH2 0x27E4 JUMPI PUSH1 0x40 MLOAD PUSH4 0x5D67D6C1 PUSH1 0xE0 SHL DUP2 MSTORE PUSH1 0x4 ADD PUSH1 0x40 MLOAD DUP1 SWAP2 SUB SWAP1 REVERT JUMPDEST PUSH0 PUSH2 0x27EE DUP5 PUSH2 0xB9D JUMP JUMPDEST SWAP1 POP DUP6 PUSH1 0x1 PUSH1 0x1 PUSH1 0xA0 SHL SUB AND DUP2 PUSH1 0x1 PUSH1 0x1 PUSH1 0xA0 SHL SUB AND EQ PUSH2 0x283C JUMPI PUSH1 0x40 MLOAD PUSH4 0x2D938F51 PUSH1 0xE1 SHL DUP2 MSTORE PUSH1 0x1 PUSH1 0x1 PUSH1 0xA0 SHL SUB DUP1 DUP4 AND PUSH1 0x4 DUP4 ADD MSTORE PUSH1 0x24 DUP3 ADD DUP7 SWAP1 MSTORE DUP8 AND PUSH1 0x44 DUP3 ADD MSTORE PUSH1 0x64 ADD PUSH2 0x2AC JUMP JUMPDEST PUSH1 0x1 PUSH1 0x1 PUSH1 0xA0 SHL SUB DUP6 AND PUSH2 0x2863 JUMPI PUSH1 0x40 MLOAD PUSH4 0x24ECEF4D PUSH1 0xE0 SHL DUP2 MSTORE PUSH1 0x4 ADD PUSH1 0x40 MLOAD DUP1 SWAP2 SUB SWAP1 REVERT JUMPDEST PUSH2 0x286C DUP5 PUSH2 0xB9D JUMP JUMPDEST SWAP1 POP PUSH2 0x2878 DUP7 DUP6 PUSH2 0x2EBA JUMP JUMPDEST PUSH1 0x1 PUSH1 0x1 PUSH1 0xA0 SHL SUB DUP7 AND PUSH0 SWAP1 DUP2 MSTORE PUSH1 0x4 PUSH1 0x20 MSTORE PUSH1 0x40 SWAP1 KECCAK256 PUSH2 0x2899 SWAP1 DUP6 PUSH2 0x2F0D JUMP JUMPDEST POP PUSH1 0x1 PUSH1 0x1 PUSH1 0xA0 SHL SUB DUP6 AND PUSH0 SWAP1 DUP2 MSTORE PUSH1 0x4 PUSH1 0x20 MSTORE PUSH1 0x40 SWAP1 KECCAK256 PUSH2 0x28BB SWAP1 DUP6 PUSH2 0x2F18 JUMP JUMPDEST POP PUSH0 DUP5 DUP2 MSTORE PUSH1 0x3 PUSH1 0x20 MSTORE PUSH1 0x40 SWAP1 DUP2 SWAP1 KECCAK256 DUP1 SLOAD PUSH1 0x1 PUSH1 0x1 PUSH1 0xA0 SHL SUB NOT AND PUSH1 0x1 PUSH1 0x1 PUSH1 0xA0 SHL SUB DUP9 DUP2 AND SWAP2 DUP3 OR SWAP1 SWAP3 SSTORE SWAP2 MLOAD DUP7 SWAP3 SWAP2 DUP10 AND SWAP1 PUSH32 0xB333C813A7426A7A11E2B190CAD52C44119421594B47F6F32ACE6D8C7207B2BF SWAP1 PUSH2 0x2921 SWAP1 CALLER SWAP1 DUP10 SWAP1 DUP10 SWAP1 PUSH2 0x440D JUMP JUMPDEST PUSH1 0x40 MLOAD DUP1 SWAP2 SUB SWAP1 LOG4 PUSH0 DUP7 DUP7 DUP7 DUP6 PUSH1 0x40 MLOAD PUSH1 0x20 ADD PUSH2 0x2941 SWAP5 SWAP4 SWAP3 SWAP2 SWAP1 PUSH2 0x4438 JUMP JUMPDEST PUSH1 0x40 DUP1 MLOAD PUSH1 0x1F NOT DUP2 DUP5 SUB ADD DUP2 MSTORE SWAP2 SWAP1 MSTORE SWAP1 POP PUSH2 0x2987 PUSH1 0x1 PUSH1 0x1 PUSH1 0xA0 SHL SUB DUP9 AND PUSH32 0xB23EAE7E6D1564B295B4C3E3BE402D9A2F0776C57BDF365903496F6FA481AB00 DUP4 PUSH2 0x2203 JUMP JUMPDEST PUSH2 0x1432 DUP7 DUP6 DUP4 PUSH2 0x2F23 JUMP JUMPDEST PUSH1 0x1 PUSH1 0x1 PUSH1 0xA0 SHL SUB DUP2 AND PUSH0 SWAP1 DUP2 MSTORE PUSH1 0x1 DUP4 ADD PUSH1 0x20 MSTORE PUSH1 0x40 DUP2 KECCAK256 SLOAD ISZERO ISZERO PUSH2 0xC0C JUMP JUMPDEST PUSH1 0x1 PUSH1 0x1 PUSH1 0xA0 SHL SUB DUP5 AND PUSH2 0x29DA JUMPI PUSH1 0x40 MLOAD PUSH4 0x24ECEF4D PUSH1 0xE0 SHL DUP2 MSTORE PUSH1 0x4 ADD PUSH1 0x40 MLOAD DUP1 SWAP2 SUB SWAP1 REVERT JUMPDEST PUSH0 DUP4 DUP2 MSTORE PUSH1 0x3 PUSH1 0x20 MSTORE PUSH1 0x40 SWAP1 KECCAK256 SLOAD PUSH1 0x1 PUSH1 0x1 PUSH1 0xA0 SHL SUB AND ISZERO PUSH2 0x2A12 JUMPI PUSH1 0x40 MLOAD PUSH4 0x34C7B511 PUSH1 0xE0 SHL DUP2 MSTORE PUSH1 0x4 DUP2 ADD DUP5 SWAP1 MSTORE PUSH1 0x24 ADD PUSH2 0x2AC JUMP JUMPDEST PUSH1 0x2 PUSH0 DUP2 SLOAD PUSH2 0x2A20 SWAP1 PUSH2 0x3F2E JUMP JUMPDEST SWAP1 SWAP2 SSTORE POP PUSH1 0x1 PUSH1 0x1 PUSH1 0xA0 SHL SUB DUP5 AND PUSH0 SWAP1 DUP2 MSTORE PUSH1 0x4 PUSH1 0x20 MSTORE PUSH1 0x40 SWAP1 KECCAK256 PUSH2 0x2A45 SWAP1 DUP5 PUSH2 0x2F18 JUMP JUMPDEST POP PUSH0 DUP4 DUP2 MSTORE PUSH1 0x3 PUSH1 0x20 MSTORE PUSH1 0x40 DUP1 DUP3 KECCAK256 DUP1 SLOAD PUSH1 0x1 PUSH1 0x1 PUSH1 0xA0 SHL SUB NOT AND PUSH1 0x1 PUSH1 0x1 PUSH1 0xA0 SHL SUB DUP9 AND SWAP1 DUP2 OR SWAP1 SWAP2 SSTORE SWAP1 MLOAD DUP6 SWAP3 SWAP1 PUSH32 0xB333C813A7426A7A11E2B190CAD52C44119421594B47F6F32ACE6D8C7207B2BF SWAP1 PUSH2 0x2AA6 SWAP1 CALLER SWAP1 DUP9 SWAP1 DUP9 SWAP1 PUSH2 0x440D JUMP JUMPDEST PUSH1 0x40 MLOAD DUP1 SWAP2 SUB SWAP1 LOG4 PUSH0 DUP1 DUP6 DUP6 DUP5 PUSH1 0x40 MLOAD PUSH1 0x20 ADD PUSH2 0x2AC6 SWAP5 SWAP4 SWAP3 SWAP2 SWAP1 PUSH2 0x4438 JUMP JUMPDEST PUSH1 0x40 MLOAD PUSH1 0x20 DUP2 DUP4 SUB SUB DUP2 MSTORE SWAP1 PUSH1 0x40 MSTORE SWAP1 POP PUSH2 0xFA7 DUP6 DUP5 DUP4 PUSH2 0x2F23 JUMP JUMPDEST PUSH0 DUP4 PUSH1 0x1 PUSH1 0x1 PUSH1 0xA0 SHL SUB AND EXTCODESIZE PUSH0 SUB PUSH2 0x2AFC JUMPI POP PUSH1 0x1 PUSH2 0x2751 JUMP JUMPDEST PUSH1 0x40 MLOAD PUSH4 0xA85BD01 PUSH1 0xE1 SHL DUP2 MSTORE PUSH1 0x1 PUSH1 0x1 PUSH1 0xA0 SHL SUB DUP6 AND SWAP1 PUSH4 0x150B7A02 SWAP1 PUSH2 0x2B2E SWAP1 CALLER SWAP1 DUP10 SWAP1 DUP9 SWAP1 DUP9 SWAP1 PUSH1 0x4 ADD PUSH2 0x4438 JUMP JUMPDEST PUSH1 0x20 PUSH1 0x40 MLOAD DUP1 DUP4 SUB DUP2 PUSH0 DUP8 GAS CALL SWAP3 POP POP POP DUP1 ISZERO PUSH2 0x2B68 JUMPI POP PUSH1 0x40 DUP1 MLOAD PUSH1 0x1F RETURNDATASIZE SWAP1 DUP2 ADD PUSH1 0x1F NOT AND DUP3 ADD SWAP1 SWAP3 MSTORE PUSH2 0x2B65 SWAP2 DUP2 ADD SWAP1 PUSH2 0x446A JUMP JUMPDEST PUSH1 0x1 JUMPDEST PUSH2 0x2BC3 JUMPI RETURNDATASIZE DUP1 DUP1 ISZERO PUSH2 0x2B95 JUMPI PUSH1 0x40 MLOAD SWAP2 POP PUSH1 0x1F NOT PUSH1 0x3F RETURNDATASIZE ADD AND DUP3 ADD PUSH1 0x40 MSTORE RETURNDATASIZE DUP3 MSTORE RETURNDATASIZE PUSH0 PUSH1 0x20 DUP5 ADD RETURNDATACOPY PUSH2 0x2B9A JUMP JUMPDEST PUSH1 0x60 SWAP2 POP JUMPDEST POP DUP1 MLOAD PUSH0 SUB PUSH2 0x2BBB JUMPI PUSH1 0x40 MLOAD PUSH3 0x461BCD PUSH1 0xE5 SHL DUP2 MSTORE PUSH1 0x4 ADD PUSH2 0x2AC SWAP1 PUSH2 0x40CE JUMP JUMPDEST DUP1 MLOAD DUP2 PUSH1 0x20 ADD REVERT JUMPDEST PUSH1 0x1 PUSH1 0x1 PUSH1 0xE0 SHL SUB NOT AND PUSH4 0xA85BD01 PUSH1 0xE1 SHL EQ SWAP1 POP SWAP5 SWAP4 POP POP POP POP JUMP JUMPDEST PUSH1 0x60 DUP2 PUSH0 ADD DUP1 SLOAD DUP1 PUSH1 0x20 MUL PUSH1 0x20 ADD PUSH1 0x40 MLOAD SWAP1 DUP2 ADD PUSH1 0x40 MSTORE DUP1 SWAP3 SWAP2 SWAP1 DUP2 DUP2 MSTORE PUSH1 0x20 ADD DUP3 DUP1 SLOAD DUP1 ISZERO PUSH2 0x1D22 JUMPI PUSH1 0x20 MUL DUP3 ADD SWAP2 SWAP1 PUSH0 MSTORE PUSH1 0x20 PUSH0 KECCAK256 SWAP1 JUMPDEST DUP2 SLOAD DUP2 MSTORE PUSH1 0x20 ADD SWAP1 PUSH1 0x1 ADD SWAP1 DUP1 DUP4 GT PUSH2 0x2C19 JUMPI POP POP POP POP POP SWAP1 POP SWAP2 SWAP1 POP JUMP JUMPDEST PUSH0 PUSH2 0x981 DUP3 SLOAD SWAP1 JUMP JUMPDEST PUSH32 0x2145E1D6D074577DC71EF54C3807742B41B053A9352AE6B491331509ACB9750F DUP3 ADD PUSH2 0x2C81 JUMPI PUSH1 0x40 MLOAD PUSH4 0x85C169BD PUSH1 0xE0 SHL DUP2 MSTORE PUSH1 0x4 ADD PUSH1 0x40 MLOAD DUP1 SWAP2 SUB SWAP1 REVERT JUMPDEST PUSH32 0xD0F59754F88971FE6BC5A6618CC9D5F1E859C58D16B22D1C7B2D3E2B246CD8AA DUP3 ADD PUSH2 0x2CC1 JUMPI PUSH1 0x40 MLOAD PUSH4 0xECEAB67 PUSH1 0xE3 SHL DUP2 MSTORE PUSH1 0x4 ADD PUSH1 0x40 MLOAD DUP1 SWAP2 SUB SWAP1 REVERT JUMPDEST PUSH0 DUP3 DUP2 MSTORE PUSH1 0x1 PUSH1 0x20 MSTORE PUSH1 0x40 SWAP1 KECCAK256 PUSH2 0x2CD8 DUP3 DUP3 PUSH2 0x44C9 JUMP JUMPDEST POP DUP2 PUSH32 0xECE574603820D07BC9B91F2A932BAADF4628AABCB8AFBA49776529C14A6104B2 PUSH2 0x100 DUP4 MLOAD GT ISZERO PUSH2 0x2D18 JUMPI PUSH2 0x2D13 DUP4 PUSH0 PUSH2 0x100 PUSH2 0x2FED JUMP JUMPDEST PUSH2 0x2D1A JUMP JUMPDEST DUP3 JUMPDEST PUSH1 0x40 MLOAD PUSH2 0x2D27 SWAP2 SWAP1 PUSH2 0x34C1 JUMP JUMPDEST PUSH1 0x40 MLOAD DUP1 SWAP2 SUB SWAP1 LOG2 POP POP JUMP JUMPDEST PUSH0 DUP2 DUP2 MSTORE PUSH1 0x1 DUP4 ADD PUSH1 0x20 MSTORE PUSH1 0x40 DUP2 KECCAK256 SLOAD PUSH2 0x2D78 JUMPI POP DUP2 SLOAD PUSH1 0x1 DUP2 DUP2 ADD DUP5 SSTORE PUSH0 DUP5 DUP2 MSTORE PUSH1 0x20 DUP1 DUP3 KECCAK256 SWAP1 SWAP4 ADD DUP5 SWAP1 SSTORE DUP5 SLOAD DUP5 DUP3 MSTORE DUP3 DUP7 ADD SWAP1 SWAP4 MSTORE PUSH1 0x40 SWAP1 KECCAK256 SWAP2 SWAP1 SWAP2 SSTORE PUSH2 0x981 JUMP JUMPDEST POP PUSH0 PUSH2 0x981 JUMP JUMPDEST PUSH1 0x40 MLOAD PUSH1 0x1 PUSH1 0x1 PUSH1 0xE0 SHL SUB NOT DUP3 AND PUSH1 0x24 DUP3 ADD MSTORE PUSH0 SWAP1 DUP2 SWAP1 PUSH1 0x44 ADD PUSH1 0x40 DUP1 MLOAD PUSH1 0x1F NOT DUP2 DUP5 SUB ADD DUP2 MSTORE SWAP2 SWAP1 MSTORE PUSH1 0x20 DUP1 DUP3 ADD DUP1 MLOAD PUSH1 0x1 PUSH1 0x1 PUSH1 0xE0 SHL SUB AND PUSH4 0x1FFC9A7 PUSH1 0xE0 SHL OR DUP2 MSTORE DUP3 MLOAD SWAP3 SWAP4 POP PUSH0 SWAP3 DUP4 SWAP3 DUP4 SWAP3 SWAP1 SWAP2 DUP4 SWAP2 DUP11 PUSH2 0x7530 STATICCALL SWAP3 POP RETURNDATASIZE SWAP2 POP PUSH0 MLOAD SWAP1 POP DUP3 DUP1 ISZERO PUSH2 0x2DEF JUMPI POP PUSH1 0x20 DUP3 LT ISZERO JUMPDEST DUP1 ISZERO PUSH2 0x2DFA JUMPI POP PUSH0 DUP2 GT JUMPDEST SWAP8 SWAP7 POP POP POP POP POP POP POP JUMP JUMPDEST PUSH1 0x60 PUSH2 0x2E14 DUP3 PUSH1 0x20 ADD MLOAD PUSH2 0x30F9 JUMP JUMPDEST PUSH2 0x2E21 DUP4 PUSH1 0x40 ADD MLOAD PUSH2 0x30F9 JUMP JUMPDEST PUSH2 0x2E2E DUP5 PUSH1 0x60 ADD MLOAD PUSH2 0x30F9 JUMP JUMPDEST PUSH2 0x2E3B DUP6 PUSH1 0x80 ADD MLOAD PUSH2 0x30F9 JUMP JUMPDEST PUSH2 0x2E48 DUP7 PUSH1 0xA0 ADD MLOAD PUSH2 0x30F9 JUMP JUMPDEST PUSH1 0x40 MLOAD PUSH1 0x20 ADD PUSH2 0x2E5C SWAP6 SWAP5 SWAP4 SWAP3 SWAP2 SWAP1 PUSH2 0x4584 JUMP JUMPDEST PUSH1 0x40 MLOAD PUSH1 0x20 DUP2 DUP4 SUB SUB DUP2 MSTORE SWAP1 PUSH1 0x40 MSTORE SWAP1 POP SWAP2 SWAP1 POP JUMP JUMPDEST PUSH0 PUSH2 0xC0C DUP4 PUSH1 0x1 PUSH1 0x1 PUSH1 0xA0 SHL SUB DUP5 AND PUSH2 0x3188 JUMP JUMPDEST PUSH0 PUSH1 0x1 PUSH1 0x1 PUSH1 0xE0 SHL SUB NOT DUP3 AND PUSH4 0x18A6A9A5 PUSH1 0xE2 SHL EQ DUP1 PUSH2 0x981 JUMPI POP PUSH4 0x1FFC9A7 PUSH1 0xE0 SHL PUSH1 0x1 PUSH1 0x1 PUSH1 0xE0 SHL SUB NOT DUP4 AND EQ PUSH2 0x981 JUMP JUMPDEST PUSH0 DUP2 DUP2 MSTORE PUSH1 0x5 PUSH1 0x20 MSTORE PUSH1 0x40 DUP2 KECCAK256 SWAP1 PUSH2 0x2ED1 DUP3 PUSH2 0x2C38 JUMP JUMPDEST SWAP1 POP PUSH0 DUP1 JUMPDEST DUP3 DUP2 LT ISZERO PUSH2 0x1660 JUMPI PUSH2 0x2EE8 DUP5 PUSH0 PUSH2 0x326B JUMP JUMPDEST SWAP2 POP PUSH2 0x2F05 DUP3 DUP8 DUP8 PUSH0 PUSH1 0x40 MLOAD DUP1 PUSH1 0x20 ADD PUSH1 0x40 MSTORE DUP1 PUSH0 DUP2 MSTORE POP PUSH2 0x2667 JUMP JUMPDEST PUSH1 0x1 ADD PUSH2 0x2ED6 JUMP JUMPDEST PUSH0 PUSH2 0xC0C DUP4 DUP4 PUSH2 0x3188 JUMP JUMPDEST PUSH0 PUSH2 0xC0C DUP4 DUP4 PUSH2 0x2D33 JUMP JUMPDEST PUSH2 0x2F3D PUSH1 0x1 PUSH1 0x1 PUSH1 0xA0 SHL SUB DUP5 AND PUSH4 0x1AED5A85 PUSH1 0xE2 SHL PUSH2 0x2D7F JUMP JUMPDEST ISZERO PUSH2 0x2F90 JUMPI PUSH1 0x40 MLOAD PUSH4 0x1AED5A85 PUSH1 0xE2 SHL DUP2 MSTORE PUSH1 0x1 PUSH1 0x1 PUSH1 0xA0 SHL SUB DUP5 AND SWAP1 PUSH4 0x6BB56A14 SWAP1 PUSH2 0x2250 SWAP1 PUSH32 0xB084A55EBF70FD3C06FD755269DAC2212C4D3F0F4D09079780BFA50C1B2984D SWAP1 DUP6 SWAP1 PUSH1 0x4 ADD PUSH2 0x412C JUMP JUMPDEST DUP2 PUSH2 0xBF3 JUMPI PUSH1 0x1 PUSH1 0x1 PUSH1 0xA0 SHL SUB DUP4 AND EXTCODESIZE ISZERO PUSH2 0x2FC9 JUMPI PUSH1 0x40 MLOAD PUSH4 0x4349776D PUSH1 0xE0 SHL DUP2 MSTORE PUSH1 0x1 PUSH1 0x1 PUSH1 0xA0 SHL SUB DUP5 AND PUSH1 0x4 DUP3 ADD MSTORE PUSH1 0x24 ADD PUSH2 0x2AC JUMP JUMPDEST PUSH1 0x40 MLOAD PUSH4 0x3173137 PUSH1 0xE0 SHL DUP2 MSTORE PUSH1 0x1 PUSH1 0x1 PUSH1 0xA0 SHL SUB DUP5 AND PUSH1 0x4 DUP3 ADD MSTORE PUSH1 0x24 ADD PUSH2 0x2AC JUMP JUMPDEST PUSH1 0x60 DUP2 PUSH2 0x2FFB DUP2 PUSH1 0x1F PUSH2 0x3F46 JUMP JUMPDEST LT ISZERO PUSH2 0x303A JUMPI PUSH1 0x40 MLOAD PUSH3 0x461BCD PUSH1 0xE5 SHL DUP2 MSTORE PUSH1 0x20 PUSH1 0x4 DUP3 ADD MSTORE PUSH1 0xE PUSH1 0x24 DUP3 ADD MSTORE PUSH14 0x736C6963655F6F766572666C6F77 PUSH1 0x90 SHL PUSH1 0x44 DUP3 ADD MSTORE PUSH1 0x64 ADD PUSH2 0x2AC JUMP JUMPDEST PUSH2 0x3044 DUP3 DUP5 PUSH2 0x3F46 JUMP JUMPDEST DUP5 MLOAD LT ISZERO PUSH2 0x3088 JUMPI PUSH1 0x40 MLOAD PUSH3 0x461BCD PUSH1 0xE5 SHL DUP2 MSTORE PUSH1 0x20 PUSH1 0x4 DUP3 ADD MSTORE PUSH1 0x11 PUSH1 0x24 DUP3 ADD MSTORE PUSH17 0x736C6963655F6F75744F66426F756E6473 PUSH1 0x78 SHL PUSH1 0x44 DUP3 ADD MSTORE PUSH1 0x64 ADD PUSH2 0x2AC JUMP JUMPDEST PUSH1 0x60 DUP3 ISZERO DUP1 ISZERO PUSH2 0x30A6 JUMPI PUSH1 0x40 MLOAD SWAP2 POP PUSH0 DUP3 MSTORE PUSH1 0x20 DUP3 ADD PUSH1 0x40 MSTORE PUSH2 0x30F0 JUMP JUMPDEST PUSH1 0x40 MLOAD SWAP2 POP PUSH1 0x1F DUP5 AND DUP1 ISZERO PUSH1 0x20 MUL DUP2 DUP5 ADD ADD DUP6 DUP2 ADD DUP8 DUP4 ISZERO PUSH1 0x20 MUL DUP5 DUP12 ADD ADD ADD JUMPDEST DUP2 DUP4 LT ISZERO PUSH2 0x30DF JUMPI DUP1 MLOAD DUP4 MSTORE PUSH1 0x20 SWAP3 DUP4 ADD SWAP3 ADD PUSH2 0x30C7 JUMP JUMPDEST POP POP DUP6 DUP5 MSTORE PUSH1 0x1F ADD PUSH1 0x1F NOT AND PUSH1 0x40 MSTORE POP JUMPDEST POP SWAP5 SWAP4 POP POP POP POP JUMP JUMPDEST PUSH1 0x60 PUSH0 PUSH2 0x3105 DUP4 PUSH2 0x3276 JUMP JUMPDEST PUSH1 0x1 ADD SWAP1 POP PUSH0 DUP2 PUSH1 0x1 PUSH1 0x1 PUSH1 0x40 SHL SUB DUP2 GT ISZERO PUSH2 0x3123 JUMPI PUSH2 0x3123 PUSH2 0x352D JUMP JUMPDEST PUSH1 0x40 MLOAD SWAP1 DUP1 DUP3 MSTORE DUP1 PUSH1 0x1F ADD PUSH1 0x1F NOT AND PUSH1 0x20 ADD DUP3 ADD PUSH1 0x40 MSTORE DUP1 ISZERO PUSH2 0x314D JUMPI PUSH1 0x20 DUP3 ADD DUP2 DUP1 CALLDATASIZE DUP4 CALLDATACOPY ADD SWAP1 POP JUMPDEST POP SWAP1 POP DUP2 DUP2 ADD PUSH1 0x20 ADD JUMPDEST PUSH0 NOT ADD PUSH16 0x181899199A1A9B1B9C1CB0B131B232B3 PUSH1 0x81 SHL PUSH1 0xA DUP7 MOD BYTE DUP2 MSTORE8 PUSH1 0xA DUP6 DIV SWAP5 POP DUP5 PUSH2 0x3157 JUMPI POP SWAP4 SWAP3 POP POP POP JUMP JUMPDEST PUSH0 DUP2 DUP2 MSTORE PUSH1 0x1 DUP4 ADD PUSH1 0x20 MSTORE PUSH1 0x40 DUP2 KECCAK256 SLOAD DUP1 ISZERO PUSH2 0x3262 JUMPI PUSH0 PUSH2 0x31AA PUSH1 0x1 DUP4 PUSH2 0x3E73 JUMP JUMPDEST DUP6 SLOAD SWAP1 SWAP2 POP PUSH0 SWAP1 PUSH2 0x31BD SWAP1 PUSH1 0x1 SWAP1 PUSH2 0x3E73 JUMP JUMPDEST SWAP1 POP DUP1 DUP3 EQ PUSH2 0x321C JUMPI PUSH0 DUP7 PUSH0 ADD DUP3 DUP2 SLOAD DUP2 LT PUSH2 0x31DB JUMPI PUSH2 0x31DB PUSH2 0x3E86 JUMP JUMPDEST SWAP1 PUSH0 MSTORE PUSH1 0x20 PUSH0 KECCAK256 ADD SLOAD SWAP1 POP DUP1 DUP8 PUSH0 ADD DUP5 DUP2 SLOAD DUP2 LT PUSH2 0x31FB JUMPI PUSH2 0x31FB PUSH2 0x3E86 JUMP JUMPDEST PUSH0 SWAP2 DUP3 MSTORE PUSH1 0x20 DUP1 DUP4 KECCAK256 SWAP1 SWAP2 ADD SWAP3 SWAP1 SWAP3 SSTORE SWAP2 DUP3 MSTORE PUSH1 0x1 DUP9 ADD SWAP1 MSTORE PUSH1 0x40 SWAP1 KECCAK256 DUP4 SWAP1 SSTORE JUMPDEST DUP6 SLOAD DUP7 SWAP1 DUP1 PUSH2 0x322D JUMPI PUSH2 0x322D PUSH2 0x46CA JUMP JUMPDEST PUSH1 0x1 SWAP1 SUB DUP2 DUP2 SWAP1 PUSH0 MSTORE PUSH1 0x20 PUSH0 KECCAK256 ADD PUSH0 SWAP1 SSTORE SWAP1 SSTORE DUP6 PUSH1 0x1 ADD PUSH0 DUP7 DUP2 MSTORE PUSH1 0x20 ADD SWAP1 DUP2 MSTORE PUSH1 0x20 ADD PUSH0 KECCAK256 PUSH0 SWAP1 SSTORE PUSH1 0x1 SWAP4 POP POP POP POP PUSH2 0x981 JUMP JUMPDEST PUSH0 SWAP2 POP POP PUSH2 0x981 JUMP JUMPDEST PUSH0 PUSH2 0xC0C DUP4 DUP4 PUSH2 0x334D JUMP JUMPDEST PUSH0 DUP1 PUSH19 0x184F03E93FF9F4DAA797ED6E38ED64BF6A1F01 PUSH1 0x40 SHL DUP4 LT PUSH2 0x32B4 JUMPI PUSH19 0x184F03E93FF9F4DAA797ED6E38ED64BF6A1F01 PUSH1 0x40 SHL DUP4 DIV SWAP3 POP PUSH1 0x40 ADD JUMPDEST PUSH14 0x4EE2D6D415B85ACEF8100000000 DUP4 LT PUSH2 0x32E0 JUMPI PUSH14 0x4EE2D6D415B85ACEF8100000000 DUP4 DIV SWAP3 POP PUSH1 0x20 ADD JUMPDEST PUSH7 0x2386F26FC10000 DUP4 LT PUSH2 0x32FE JUMPI PUSH7 0x2386F26FC10000 DUP4 DIV SWAP3 POP PUSH1 0x10 ADD JUMPDEST PUSH4 0x5F5E100 DUP4 LT PUSH2 0x3316 JUMPI PUSH4 0x5F5E100 DUP4 DIV SWAP3 POP PUSH1 0x8 ADD JUMPDEST PUSH2 0x2710 DUP4 LT PUSH2 0x332A JUMPI PUSH2 0x2710 DUP4 DIV SWAP3 POP PUSH1 0x4 ADD JUMPDEST PUSH1 0x64 DUP4 LT PUSH2 0x333C JUMPI PUSH1 0x64 DUP4 DIV SWAP3 POP PUSH1 0x2 ADD JUMPDEST PUSH1 0xA DUP4 LT PUSH2 0x981 JUMPI PUSH1 0x1 ADD SWAP3 SWAP2 POP POP JUMP JUMPDEST PUSH0 DUP3 PUSH0 ADD DUP3 DUP2 SLOAD DUP2 LT PUSH2 0x3362 JUMPI PUSH2 0x3362 PUSH2 0x3E86 JUMP JUMPDEST SWAP1 PUSH0 MSTORE PUSH1 0x20 PUSH0 KECCAK256 ADD SLOAD SWAP1 POP SWAP3 SWAP2 POP POP JUMP JUMPDEST DUP3 PUSH1 0x6 DUP2 ADD SWAP3 DUP3 ISZERO PUSH2 0x33AC JUMPI SWAP2 PUSH1 0x20 MUL DUP3 ADD JUMPDEST DUP3 DUP2 GT ISZERO PUSH2 0x33AC JUMPI DUP3 MLOAD DUP3 SWAP1 PUSH2 0x339C SWAP1 DUP3 PUSH2 0x44C9 JUMP JUMPDEST POP SWAP2 PUSH1 0x20 ADD SWAP2 SWAP1 PUSH1 0x1 ADD SWAP1 PUSH2 0x3386 JUMP JUMPDEST POP PUSH2 0x2063 SWAP3 SWAP2 POP JUMPDEST DUP1 DUP3 GT ISZERO PUSH2 0x2063 JUMPI PUSH0 PUSH2 0x33C7 DUP3 DUP3 PUSH2 0x33D0 JUMP JUMPDEST POP PUSH1 0x1 ADD PUSH2 0x33B4 JUMP JUMPDEST POP DUP1 SLOAD PUSH2 0x33DC SWAP1 PUSH2 0x3FF3 JUMP JUMPDEST PUSH0 DUP3 SSTORE DUP1 PUSH1 0x1F LT PUSH2 0x33EB JUMPI POP POP JUMP JUMPDEST PUSH1 0x1F ADD PUSH1 0x20 SWAP1 DIV SWAP1 PUSH0 MSTORE PUSH1 0x20 PUSH0 KECCAK256 SWAP1 DUP2 ADD SWAP1 PUSH2 0xA84 SWAP2 SWAP1 JUMPDEST DUP1 DUP3 GT ISZERO PUSH2 0x2063 JUMPI PUSH0 DUP2 SSTORE PUSH1 0x1 ADD PUSH2 0x3403 JUMP JUMPDEST PUSH1 0x20 DUP2 MSTORE DUP2 PUSH1 0x20 DUP3 ADD MSTORE DUP2 DUP4 PUSH1 0x40 DUP4 ADD CALLDATACOPY PUSH0 DUP2 DUP4 ADD PUSH1 0x40 SWAP1 DUP2 ADD SWAP2 SWAP1 SWAP2 MSTORE PUSH1 0x1F SWAP1 SWAP3 ADD PUSH1 0x1F NOT AND ADD ADD SWAP2 SWAP1 POP JUMP JUMPDEST PUSH1 0x1 PUSH1 0x1 PUSH1 0xE0 SHL SUB NOT DUP2 AND DUP2 EQ PUSH2 0xA84 JUMPI PUSH0 DUP1 REVERT JUMPDEST PUSH0 PUSH1 0x20 DUP3 DUP5 SUB SLT ISZERO PUSH2 0x3469 JUMPI PUSH0 DUP1 REVERT JUMPDEST DUP2 CALLDATALOAD PUSH2 0xC0C DUP2 PUSH2 0x3444 JUMP JUMPDEST PUSH0 JUMPDEST DUP4 DUP2 LT ISZERO PUSH2 0x348E JUMPI DUP2 DUP2 ADD MLOAD DUP4 DUP3 ADD MSTORE PUSH1 0x20 ADD PUSH2 0x3476 JUMP JUMPDEST POP POP PUSH0 SWAP2 ADD MSTORE JUMP JUMPDEST PUSH0 DUP2 MLOAD DUP1 DUP5 MSTORE PUSH2 0x34AD DUP2 PUSH1 0x20 DUP7 ADD PUSH1 0x20 DUP7 ADD PUSH2 0x3474 JUMP JUMPDEST PUSH1 0x1F ADD PUSH1 0x1F NOT AND SWAP3 SWAP1 SWAP3 ADD PUSH1 0x20 ADD SWAP3 SWAP2 POP POP JUMP JUMPDEST PUSH1 0x20 DUP2 MSTORE PUSH0 PUSH2 0xC0C PUSH1 0x20 DUP4 ADD DUP5 PUSH2 0x3496 JUMP JUMPDEST PUSH0 PUSH1 0x20 DUP3 DUP5 SUB SLT ISZERO PUSH2 0x34E3 JUMPI PUSH0 DUP1 REVERT JUMPDEST POP CALLDATALOAD SWAP2 SWAP1 POP JUMP JUMPDEST DUP1 CALLDATALOAD PUSH1 0x1 PUSH1 0x1 PUSH1 0xA0 SHL SUB DUP2 AND DUP2 EQ PUSH2 0x3500 JUMPI PUSH0 DUP1 REVERT JUMPDEST SWAP2 SWAP1 POP JUMP JUMPDEST PUSH0 DUP1 PUSH1 0x40 DUP4 DUP6 SUB SLT ISZERO PUSH2 0x3516 JUMPI PUSH0 DUP1 REVERT JUMPDEST PUSH2 0x351F DUP4 PUSH2 0x34EA JUMP JUMPDEST SWAP5 PUSH1 0x20 SWAP4 SWAP1 SWAP4 ADD CALLDATALOAD SWAP4 POP POP POP JUMP JUMPDEST PUSH4 0x4E487B71 PUSH1 0xE0 SHL PUSH0 MSTORE PUSH1 0x41 PUSH1 0x4 MSTORE PUSH1 0x24 PUSH0 REVERT JUMPDEST PUSH1 0x40 MLOAD PUSH1 0xC0 DUP2 ADD PUSH1 0x1 PUSH1 0x1 PUSH1 0x40 SHL SUB DUP2 GT DUP3 DUP3 LT OR ISZERO PUSH2 0x3563 JUMPI PUSH2 0x3563 PUSH2 0x352D JUMP JUMPDEST PUSH1 0x40 MSTORE SWAP1 JUMP JUMPDEST PUSH1 0x40 MLOAD PUSH1 0x1F DUP3 ADD PUSH1 0x1F NOT AND DUP2 ADD PUSH1 0x1 PUSH1 0x1 PUSH1 0x40 SHL SUB DUP2 GT DUP3 DUP3 LT OR ISZERO PUSH2 0x3591 JUMPI PUSH2 0x3591 PUSH2 0x352D JUMP JUMPDEST PUSH1 0x40 MSTORE SWAP2 SWAP1 POP JUMP JUMPDEST PUSH0 PUSH1 0x1 PUSH1 0x1 PUSH1 0x40 SHL SUB DUP3 GT ISZERO PUSH2 0x35B1 JUMPI PUSH2 0x35B1 PUSH2 0x352D JUMP JUMPDEST POP PUSH1 0x1F ADD PUSH1 0x1F NOT AND PUSH1 0x20 ADD SWAP1 JUMP JUMPDEST PUSH0 PUSH2 0x35D1 PUSH2 0x35CC DUP5 PUSH2 0x3599 JUMP JUMPDEST PUSH2 0x3569 JUMP JUMPDEST SWAP1 POP DUP3 DUP2 MSTORE DUP4 DUP4 DUP4 ADD GT ISZERO PUSH2 0x35E4 JUMPI PUSH0 DUP1 REVERT JUMPDEST DUP3 DUP3 PUSH1 0x20 DUP4 ADD CALLDATACOPY PUSH0 PUSH1 0x20 DUP5 DUP4 ADD ADD MSTORE SWAP4 SWAP3 POP POP POP JUMP JUMPDEST PUSH0 PUSH1 0x20 DUP1 DUP4 DUP6 SUB SLT ISZERO PUSH2 0x360B JUMPI PUSH0 DUP1 REVERT JUMPDEST DUP3 CALLDATALOAD PUSH1 0x1 PUSH1 0x1 PUSH1 0x40 SHL SUB DUP1 DUP3 GT ISZERO PUSH2 0x3621 JUMPI PUSH0 DUP1 REVERT JUMPDEST DUP2 DUP6 ADD SWAP2 POP PUSH1 0x1F DUP7 PUSH1 0x1F DUP5 ADD SLT PUSH2 0x3636 JUMPI PUSH0 DUP1 REVERT JUMPDEST PUSH2 0x363E PUSH2 0x3541 JUMP JUMPDEST DUP1 PUSH1 0xC0 DUP6 ADD DUP10 DUP2 GT ISZERO PUSH2 0x364F JUMPI PUSH0 DUP1 REVERT JUMPDEST DUP6 JUMPDEST DUP2 DUP2 LT ISZERO PUSH2 0x3692 JUMPI DUP1 CALLDATALOAD DUP7 DUP2 GT ISZERO PUSH2 0x3667 JUMPI PUSH0 DUP1 REVERT JUMPDEST DUP8 ADD DUP6 DUP2 ADD DUP13 SGT PUSH2 0x3676 JUMPI PUSH0 DUP1 REVERT JUMPDEST PUSH2 0x3684 DUP13 DUP3 CALLDATALOAD DUP12 DUP5 ADD PUSH2 0x35BF JUMP JUMPDEST DUP6 MSTORE POP SWAP3 DUP8 ADD SWAP3 DUP8 ADD PUSH2 0x3651 JUMP JUMPDEST POP SWAP1 SWAP10 SWAP9 POP POP POP POP POP POP POP POP POP JUMP JUMPDEST PUSH4 0x4E487B71 PUSH1 0xE0 SHL PUSH0 MSTORE PUSH1 0x21 PUSH1 0x4 MSTORE PUSH1 0x24 PUSH0 REVERT JUMPDEST DUP2 MLOAD PUSH1 0xE0 DUP3 ADD SWAP1 PUSH1 0x6 DUP2 LT PUSH2 0x36D8 JUMPI PUSH4 0x4E487B71 PUSH1 0xE0 SHL PUSH0 MSTORE PUSH1 0x21 PUSH1 0x4 MSTORE PUSH1 0x24 PUSH0 REVERT JUMPDEST DUP1 DUP4 MSTORE POP PUSH1 0x20 DUP4 ADD MLOAD PUSH1 0x20 DUP4 ADD MSTORE PUSH1 0x40 DUP4 ADD MLOAD PUSH1 0x40 DUP4 ADD MSTORE PUSH1 0x60 DUP4 ADD MLOAD PUSH1 0x60 DUP4 ADD MSTORE PUSH1 0x80 DUP4 ADD MLOAD PUSH1 0x80 DUP4 ADD MSTORE PUSH1 0xA0 DUP4 ADD MLOAD PUSH1 0xA0 DUP4 ADD MSTORE PUSH1 0xC0 DUP4 ADD MLOAD PUSH1 0xC0 DUP4 ADD MSTORE SWAP3 SWAP2 POP POP JUMP JUMPDEST PUSH0 DUP1 PUSH0 PUSH1 0x60 DUP5 DUP7 SUB SLT ISZERO PUSH2 0x3730 JUMPI PUSH0 DUP1 REVERT JUMPDEST PUSH2 0x3739 DUP5 PUSH2 0x34EA JUMP JUMPDEST SWAP3 POP PUSH2 0x3747 PUSH1 0x20 DUP6 ADD PUSH2 0x34EA JUMP JUMPDEST SWAP2 POP PUSH1 0x40 DUP5 ADD CALLDATALOAD SWAP1 POP SWAP3 POP SWAP3 POP SWAP3 JUMP JUMPDEST PUSH1 0x6 DUP2 LT PUSH2 0xA84 JUMPI PUSH0 DUP1 REVERT JUMPDEST PUSH0 DUP1 PUSH1 0x40 DUP4 DUP6 SUB SLT ISZERO PUSH2 0x3774 JUMPI PUSH0 DUP1 REVERT JUMPDEST DUP3 CALLDATALOAD PUSH2 0x351F DUP2 PUSH2 0x3757 JUMP JUMPDEST PUSH1 0x20 DUP1 DUP3 MSTORE DUP3 MLOAD DUP3 DUP3 ADD DUP2 SWAP1 MSTORE PUSH0 SWAP2 SWAP1 DUP5 DUP3 ADD SWAP1 PUSH1 0x40 DUP6 ADD SWAP1 DUP5 JUMPDEST DUP2 DUP2 LT ISZERO PUSH2 0x37BF JUMPI DUP4 MLOAD PUSH1 0x1 PUSH1 0x1 PUSH1 0xA0 SHL SUB AND DUP4 MSTORE SWAP3 DUP5 ADD SWAP3 SWAP2 DUP5 ADD SWAP2 PUSH1 0x1 ADD PUSH2 0x379A JUMP JUMPDEST POP SWAP1 SWAP7 SWAP6 POP POP POP POP POP POP JUMP JUMPDEST PUSH0 PUSH1 0x20 DUP3 DUP5 SUB SLT ISZERO PUSH2 0x37DB JUMPI PUSH0 DUP1 REVERT JUMPDEST DUP2 CALLDATALOAD PUSH2 0xC0C DUP2 PUSH2 0x3757 JUMP JUMPDEST DUP1 CALLDATALOAD DUP1 ISZERO ISZERO DUP2 EQ PUSH2 0x3500 JUMPI PUSH0 DUP1 REVERT JUMPDEST PUSH0 DUP3 PUSH1 0x1F DUP4 ADD SLT PUSH2 0x3804 JUMPI PUSH0 DUP1 REVERT JUMPDEST PUSH2 0xC0C DUP4 DUP4 CALLDATALOAD PUSH1 0x20 DUP6 ADD PUSH2 0x35BF JUMP JUMPDEST PUSH0 DUP1 PUSH0 DUP1 PUSH0 PUSH1 0xA0 DUP7 DUP9 SUB SLT ISZERO PUSH2 0x3827 JUMPI PUSH0 DUP1 REVERT JUMPDEST PUSH2 0x3830 DUP7 PUSH2 0x34EA JUMP JUMPDEST SWAP5 POP PUSH2 0x383E PUSH1 0x20 DUP8 ADD PUSH2 0x34EA JUMP JUMPDEST SWAP4 POP PUSH1 0x40 DUP7 ADD CALLDATALOAD SWAP3 POP PUSH2 0x3853 PUSH1 0x60 DUP8 ADD PUSH2 0x37E6 JUMP JUMPDEST SWAP2 POP PUSH1 0x80 DUP7 ADD CALLDATALOAD PUSH1 0x1 PUSH1 0x1 PUSH1 0x40 SHL SUB DUP2 GT ISZERO PUSH2 0x386D JUMPI PUSH0 DUP1 REVERT JUMPDEST PUSH2 0x3879 DUP9 DUP3 DUP10 ADD PUSH2 0x37F5 JUMP JUMPDEST SWAP2 POP POP SWAP3 SWAP6 POP SWAP3 SWAP6 SWAP1 SWAP4 POP JUMP JUMPDEST PUSH0 PUSH1 0x20 DUP3 DUP5 SUB SLT ISZERO PUSH2 0x3896 JUMPI PUSH0 DUP1 REVERT JUMPDEST PUSH2 0xC0C DUP3 PUSH2 0x34EA JUMP JUMPDEST PUSH0 PUSH1 0x1 PUSH1 0x1 PUSH1 0x40 SHL SUB DUP3 GT ISZERO PUSH2 0x38B7 JUMPI PUSH2 0x38B7 PUSH2 0x352D JUMP JUMPDEST POP PUSH1 0x5 SHL PUSH1 0x20 ADD SWAP1 JUMP JUMPDEST PUSH0 DUP3 PUSH1 0x1F DUP4 ADD SLT PUSH2 0x38D0 JUMPI PUSH0 DUP1 REVERT JUMPDEST DUP2 CALLDATALOAD PUSH1 0x20 PUSH2 0x38E0 PUSH2 0x35CC DUP4 PUSH2 0x389F JUMP JUMPDEST DUP1 DUP4 DUP3 MSTORE PUSH1 0x20 DUP3 ADD SWAP2 POP PUSH1 0x20 DUP5 PUSH1 0x5 SHL DUP8 ADD ADD SWAP4 POP DUP7 DUP5 GT ISZERO PUSH2 0x3901 JUMPI PUSH0 DUP1 REVERT JUMPDEST PUSH1 0x20 DUP7 ADD JUMPDEST DUP5 DUP2 LT ISZERO PUSH2 0x3924 JUMPI PUSH2 0x3917 DUP2 PUSH2 0x34EA JUMP JUMPDEST DUP4 MSTORE SWAP2 DUP4 ADD SWAP2 DUP4 ADD PUSH2 0x3906 JUMP JUMPDEST POP SWAP7 SWAP6 POP POP POP POP POP POP JUMP JUMPDEST PUSH0 DUP3 PUSH1 0x1F DUP4 ADD SLT PUSH2 0x393E JUMPI PUSH0 DUP1 REVERT JUMPDEST DUP2 CALLDATALOAD PUSH1 0x20 PUSH2 0x394E PUSH2 0x35CC DUP4 PUSH2 0x389F JUMP JUMPDEST DUP1 DUP4 DUP3 MSTORE PUSH1 0x20 DUP3 ADD SWAP2 POP PUSH1 0x20 DUP5 PUSH1 0x5 SHL DUP8 ADD ADD SWAP4 POP DUP7 DUP5 GT ISZERO PUSH2 0x396F JUMPI PUSH0 DUP1 REVERT JUMPDEST PUSH1 0x20 DUP7 ADD JUMPDEST DUP5 DUP2 LT ISZERO PUSH2 0x3924 JUMPI DUP1 CALLDATALOAD DUP4 MSTORE SWAP2 DUP4 ADD SWAP2 DUP4 ADD PUSH2 0x3974 JUMP JUMPDEST PUSH0 DUP3 PUSH1 0x1F DUP4 ADD SLT PUSH2 0x399A JUMPI PUSH0 DUP1 REVERT JUMPDEST DUP2 CALLDATALOAD PUSH1 0x20 PUSH2 0x39AA PUSH2 0x35CC DUP4 PUSH2 0x389F JUMP JUMPDEST DUP1 DUP4 DUP3 MSTORE PUSH1 0x20 DUP3 ADD SWAP2 POP PUSH1 0x20 DUP5 PUSH1 0x5 SHL DUP8 ADD ADD SWAP4 POP DUP7 DUP5 GT ISZERO PUSH2 0x39CB JUMPI PUSH0 DUP1 REVERT JUMPDEST PUSH1 0x20 DUP7 ADD JUMPDEST DUP5 DUP2 LT ISZERO PUSH2 0x3924 JUMPI PUSH2 0x39E1 DUP2 PUSH2 0x37E6 JUMP JUMPDEST DUP4 MSTORE SWAP2 DUP4 ADD SWAP2 DUP4 ADD PUSH2 0x39D0 JUMP JUMPDEST PUSH0 DUP3 PUSH1 0x1F DUP4 ADD SLT PUSH2 0x39FD JUMPI PUSH0 DUP1 REVERT JUMPDEST DUP2 CALLDATALOAD PUSH1 0x20 PUSH2 0x3A0D PUSH2 0x35CC DUP4 PUSH2 0x389F JUMP JUMPDEST DUP3 DUP2 MSTORE PUSH1 0x5 SWAP3 SWAP1 SWAP3 SHL DUP5 ADD DUP2 ADD SWAP2 DUP2 DUP2 ADD SWAP1 DUP7 DUP5 GT ISZERO PUSH2 0x3A2B JUMPI PUSH0 DUP1 REVERT JUMPDEST DUP3 DUP7 ADD JUMPDEST DUP5 DUP2 LT ISZERO PUSH2 0x3924 JUMPI DUP1 CALLDATALOAD PUSH1 0x1 PUSH1 0x1 PUSH1 0x40 SHL SUB DUP2 GT ISZERO PUSH2 0x3A4C JUMPI PUSH0 DUP1 REVERT JUMPDEST PUSH2 0x3A5A DUP10 DUP7 DUP4 DUP12 ADD ADD PUSH2 0x37F5 JUMP JUMPDEST DUP5 MSTORE POP SWAP2 DUP4 ADD SWAP2 DUP4 ADD PUSH2 0x3A2F JUMP JUMPDEST PUSH0 DUP1 PUSH0 DUP1 PUSH0 PUSH1 0xA0 DUP7 DUP9 SUB SLT ISZERO PUSH2 0x3A7C JUMPI PUSH0 DUP1 REVERT JUMPDEST DUP6 CALLDATALOAD PUSH1 0x1 PUSH1 0x1 PUSH1 0x40 SHL SUB DUP1 DUP3 GT ISZERO PUSH2 0x3A92 JUMPI PUSH0 DUP1 REVERT JUMPDEST PUSH2 0x3A9E DUP10 DUP4 DUP11 ADD PUSH2 0x38C1 JUMP JUMPDEST SWAP7 POP PUSH1 0x20 DUP9 ADD CALLDATALOAD SWAP2 POP DUP1 DUP3 GT ISZERO PUSH2 0x3AB3 JUMPI PUSH0 DUP1 REVERT JUMPDEST PUSH2 0x3ABF DUP10 DUP4 DUP11 ADD PUSH2 0x38C1 JUMP JUMPDEST SWAP6 POP PUSH1 0x40 DUP9 ADD CALLDATALOAD SWAP2 POP DUP1 DUP3 GT ISZERO PUSH2 0x3AD4 JUMPI PUSH0 DUP1 REVERT JUMPDEST PUSH2 0x3AE0 DUP10 DUP4 DUP11 ADD PUSH2 0x392F JUMP JUMPDEST SWAP5 POP PUSH1 0x60 DUP9 ADD CALLDATALOAD SWAP2 POP DUP1 DUP3 GT ISZERO PUSH2 0x3AF5 JUMPI PUSH0 DUP1 REVERT JUMPDEST PUSH2 0x3B01 DUP10 DUP4 DUP11 ADD PUSH2 0x398B JUMP JUMPDEST SWAP4 POP PUSH1 0x80 DUP9 ADD CALLDATALOAD SWAP2 POP DUP1 DUP3 GT ISZERO PUSH2 0x3B16 JUMPI PUSH0 DUP1 REVERT JUMPDEST POP PUSH2 0x3879 DUP9 DUP3 DUP10 ADD PUSH2 0x39EE JUMP JUMPDEST PUSH0 DUP1 PUSH1 0x40 DUP4 DUP6 SUB SLT ISZERO PUSH2 0x3B34 JUMPI PUSH0 DUP1 REVERT JUMPDEST DUP3 CALLDATALOAD SWAP2 POP PUSH1 0x20 DUP4 ADD CALLDATALOAD PUSH1 0x1 PUSH1 0x1 PUSH1 0x40 SHL SUB DUP2 GT ISZERO PUSH2 0x3B50 JUMPI PUSH0 DUP1 REVERT JUMPDEST PUSH2 0x3B5C DUP6 DUP3 DUP7 ADD PUSH2 0x37F5 JUMP JUMPDEST SWAP2 POP POP SWAP3 POP SWAP3 SWAP1 POP JUMP JUMPDEST PUSH0 DUP1 PUSH0 PUSH1 0x60 DUP5 DUP7 SUB SLT ISZERO PUSH2 0x3B78 JUMPI PUSH0 DUP1 REVERT JUMPDEST PUSH2 0x3B81 DUP5 PUSH2 0x34EA JUMP JUMPDEST SWAP3 POP PUSH1 0x20 DUP5 ADD CALLDATALOAD SWAP2 POP PUSH1 0x40 DUP5 ADD CALLDATALOAD PUSH1 0x1 PUSH1 0x1 PUSH1 0x40 SHL SUB DUP2 GT ISZERO PUSH2 0x3BA2 JUMPI PUSH0 DUP1 REVERT JUMPDEST PUSH2 0x3BAE DUP7 DUP3 DUP8 ADD PUSH2 0x37F5 JUMP JUMPDEST SWAP2 POP POP SWAP3 POP SWAP3 POP SWAP3 JUMP JUMPDEST PUSH0 DUP1 PUSH1 0x40 DUP4 DUP6 SUB SLT ISZERO PUSH2 0x3BC9 JUMPI PUSH0 DUP1 REVERT JUMPDEST DUP3 CALLDATALOAD PUSH1 0x1 PUSH1 0x1 PUSH1 0x40 SHL SUB DUP1 DUP3 GT ISZERO PUSH2 0x3BDF JUMPI PUSH0 DUP1 REVERT JUMPDEST PUSH2 0x3BEB DUP7 DUP4 DUP8 ADD PUSH2 0x392F JUMP JUMPDEST SWAP4 POP PUSH1 0x20 DUP6 ADD CALLDATALOAD SWAP2 POP DUP1 DUP3 GT ISZERO PUSH2 0x3C00 JUMPI PUSH0 DUP1 REVERT JUMPDEST POP PUSH2 0x3B5C DUP6 DUP3 DUP7 ADD PUSH2 0x39EE JUMP JUMPDEST PUSH0 DUP1 PUSH1 0x40 DUP4 DUP6 SUB SLT ISZERO PUSH2 0x3C1E JUMPI PUSH0 DUP1 REVERT JUMPDEST PUSH2 0x3C27 DUP4 PUSH2 0x34EA JUMP JUMPDEST SWAP2 POP PUSH2 0x3C35 PUSH1 0x20 DUP5 ADD PUSH2 0x37E6 JUMP JUMPDEST SWAP1 POP SWAP3 POP SWAP3 SWAP1 POP JUMP JUMPDEST PUSH1 0x20 DUP1 DUP3 MSTORE DUP3 MLOAD DUP3 DUP3 ADD DUP2 SWAP1 MSTORE PUSH0 SWAP2 SWAP1 DUP5 DUP3 ADD SWAP1 PUSH1 0x40 DUP6 ADD SWAP1 DUP5 JUMPDEST DUP2 DUP2 LT ISZERO PUSH2 0x37BF JUMPI DUP4 MLOAD DUP4 MSTORE SWAP3 DUP5 ADD SWAP3 SWAP2 DUP5 ADD SWAP2 PUSH1 0x1 ADD PUSH2 0x3C59 JUMP JUMPDEST PUSH0 DUP1 PUSH0 DUP1 PUSH1 0x80 DUP6 DUP8 SUB SLT ISZERO PUSH2 0x3C88 JUMPI PUSH0 DUP1 REVERT JUMPDEST PUSH2 0x3C91 DUP6 PUSH2 0x34EA JUMP JUMPDEST SWAP4 POP PUSH2 0x3C9F PUSH1 0x20 DUP7 ADD PUSH2 0x34EA JUMP JUMPDEST SWAP3 POP PUSH1 0x40 DUP6 ADD CALLDATALOAD SWAP2 POP PUSH1 0x60 DUP6 ADD CALLDATALOAD PUSH1 0x1 PUSH1 0x1 PUSH1 0x40 SHL SUB DUP2 GT ISZERO PUSH2 0x3CC0 JUMPI PUSH0 DUP1 REVERT JUMPDEST PUSH2 0x3CCC DUP8 DUP3 DUP9 ADD PUSH2 0x37F5 JUMP JUMPDEST SWAP2 POP POP SWAP3 SWAP6 SWAP2 SWAP5 POP SWAP3 POP JUMP JUMPDEST PUSH0 DUP1 PUSH1 0x40 DUP4 DUP6 SUB SLT ISZERO PUSH2 0x3CE9 JUMPI PUSH0 DUP1 REVERT JUMPDEST POP POP DUP1 CALLDATALOAD SWAP3 PUSH1 0x20 SWAP1 SWAP2 ADD CALLDATALOAD SWAP2 POP JUMP JUMPDEST PUSH0 DUP1 PUSH0 DUP1 PUSH1 0x80 DUP6 DUP8 SUB SLT ISZERO PUSH2 0x3D0B JUMPI PUSH0 DUP1 REVERT JUMPDEST PUSH2 0x3D14 DUP6 PUSH2 0x34EA JUMP JUMPDEST SWAP4 POP PUSH1 0x20 DUP6 ADD CALLDATALOAD SWAP3 POP PUSH2 0x3D29 PUSH1 0x40 DUP7 ADD PUSH2 0x37E6 JUMP JUMPDEST SWAP2 POP PUSH1 0x60 DUP6 ADD CALLDATALOAD PUSH1 0x1 PUSH1 0x1 PUSH1 0x40 SHL SUB DUP2 GT ISZERO PUSH2 0x3CC0 JUMPI PUSH0 DUP1 REVERT JUMPDEST PUSH0 PUSH1 0x20 DUP3 DUP5 SUB SLT ISZERO PUSH2 0x3D53 JUMPI PUSH0 DUP1 REVERT JUMPDEST DUP2 CALLDATALOAD PUSH1 0x1 PUSH1 0x1 PUSH1 0x40 SHL SUB DUP2 GT ISZERO PUSH2 0x3D68 JUMPI PUSH0 DUP1 REVERT JUMPDEST PUSH2 0x2751 DUP5 DUP3 DUP6 ADD PUSH2 0x392F JUMP JUMPDEST PUSH0 PUSH1 0x20 DUP1 DUP4 ADD PUSH1 0x20 DUP5 MSTORE DUP1 DUP6 MLOAD DUP1 DUP4 MSTORE PUSH1 0x40 DUP7 ADD SWAP2 POP PUSH1 0x40 DUP2 PUSH1 0x5 SHL DUP8 ADD ADD SWAP3 POP PUSH1 0x20 DUP8 ADD PUSH0 JUMPDEST DUP3 DUP2 LT ISZERO PUSH2 0x3DC9 JUMPI PUSH1 0x3F NOT DUP9 DUP7 SUB ADD DUP5 MSTORE PUSH2 0x3DB7 DUP6 DUP4 MLOAD PUSH2 0x3496 JUMP JUMPDEST SWAP5 POP SWAP3 DUP6 ADD SWAP3 SWAP1 DUP6 ADD SWAP1 PUSH1 0x1 ADD PUSH2 0x3D9B JUMP JUMPDEST POP SWAP3 SWAP8 SWAP7 POP POP POP POP POP POP POP JUMP JUMPDEST PUSH0 DUP1 PUSH1 0x40 DUP4 DUP6 SUB SLT ISZERO PUSH2 0x3DE7 JUMPI PUSH0 DUP1 REVERT JUMPDEST PUSH2 0x3DF0 DUP4 PUSH2 0x34EA JUMP JUMPDEST SWAP2 POP PUSH2 0x3C35 PUSH1 0x20 DUP5 ADD PUSH2 0x34EA JUMP JUMPDEST DUP4 DUP6 DUP3 CALLDATACOPY PUSH1 0x60 SWAP3 SWAP1 SWAP3 SHL PUSH1 0x1 PUSH1 0x1 PUSH1 0x60 SHL SUB NOT AND SWAP2 SWAP1 SWAP3 ADD SWAP1 DUP2 MSTORE PUSH1 0x14 DUP2 ADD SWAP2 SWAP1 SWAP2 MSTORE PUSH1 0x34 ADD SWAP2 SWAP1 POP JUMP JUMPDEST PUSH0 DUP2 MLOAD PUSH2 0x3E3A DUP2 DUP6 PUSH1 0x20 DUP7 ADD PUSH2 0x3474 JUMP JUMPDEST SWAP3 SWAP1 SWAP3 ADD SWAP3 SWAP2 POP POP JUMP JUMPDEST PUSH0 DUP3 MLOAD PUSH2 0x3E55 DUP2 DUP5 PUSH1 0x20 DUP8 ADD PUSH2 0x3474 JUMP JUMPDEST SWAP2 SWAP1 SWAP2 ADD SWAP3 SWAP2 POP POP JUMP JUMPDEST PUSH4 0x4E487B71 PUSH1 0xE0 SHL PUSH0 MSTORE PUSH1 0x11 PUSH1 0x4 MSTORE PUSH1 0x24 PUSH0 REVERT JUMPDEST DUP2 DUP2 SUB DUP2 DUP2 GT ISZERO PUSH2 0x981 JUMPI PUSH2 0x981 PUSH2 0x3E5F JUMP JUMPDEST PUSH4 0x4E487B71 PUSH1 0xE0 SHL PUSH0 MSTORE PUSH1 0x32 PUSH1 0x4 MSTORE PUSH1 0x24 PUSH0 REVERT JUMPDEST PUSH1 0x20 DUP1 DUP3 MSTORE PUSH1 0x15 SWAP1 DUP3 ADD MSTORE PUSH21 0x13DB9B1E481BD8DD1859DBDB8818D85B8818D85B1B PUSH1 0x5A SHL PUSH1 0x40 DUP3 ADD MSTORE PUSH1 0x60 ADD SWAP1 JUMP JUMPDEST DUP1 DUP3 MUL DUP2 ISZERO DUP3 DUP3 DIV DUP5 EQ OR PUSH2 0x981 JUMPI PUSH2 0x981 PUSH2 0x3E5F JUMP JUMPDEST PUSH1 0x20 DUP1 DUP3 MSTORE PUSH1 0x2E SWAP1 DUP3 ADD MSTORE PUSH32 0x54686F7365206D6567612079616368747320776F6E27742070617920666F7220 PUSH1 0x40 DUP3 ADD MSTORE PUSH14 0x1D1A195B5CD95B1D995CC81ADA59 PUSH1 0x92 SHL PUSH1 0x60 DUP3 ADD MSTORE PUSH1 0x80 ADD SWAP1 JUMP JUMPDEST PUSH0 PUSH1 0x1 DUP3 ADD PUSH2 0x3F3F JUMPI PUSH2 0x3F3F PUSH2 0x3E5F JUMP JUMPDEST POP PUSH1 0x1 ADD SWAP1 JUMP JUMPDEST DUP1 DUP3 ADD DUP1 DUP3 GT ISZERO PUSH2 0x981 JUMPI PUSH2 0x981 PUSH2 0x3E5F JUMP JUMPDEST PUSH1 0x1 DUP1 PUSH1 0xA0 SHL SUB DUP5 AND DUP2 MSTORE DUP3 PUSH1 0x20 DUP3 ADD MSTORE PUSH1 0x60 PUSH1 0x40 DUP3 ADD MSTORE PUSH0 PUSH2 0x3F7F PUSH1 0x60 DUP4 ADD DUP5 PUSH2 0x3496 JUMP JUMPDEST SWAP6 SWAP5 POP POP POP POP POP JUMP JUMPDEST PUSH1 0x1 DUP1 PUSH1 0xA0 SHL SUB DUP6 AND DUP2 MSTORE DUP4 PUSH1 0x20 DUP3 ADD MSTORE DUP3 ISZERO ISZERO PUSH1 0x40 DUP3 ADD MSTORE PUSH1 0x80 PUSH1 0x60 DUP3 ADD MSTORE PUSH0 PUSH2 0x3FB6 PUSH1 0x80 DUP4 ADD DUP5 PUSH2 0x3496 JUMP JUMPDEST SWAP7 SWAP6 POP POP POP POP POP POP JUMP JUMPDEST DUP1 MLOAD PUSH1 0x20 DUP3 ADD MLOAD PUSH1 0x1 PUSH1 0x1 PUSH1 0x60 SHL SUB NOT DUP1 DUP3 AND SWAP3 SWAP2 SWAP1 PUSH1 0x14 DUP4 LT ISZERO PUSH2 0xA4C JUMPI PUSH1 0x14 SWAP3 SWAP1 SWAP3 SUB PUSH1 0x3 SHL DUP3 SWAP1 SHL AND AND SWAP3 SWAP2 POP POP JUMP JUMPDEST PUSH1 0x1 DUP2 DUP2 SHR SWAP1 DUP3 AND DUP1 PUSH2 0x4007 JUMPI PUSH1 0x7F DUP3 AND SWAP2 POP JUMPDEST PUSH1 0x20 DUP3 LT DUP2 SUB PUSH2 0x1AA5 JUMPI PUSH4 0x4E487B71 PUSH1 0xE0 SHL PUSH0 MSTORE PUSH1 0x22 PUSH1 0x4 MSTORE PUSH1 0x24 PUSH0 REVERT JUMPDEST PUSH0 PUSH1 0xE0 DUP3 DUP5 SUB SLT ISZERO PUSH2 0x4035 JUMPI PUSH0 DUP1 REVERT JUMPDEST PUSH1 0x40 MLOAD PUSH1 0xE0 DUP2 ADD DUP2 DUP2 LT PUSH1 0x1 PUSH1 0x1 PUSH1 0x40 SHL SUB DUP3 GT OR ISZERO PUSH2 0x4057 JUMPI PUSH2 0x4057 PUSH2 0x352D JUMP JUMPDEST PUSH1 0x40 MSTORE DUP3 MLOAD PUSH2 0x4065 DUP2 PUSH2 0x3757 JUMP JUMPDEST DUP1 DUP3 MSTORE POP PUSH1 0x20 DUP4 ADD MLOAD PUSH1 0x20 DUP3 ADD MSTORE PUSH1 0x40 DUP4 ADD MLOAD PUSH1 0x40 DUP3 ADD MSTORE PUSH1 0x60 DUP4 ADD MLOAD PUSH1 0x60 DUP3 ADD MSTORE PUSH1 0x80 DUP4 ADD MLOAD PUSH1 0x80 DUP3 ADD MSTORE PUSH1 0xA0 DUP4 ADD MLOAD PUSH1 0xA0 DUP3 ADD MSTORE PUSH1 0xC0 DUP4 ADD MLOAD PUSH1 0xC0 DUP3 ADD MSTORE DUP1 SWAP2 POP POP SWAP3 SWAP2 POP POP JUMP JUMPDEST PUSH0 DUP3 PUSH2 0x40C9 JUMPI PUSH4 0x4E487B71 PUSH1 0xE0 SHL PUSH0 MSTORE PUSH1 0x12 PUSH1 0x4 MSTORE PUSH1 0x24 PUSH0 REVERT JUMPDEST POP MOD SWAP1 JUMP JUMPDEST PUSH1 0x20 DUP1 DUP3 MSTORE PUSH1 0x40 SWAP1 DUP3 ADD DUP2 SWAP1 MSTORE PUSH32 0x4C535038436F6D70617469626C654552433732313A207472616E736665722074 SWAP1 DUP3 ADD MSTORE PUSH32 0x6F206E6F6E20455243373231526563656976657220696D706C656D656E746572 PUSH1 0x60 DUP3 ADD MSTORE PUSH1 0x80 ADD SWAP1 JUMP JUMPDEST DUP3 DUP2 MSTORE PUSH1 0x40 PUSH1 0x20 DUP3 ADD MSTORE PUSH0 PUSH2 0x2751 PUSH1 0x40 DUP4 ADD DUP5 PUSH2 0x3496 JUMP JUMPDEST PUSH0 PUSH2 0x4151 PUSH2 0x35CC DUP5 PUSH2 0x3599 JUMP JUMPDEST SWAP1 POP DUP3 DUP2 MSTORE DUP4 DUP4 DUP4 ADD GT ISZERO PUSH2 0x4164 JUMPI PUSH0 DUP1 REVERT JUMPDEST PUSH2 0xC0C DUP4 PUSH1 0x20 DUP4 ADD DUP5 PUSH2 0x3474 JUMP JUMPDEST PUSH0 PUSH1 0x20 DUP3 DUP5 SUB SLT ISZERO PUSH2 0x4182 JUMPI PUSH0 DUP1 REVERT JUMPDEST DUP2 MLOAD PUSH1 0x1 PUSH1 0x1 PUSH1 0x40 SHL SUB DUP2 GT ISZERO PUSH2 0x4197 JUMPI PUSH0 DUP1 REVERT JUMPDEST DUP3 ADD PUSH1 0x1F DUP2 ADD DUP5 SGT PUSH2 0x41A7 JUMPI PUSH0 DUP1 REVERT JUMPDEST PUSH2 0x2751 DUP5 DUP3 MLOAD PUSH1 0x20 DUP5 ADD PUSH2 0x4144 JUMP JUMPDEST PUSH32 0x7B226E616D65223A202242696C6C696F6E6169726520446F6A6F222C20226465 DUP2 MSTORE PUSH32 0x736372697074696F6E223A202253696D756C6174696F6E206879706F74686573 PUSH1 0x20 DUP3 ADD MSTORE PUSH32 0x697320636F6E6669726D65642E2057696C6C2074686573652062696C6C696F6E PUSH1 0x40 DUP3 ADD MSTORE PUSH32 0x6169726573206675636B2065616368206F746865722075703F222C2022696D61 PUSH1 0x60 DUP3 ADD MSTORE PUSH6 0x33B2911D1011 PUSH1 0xD1 SHL PUSH1 0x80 DUP3 ADD MSTORE PUSH0 DUP6 MLOAD PUSH2 0x426E DUP2 PUSH1 0x86 DUP6 ADD PUSH1 0x20 DUP11 ADD PUSH2 0x3474 JUMP JUMPDEST PUSH18 0x222C202261747472696275746573223A205B PUSH1 0x70 SHL PUSH1 0x86 SWAP2 DUP5 ADD SWAP2 DUP3 ADD MSTORE PUSH32 0x7B2274726169745F74797065223A202262696C6C696F6E61697265222C202276 PUSH1 0x98 DUP3 ADD MSTORE PUSH8 0x30B63AB2911D1011 PUSH1 0xC1 SHL PUSH1 0xB8 DUP3 ADD MSTORE DUP6 MLOAD PUSH2 0x42D7 DUP2 PUSH1 0xC0 DUP5 ADD PUSH1 0x20 DUP11 ADD PUSH2 0x3474 JUMP JUMPDEST PUSH2 0x4380 PUSH2 0x437A PUSH2 0x432B PUSH2 0x4325 PUSH1 0xC0 DUP6 DUP8 ADD ADD PUSH32 0x227D2C207B2274726169745F74797065223A202270756E63686C696E65222C20 DUP2 MSTORE PUSH10 0x113B30B63AB2911D1011 PUSH1 0xB1 SHL PUSH1 0x20 DUP3 ADD MSTORE PUSH1 0x2A ADD SWAP1 JUMP JUMPDEST DUP10 PUSH2 0x3E29 JUMP JUMPDEST PUSH32 0x227D2C207B22646973706C61795F74797065223A20226E756D626572222C2022 DUP2 MSTORE PUSH32 0x74726169745F74797065223A20226D6F6E6579222C202276616C7565223A2000 PUSH1 0x20 DUP3 ADD MSTORE PUSH1 0x3F ADD SWAP1 JUMP JUMPDEST DUP7 PUSH2 0x3E29 JUMP JUMPDEST SWAP9 SWAP8 POP POP POP POP POP POP POP POP JUMP JUMPDEST PUSH32 0x646174613A6170706C69636174696F6E2F6A736F6E3B6261736536342C000000 DUP2 MSTORE PUSH0 DUP3 MLOAD PUSH2 0x43C3 DUP2 PUSH1 0x1D DUP6 ADD PUSH1 0x20 DUP8 ADD PUSH2 0x3474 JUMP JUMPDEST SWAP2 SWAP1 SWAP2 ADD PUSH1 0x1D ADD SWAP3 SWAP2 POP POP JUMP JUMPDEST DUP3 ISZERO ISZERO DUP2 MSTORE PUSH1 0x40 PUSH1 0x20 DUP3 ADD MSTORE PUSH0 PUSH2 0x2751 PUSH1 0x40 DUP4 ADD DUP5 PUSH2 0x3496 JUMP JUMPDEST DUP1 MLOAD PUSH1 0x20 DUP1 DUP4 ADD MLOAD SWAP2 SWAP1 DUP2 LT ISZERO PUSH2 0x1AA5 JUMPI PUSH0 NOT PUSH1 0x20 SWAP2 SWAP1 SWAP2 SUB PUSH1 0x3 SHL SHL AND SWAP2 SWAP1 POP JUMP JUMPDEST PUSH1 0x1 PUSH1 0x1 PUSH1 0xA0 SHL SUB DUP5 AND DUP2 MSTORE DUP3 ISZERO ISZERO PUSH1 0x20 DUP3 ADD MSTORE PUSH1 0x60 PUSH1 0x40 DUP3 ADD DUP2 SWAP1 MSTORE PUSH0 SWAP1 PUSH2 0x3F7F SWAP1 DUP4 ADD DUP5 PUSH2 0x3496 JUMP JUMPDEST PUSH1 0x1 PUSH1 0x1 PUSH1 0xA0 SHL SUB DUP6 DUP2 AND DUP3 MSTORE DUP5 AND PUSH1 0x20 DUP3 ADD MSTORE PUSH1 0x40 DUP2 ADD DUP4 SWAP1 MSTORE PUSH1 0x80 PUSH1 0x60 DUP3 ADD DUP2 SWAP1 MSTORE PUSH0 SWAP1 PUSH2 0x3FB6 SWAP1 DUP4 ADD DUP5 PUSH2 0x3496 JUMP JUMPDEST PUSH0 PUSH1 0x20 DUP3 DUP5 SUB SLT ISZERO PUSH2 0x447A JUMPI PUSH0 DUP1 REVERT JUMPDEST DUP2 MLOAD PUSH2 0xC0C DUP2 PUSH2 0x3444 JUMP JUMPDEST PUSH1 0x1F DUP3 GT ISZERO PUSH2 0xBF3 JUMPI DUP1 PUSH0 MSTORE PUSH1 0x20 PUSH0 KECCAK256 PUSH1 0x1F DUP5 ADD PUSH1 0x5 SHR DUP2 ADD PUSH1 0x20 DUP6 LT ISZERO PUSH2 0x44AA JUMPI POP DUP1 JUMPDEST PUSH1 0x1F DUP5 ADD PUSH1 0x5 SHR DUP3 ADD SWAP2 POP JUMPDEST DUP2 DUP2 LT ISZERO PUSH2 0xFA7 JUMPI PUSH0 DUP2 SSTORE PUSH1 0x1 ADD PUSH2 0x44B6 JUMP JUMPDEST DUP2 MLOAD PUSH1 0x1 PUSH1 0x1 PUSH1 0x40 SHL SUB DUP2 GT ISZERO PUSH2 0x44E2 JUMPI PUSH2 0x44E2 PUSH2 0x352D JUMP JUMPDEST PUSH2 0x44F6 DUP2 PUSH2 0x44F0 DUP5 SLOAD PUSH2 0x3FF3 JUMP JUMPDEST DUP5 PUSH2 0x4485 JUMP JUMPDEST PUSH1 0x20 DUP1 PUSH1 0x1F DUP4 GT PUSH1 0x1 DUP2 EQ PUSH2 0x4529 JUMPI PUSH0 DUP5 ISZERO PUSH2 0x4512 JUMPI POP DUP6 DUP4 ADD MLOAD JUMPDEST PUSH0 NOT PUSH1 0x3 DUP7 SWAP1 SHL SHR NOT AND PUSH1 0x1 DUP6 SWAP1 SHL OR DUP6 SSTORE PUSH2 0x1660 JUMP JUMPDEST PUSH0 DUP6 DUP2 MSTORE PUSH1 0x20 DUP2 KECCAK256 PUSH1 0x1F NOT DUP7 AND SWAP2 JUMPDEST DUP3 DUP2 LT ISZERO PUSH2 0x4557 JUMPI DUP9 DUP7 ADD MLOAD DUP3 SSTORE SWAP5 DUP5 ADD SWAP5 PUSH1 0x1 SWAP1 SWAP2 ADD SWAP1 DUP5 ADD PUSH2 0x4538 JUMP JUMPDEST POP DUP6 DUP3 LT ISZERO PUSH2 0x4574 JUMPI DUP8 DUP6 ADD MLOAD PUSH0 NOT PUSH1 0x3 DUP9 SWAP1 SHL PUSH1 0xF8 AND SHR NOT AND DUP2 SSTORE JUMPDEST POP POP POP POP POP PUSH1 0x1 SWAP1 DUP2 SHL ADD SWAP1 SSTORE POP JUMP JUMPDEST PUSH0 DUP7 MLOAD PUSH2 0x4595 DUP2 DUP5 PUSH1 0x20 DUP12 ADD PUSH2 0x3474 JUMP JUMPDEST DUP1 DUP4 ADD SWAP1 POP PUSH32 0x7D2C7B22646973706C61795F74797065223A20226E756D626572222C20227472 DUP1 DUP3 MSTORE PUSH32 0x6169745F74797065223A20226368617269736D61222C202276616C7565223A20 PUSH1 0x20 DUP4 ADD MSTORE DUP8 MLOAD PUSH2 0x45F7 DUP2 PUSH1 0x40 DUP6 ADD PUSH1 0x20 DUP13 ADD PUSH2 0x3474 JUMP JUMPDEST PUSH1 0x40 SWAP3 ADD SWAP2 DUP3 ADD DUP2 SWAP1 MSTORE PUSH32 0x6169745F74797065223A2022737472656E677468222C202276616C7565223A20 PUSH1 0x60 DUP4 ADD MSTORE DUP7 MLOAD PUSH2 0x463A DUP2 PUSH1 0x80 DUP6 ADD PUSH1 0x20 DUP12 ADD PUSH2 0x3474 JUMP JUMPDEST PUSH1 0x80 SWAP3 ADD SWAP2 DUP3 ADD DUP2 SWAP1 MSTORE PUSH32 0x6169745F74797065223A2022656D7061746879222C202276616C7565223A2000 PUSH1 0xA0 DUP4 ADD MSTORE DUP6 MLOAD PUSH2 0x467D DUP2 PUSH1 0xBF DUP6 ADD PUSH1 0x20 DUP11 ADD PUSH2 0x3474 JUMP JUMPDEST PUSH1 0xBF SWAP3 ADD SWAP2 DUP3 ADD MSTORE PUSH32 0x6169745F74797065223A20227374616D696E61222C202276616C7565223A2000 PUSH1 0xDF DUP3 ADD MSTORE PUSH2 0x4380 PUSH2 0x46BB PUSH1 0xFE DUP4 ADD DUP7 PUSH2 0x3E29 JUMP JUMPDEST PUSH3 0x7D5D7D PUSH1 0xE8 SHL DUP2 MSTORE PUSH1 0x3 ADD SWAP1 JUMP JUMPDEST PUSH4 0x4E487B71 PUSH1 0xE0 SHL PUSH0 MSTORE PUSH1 0x31 PUSH1 0x4 MSTORE PUSH1 0x24 PUSH0 REVERT INVALID LOG2 PUSH5 0x6970667358 0x22 SLT KECCAK256 PUSH26 0x36FFA936A1157E6461DD8FA4F309160AF66B089A44A9553E8244 MOD 0xE4 0xED PUSH29 0x1164736F6C634300081600334C65742773206B69636B20746865736520 PUSH17 0x757373696573206F7574206F6620746865 KECCAK256 PUSH20 0x6F6C61722073797374656D2C206B6964214C6574 0x27 PUSH20 0x2073686F77207468657365207075737369657320 PUSH24 0x68617420274265204576696C27207265616C6C79206D6561 PUSH15 0x732C206B6964214C65742773206672 PUSH6 0x616B696E2720 GAS SSTORE NUMBER 0x4B KECCAK256 PUSH21 0x6865736520707573736965732C206B6964214C6574 0x27 PUSH20 0x206D616B65207375726520746865736520707573 PUSH20 0x69657320776F6E27742062652061626C6520746F KECCAK256 PUSH22 0x7365206120566973696F6E2050726F2C206B69642168 PUSH21 0x7470733A2F2F617277656176652E6E65742F416D76 JUMPI PUSH19 0x7A6A316E4B786E487372346A586B7758666574 PUSH6 0x38303337565A PUSH11 0x783236387230346E343455 PUSH9 0x747470733A2F2F6172 PUSH24 0x656176652E6E65742F42755F7632734C5A6B674C51304E77 COINBASE 0x49 COINBASE PUSH12 0x3470437A46326B6B66364154 BALANCE PUSH19 0x68526372476A79424C5568747470733A2F2F61 PUSH19 0x77656176652E6E65742F67742D695F50684657 MLOAD PUSH8 0x374D65444F704C52 PUSH3 0x745067 PUSH18 0x704F3755363661505478554B6139362D4639 ADDRESS 0x4C PUSH6 0x742773207475 PUSH19 0x6E207468657365207075737369657320696E74 PUSH16 0x20426974636F696E206D696E696E6720 PUSH8 0x6561722C206B6964 0x21 PUSH9 0x747470733A2F2F6172 PUSH24 0x656176652E6E65742F5A6F6F2D416B414C53454A716A6769 PUSH16 0x474C4D775A724F5F554B656B47464843 PUSH5 0x584D425374 ADDRESS NUMBER 0x4F JUMP CALLVALUE PUSH9 0x747470733A2F2F6172 PUSH24 0x656176652E6E65742F5166576A34333362474F49734F3353 MLOAD JUMP 0x4D 0x4E CALLER 0x4C CALLDATALOAD 0x2D JUMPI SLOAD PUSH8 0x595A6B676A78354E CALLDATACOPY NUMBER CALLDATACOPY PUSH14 0x3238682D594C65742773206F7574 KECCAK256 PUSH21 0x686573652070757373696573206661737465722074 PUSH9 0x616E20616E20416D61 PUSH27 0x6F6E205072696D652064656C69766572792C206B69642168747470 PUSH20 0x3A2F2F617277656176652E6E65742F6B7943495F SELFBALANCE CALLDATACOPY PUSH23 0x5F377772706749746671674164664C6B73637A57327078 0x2D PUSH23 0x37696650595F5A393551ECE574603820D07BC9B91F2A93 0x2B 0xAA 0xDF CHAINID 0x28 0xAA 0xBC 0xB8 0xAF 0xBA 0x49 PUSH24 0x6529C14A6104B20000000000000000000000000000000000 "
		},
		"gasEstimates": {
			"creation": {
				"codeDepositCost": "3639200",
				"executionCost": "infinite",
				"totalCost": "infinite"
			},
			"external": {
				"": "infinite",
				"approve(address,uint256)": "infinite",
				"authorizeOperator(address,bytes32,bytes)": "infinite",
				"balanceOf(address)": "infinite",
				"count()": "2363",
				"decreasePlayerBalance(uint256,uint256)": "infinite",
				"getApproved(uint256)": "infinite",
				"getBalance(uint256)": "infinite",
				"getData(bytes32)": "infinite",
				"getDataBatch(bytes32[])": "infinite",
				"getOperatorsOf(bytes32)": "infinite",
				"getStat(uint256)": "infinite",
				"increasePlayerBalance(uint256,uint256)": "infinite",
				"isApprovedForAll(address,address)": "infinite",
				"isOperatorFor(address,bytes32)": "infinite",
				"mint(uint8)": "infinite",
				"mintMultiple(uint8,uint256)": "infinite",
				"mintPrice()": "2340",
				"name()": "infinite",
				"owner()": "2418",
				"ownerOf(uint256)": "infinite",
				"renounceOwnership()": "infinite",
				"resetBalance()": "infinite",
				"revokeOperator(address,bytes32,bool,bytes)": "infinite",
				"safeTransferFrom(address,address,uint256)": "infinite",
				"safeTransferFrom(address,address,uint256,bytes)": "infinite",
				"setApprovalForAll(address,bool)": "infinite",
				"setData(bytes32,bytes)": "infinite",
				"setDataBatch(bytes32[],bytes[])": "infinite",
				"setImgUrls(string[6])": "infinite",
				"setMintPrice(uint256)": "24650",
				"setOctagon(address)": "28007",
				"setPunchlines(string[6])": "infinite",
				"supportsInterface(bytes4)": "infinite",
				"symbol()": "infinite",
				"teamBalances(uint8)": "2559",
				"teamMemberCount(uint8)": "2603",
				"tokenIdsOf(address)": "infinite",
				"tokenOwnerOf(bytes32)": "2666",
				"tokenURI(uint256)": "infinite",
				"totalSupply()": "2381",
				"transfer(address,address,bytes32,bool,bytes)": "infinite",
				"transferBatch(address[],address[],bytes32[],bool[],bytes[])": "infinite",
				"transferFrom(address,address,uint256)": "infinite",
				"transferOwnership(address)": "32732",
				"withdraw(address)": "infinite"
			},
			"internal": {
				"_formatTokenUri(uint256)": "infinite",
				"_generateAttributesString(struct BillionaireStats memory)": "infinite",
				"_getStat(uint256)": "infinite",
				"_setStat(uint256,struct BillionaireStats memory)": "infinite",
				"generateEmpathyTrait()": "infinite",
				"generateMoneyTrait()": "infinite",
				"generateTrait()": "infinite"
			}
		},
		"methodIdentifiers": {
			"approve(address,uint256)": "095ea7b3",
			"authorizeOperator(address,bytes32,bytes)": "86a10ddd",
			"balanceOf(address)": "70a08231",
			"count()": "06661abd",
			"decreasePlayerBalance(uint256,uint256)": "c635a789",
			"getApproved(uint256)": "081812fc",
			"getBalance(uint256)": "1e010439",
			"getData(bytes32)": "54f6127f",
			"getDataBatch(bytes32[])": "dedff9c6",
			"getOperatorsOf(bytes32)": "49a6078d",
			"getStat(uint256)": "17609459",
			"increasePlayerBalance(uint256,uint256)": "d9cff232",
			"isApprovedForAll(address,address)": "e985e9c5",
			"isOperatorFor(address,bytes32)": "2a3654a4",
			"mint(uint8)": "6ecd2306",
			"mintMultiple(uint8,uint256)": "2cc27bfd",
			"mintPrice()": "6817c76c",
			"name()": "06fdde03",
			"owner()": "8da5cb5b",
			"ownerOf(uint256)": "6352211e",
			"renounceOwnership()": "715018a6",
			"resetBalance()": "20f5e8dd",
			"revokeOperator(address,bytes32,bool,bytes)": "db8c9663",
			"safeTransferFrom(address,address,uint256)": "42842e0e",
			"safeTransferFrom(address,address,uint256,bytes)": "b88d4fde",
			"setApprovalForAll(address,bool)": "a22cb465",
			"setData(bytes32,bytes)": "7f23690c",
			"setDataBatch(bytes32[],bytes[])": "97902421",
			"setImgUrls(string[6])": "164170a2",
			"setMintPrice(uint256)": "f4a0a528",
			"setOctagon(address)": "fdfd8058",
			"setPunchlines(string[6])": "2b809568",
			"supportsInterface(bytes4)": "01ffc9a7",
			"symbol()": "95d89b41",
			"teamBalances(uint8)": "4b053409",
			"teamMemberCount(uint8)": "94a02353",
			"tokenIdsOf(address)": "a3b261f2",
			"tokenOwnerOf(bytes32)": "217b2270",
			"tokenURI(uint256)": "c87b56dd",
			"totalSupply()": "18160ddd",
			"transfer(address,address,bytes32,bool,bytes)": "511b6952",
			"transferBatch(address[],address[],bytes32[],bool[],bytes[])": "7e87632c",
			"transferFrom(address,address,uint256)": "23b872dd",
			"transferOwnership(address)": "f2fde38b",
			"withdraw(address)": "51cff8d9"
		}
	},
	"abi": [
		{
			"inputs": [],
			"stateMutability": "nonpayable",
			"type": "constructor"
		},
		{
			"inputs": [],
			"name": "ERC725Y_DataKeysValuesEmptyArray",
			"type": "error"
		},
		{
			"inputs": [],
			"name": "ERC725Y_DataKeysValuesLengthMismatch",
			"type": "error"
		},
		{
			"inputs": [],
			"name": "ERC725Y_MsgValueDisallowed",
			"type": "error"
		},
		{
			"inputs": [
				{
					"internalType": "bytes",
					"name": "storedData",
					"type": "bytes"
				}
			],
			"name": "InvalidExtensionAddress",
			"type": "error"
		},
		{
			"inputs": [
				{
					"internalType": "bytes",
					"name": "data",
					"type": "bytes"
				}
			],
			"name": "InvalidFunctionSelector",
			"type": "error"
		},
		{
			"inputs": [],
			"name": "LSP4TokenNameNotEditable",
			"type": "error"
		},
		{
			"inputs": [],
			"name": "LSP4TokenSymbolNotEditable",
			"type": "error"
		},
		{
			"inputs": [],
			"name": "LSP8CannotSendToAddressZero",
			"type": "error"
		},
		{
			"inputs": [],
			"name": "LSP8CannotSendToSelf",
			"type": "error"
		},
		{
			"inputs": [],
			"name": "LSP8CannotUseAddressZeroAsOperator",
			"type": "error"
		},
		{
			"inputs": [],
			"name": "LSP8InvalidTransferBatch",
			"type": "error"
		},
		{
			"inputs": [
				{
					"internalType": "bytes32",
					"name": "tokenId",
					"type": "bytes32"
				}
			],
			"name": "LSP8NonExistentTokenId",
			"type": "error"
		},
		{
			"inputs": [
				{
					"internalType": "address",
					"name": "operator",
					"type": "address"
				},
				{
					"internalType": "bytes32",
					"name": "tokenId",
					"type": "bytes32"
				}
			],
			"name": "LSP8NonExistingOperator",
			"type": "error"
		},
		{
			"inputs": [
				{
					"internalType": "bytes32",
					"name": "tokenId",
					"type": "bytes32"
				},
				{
					"internalType": "address",
					"name": "caller",
					"type": "address"
				}
			],
			"name": "LSP8NotTokenOperator",
			"type": "error"
		},
		{
			"inputs": [
				{
					"internalType": "address",
					"name": "tokenOwner",
					"type": "address"
				},
				{
					"internalType": "bytes32",
					"name": "tokenId",
					"type": "bytes32"
				},
				{
					"internalType": "address",
					"name": "caller",
					"type": "address"
				}
			],
			"name": "LSP8NotTokenOwner",
			"type": "error"
		},
		{
			"inputs": [
				{
					"internalType": "address",
					"name": "tokenReceiver",
					"type": "address"
				}
			],
			"name": "LSP8NotifyTokenReceiverContractMissingLSP1Interface",
			"type": "error"
		},
		{
			"inputs": [
				{
					"internalType": "address",
					"name": "tokenReceiver",
					"type": "address"
				}
			],
			"name": "LSP8NotifyTokenReceiverIsEOA",
			"type": "error"
		},
		{
			"inputs": [
				{
					"internalType": "address",
					"name": "operator",
					"type": "address"
				},
				{
					"internalType": "bytes32",
					"name": "tokenId",
					"type": "bytes32"
				}
			],
			"name": "LSP8OperatorAlreadyAuthorized",
			"type": "error"
		},
		{
			"inputs": [],
			"name": "LSP8TokenContractCannotHoldValue",
			"type": "error"
		},
		{
			"inputs": [
				{
					"internalType": "bytes32",
					"name": "tokenId",
					"type": "bytes32"
				}
			],
			"name": "LSP8TokenIdAlreadyMinted",
			"type": "error"
		},
		{
			"inputs": [],
			"name": "LSP8TokenIdTypeNotEditable",
			"type": "error"
		},
		{
			"inputs": [],
			"name": "LSP8TokenOwnerCannotBeOperator",
			"type": "error"
		},
		{
			"inputs": [
				{
					"internalType": "bytes4",
					"name": "functionSelector",
					"type": "bytes4"
				}
			],
			"name": "NoExtensionFoundForFunctionSelector",
			"type": "error"
		},
		{
			"inputs": [
				{
					"internalType": "address",
					"name": "callerAddress",
					"type": "address"
				}
			],
			"name": "OwnableCallerNotTheOwner",
			"type": "error"
		},
		{
			"inputs": [],
			"name": "OwnableCannotSetZeroAddressAsOwner",
			"type": "error"
		},
		{
			"inputs": [],
			"name": "ReentrancyGuardReentrantCall",
			"type": "error"
		},
		{
			"anonymous": false,
			"inputs": [
				{
					"indexed": true,
					"internalType": "address",
					"name": "owner",
					"type": "address"
				},
				{
					"indexed": true,
					"internalType": "address",
					"name": "approved",
					"type": "address"
				},
				{
					"indexed": true,
					"internalType": "uint256",
					"name": "tokenId",
					"type": "uint256"
				}
			],
			"name": "Approval",
			"type": "event"
		},
		{
			"anonymous": false,
			"inputs": [
				{
					"indexed": true,
					"internalType": "address",
					"name": "owner",
					"type": "address"
				},
				{
					"indexed": true,
					"internalType": "address",
					"name": "operator",
					"type": "address"
				},
				{
					"indexed": false,
					"internalType": "bool",
					"name": "approved",
					"type": "bool"
				}
			],
			"name": "ApprovalForAll",
			"type": "event"
		},
		{
			"anonymous": false,
			"inputs": [
				{
					"indexed": true,
					"internalType": "address",
					"name": "operator",
					"type": "address"
				},
				{
					"indexed": true,
					"internalType": "address",
					"name": "tokenOwner",
					"type": "address"
				},
				{
					"indexed": true,
					"internalType": "bytes32",
					"name": "tokenId",
					"type": "bytes32"
				},
				{
					"indexed": false,
					"internalType": "bytes",
					"name": "operatorNotificationData",
					"type": "bytes"
				}
			],
			"name": "AuthorizedOperator",
			"type": "event"
		},
		{
			"anonymous": false,
			"inputs": [
				{
					"indexed": true,
					"internalType": "uint256",
					"name": "tokenId",
					"type": "uint256"
				}
			],
			"name": "BillionaireMinted",
			"type": "event"
		},
		{
			"anonymous": false,
			"inputs": [
				{
					"indexed": true,
					"internalType": "bytes32",
					"name": "dataKey",
					"type": "bytes32"
				},
				{
					"indexed": false,
					"internalType": "bytes",
					"name": "dataValue",
					"type": "bytes"
				}
			],
			"name": "DataChanged",
			"type": "event"
		},
		{
			"anonymous": false,
			"inputs": [
				{
					"indexed": true,
					"internalType": "address",
					"name": "previousOwner",
					"type": "address"
				},
				{
					"indexed": true,
					"internalType": "address",
					"name": "newOwner",
					"type": "address"
				}
			],
			"name": "OwnershipTransferred",
			"type": "event"
		},
		{
			"anonymous": false,
			"inputs": [
				{
					"indexed": true,
					"internalType": "address",
					"name": "operator",
					"type": "address"
				},
				{
					"indexed": true,
					"internalType": "address",
					"name": "tokenOwner",
					"type": "address"
				},
				{
					"indexed": true,
					"internalType": "bytes32",
					"name": "tokenId",
					"type": "bytes32"
				},
				{
					"indexed": false,
					"internalType": "bool",
					"name": "notified",
					"type": "bool"
				},
				{
					"indexed": false,
					"internalType": "bytes",
					"name": "operatorNotificationData",
					"type": "bytes"
				}
			],
			"name": "RevokedOperator",
			"type": "event"
		},
		{
			"anonymous": false,
			"inputs": [
				{
					"indexed": false,
					"internalType": "address",
					"name": "octagon",
					"type": "address"
				}
			],
			"name": "SetOctagon",
			"type": "event"
		},
		{
			"anonymous": false,
			"inputs": [
				{
					"indexed": false,
					"internalType": "address",
					"name": "operator",
					"type": "address"
				},
				{
					"indexed": true,
					"internalType": "address",
					"name": "from",
					"type": "address"
				},
				{
					"indexed": true,
					"internalType": "address",
					"name": "to",
					"type": "address"
				},
				{
					"indexed": true,
					"internalType": "bytes32",
					"name": "tokenId",
					"type": "bytes32"
				},
				{
					"indexed": false,
					"internalType": "bool",
					"name": "force",
					"type": "bool"
				},
				{
					"indexed": false,
					"internalType": "bytes",
					"name": "data",
					"type": "bytes"
				}
			],
			"name": "Transfer",
			"type": "event"
		},
		{
			"anonymous": false,
			"inputs": [
				{
					"indexed": true,
					"internalType": "address",
					"name": "from",
					"type": "address"
				},
				{
					"indexed": true,
					"internalType": "address",
					"name": "to",
					"type": "address"
				},
				{
					"indexed": true,
					"internalType": "uint256",
					"name": "tokenId",
					"type": "uint256"
				}
			],
			"name": "Transfer",
			"type": "event"
		},
		{
			"stateMutability": "payable",
			"type": "fallback"
		},
		{
			"inputs": [
				{
					"internalType": "address",
					"name": "operator",
					"type": "address"
				},
				{
					"internalType": "uint256",
					"name": "tokenId",
					"type": "uint256"
				}
			],
			"name": "approve",
			"outputs": [],
			"stateMutability": "nonpayable",
			"type": "function"
		},
		{
			"inputs": [
				{
					"internalType": "address",
					"name": "operator",
					"type": "address"
				},
				{
					"internalType": "bytes32",
					"name": "tokenId",
					"type": "bytes32"
				},
				{
					"internalType": "bytes",
					"name": "operatorNotificationData",
					"type": "bytes"
				}
			],
			"name": "authorizeOperator",
			"outputs": [],
			"stateMutability": "nonpayable",
			"type": "function"
		},
		{
			"inputs": [
				{
					"internalType": "address",
					"name": "tokenOwner",
					"type": "address"
				}
			],
			"name": "balanceOf",
			"outputs": [
				{
					"internalType": "uint256",
					"name": "",
					"type": "uint256"
				}
			],
			"stateMutability": "view",
			"type": "function"
		},
		{
			"inputs": [],
			"name": "count",
			"outputs": [
				{
					"internalType": "uint256",
					"name": "",
					"type": "uint256"
				}
			],
			"stateMutability": "view",
			"type": "function"
		},
		{
			"inputs": [
				{
					"internalType": "uint256",
					"name": "player",
					"type": "uint256"
				},
				{
					"internalType": "uint256",
					"name": "decrease",
					"type": "uint256"
				}
			],
			"name": "decreasePlayerBalance",
			"outputs": [],
			"stateMutability": "nonpayable",
			"type": "function"
		},
		{
			"inputs": [
				{
					"internalType": "uint256",
					"name": "tokenId",
					"type": "uint256"
				}
			],
			"name": "getApproved",
			"outputs": [
				{
					"internalType": "address",
					"name": "",
					"type": "address"
				}
			],
			"stateMutability": "view",
			"type": "function"
		},
		{
			"inputs": [
				{
					"internalType": "uint256",
					"name": "tokenId",
					"type": "uint256"
				}
			],
			"name": "getBalance",
			"outputs": [
				{
					"internalType": "uint256",
					"name": "",
					"type": "uint256"
				}
			],
			"stateMutability": "view",
			"type": "function"
		},
		{
			"inputs": [
				{
					"internalType": "bytes32",
					"name": "dataKey",
					"type": "bytes32"
				}
			],
			"name": "getData",
			"outputs": [
				{
					"internalType": "bytes",
					"name": "dataValue",
					"type": "bytes"
				}
			],
			"stateMutability": "view",
			"type": "function"
		},
		{
			"inputs": [
				{
					"internalType": "bytes32[]",
					"name": "dataKeys",
					"type": "bytes32[]"
				}
			],
			"name": "getDataBatch",
			"outputs": [
				{
					"internalType": "bytes[]",
					"name": "dataValues",
					"type": "bytes[]"
				}
			],
			"stateMutability": "view",
			"type": "function"
		},
		{
			"inputs": [
				{
					"internalType": "bytes32",
					"name": "tokenId",
					"type": "bytes32"
				}
			],
			"name": "getOperatorsOf",
			"outputs": [
				{
					"internalType": "address[]",
					"name": "",
					"type": "address[]"
				}
			],
			"stateMutability": "view",
			"type": "function"
		},
		{
			"inputs": [
				{
					"internalType": "uint256",
					"name": "tokenId",
					"type": "uint256"
				}
			],
			"name": "getStat",
			"outputs": [
				{
					"components": [
						{
							"internalType": "enum Billionaire",
							"name": "billionaire",
							"type": "uint8"
						},
						{
							"internalType": "uint256",
							"name": "money",
							"type": "uint256"
						},
						{
							"internalType": "uint256",
							"name": "charisma",
							"type": "uint256"
						},
						{
							"internalType": "uint256",
							"name": "strength",
							"type": "uint256"
						},
						{
							"internalType": "uint256",
							"name": "empathy",
							"type": "uint256"
						},
						{
							"internalType": "uint256",
							"name": "stamina",
							"type": "uint256"
						},
						{
							"internalType": "uint256",
							"name": "balance",
							"type": "uint256"
						}
					],
					"internalType": "struct BillionaireStats",
					"name": "",
					"type": "tuple"
				}
			],
			"stateMutability": "view",
			"type": "function"
		},
		{
			"inputs": [
				{
					"internalType": "uint256",
					"name": "player",
					"type": "uint256"
				},
				{
					"internalType": "uint256",
					"name": "increase",
					"type": "uint256"
				}
			],
			"name": "increasePlayerBalance",
			"outputs": [],
			"stateMutability": "nonpayable",
			"type": "function"
		},
		{
			"inputs": [
				{
					"internalType": "address",
					"name": "tokenOwner",
					"type": "address"
				},
				{
					"internalType": "address",
					"name": "operator",
					"type": "address"
				}
			],
			"name": "isApprovedForAll",
			"outputs": [
				{
					"internalType": "bool",
					"name": "",
					"type": "bool"
				}
			],
			"stateMutability": "view",
			"type": "function"
		},
		{
			"inputs": [
				{
					"internalType": "address",
					"name": "operator",
					"type": "address"
				},
				{
					"internalType": "bytes32",
					"name": "tokenId",
					"type": "bytes32"
				}
			],
			"name": "isOperatorFor",
			"outputs": [
				{
					"internalType": "bool",
					"name": "",
					"type": "bool"
				}
			],
			"stateMutability": "view",
			"type": "function"
		},
		{
			"inputs": [
				{
					"internalType": "enum Billionaire",
					"name": "_billionaire",
					"type": "uint8"
				}
			],
			"name": "mint",
			"outputs": [],
			"stateMutability": "payable",
			"type": "function"
		},
		{
			"inputs": [
				{
					"internalType": "enum Billionaire",
					"name": "_billionaire",
					"type": "uint8"
				},
				{
					"internalType": "uint256",
					"name": "_num",
					"type": "uint256"
				}
			],
			"name": "mintMultiple",
			"outputs": [],
			"stateMutability": "payable",
			"type": "function"
		},
		{
			"inputs": [],
			"name": "mintPrice",
			"outputs": [
				{
					"internalType": "uint256",
					"name": "",
					"type": "uint256"
				}
			],
			"stateMutability": "view",
			"type": "function"
		},
		{
			"inputs": [],
			"name": "name",
			"outputs": [
				{
					"internalType": "string",
					"name": "",
					"type": "string"
				}
			],
			"stateMutability": "view",
			"type": "function"
		},
		{
			"inputs": [],
			"name": "owner",
			"outputs": [
				{
					"internalType": "address",
					"name": "",
					"type": "address"
				}
			],
			"stateMutability": "view",
			"type": "function"
		},
		{
			"inputs": [
				{
					"internalType": "uint256",
					"name": "tokenId",
					"type": "uint256"
				}
			],
			"name": "ownerOf",
			"outputs": [
				{
					"internalType": "address",
					"name": "",
					"type": "address"
				}
			],
			"stateMutability": "view",
			"type": "function"
		},
		{
			"inputs": [],
			"name": "renounceOwnership",
			"outputs": [],
			"stateMutability": "nonpayable",
			"type": "function"
		},
		{
			"inputs": [],
			"name": "resetBalance",
			"outputs": [],
			"stateMutability": "nonpayable",
			"type": "function"
		},
		{
			"inputs": [
				{
					"internalType": "address",
					"name": "operator",
					"type": "address"
				},
				{
					"internalType": "bytes32",
					"name": "tokenId",
					"type": "bytes32"
				},
				{
					"internalType": "bool",
					"name": "notify",
					"type": "bool"
				},
				{
					"internalType": "bytes",
					"name": "operatorNotificationData",
					"type": "bytes"
				}
			],
			"name": "revokeOperator",
			"outputs": [],
			"stateMutability": "nonpayable",
			"type": "function"
		},
		{
			"inputs": [
				{
					"internalType": "address",
					"name": "from",
					"type": "address"
				},
				{
					"internalType": "address",
					"name": "to",
					"type": "address"
				},
				{
					"internalType": "uint256",
					"name": "tokenId",
					"type": "uint256"
				}
			],
			"name": "safeTransferFrom",
			"outputs": [],
			"stateMutability": "nonpayable",
			"type": "function"
		},
		{
			"inputs": [
				{
					"internalType": "address",
					"name": "from",
					"type": "address"
				},
				{
					"internalType": "address",
					"name": "to",
					"type": "address"
				},
				{
					"internalType": "uint256",
					"name": "tokenId",
					"type": "uint256"
				},
				{
					"internalType": "bytes",
					"name": "data",
					"type": "bytes"
				}
			],
			"name": "safeTransferFrom",
			"outputs": [],
			"stateMutability": "nonpayable",
			"type": "function"
		},
		{
			"inputs": [
				{
					"internalType": "address",
					"name": "operator",
					"type": "address"
				},
				{
					"internalType": "bool",
					"name": "approved",
					"type": "bool"
				}
			],
			"name": "setApprovalForAll",
			"outputs": [],
			"stateMutability": "nonpayable",
			"type": "function"
		},
		{
			"inputs": [
				{
					"internalType": "bytes32",
					"name": "dataKey",
					"type": "bytes32"
				},
				{
					"internalType": "bytes",
					"name": "dataValue",
					"type": "bytes"
				}
			],
			"name": "setData",
			"outputs": [],
			"stateMutability": "payable",
			"type": "function"
		},
		{
			"inputs": [
				{
					"internalType": "bytes32[]",
					"name": "dataKeys",
					"type": "bytes32[]"
				},
				{
					"internalType": "bytes[]",
					"name": "dataValues",
					"type": "bytes[]"
				}
			],
			"name": "setDataBatch",
			"outputs": [],
			"stateMutability": "payable",
			"type": "function"
		},
		{
			"inputs": [
				{
					"internalType": "string[6]",
					"name": "_imgUrls",
					"type": "string[6]"
				}
			],
			"name": "setImgUrls",
			"outputs": [],
			"stateMutability": "nonpayable",
			"type": "function"
		},
		{
			"inputs": [
				{
					"internalType": "uint256",
					"name": "_mintPrice",
					"type": "uint256"
				}
			],
			"name": "setMintPrice",
			"outputs": [],
			"stateMutability": "nonpayable",
			"type": "function"
		},
		{
			"inputs": [
				{
					"internalType": "address",
					"name": "_octagon",
					"type": "address"
				}
			],
			"name": "setOctagon",
			"outputs": [],
			"stateMutability": "nonpayable",
			"type": "function"
		},
		{
			"inputs": [
				{
					"internalType": "string[6]",
					"name": "_punchlines",
					"type": "string[6]"
				}
			],
			"name": "setPunchlines",
			"outputs": [],
			"stateMutability": "nonpayable",
			"type": "function"
		},
		{
			"inputs": [
				{
					"internalType": "bytes4",
					"name": "interfaceId",
					"type": "bytes4"
				}
			],
			"name": "supportsInterface",
			"outputs": [
				{
					"internalType": "bool",
					"name": "",
					"type": "bool"
				}
			],
			"stateMutability": "view",
			"type": "function"
		},
		{
			"inputs": [],
			"name": "symbol",
			"outputs": [
				{
					"internalType": "string",
					"name": "",
					"type": "string"
				}
			],
			"stateMutability": "view",
			"type": "function"
		},
		{
			"inputs": [
				{
					"internalType": "enum Billionaire",
					"name": "",
					"type": "uint8"
				}
			],
			"name": "teamBalances",
			"outputs": [
				{
					"internalType": "uint256",
					"name": "",
					"type": "uint256"
				}
			],
			"stateMutability": "view",
			"type": "function"
		},
		{
			"inputs": [
				{
					"internalType": "enum Billionaire",
					"name": "",
					"type": "uint8"
				}
			],
			"name": "teamMemberCount",
			"outputs": [
				{
					"internalType": "uint256",
					"name": "",
					"type": "uint256"
				}
			],
			"stateMutability": "view",
			"type": "function"
		},
		{
			"inputs": [
				{
					"internalType": "address",
					"name": "tokenOwner",
					"type": "address"
				}
			],
			"name": "tokenIdsOf",
			"outputs": [
				{
					"internalType": "bytes32[]",
					"name": "",
					"type": "bytes32[]"
				}
			],
			"stateMutability": "view",
			"type": "function"
		},
		{
			"inputs": [
				{
					"internalType": "bytes32",
					"name": "tokenId",
					"type": "bytes32"
				}
			],
			"name": "tokenOwnerOf",
			"outputs": [
				{
					"internalType": "address",
					"name": "",
					"type": "address"
				}
			],
			"stateMutability": "view",
			"type": "function"
		},
		{
			"inputs": [
				{
					"internalType": "uint256",
					"name": "_tokenId",
					"type": "uint256"
				}
			],
			"name": "tokenURI",
			"outputs": [
				{
					"internalType": "string",
					"name": "",
					"type": "string"
				}
			],
			"stateMutability": "view",
			"type": "function"
		},
		{
			"inputs": [],
			"name": "totalSupply",
			"outputs": [
				{
					"internalType": "uint256",
					"name": "",
					"type": "uint256"
				}
			],
			"stateMutability": "view",
			"type": "function"
		},
		{
			"inputs": [
				{
					"internalType": "address",
					"name": "from",
					"type": "address"
				},
				{
					"internalType": "address",
					"name": "to",
					"type": "address"
				},
				{
					"internalType": "bytes32",
					"name": "tokenId",
					"type": "bytes32"
				},
				{
					"internalType": "bool",
					"name": "force",
					"type": "bool"
				},
				{
					"internalType": "bytes",
					"name": "data",
					"type": "bytes"
				}
			],
			"name": "transfer",
			"outputs": [],
			"stateMutability": "nonpayable",
			"type": "function"
		},
		{
			"inputs": [
				{
					"internalType": "address[]",
					"name": "from",
					"type": "address[]"
				},
				{
					"internalType": "address[]",
					"name": "to",
					"type": "address[]"
				},
				{
					"internalType": "bytes32[]",
					"name": "tokenId",
					"type": "bytes32[]"
				},
				{
					"internalType": "bool[]",
					"name": "force",
					"type": "bool[]"
				},
				{
					"internalType": "bytes[]",
					"name": "data",
					"type": "bytes[]"
				}
			],
			"name": "transferBatch",
			"outputs": [],
			"stateMutability": "nonpayable",
			"type": "function"
		},
		{
			"inputs": [
				{
					"internalType": "address",
					"name": "from",
					"type": "address"
				},
				{
					"internalType": "address",
					"name": "to",
					"type": "address"
				},
				{
					"internalType": "uint256",
					"name": "tokenId",
					"type": "uint256"
				}
			],
			"name": "transferFrom",
			"outputs": [],
			"stateMutability": "nonpayable",
			"type": "function"
		},
		{
			"inputs": [
				{
					"internalType": "address",
					"name": "newOwner",
					"type": "address"
				}
			],
			"name": "transferOwnership",
			"outputs": [],
			"stateMutability": "nonpayable",
			"type": "function"
		},
		{
			"inputs": [
				{
					"internalType": "address",
					"name": "to",
					"type": "address"
				}
			],
			"name": "withdraw",
			"outputs": [],
			"stateMutability": "nonpayable",
			"type": "function"
		},
		{
			"stateMutability": "payable",
			"type": "receive"
		}
	]
}