{
	"data": {
		"bytecode": {
			"linkReferences": {},
			"object": "60a060405234801561000f575f80fd5b506040516107d43803806107d483398101604081905261002e9161003f565b6001600160a01b031660805261006c565b5f6020828403121561004f575f80fd5b81516001600160a01b0381168114610065575f80fd5b9392505050565b60805161074a61008a5f395f818160940152610120015261074a5ff3fe608060405234801561000f575f80fd5b5060043610610034575f3560e01c8063ca39e5ef14610038578063fdfd80581461005d575b5f80fd5b61004b610046366004610496565b610072565b60405190815260200160405180910390f35b61007061006b3660046104b6565b6103aa565b005b604051631760945960e01b8152600481018390525f9081906001600160a01b037f0000000000000000000000000000000000000000000000000000000000000000169063176094599060240160e060405180830381865afa1580156100d9573d5f803e3d5ffd5b505050506040513d601f19601f820116820180604052508101906100fd91906104dc565b604051631760945960e01b8152600481018590529091505f906001600160a01b037f0000000000000000000000000000000000000000000000000000000000000000169063176094599060240160e060405180830381865afa158015610165573d5f803e3d5ffd5b505050506040513d601f19601f8201168201806040525081019061018991906104dc565b5f8054604051639fffc3dd60e01b81526004810188905292935090916001600160a01b0390911690639fffc3dd90602401608060405180830381865afa1580156101d5573d5f803e3d5ffd5b505050506040513d601f19601f820116820180604052508101906101f99190610576565b5f80548251604051636e37da1b60e01b815293945091926001600160a01b0390911691636e37da1b9161022f91906004016105fd565b606060405180830381865afa15801561024a573d5f803e3d5ffd5b505050506040513d601f19601f8201168201806040525081019061026e9190610623565b90505f61027c60014361069d565b604080519140602083015242908201526060810188905260800160408051601f19818403018152919052805160209091012090505f6102bc60014361069d565b60408051914060208301524290820152606081018a9052608001604051602081830303815290604052805190602001205f1c90505f836040015184602001518461030691906106c4565b61031091906106d7565b90505f846040015185602001518461032891906106c4565b61033291906106d7565b90505f8261033f8a610427565b61034991906106d7565b90505f826103568a610427565b61036091906106d7565b90508082111561037c578c9a50505050505050505050506103a4565b81811115610396578b9a50505050505050505050506103a4565b5f9a50505050505050505050505b92915050565b5f546001600160a01b0316156104065760405162461bcd60e51b815260206004820152601c60248201527f4f637461676f6e20686173206265656e2073657420616c726561647900000000604482015260640160405180910390fd5b5f80546001600160a01b0319166001600160a01b0392909216919091179055565b5f80610436836080015161047c565b905082606001518360a00151828560400151866020015161045791906106d7565b61046191906106d7565b61046b91906106d7565b61047591906106d7565b9392505050565b5f80610489600f846106ea565b9050610475600a82610701565b5f80604083850312156104a7575f80fd5b50508035926020909101359150565b5f602082840312156104c6575f80fd5b81356001600160a01b0381168114610475575f80fd5b5f60e082840312156104ec575f80fd5b60405160e0810181811067ffffffffffffffff8211171561051b57634e487b7160e01b5f52604160045260245ffd5b60405282516006811061052c575f80fd5b808252506020830151602082015260408301516040820152606083015160608201526080830151608082015260a083015160a082015260c083015160c08201528091505092915050565b5f60808284031215610586575f80fd5b6040516080810181811067ffffffffffffffff821117156105b557634e487b7160e01b5f52604160045260245ffd5b6040528251600381106105c6575f80fd5b8152602083015160ff811681146105db575f80fd5b6020820152604083810151908201526060928301519281019290925250919050565b602081016003831061061d57634e487b7160e01b5f52602160045260245ffd5b91905290565b5f60608284031215610633575f80fd5b6040516060810181811067ffffffffffffffff8211171561066257634e487b7160e01b5f52604160045260245ffd5b80604052508251815260208301516020820152604083015160408201528091505092915050565b634e487b7160e01b5f52601160045260245ffd5b818103818111156103a4576103a4610689565b634e487b7160e01b5f52601260045260245ffd5b5f826106d2576106d26106b0565b500690565b808201808211156103a4576103a4610689565b80820281158282048414176103a4576103a4610689565b5f8261070f5761070f6106b0565b50049056fea2646970667358221220bf5f4c4b82aa3fb027082c97f1930066fdabc589ba4820ce5c56b44507e4150764736f6c63430008160033",
			"opcodes": "PUSH1 0xA0 PUSH1 0x40 MSTORE CALLVALUE DUP1 ISZERO PUSH2 0xF JUMPI PUSH0 DUP1 REVERT JUMPDEST POP PUSH1 0x40 MLOAD PUSH2 0x7D4 CODESIZE SUB DUP1 PUSH2 0x7D4 DUP4 CODECOPY DUP2 ADD PUSH1 0x40 DUP2 SWAP1 MSTORE PUSH2 0x2E SWAP2 PUSH2 0x3F JUMP JUMPDEST PUSH1 0x1 PUSH1 0x1 PUSH1 0xA0 SHL SUB AND PUSH1 0x80 MSTORE PUSH2 0x6C JUMP JUMPDEST PUSH0 PUSH1 0x20 DUP3 DUP5 SUB SLT ISZERO PUSH2 0x4F JUMPI PUSH0 DUP1 REVERT JUMPDEST DUP2 MLOAD PUSH1 0x1 PUSH1 0x1 PUSH1 0xA0 SHL SUB DUP2 AND DUP2 EQ PUSH2 0x65 JUMPI PUSH0 DUP1 REVERT JUMPDEST SWAP4 SWAP3 POP POP POP JUMP JUMPDEST PUSH1 0x80 MLOAD PUSH2 0x74A PUSH2 0x8A PUSH0 CODECOPY PUSH0 DUP2 DUP2 PUSH1 0x94 ADD MSTORE PUSH2 0x120 ADD MSTORE PUSH2 0x74A PUSH0 RETURN INVALID PUSH1 0x80 PUSH1 0x40 MSTORE CALLVALUE DUP1 ISZERO PUSH2 0xF JUMPI PUSH0 DUP1 REVERT JUMPDEST POP PUSH1 0x4 CALLDATASIZE LT PUSH2 0x34 JUMPI PUSH0 CALLDATALOAD PUSH1 0xE0 SHR DUP1 PUSH4 0xCA39E5EF EQ PUSH2 0x38 JUMPI DUP1 PUSH4 0xFDFD8058 EQ PUSH2 0x5D JUMPI JUMPDEST PUSH0 DUP1 REVERT JUMPDEST PUSH2 0x4B PUSH2 0x46 CALLDATASIZE PUSH1 0x4 PUSH2 0x496 JUMP JUMPDEST PUSH2 0x72 JUMP JUMPDEST PUSH1 0x40 MLOAD SWAP1 DUP2 MSTORE PUSH1 0x20 ADD PUSH1 0x40 MLOAD DUP1 SWAP2 SUB SWAP1 RETURN JUMPDEST PUSH2 0x70 PUSH2 0x6B CALLDATASIZE PUSH1 0x4 PUSH2 0x4B6 JUMP JUMPDEST PUSH2 0x3AA JUMP JUMPDEST STOP JUMPDEST PUSH1 0x40 MLOAD PUSH4 0x17609459 PUSH1 0xE0 SHL DUP2 MSTORE PUSH1 0x4 DUP2 ADD DUP4 SWAP1 MSTORE PUSH0 SWAP1 DUP2 SWAP1 PUSH1 0x1 PUSH1 0x1 PUSH1 0xA0 SHL SUB PUSH32 0x0 AND SWAP1 PUSH4 0x17609459 SWAP1 PUSH1 0x24 ADD PUSH1 0xE0 PUSH1 0x40 MLOAD DUP1 DUP4 SUB DUP2 DUP7 GAS STATICCALL ISZERO DUP1 ISZERO PUSH2 0xD9 JUMPI RETURNDATASIZE PUSH0 DUP1 RETURNDATACOPY RETURNDATASIZE PUSH0 REVERT JUMPDEST POP POP POP POP PUSH1 0x40 MLOAD RETURNDATASIZE PUSH1 0x1F NOT PUSH1 0x1F DUP3 ADD AND DUP3 ADD DUP1 PUSH1 0x40 MSTORE POP DUP2 ADD SWAP1 PUSH2 0xFD SWAP2 SWAP1 PUSH2 0x4DC JUMP JUMPDEST PUSH1 0x40 MLOAD PUSH4 0x17609459 PUSH1 0xE0 SHL DUP2 MSTORE PUSH1 0x4 DUP2 ADD DUP6 SWAP1 MSTORE SWAP1 SWAP2 POP PUSH0 SWAP1 PUSH1 0x1 PUSH1 0x1 PUSH1 0xA0 SHL SUB PUSH32 0x0 AND SWAP1 PUSH4 0x17609459 SWAP1 PUSH1 0x24 ADD PUSH1 0xE0 PUSH1 0x40 MLOAD DUP1 DUP4 SUB DUP2 DUP7 GAS STATICCALL ISZERO DUP1 ISZERO PUSH2 0x165 JUMPI RETURNDATASIZE PUSH0 DUP1 RETURNDATACOPY RETURNDATASIZE PUSH0 REVERT JUMPDEST POP POP POP POP PUSH1 0x40 MLOAD RETURNDATASIZE PUSH1 0x1F NOT PUSH1 0x1F DUP3 ADD AND DUP3 ADD DUP1 PUSH1 0x40 MSTORE POP DUP2 ADD SWAP1 PUSH2 0x189 SWAP2 SWAP1 PUSH2 0x4DC JUMP JUMPDEST PUSH0 DUP1 SLOAD PUSH1 0x40 MLOAD PUSH4 0x9FFFC3DD PUSH1 0xE0 SHL DUP2 MSTORE PUSH1 0x4 DUP2 ADD DUP9 SWAP1 MSTORE SWAP3 SWAP4 POP SWAP1 SWAP2 PUSH1 0x1 PUSH1 0x1 PUSH1 0xA0 SHL SUB SWAP1 SWAP2 AND SWAP1 PUSH4 0x9FFFC3DD SWAP1 PUSH1 0x24 ADD PUSH1 0x80 PUSH1 0x40 MLOAD DUP1 DUP4 SUB DUP2 DUP7 GAS STATICCALL ISZERO DUP1 ISZERO PUSH2 0x1D5 JUMPI RETURNDATASIZE PUSH0 DUP1 RETURNDATACOPY RETURNDATASIZE PUSH0 REVERT JUMPDEST POP POP POP POP PUSH1 0x40 MLOAD RETURNDATASIZE PUSH1 0x1F NOT PUSH1 0x1F DUP3 ADD AND DUP3 ADD DUP1 PUSH1 0x40 MSTORE POP DUP2 ADD SWAP1 PUSH2 0x1F9 SWAP2 SWAP1 PUSH2 0x576 JUMP JUMPDEST PUSH0 DUP1 SLOAD DUP3 MLOAD PUSH1 0x40 MLOAD PUSH4 0x6E37DA1B PUSH1 0xE0 SHL DUP2 MSTORE SWAP4 SWAP5 POP SWAP2 SWAP3 PUSH1 0x1 PUSH1 0x1 PUSH1 0xA0 SHL SUB SWAP1 SWAP2 AND SWAP2 PUSH4 0x6E37DA1B SWAP2 PUSH2 0x22F SWAP2 SWAP1 PUSH1 0x4 ADD PUSH2 0x5FD JUMP JUMPDEST PUSH1 0x60 PUSH1 0x40 MLOAD DUP1 DUP4 SUB DUP2 DUP7 GAS STATICCALL ISZERO DUP1 ISZERO PUSH2 0x24A JUMPI RETURNDATASIZE PUSH0 DUP1 RETURNDATACOPY RETURNDATASIZE PUSH0 REVERT JUMPDEST POP POP POP POP PUSH1 0x40 MLOAD RETURNDATASIZE PUSH1 0x1F NOT PUSH1 0x1F DUP3 ADD AND DUP3 ADD DUP1 PUSH1 0x40 MSTORE POP DUP2 ADD SWAP1 PUSH2 0x26E SWAP2 SWAP1 PUSH2 0x623 JUMP JUMPDEST SWAP1 POP PUSH0 PUSH2 0x27C PUSH1 0x1 NUMBER PUSH2 0x69D JUMP JUMPDEST PUSH1 0x40 DUP1 MLOAD SWAP2 BLOCKHASH PUSH1 0x20 DUP4 ADD MSTORE TIMESTAMP SWAP1 DUP3 ADD MSTORE PUSH1 0x60 DUP2 ADD DUP9 SWAP1 MSTORE PUSH1 0x80 ADD PUSH1 0x40 DUP1 MLOAD PUSH1 0x1F NOT DUP2 DUP5 SUB ADD DUP2 MSTORE SWAP2 SWAP1 MSTORE DUP1 MLOAD PUSH1 0x20 SWAP1 SWAP2 ADD KECCAK256 SWAP1 POP PUSH0 PUSH2 0x2BC PUSH1 0x1 NUMBER PUSH2 0x69D JUMP JUMPDEST PUSH1 0x40 DUP1 MLOAD SWAP2 BLOCKHASH PUSH1 0x20 DUP4 ADD MSTORE TIMESTAMP SWAP1 DUP3 ADD MSTORE PUSH1 0x60 DUP2 ADD DUP11 SWAP1 MSTORE PUSH1 0x80 ADD PUSH1 0x40 MLOAD PUSH1 0x20 DUP2 DUP4 SUB SUB DUP2 MSTORE SWAP1 PUSH1 0x40 MSTORE DUP1 MLOAD SWAP1 PUSH1 0x20 ADD KECCAK256 PUSH0 SHR SWAP1 POP PUSH0 DUP4 PUSH1 0x40 ADD MLOAD DUP5 PUSH1 0x20 ADD MLOAD DUP5 PUSH2 0x306 SWAP2 SWAP1 PUSH2 0x6C4 JUMP JUMPDEST PUSH2 0x310 SWAP2 SWAP1 PUSH2 0x6D7 JUMP JUMPDEST SWAP1 POP PUSH0 DUP5 PUSH1 0x40 ADD MLOAD DUP6 PUSH1 0x20 ADD MLOAD DUP5 PUSH2 0x328 SWAP2 SWAP1 PUSH2 0x6C4 JUMP JUMPDEST PUSH2 0x332 SWAP2 SWAP1 PUSH2 0x6D7 JUMP JUMPDEST SWAP1 POP PUSH0 DUP3 PUSH2 0x33F DUP11 PUSH2 0x427 JUMP JUMPDEST PUSH2 0x349 SWAP2 SWAP1 PUSH2 0x6D7 JUMP JUMPDEST SWAP1 POP PUSH0 DUP3 PUSH2 0x356 DUP11 PUSH2 0x427 JUMP JUMPDEST PUSH2 0x360 SWAP2 SWAP1 PUSH2 0x6D7 JUMP JUMPDEST SWAP1 POP DUP1 DUP3 GT ISZERO PUSH2 0x37C JUMPI DUP13 SWAP11 POP POP POP POP POP POP POP POP POP POP POP PUSH2 0x3A4 JUMP JUMPDEST DUP2 DUP2 GT ISZERO PUSH2 0x396 JUMPI DUP12 SWAP11 POP POP POP POP POP POP POP POP POP POP POP PUSH2 0x3A4 JUMP JUMPDEST PUSH0 SWAP11 POP POP POP POP POP POP POP POP POP POP POP JUMPDEST SWAP3 SWAP2 POP POP JUMP JUMPDEST PUSH0 SLOAD PUSH1 0x1 PUSH1 0x1 PUSH1 0xA0 SHL SUB AND ISZERO PUSH2 0x406 JUMPI PUSH1 0x40 MLOAD PUSH3 0x461BCD PUSH1 0xE5 SHL DUP2 MSTORE PUSH1 0x20 PUSH1 0x4 DUP3 ADD MSTORE PUSH1 0x1C PUSH1 0x24 DUP3 ADD MSTORE PUSH32 0x4F637461676F6E20686173206265656E2073657420616C726561647900000000 PUSH1 0x44 DUP3 ADD MSTORE PUSH1 0x64 ADD PUSH1 0x40 MLOAD DUP1 SWAP2 SUB SWAP1 REVERT JUMPDEST PUSH0 DUP1 SLOAD PUSH1 0x1 PUSH1 0x1 PUSH1 0xA0 SHL SUB NOT AND PUSH1 0x1 PUSH1 0x1 PUSH1 0xA0 SHL SUB SWAP3 SWAP1 SWAP3 AND SWAP2 SWAP1 SWAP2 OR SWAP1 SSTORE JUMP JUMPDEST PUSH0 DUP1 PUSH2 0x436 DUP4 PUSH1 0x80 ADD MLOAD PUSH2 0x47C JUMP JUMPDEST SWAP1 POP DUP3 PUSH1 0x60 ADD MLOAD DUP4 PUSH1 0xA0 ADD MLOAD DUP3 DUP6 PUSH1 0x40 ADD MLOAD DUP7 PUSH1 0x20 ADD MLOAD PUSH2 0x457 SWAP2 SWAP1 PUSH2 0x6D7 JUMP JUMPDEST PUSH2 0x461 SWAP2 SWAP1 PUSH2 0x6D7 JUMP JUMPDEST PUSH2 0x46B SWAP2 SWAP1 PUSH2 0x6D7 JUMP JUMPDEST PUSH2 0x475 SWAP2 SWAP1 PUSH2 0x6D7 JUMP JUMPDEST SWAP4 SWAP3 POP POP POP JUMP JUMPDEST PUSH0 DUP1 PUSH2 0x489 PUSH1 0xF DUP5 PUSH2 0x6EA JUMP JUMPDEST SWAP1 POP PUSH2 0x475 PUSH1 0xA DUP3 PUSH2 0x701 JUMP JUMPDEST PUSH0 DUP1 PUSH1 0x40 DUP4 DUP6 SUB SLT ISZERO PUSH2 0x4A7 JUMPI PUSH0 DUP1 REVERT JUMPDEST POP POP DUP1 CALLDATALOAD SWAP3 PUSH1 0x20 SWAP1 SWAP2 ADD CALLDATALOAD SWAP2 POP JUMP JUMPDEST PUSH0 PUSH1 0x20 DUP3 DUP5 SUB SLT ISZERO PUSH2 0x4C6 JUMPI PUSH0 DUP1 REVERT JUMPDEST DUP2 CALLDATALOAD PUSH1 0x1 PUSH1 0x1 PUSH1 0xA0 SHL SUB DUP2 AND DUP2 EQ PUSH2 0x475 JUMPI PUSH0 DUP1 REVERT JUMPDEST PUSH0 PUSH1 0xE0 DUP3 DUP5 SUB SLT ISZERO PUSH2 0x4EC JUMPI PUSH0 DUP1 REVERT JUMPDEST PUSH1 0x40 MLOAD PUSH1 0xE0 DUP2 ADD DUP2 DUP2 LT PUSH8 0xFFFFFFFFFFFFFFFF DUP3 GT OR ISZERO PUSH2 0x51B JUMPI PUSH4 0x4E487B71 PUSH1 0xE0 SHL PUSH0 MSTORE PUSH1 0x41 PUSH1 0x4 MSTORE PUSH1 0x24 PUSH0 REVERT JUMPDEST PUSH1 0x40 MSTORE DUP3 MLOAD PUSH1 0x6 DUP2 LT PUSH2 0x52C JUMPI PUSH0 DUP1 REVERT JUMPDEST DUP1 DUP3 MSTORE POP PUSH1 0x20 DUP4 ADD MLOAD PUSH1 0x20 DUP3 ADD MSTORE PUSH1 0x40 DUP4 ADD MLOAD PUSH1 0x40 DUP3 ADD MSTORE PUSH1 0x60 DUP4 ADD MLOAD PUSH1 0x60 DUP3 ADD MSTORE PUSH1 0x80 DUP4 ADD MLOAD PUSH1 0x80 DUP3 ADD MSTORE PUSH1 0xA0 DUP4 ADD MLOAD PUSH1 0xA0 DUP3 ADD MSTORE PUSH1 0xC0 DUP4 ADD MLOAD PUSH1 0xC0 DUP3 ADD MSTORE DUP1 SWAP2 POP POP SWAP3 SWAP2 POP POP JUMP JUMPDEST PUSH0 PUSH1 0x80 DUP3 DUP5 SUB SLT ISZERO PUSH2 0x586 JUMPI PUSH0 DUP1 REVERT JUMPDEST PUSH1 0x40 MLOAD PUSH1 0x80 DUP2 ADD DUP2 DUP2 LT PUSH8 0xFFFFFFFFFFFFFFFF DUP3 GT OR ISZERO PUSH2 0x5B5 JUMPI PUSH4 0x4E487B71 PUSH1 0xE0 SHL PUSH0 MSTORE PUSH1 0x41 PUSH1 0x4 MSTORE PUSH1 0x24 PUSH0 REVERT JUMPDEST PUSH1 0x40 MSTORE DUP3 MLOAD PUSH1 0x3 DUP2 LT PUSH2 0x5C6 JUMPI PUSH0 DUP1 REVERT JUMPDEST DUP2 MSTORE PUSH1 0x20 DUP4 ADD MLOAD PUSH1 0xFF DUP2 AND DUP2 EQ PUSH2 0x5DB JUMPI PUSH0 DUP1 REVERT JUMPDEST PUSH1 0x20 DUP3 ADD MSTORE PUSH1 0x40 DUP4 DUP2 ADD MLOAD SWAP1 DUP3 ADD MSTORE PUSH1 0x60 SWAP3 DUP4 ADD MLOAD SWAP3 DUP2 ADD SWAP3 SWAP1 SWAP3 MSTORE POP SWAP2 SWAP1 POP JUMP JUMPDEST PUSH1 0x20 DUP2 ADD PUSH1 0x3 DUP4 LT PUSH2 0x61D JUMPI PUSH4 0x4E487B71 PUSH1 0xE0 SHL PUSH0 MSTORE PUSH1 0x21 PUSH1 0x4 MSTORE PUSH1 0x24 PUSH0 REVERT JUMPDEST SWAP2 SWAP1 MSTORE SWAP1 JUMP JUMPDEST PUSH0 PUSH1 0x60 DUP3 DUP5 SUB SLT ISZERO PUSH2 0x633 JUMPI PUSH0 DUP1 REVERT JUMPDEST PUSH1 0x40 MLOAD PUSH1 0x60 DUP2 ADD DUP2 DUP2 LT PUSH8 0xFFFFFFFFFFFFFFFF DUP3 GT OR ISZERO PUSH2 0x662 JUMPI PUSH4 0x4E487B71 PUSH1 0xE0 SHL PUSH0 MSTORE PUSH1 0x41 PUSH1 0x4 MSTORE PUSH1 0x24 PUSH0 REVERT JUMPDEST DUP1 PUSH1 0x40 MSTORE POP DUP3 MLOAD DUP2 MSTORE PUSH1 0x20 DUP4 ADD MLOAD PUSH1 0x20 DUP3 ADD MSTORE PUSH1 0x40 DUP4 ADD MLOAD PUSH1 0x40 DUP3 ADD MSTORE DUP1 SWAP2 POP POP SWAP3 SWAP2 POP POP JUMP JUMPDEST PUSH4 0x4E487B71 PUSH1 0xE0 SHL PUSH0 MSTORE PUSH1 0x11 PUSH1 0x4 MSTORE PUSH1 0x24 PUSH0 REVERT JUMPDEST DUP2 DUP2 SUB DUP2 DUP2 GT ISZERO PUSH2 0x3A4 JUMPI PUSH2 0x3A4 PUSH2 0x689 JUMP JUMPDEST PUSH4 0x4E487B71 PUSH1 0xE0 SHL PUSH0 MSTORE PUSH1 0x12 PUSH1 0x4 MSTORE PUSH1 0x24 PUSH0 REVERT JUMPDEST PUSH0 DUP3 PUSH2 0x6D2 JUMPI PUSH2 0x6D2 PUSH2 0x6B0 JUMP JUMPDEST POP MOD SWAP1 JUMP JUMPDEST DUP1 DUP3 ADD DUP1 DUP3 GT ISZERO PUSH2 0x3A4 JUMPI PUSH2 0x3A4 PUSH2 0x689 JUMP JUMPDEST DUP1 DUP3 MUL DUP2 ISZERO DUP3 DUP3 DIV DUP5 EQ OR PUSH2 0x3A4 JUMPI PUSH2 0x3A4 PUSH2 0x689 JUMP JUMPDEST PUSH0 DUP3 PUSH2 0x70F JUMPI PUSH2 0x70F PUSH2 0x6B0 JUMP JUMPDEST POP DIV SWAP1 JUMP INVALID LOG2 PUSH5 0x6970667358 0x22 SLT KECCAK256 0xBF PUSH0 0x4C 0x4B DUP3 0xAA EXTCODEHASH 0xB0 0x27 ADDMOD 0x2C SWAP8 CALL SWAP4 STOP PUSH7 0xFDABC589BA4820 0xCE 0x5C JUMP 0xB4 GASLIMIT SMOD 0xE4 ISZERO SMOD PUSH5 0x736F6C6343 STOP ADDMOD AND STOP CALLER "
		},
		"gasEstimates": {
			"creation": {
				"codeDepositCost": "373200",
				"executionCost": "infinite",
				"totalCost": "infinite"
			},
			"external": {
				"fight(uint256,uint256)": "infinite",
				"setOctagon(address)": "26670"
			},
			"internal": {
				"empathyScore(uint256)": "181",
				"sumStats(struct BillionaireStats memory)": "infinite"
			}
		},
		"methodIdentifiers": {
			"fight(uint256,uint256)": "ca39e5ef",
			"setOctagon(address)": "fdfd8058"
		}
	},
	"abi": [
		{
			"inputs": [
				{
					"internalType": "contract IBillionaireDojo",
					"name": "_dojo",
					"type": "address"
				}
			],
			"stateMutability": "nonpayable",
			"type": "constructor"
		},
		{
			"inputs": [
				{
					"internalType": "uint256",
					"name": "player1",
					"type": "uint256"
				},
				{
					"internalType": "uint256",
					"name": "player2",
					"type": "uint256"
				}
			],
			"name": "fight",
			"outputs": [
				{
					"internalType": "uint256",
					"name": "winner",
					"type": "uint256"
				}
			],
			"stateMutability": "view",
			"type": "function"
		},
		{
			"inputs": [
				{
					"internalType": "contract IOctagon",
					"name": "_octagon",
					"type": "address"
				}
			],
			"name": "setOctagon",
			"outputs": [],
			"stateMutability": "nonpayable",
			"type": "function"
		}
	]
}