{
	"data": {
		"bytecode": {
			"linkReferences": {},
			"object": "60c06040526003805460ff191660011790553480156200001d575f80fd5b5060405162003230380380620032308339810160408190526200004091620002a8565b33806200006657604051631e4fbdf760e01b81525f600482015260240160405180910390fd5b620000718162000241565b50600180805560408051606080820183526101f482526107d060208084019182526103e88486019081525f808052600480845295517f17ef568e3e12ab5b9c7254a8d58478811de00f9e6eb34345acd53bf8fd09d3ec5592517f17ef568e3e12ab5b9c7254a8d58478811de00f9e6eb34345acd53bf8fd09d3ed55517f17ef568e3e12ab5b9c7254a8d58478811de00f9e6eb34345acd53bf8fd09d3ee558451808401865261012c80825261025882840190815282880182815298855286845291517fabd6e7cb50984ff9c2f3e18a2660c3353dadf4e3291deeb275dae2cd1e44fe055590517fabd6e7cb50984ff9c2f3e18a2660c3353dadf4e3291deeb275dae2cd1e44fe065595517fabd6e7cb50984ff9c2f3e18a2660c3353dadf4e3291deeb275dae2cd1e44fe075584519283018552609683528281019586526064948301948552600290915291909152517f91da3fd0782e51c6b3986e9e672fd566868e71f3dbc2d6c2cd6fbb3e361af2a75590517f91da3fd0782e51c6b3986e9e672fd566868e71f3dbc2d6c2cd6fbb3e361af2a855517f91da3fd0782e51c6b3986e9e672fd566868e71f3dbc2d6c2cd6fbb3e361af2a9556001600160a01b039182166080521660a052620002e5565b5f80546001600160a01b038381166001600160a01b0319831681178455604051919092169283917f8be0079c531659141344cd1fd0a4f28419497f9722a3daafe3b4186f6b6457e09190a35050565b6001600160a01b0381168114620002a5575f80fd5b50565b5f8060408385031215620002ba575f80fd5b8251620002c78162000290565b6020840151909250620002da8162000290565b809150509250929050565b60805160a051612eb9620003775f395f61189b01525f8181610563015281816106710152818161077d0152818161097c01528181610a8f01528181610b9c01528181610d2701528181610f1e0152818161102a0152818161121101528181611482015281816115b8015281816119e601528181611a7501528181611aeb01528181611dc50152611efb0152612eb95ff3fe608060405234801561000f575f80fd5b50600436106101c6575f3560e01c80638c7a63ae116100fe578063c76a08221161009e578063e12dd5441161006e578063e12dd54414610475578063e5cc570414610495578063f2fde38b146104de578063fcec8148146104f1575f80fd5b8063c76a082214610418578063c94f598b1461042b578063da891df11461044f578063e0200a8a14610462575f80fd5b80639797e00b116100d95780639797e00b146103cd5780639fffc3dd146103e2578063b1cb857814610402578063b9df2d221461040b575f80fd5b80638c7a63ae1461038b5780638da5cb5b146103ab5780639794cbac146103c5575f80fd5b80635b7b2a6c116101695780636e37da1b116101445780636e37da1b1461033e5780636ed8a31214610373578063715018a61461037b578063795da71d14610383575f80fd5b80635b7b2a6c146102c05780636369dba9146102d357806365a27cfa146102e6575f80fd5b80633e7373e1116101a45780633e7373e11461026457806343e1cfaf1461027a5780634a73313a1461029a5780634f15a6a6146102ad575f80fd5b806309a3dbb7146101ca57806328775a911461021d5780633ba8ff3014610232575b5f80fd5b6101fb6101d836600461290c565b600a6020525f908152604090208054600182015460029092015490919060ff1683565b6040805193845260208401929092521515908201526060015b60405180910390f35b61023061022b36600461290c565b61053b565b005b61025461024036600461290c565b60096020525f908152604090205460ff1681565b6040519015158152602001610214565b61026c600181565b604051908152602001610214565b61028d61028836600461290c565b610883565b6040516102149190612923565b61026c6102a8366004612965565b6108e3565b6102306102bb36600461290c565b610954565b6102306102ce36600461290c565b610b74565b61026c6102e136600461290c565b610dde565b61032c6102f436600461290c565b60076020525f908152604090208054600182015460028301546003840154600485015460059095015493949293919260ff9091169186565b604051610214969594939291906129c2565b61035161034c3660046129f8565b610dfd565b6040805182518152602080840151908201529181015190820152606001610214565b60085461026c565b610230610e80565b610230610e93565b61039e61039936600461290c565b6111ce565b6040516102149190612a41565b5f546040516001600160a01b039091168152602001610214565b61026c600a81565b6103d5611332565b6040516102149190612aa0565b6103f56103f036600461290c565b611393565b6040516102149190612ac2565b61026c600b5481565b6003546102549060ff1681565b61026c610426366004612ad0565b611424565b600c546104419060ff8082169161010090041682565b604051610214929190612b0c565b61023061045d366004612b29565b61145a565b610230610470366004612b66565b611d9d565b61048861048336600461290c565b612214565b6040516102149190612b9d565b6104c36104a33660046129f8565b60046020525f908152604090208054600182015460029092015490919083565b60408051938452602084019290925290820152606001610214565b6102306104ec366004612bfd565b6122d5565b61052b6104ff36600461290c565b60066020525f908152604090208054600182015460029092015460ff8083169361010090930416919084565b6040516102149493929190612c18565b61054361230f565b6040516331a9108f60e11b81526004810182905233906001600160a01b037f00000000000000000000000000000000000000000000000000000000000000001690636352211e90602401602060405180830381865afa1580156105a8573d5f803e3d5ffd5b505050506040513d601f19601f820116820180604052508101906105cc9190612c44565b6001600160a01b0316146105fb5760405162461bcd60e51b81526004016105f290612c5f565b60405180910390fd5b5f8181526009602052604090205460ff16156106595760405162461bcd60e51b815260206004820152601e60248201527f506c617965722069732063757272656e746c7920696e2061206669676874000060448201526064016105f2565b604051631760945960e01b8152600481018290525f907f00000000000000000000000000000000000000000000000000000000000000006001600160a01b03169063176094599060240160e060405180830381865afa1580156106be573d5f803e3d5ffd5b505050506040513d601f19601f820116820180604052508101906106e29190612c9f565b60025f5260046020527f91da3fd0782e51c6b3986e9e672fd566868e71f3dbc2d6c2cd6fbb3e361af2a75460c0820151919250116107625760405162461bcd60e51b815260206004820152601f60248201527f506c61796572207374696c6c2068617320656e6f7567682062616c616e63650060448201526064016105f2565b8051604051634b05340960e01b81525f916001600160a01b037f00000000000000000000000000000000000000000000000000000000000000001691634b053409916107b091600401612d32565b602060405180830381865afa1580156107cb573d5f803e3d5ffd5b505050506040513d601f19601f820116820180604052508101906107ef9190612d40565b1161082f5760405162461bcd60e51b815260206004820152601060248201526f151a1a5cc81d19585b481a5cc81bdd5d60821b60448201526064016105f2565b506040805160608101825282815242602080830191825260018385018181525f878152600a909352949091209251835590518282015591516002909101805460ff1916911515919091179055805550565b50565b6108a660405180606001604052805f81526020015f81526020015f151581525090565b505f908152600a60209081526040918290208251606081018452815481526001820154928101929092526002015460ff1615159181019190915290565b5f60055f8460028111156108f9576108f961299a565b600281111561090a5761090a61299a565b81526020019081526020015f205f83600581111561092a5761092a61299a565b600581111561093b5761093b61299a565b815260208101919091526040015f205490505b92915050565b61095c61230f565b6040516331a9108f60e11b81526004810182905233906001600160a01b037f00000000000000000000000000000000000000000000000000000000000000001690636352211e90602401602060405180830381865afa1580156109c1573d5f803e3d5ffd5b505050506040513d601f19601f820116820180604052508101906109e59190612c44565b6001600160a01b031614610a0b5760405162461bcd60e51b81526004016105f290612c5f565b5f8181526009602052604090205460ff161515600114610a775760405162461bcd60e51b815260206004820152602160248201527f546f6b656e2069732063757272656e746c79206e6f7420696e206f637461676f6044820152603760f91b60648201526084016105f2565b604051631760945960e01b8152600481018290525f907f00000000000000000000000000000000000000000000000000000000000000006001600160a01b03169063176094599060240160e060405180830381865afa158015610adc573d5f803e3d5ffd5b505050506040513d601f19601f82011682018060405250810190610b009190612c9f565b9050610b0f82825f015161233f565b5f828152600960205260408120805460ff19169055600b805491610b3283612d6b565b90915550506040518281527f6af77fcc0cafd8038a82931e7969c5cdcb89e1cb346f4008baafdbd4bf4158019060200160405180910390a15061088060018055565b610b7c61230f565b6040516331a9108f60e11b81526004810182905233906001600160a01b037f00000000000000000000000000000000000000000000000000000000000000001690636352211e90602401602060405180830381865afa158015610be1573d5f803e3d5ffd5b505050506040513d601f19601f82011682018060405250810190610c059190612c44565b6001600160a01b031614610c2b5760405162461bcd60e51b81526004016105f290612c5f565b5f818152600a60209081526040918290208251606081018452815481526001820154928101929092526002015460ff16151591810182905290610cb05760405162461bcd60e51b815260206004820152601860248201527f506c61796572206973206e6f74207265636f766572696e67000000000000000060448201526064016105f2565b602081015142905f610cdf600a610cd9670de0b6b3a7640000610cd387876127a3565b906127b5565b906127c0565b90505f610cf9670de0b6b3a7640000610cd98460016127b5565b90506103e8811115610d0a57506103e85b604051636ce7f91960e11b815260048101879052602481018290527f00000000000000000000000000000000000000000000000000000000000000006001600160a01b03169063d9cff232906044015f604051808303815f87803b158015610d70575f80fd5b505af1158015610d82573d5f803e3d5ffd5b5050604080516060810182525f80825260208083018281528385018381528d8452600a90925293909120915182559151600182015590516002909101805460ff1916911515919091179055506108809550612339945050505050565b60088181548110610ded575f80fd5b5f91825260209091200154905081565b610e1e60405180606001604052805f81526020015f81526020015f81525090565b60045f836002811115610e3357610e3361299a565b6002811115610e4457610e4461299a565b81526020019081526020015f206040518060600160405290815f8201548152602001600182015481526020016002820154815250509050919050565b610e886127cb565b610e915f6127f7565b565b60035460ff16610edb5760405162461bcd60e51b815260206004820152601360248201527247616d65206973206e6f742072756e6e696e6760681b60448201526064016105f2565b6040805160c0810182525f808252600160208301526002928201929092526003606082015260046080820152600560a08201529080805b6006811015611155575f7f00000000000000000000000000000000000000000000000000000000000000006001600160a01b03166394a02353868460068110610f5d57610f5d612d80565b60200201516040518263ffffffff1660e01b8152600401610f7e9190612d32565b602060405180830381865afa158015610f99573d5f803e3d5ffd5b505050506040513d601f19601f82011682018060405250810190610fbd9190612d40565b116110275760405162461bcd60e51b815260206004820152603460248201527f4174206c65617374206f6e6520746f6b656e2068617320746f206265206d696e60448201527374656420696e20656163682063617465676f727960601b60648201526084016105f2565b5f7f00000000000000000000000000000000000000000000000000000000000000006001600160a01b0316634b05340986846006811061106957611069612d80565b60200201516040518263ffffffff1660e01b815260040161108a9190612d32565b602060405180830381865afa1580156110a5573d5f803e3d5ffd5b505050506040513d601f19601f820116820180604052508101906110c99190612d40565b905082158015906110d957508015155b1561111d5760405162461bcd60e51b815260206004820152601460248201527311d85b59481a5cc81b9bdd081bdd995c881e595d60621b60448201526064016105f2565b8215801561112a57508015155b1561114c5784826006811061114157611141612d80565b602002015193508092505b50600101610f12565b506003805460ff19169055604080518082019091528083600581111561117d5761117d61299a565b8152600160209091018190528151600c80549092839160ff1916908360058111156111aa576111aa61299a565b02179055506020919091015181549015156101000261ff0019909116179055505050565b6111d66128a7565b604080516080810182525f84815260096020908152908390205460ff16151582529151631e01043960e01b81526004810185905290918201907f00000000000000000000000000000000000000000000000000000000000000006001600160a01b031690631e01043990602401602060405180830381865afa15801561125e573d5f803e3d5ffd5b505050506040513d601f19601f820116820180604052508101906112829190612d40565b81525f848152600a6020908152604080832081516060810183528154815260018201548185015260029182015460ff90811615158285015284870191909152888552600690935292819020815160808101835281549290950194939092849216908111156112f2576112f261299a565b60028111156113035761130361299a565b81528154610100900460ff16602082015260018201546040820152600290910154606090910152905292915050565b604080518082019091525f808252602082015260408051808201909152600c8054829060ff1660058111156113695761136961299a565b600581111561137a5761137a61299a565b81529054610100900460ff161515602090910152919050565b604080516080810182525f8082526020820181905291810182905260608101919091525f82815260066020526040908190208151608081019092528054829060ff1660028111156113e6576113e661299a565b60028111156113f7576113f761299a565b81528154610100900460ff1660208201526001820154604082015260029091015460609091015292915050565b6005602052825f5260405f20602052815f5260405f208181548110611447575f80fd5b905f5260205f20015f9250925050505481565b61146261230f565b6040516331a9108f60e11b81526004810184905233906001600160a01b037f00000000000000000000000000000000000000000000000000000000000000001690636352211e90602401602060405180830381865afa1580156114c7573d5f803e3d5ffd5b505050506040513d601f19601f820116820180604052508101906114eb9190612c44565b6001600160a01b0316146115115760405162461bcd60e51b81526004016105f290612c5f565b5f8381526009602052604090205460ff161561153f5760405162461bcd60e51b81526004016105f290612d94565b5f838152600a602052604090206002015460ff16156115a05760405162461bcd60e51b815260206004820152601e60248201527f506c617965722069732063757272656e746c79207265636f766572696e67000060448201526064016105f2565b604051631760945960e01b8152600481018490525f907f00000000000000000000000000000000000000000000000000000000000000006001600160a01b03169063176094599060240160e060405180830381865afa158015611605573d5f803e3d5ffd5b505050506040513d601f19601f820116820180604052508101906116299190612c9f565b905060045f8460028111156116405761164061299a565b60028111156116515761165161299a565b81526020019081526020015f205f01548160c0015110156116b45760405162461bcd60e51b815260206004820152601c60248201527f4e6f7420656e6f7567682062616c616e636520666f72206c6576656c0000000060448201526064016105f2565b8160058111156116c6576116c661299a565b815160058111156116d9576116d961299a565b036117265760405162461bcd60e51b815260206004820152601960248201527f43616e277420666967687420796f7572206f776e207465616d0000000000000060448201526064016105f2565b5f60055f85600281111561173c5761173c61299a565b600281111561174d5761174d61299a565b81526020019081526020015f205f84600581111561176d5761176d61299a565b600581111561177e5761177e61299a565b815260208101919091526040015f20549050806117ef5760405162461bcd60e51b815260206004820152602960248201527f4e6f2066696768746572732066726f6d2074686174207465616d20696e207468604482015268329037b1ba30b3b7b760b91b60648201526084016105f2565b5f6117f982612846565b90505f60055f8760028111156118115761181161299a565b60028111156118225761182261299a565b81526020019081526020015f205f8660058111156118425761184261299a565b60058111156118535761185361299a565b81526020019081526020015f20828154811061187157611871612d80565b5f91825260208220015460405163ca39e5ef60e01b8152600481018a9052602481018290529092507f00000000000000000000000000000000000000000000000000000000000000006001600160a01b03169063ca39e5ef90604401602060405180830381865afa1580156118e8573d5f803e3d5ffd5b505050506040513d601f19601f8201168201806040525081019061190c9190612d40565b60408051602081018b9052908101849052426060820152608081018290529091505f9060a0016040516020818303038152906040528051906020012090505f6040518060c001604052808381526020018b81526020018581526020018a600281111561197a5761197a61299a565b815242602082015260400184905290505f6004818b60028111156119a0576119a061299a565b60028111156119b1576119b161299a565b815260208101919091526040015f205490508315611baf57604051636ce7f91960e11b815260048101859052602481018290527f00000000000000000000000000000000000000000000000000000000000000006001600160a01b03169063d9cff232906044015f604051808303815f87803b158015611a2f575f80fd5b505af1158015611a41573d5f803e3d5ffd5b505050505f8b8514611a53578b611a55565b855b60405163c635a78960e01b815260048101829052602481018490529091507f00000000000000000000000000000000000000000000000000000000000000006001600160a01b03169063c635a789906044015f604051808303815f87803b158015611abe575f80fd5b505af1158015611ad0573d5f803e3d5ffd5b5050604051631760945960e01b8152600481018490525f92507f00000000000000000000000000000000000000000000000000000000000000006001600160a01b0316915063176094599060240160e060405180830381865afa158015611b39573d5f803e3d5ffd5b505050506040513d601f19601f82011682018060405250810190611b5d9190612c9f565b90508682148015611b715750828160c00151105b15611bac57611b8382825f015161233f565b5f828152600960205260408120805460ff19169055600b805491611ba683612d6b565b91905055505b50505b5f858152600660205260408082208151608081019092528054829060ff166002811115611bde57611bde61299a565b6002811115611bef57611bef61299a565b8152815460ff610100909104811660208084019190915260018401546040808501919091526002909401546060909301929092525f8a8152600990925291902054919250168015611cbd57816020015160ff16600103611c8057611c53878c61233f565b5f878152600960205260408120805460ff19169055600b805491611c7683612d6b565b9190505550611cbd565b5f8781526006602052604090208054610100900460ff16906001611ca383612dd8565b91906101000a81548160ff021916908360ff160217905550505b8360075f8781526020019081526020015f205f820151815f015560208201518160010155604082015181600201556060820151816003015f6101000a81548160ff02191690836002811115611d1457611d1461299a565b02179055506080820151816004015560a08201518160050155905050600885908060018154018082558091505060019003905f5260205f20015f909190919091505585878e7f999413205bde6bbf373c9ce730c0172c29849910d85128f67b53aea3ab18d76a60405160405180910390a450505050505050505050611d9860018055565b505050565b611da561230f565b6040516331a9108f60e11b81526004810184905233906001600160a01b037f00000000000000000000000000000000000000000000000000000000000000001690636352211e90602401602060405180830381865afa158015611e0a573d5f803e3d5ffd5b505050506040513d601f19601f82011682018060405250810190611e2e9190612c44565b6001600160a01b031614611e545760405162461bcd60e51b81526004016105f290612c5f565b5f8381526009602052604090205460ff1615611e825760405162461bcd60e51b81526004016105f290612d94565b5f838152600a602052604090206002015460ff1615611ee35760405162461bcd60e51b815260206004820152601b60248201527f506c617965722069732063757272656e746c792072657374696e67000000000060448201526064016105f2565b604051631760945960e01b8152600481018490525f907f00000000000000000000000000000000000000000000000000000000000000006001600160a01b03169063176094599060240160e060405180830381865afa158015611f48573d5f803e3d5ffd5b505050506040513d601f19601f82011682018060405250810190611f6c9190612c9f565b905060045f846002811115611f8357611f8361299a565b6002811115611f9457611f9461299a565b81526020019081526020015f205f01548160c0015110156120105760405162461bcd60e51b815260206004820152603060248201527f596f7520646f6e2774206861766520656e6f7567682062616c616e63652e205460448201526f7279207265636f76657279207a6f6e6560801b60648201526084016105f2565b5f60055f8560028111156120265761202661299a565b60028111156120375761203761299a565b81526020019081526020015f205f835f0151600581111561205a5761205a61299a565b600581111561206b5761206b61299a565b81526020019081526020015f208054905090505f604051806080016040528086600281111561209c5761209c61299a565b81526020018560ff16815260200187815260200183815250905060055f8660028111156120cb576120cb61299a565b60028111156120dc576120dc61299a565b81526020019081526020015f205f845f015160058111156120ff576120ff61299a565b60058111156121105761211061299a565b815260208082019290925260409081015f908120805460018181018355918352848320018a9055898252600690935220825181548493839160ff19169083600281111561215f5761215f61299a565b0217905550602082810151825460ff9091166101000261ff00199091161782556040808401516001808501919091556060909401516002909301929092555f8981526009909152908120805460ff1916909217909155600b8054916121c383612df3565b91905055508360ff168560028111156121de576121de61299a565b60405188907fc96fb86481bf31be9095bfb61554742f7609207e464d61452950387b7fe6607a905f90a4505050611d9860018055565b61224a6040805160c0810182525f8082526020820181905291810182905290606082019081526020015f81526020015f81525090565b60075f8381526020019081526020015f206040518060c00160405290815f82015481526020016001820154815260200160028201548152602001600382015f9054906101000a900460ff1660028111156122a6576122a661299a565b60028111156122b7576122b761299a565b81526004820154602082015260059091015460409091015292915050565b6122dd6127cb565b6001600160a01b03811661230657604051631e4fbdf760e01b81525f60048201526024016105f2565b610880816127f7565b60026001540361233257604051633ee5aeb560e01b815260040160405180910390fd5b6002600155565b60018055565b5f828152600660205260408082208151608081019092528054829060ff16600281111561236e5761236e61299a565b600281111561237f5761237f61299a565b81528154610100900460ff1660208201526001820154604082015260029182015460609091015281519192505f916005918391908111156123c2576123c261299a565b60028111156123d3576123d361299a565b81526020019081526020015f205f8460058111156123f3576123f361299a565b60058111156124045761240461299a565b815260208101919091526040015f20549050612421600182612e0b565b82606001510361254d5760055f835f015160028111156124435761244361299a565b60028111156124545761245461299a565b81526020019081526020015f205f8460058111156124745761247461299a565b60058111156124855761248561299a565b81526020019081526020015f208054806124a1576124a1612e1e565b600190038181905f5260205f20015f9055905560405180608001604052805f60028111156124d1576124d161299a565b81525f602080830182905260408084018390526060909301829052878252600690522081518154829060ff191660018360028111156125125761251261299a565b02179055506020820151815460ff9091166101000261ff00199091161781556040820151600182015560609091015160029091015550505050565b5f60055f845f015160028111156125665761256661299a565b60028111156125775761257761299a565b81526020019081526020015f205f8560058111156125975761259761299a565b60058111156125a8576125a861299a565b81526020019081526020015f206001836125c29190612e0b565b815481106125d2576125d2612d80565b905f5260205f20015490508060055f855f015160028111156125f6576125f661299a565b60028111156126075761260761299a565b81526020019081526020015f205f8660058111156126275761262761299a565b60058111156126385761263861299a565b81526020019081526020015f2084606001518154811061265a5761265a612d80565b5f918252602080832090910192909255606085015183825260069092526040812060029081019290925584516005928111156126985761269861299a565b60028111156126a9576126a961299a565b81526020019081526020015f205f8560058111156126c9576126c961299a565b60058111156126da576126da61299a565b81526020019081526020015f208054806126f6576126f6612e1e565b600190038181905f5260205f20015f9055905560405180608001604052805f60028111156127265761272661299a565b81525f602080830182905260408084018390526060909301829052888252600690522081518154829060ff191660018360028111156127675761276761299a565b02179055506020820151815460ff9091166101000261ff0019909116178155604082015160018201556060909101516002909101555050505050565b5f6127ae8284612e0b565b9392505050565b5f6127ae8284612e32565b5f6127ae8284612e5d565b5f546001600160a01b03163314610e915760405163118cdaa760e01b81523360048201526024016105f2565b5f80546001600160a01b038381166001600160a01b0319831681178455604051919092169283917f8be0079c531659141344cd1fd0a4f28419497f9722a3daafe3b4186f6b6457e09190a35050565b600280545f918261285683612df3565b909155505f9050612868600143612e0b565b60025460408051924060208401524290830152606082015260800160408051601f19818403018152919052805160209091012090506127ae8382612e70565b60405180608001604052805f151581526020015f81526020016128e360405180606001604052805f81526020015f81526020015f151581525090565b8152604080516080810182525f8082526020828101829052928201819052606082015291015290565b5f6020828403121561291c575f80fd5b5035919050565b81518152602080830151908201526040808301511515908201526060810161094e565b803560038110612954575f80fd5b919050565b60068110610880575f80fd5b5f8060408385031215612976575f80fd5b61297f83612946565b9150602083013561298f81612959565b809150509250929050565b634e487b7160e01b5f52602160045260245ffd5b600381106129be576129be61299a565b9052565b868152602081018690526040810185905260c081016129e460608301866129ae565b608082019390935260a00152949350505050565b5f60208284031215612a08575f80fd5b6127ae82612946565b612a1c8282516129ae565b60ff602082015116602083015260408101516040830152606081015160608301525050565b8151151581526020808301518183015260408084015180518285015291820151606084015281015115156080830152610120820190506060830151612a8960a0840182612a11565b5092915050565b600681106129be576129be61299a565b5f604082019050612ab2828451612a90565b6020928301511515919092015290565b6080810161094e8284612a11565b5f805f60608486031215612ae2575f80fd5b612aeb84612946565b92506020840135612afb81612959565b929592945050506040919091013590565b60408101612b1a8285612a90565b82151560208301529392505050565b5f805f60608486031215612b3b575f80fd5b83359250612b4b60208501612946565b91506040840135612b5b81612959565b809150509250925092565b5f805f60608486031215612b78575f80fd5b83359250612b8860208501612946565b9150604084013560ff81168114612b5b575f80fd5b5f60c0820190508251825260208301516020830152604083015160408301526060830151612bce60608401826129ae565b506080830151608083015260a083015160a083015292915050565b6001600160a01b0381168114610880575f80fd5b5f60208284031215612c0d575f80fd5b81356127ae81612be9565b60808101612c2682876129ae565b60ff8516602083015283604083015282606083015295945050505050565b5f60208284031215612c54575f80fd5b81516127ae81612be9565b6020808252818101527f546f6b656e206973206e6f74206f776e6564206279206d73672e73656e646572604082015260600190565b805161295481612959565b5f60e08284031215612caf575f80fd5b60405160e0810181811067ffffffffffffffff82111715612cde57634e487b7160e01b5f52604160045260245ffd5b604052612cea83612c94565b81526020830151602082015260408301516040820152606083015160608201526080830151608082015260a083015160a082015260c083015160c08201528091505092915050565b6020810161094e8284612a90565b5f60208284031215612d50575f80fd5b5051919050565b634e487b7160e01b5f52601160045260245ffd5b5f81612d7957612d79612d57565b505f190190565b634e487b7160e01b5f52603260045260245ffd5b60208082526024908201527f506c617965722069732063757272656e746c7920696e20616e6f7468657220666040820152631a59da1d60e21b606082015260800190565b5f60ff821680612dea57612dea612d57565b5f190192915050565b5f60018201612e0457612e04612d57565b5060010190565b8181038181111561094e5761094e612d57565b634e487b7160e01b5f52603160045260245ffd5b808202811582820484141761094e5761094e612d57565b634e487b7160e01b5f52601260045260245ffd5b5f82612e6b57612e6b612e49565b500490565b5f82612e7e57612e7e612e49565b50069056fea2646970667358221220dbbc4b5333dc079bb7fc0a77a6c1f52bfbb99f1a9f6348a0bd921b91a1927fc064736f6c63430008160033",
			"opcodes": "PUSH1 0xC0 PUSH1 0x40 MSTORE PUSH1 0x3 DUP1 SLOAD PUSH1 0xFF NOT AND PUSH1 0x1 OR SWAP1 SSTORE CALLVALUE DUP1 ISZERO PUSH3 0x1D JUMPI PUSH0 DUP1 REVERT JUMPDEST POP PUSH1 0x40 MLOAD PUSH3 0x3230 CODESIZE SUB DUP1 PUSH3 0x3230 DUP4 CODECOPY DUP2 ADD PUSH1 0x40 DUP2 SWAP1 MSTORE PUSH3 0x40 SWAP2 PUSH3 0x2A8 JUMP JUMPDEST CALLER DUP1 PUSH3 0x66 JUMPI PUSH1 0x40 MLOAD PUSH4 0x1E4FBDF7 PUSH1 0xE0 SHL DUP2 MSTORE PUSH0 PUSH1 0x4 DUP3 ADD MSTORE PUSH1 0x24 ADD PUSH1 0x40 MLOAD DUP1 SWAP2 SUB SWAP1 REVERT JUMPDEST PUSH3 0x71 DUP2 PUSH3 0x241 JUMP JUMPDEST POP PUSH1 0x1 DUP1 DUP1 SSTORE PUSH1 0x40 DUP1 MLOAD PUSH1 0x60 DUP1 DUP3 ADD DUP4 MSTORE PUSH2 0x1F4 DUP3 MSTORE PUSH2 0x7D0 PUSH1 0x20 DUP1 DUP5 ADD SWAP2 DUP3 MSTORE PUSH2 0x3E8 DUP5 DUP7 ADD SWAP1 DUP2 MSTORE PUSH0 DUP1 DUP1 MSTORE PUSH1 0x4 DUP1 DUP5 MSTORE SWAP6 MLOAD PUSH32 0x17EF568E3E12AB5B9C7254A8D58478811DE00F9E6EB34345ACD53BF8FD09D3EC SSTORE SWAP3 MLOAD PUSH32 0x17EF568E3E12AB5B9C7254A8D58478811DE00F9E6EB34345ACD53BF8FD09D3ED SSTORE MLOAD PUSH32 0x17EF568E3E12AB5B9C7254A8D58478811DE00F9E6EB34345ACD53BF8FD09D3EE SSTORE DUP5 MLOAD DUP1 DUP5 ADD DUP7 MSTORE PUSH2 0x12C DUP1 DUP3 MSTORE PUSH2 0x258 DUP3 DUP5 ADD SWAP1 DUP2 MSTORE DUP3 DUP9 ADD DUP3 DUP2 MSTORE SWAP9 DUP6 MSTORE DUP7 DUP5 MSTORE SWAP2 MLOAD PUSH32 0xABD6E7CB50984FF9C2F3E18A2660C3353DADF4E3291DEEB275DAE2CD1E44FE05 SSTORE SWAP1 MLOAD PUSH32 0xABD6E7CB50984FF9C2F3E18A2660C3353DADF4E3291DEEB275DAE2CD1E44FE06 SSTORE SWAP6 MLOAD PUSH32 0xABD6E7CB50984FF9C2F3E18A2660C3353DADF4E3291DEEB275DAE2CD1E44FE07 SSTORE DUP5 MLOAD SWAP3 DUP4 ADD DUP6 MSTORE PUSH1 0x96 DUP4 MSTORE DUP3 DUP2 ADD SWAP6 DUP7 MSTORE PUSH1 0x64 SWAP5 DUP4 ADD SWAP5 DUP6 MSTORE PUSH1 0x2 SWAP1 SWAP2 MSTORE SWAP2 SWAP1 SWAP2 MSTORE MLOAD PUSH32 0x91DA3FD0782E51C6B3986E9E672FD566868E71F3DBC2D6C2CD6FBB3E361AF2A7 SSTORE SWAP1 MLOAD PUSH32 0x91DA3FD0782E51C6B3986E9E672FD566868E71F3DBC2D6C2CD6FBB3E361AF2A8 SSTORE MLOAD PUSH32 0x91DA3FD0782E51C6B3986E9E672FD566868E71F3DBC2D6C2CD6FBB3E361AF2A9 SSTORE PUSH1 0x1 PUSH1 0x1 PUSH1 0xA0 SHL SUB SWAP2 DUP3 AND PUSH1 0x80 MSTORE AND PUSH1 0xA0 MSTORE PUSH3 0x2E5 JUMP JUMPDEST PUSH0 DUP1 SLOAD PUSH1 0x1 PUSH1 0x1 PUSH1 0xA0 SHL SUB DUP4 DUP2 AND PUSH1 0x1 PUSH1 0x1 PUSH1 0xA0 SHL SUB NOT DUP4 AND DUP2 OR DUP5 SSTORE PUSH1 0x40 MLOAD SWAP2 SWAP1 SWAP3 AND SWAP3 DUP4 SWAP2 PUSH32 0x8BE0079C531659141344CD1FD0A4F28419497F9722A3DAAFE3B4186F6B6457E0 SWAP2 SWAP1 LOG3 POP POP JUMP JUMPDEST PUSH1 0x1 PUSH1 0x1 PUSH1 0xA0 SHL SUB DUP2 AND DUP2 EQ PUSH3 0x2A5 JUMPI PUSH0 DUP1 REVERT JUMPDEST POP JUMP JUMPDEST PUSH0 DUP1 PUSH1 0x40 DUP4 DUP6 SUB SLT ISZERO PUSH3 0x2BA JUMPI PUSH0 DUP1 REVERT JUMPDEST DUP3 MLOAD PUSH3 0x2C7 DUP2 PUSH3 0x290 JUMP JUMPDEST PUSH1 0x20 DUP5 ADD MLOAD SWAP1 SWAP3 POP PUSH3 0x2DA DUP2 PUSH3 0x290 JUMP JUMPDEST DUP1 SWAP2 POP POP SWAP3 POP SWAP3 SWAP1 POP JUMP JUMPDEST PUSH1 0x80 MLOAD PUSH1 0xA0 MLOAD PUSH2 0x2EB9 PUSH3 0x377 PUSH0 CODECOPY PUSH0 PUSH2 0x189B ADD MSTORE PUSH0 DUP2 DUP2 PUSH2 0x563 ADD MSTORE DUP2 DUP2 PUSH2 0x671 ADD MSTORE DUP2 DUP2 PUSH2 0x77D ADD MSTORE DUP2 DUP2 PUSH2 0x97C ADD MSTORE DUP2 DUP2 PUSH2 0xA8F ADD MSTORE DUP2 DUP2 PUSH2 0xB9C ADD MSTORE DUP2 DUP2 PUSH2 0xD27 ADD MSTORE DUP2 DUP2 PUSH2 0xF1E ADD MSTORE DUP2 DUP2 PUSH2 0x102A ADD MSTORE DUP2 DUP2 PUSH2 0x1211 ADD MSTORE DUP2 DUP2 PUSH2 0x1482 ADD MSTORE DUP2 DUP2 PUSH2 0x15B8 ADD MSTORE DUP2 DUP2 PUSH2 0x19E6 ADD MSTORE DUP2 DUP2 PUSH2 0x1A75 ADD MSTORE DUP2 DUP2 PUSH2 0x1AEB ADD MSTORE DUP2 DUP2 PUSH2 0x1DC5 ADD MSTORE PUSH2 0x1EFB ADD MSTORE PUSH2 0x2EB9 PUSH0 RETURN INVALID PUSH1 0x80 PUSH1 0x40 MSTORE CALLVALUE DUP1 ISZERO PUSH2 0xF JUMPI PUSH0 DUP1 REVERT JUMPDEST POP PUSH1 0x4 CALLDATASIZE LT PUSH2 0x1C6 JUMPI PUSH0 CALLDATALOAD PUSH1 0xE0 SHR DUP1 PUSH4 0x8C7A63AE GT PUSH2 0xFE JUMPI DUP1 PUSH4 0xC76A0822 GT PUSH2 0x9E JUMPI DUP1 PUSH4 0xE12DD544 GT PUSH2 0x6E JUMPI DUP1 PUSH4 0xE12DD544 EQ PUSH2 0x475 JUMPI DUP1 PUSH4 0xE5CC5704 EQ PUSH2 0x495 JUMPI DUP1 PUSH4 0xF2FDE38B EQ PUSH2 0x4DE JUMPI DUP1 PUSH4 0xFCEC8148 EQ PUSH2 0x4F1 JUMPI PUSH0 DUP1 REVERT JUMPDEST DUP1 PUSH4 0xC76A0822 EQ PUSH2 0x418 JUMPI DUP1 PUSH4 0xC94F598B EQ PUSH2 0x42B JUMPI DUP1 PUSH4 0xDA891DF1 EQ PUSH2 0x44F JUMPI DUP1 PUSH4 0xE0200A8A EQ PUSH2 0x462 JUMPI PUSH0 DUP1 REVERT JUMPDEST DUP1 PUSH4 0x9797E00B GT PUSH2 0xD9 JUMPI DUP1 PUSH4 0x9797E00B EQ PUSH2 0x3CD JUMPI DUP1 PUSH4 0x9FFFC3DD EQ PUSH2 0x3E2 JUMPI DUP1 PUSH4 0xB1CB8578 EQ PUSH2 0x402 JUMPI DUP1 PUSH4 0xB9DF2D22 EQ PUSH2 0x40B JUMPI PUSH0 DUP1 REVERT JUMPDEST DUP1 PUSH4 0x8C7A63AE EQ PUSH2 0x38B JUMPI DUP1 PUSH4 0x8DA5CB5B EQ PUSH2 0x3AB JUMPI DUP1 PUSH4 0x9794CBAC EQ PUSH2 0x3C5 JUMPI PUSH0 DUP1 REVERT JUMPDEST DUP1 PUSH4 0x5B7B2A6C GT PUSH2 0x169 JUMPI DUP1 PUSH4 0x6E37DA1B GT PUSH2 0x144 JUMPI DUP1 PUSH4 0x6E37DA1B EQ PUSH2 0x33E JUMPI DUP1 PUSH4 0x6ED8A312 EQ PUSH2 0x373 JUMPI DUP1 PUSH4 0x715018A6 EQ PUSH2 0x37B JUMPI DUP1 PUSH4 0x795DA71D EQ PUSH2 0x383 JUMPI PUSH0 DUP1 REVERT JUMPDEST DUP1 PUSH4 0x5B7B2A6C EQ PUSH2 0x2C0 JUMPI DUP1 PUSH4 0x6369DBA9 EQ PUSH2 0x2D3 JUMPI DUP1 PUSH4 0x65A27CFA EQ PUSH2 0x2E6 JUMPI PUSH0 DUP1 REVERT JUMPDEST DUP1 PUSH4 0x3E7373E1 GT PUSH2 0x1A4 JUMPI DUP1 PUSH4 0x3E7373E1 EQ PUSH2 0x264 JUMPI DUP1 PUSH4 0x43E1CFAF EQ PUSH2 0x27A JUMPI DUP1 PUSH4 0x4A73313A EQ PUSH2 0x29A JUMPI DUP1 PUSH4 0x4F15A6A6 EQ PUSH2 0x2AD JUMPI PUSH0 DUP1 REVERT JUMPDEST DUP1 PUSH4 0x9A3DBB7 EQ PUSH2 0x1CA JUMPI DUP1 PUSH4 0x28775A91 EQ PUSH2 0x21D JUMPI DUP1 PUSH4 0x3BA8FF30 EQ PUSH2 0x232 JUMPI JUMPDEST PUSH0 DUP1 REVERT JUMPDEST PUSH2 0x1FB PUSH2 0x1D8 CALLDATASIZE PUSH1 0x4 PUSH2 0x290C JUMP JUMPDEST PUSH1 0xA PUSH1 0x20 MSTORE PUSH0 SWAP1 DUP2 MSTORE PUSH1 0x40 SWAP1 KECCAK256 DUP1 SLOAD PUSH1 0x1 DUP3 ADD SLOAD PUSH1 0x2 SWAP1 SWAP3 ADD SLOAD SWAP1 SWAP2 SWAP1 PUSH1 0xFF AND DUP4 JUMP JUMPDEST PUSH1 0x40 DUP1 MLOAD SWAP4 DUP5 MSTORE PUSH1 0x20 DUP5 ADD SWAP3 SWAP1 SWAP3 MSTORE ISZERO ISZERO SWAP1 DUP3 ADD MSTORE PUSH1 0x60 ADD JUMPDEST PUSH1 0x40 MLOAD DUP1 SWAP2 SUB SWAP1 RETURN JUMPDEST PUSH2 0x230 PUSH2 0x22B CALLDATASIZE PUSH1 0x4 PUSH2 0x290C JUMP JUMPDEST PUSH2 0x53B JUMP JUMPDEST STOP JUMPDEST PUSH2 0x254 PUSH2 0x240 CALLDATASIZE PUSH1 0x4 PUSH2 0x290C JUMP JUMPDEST PUSH1 0x9 PUSH1 0x20 MSTORE PUSH0 SWAP1 DUP2 MSTORE PUSH1 0x40 SWAP1 KECCAK256 SLOAD PUSH1 0xFF AND DUP2 JUMP JUMPDEST PUSH1 0x40 MLOAD SWAP1 ISZERO ISZERO DUP2 MSTORE PUSH1 0x20 ADD PUSH2 0x214 JUMP JUMPDEST PUSH2 0x26C PUSH1 0x1 DUP2 JUMP JUMPDEST PUSH1 0x40 MLOAD SWAP1 DUP2 MSTORE PUSH1 0x20 ADD PUSH2 0x214 JUMP JUMPDEST PUSH2 0x28D PUSH2 0x288 CALLDATASIZE PUSH1 0x4 PUSH2 0x290C JUMP JUMPDEST PUSH2 0x883 JUMP JUMPDEST PUSH1 0x40 MLOAD PUSH2 0x214 SWAP2 SWAP1 PUSH2 0x2923 JUMP JUMPDEST PUSH2 0x26C PUSH2 0x2A8 CALLDATASIZE PUSH1 0x4 PUSH2 0x2965 JUMP JUMPDEST PUSH2 0x8E3 JUMP JUMPDEST PUSH2 0x230 PUSH2 0x2BB CALLDATASIZE PUSH1 0x4 PUSH2 0x290C JUMP JUMPDEST PUSH2 0x954 JUMP JUMPDEST PUSH2 0x230 PUSH2 0x2CE CALLDATASIZE PUSH1 0x4 PUSH2 0x290C JUMP JUMPDEST PUSH2 0xB74 JUMP JUMPDEST PUSH2 0x26C PUSH2 0x2E1 CALLDATASIZE PUSH1 0x4 PUSH2 0x290C JUMP JUMPDEST PUSH2 0xDDE JUMP JUMPDEST PUSH2 0x32C PUSH2 0x2F4 CALLDATASIZE PUSH1 0x4 PUSH2 0x290C JUMP JUMPDEST PUSH1 0x7 PUSH1 0x20 MSTORE PUSH0 SWAP1 DUP2 MSTORE PUSH1 0x40 SWAP1 KECCAK256 DUP1 SLOAD PUSH1 0x1 DUP3 ADD SLOAD PUSH1 0x2 DUP4 ADD SLOAD PUSH1 0x3 DUP5 ADD SLOAD PUSH1 0x4 DUP6 ADD SLOAD PUSH1 0x5 SWAP1 SWAP6 ADD SLOAD SWAP4 SWAP5 SWAP3 SWAP4 SWAP2 SWAP3 PUSH1 0xFF SWAP1 SWAP2 AND SWAP2 DUP7 JUMP JUMPDEST PUSH1 0x40 MLOAD PUSH2 0x214 SWAP7 SWAP6 SWAP5 SWAP4 SWAP3 SWAP2 SWAP1 PUSH2 0x29C2 JUMP JUMPDEST PUSH2 0x351 PUSH2 0x34C CALLDATASIZE PUSH1 0x4 PUSH2 0x29F8 JUMP JUMPDEST PUSH2 0xDFD JUMP JUMPDEST PUSH1 0x40 DUP1 MLOAD DUP3 MLOAD DUP2 MSTORE PUSH1 0x20 DUP1 DUP5 ADD MLOAD SWAP1 DUP3 ADD MSTORE SWAP2 DUP2 ADD MLOAD SWAP1 DUP3 ADD MSTORE PUSH1 0x60 ADD PUSH2 0x214 JUMP JUMPDEST PUSH1 0x8 SLOAD PUSH2 0x26C JUMP JUMPDEST PUSH2 0x230 PUSH2 0xE80 JUMP JUMPDEST PUSH2 0x230 PUSH2 0xE93 JUMP JUMPDEST PUSH2 0x39E PUSH2 0x399 CALLDATASIZE PUSH1 0x4 PUSH2 0x290C JUMP JUMPDEST PUSH2 0x11CE JUMP JUMPDEST PUSH1 0x40 MLOAD PUSH2 0x214 SWAP2 SWAP1 PUSH2 0x2A41 JUMP JUMPDEST PUSH0 SLOAD PUSH1 0x40 MLOAD PUSH1 0x1 PUSH1 0x1 PUSH1 0xA0 SHL SUB SWAP1 SWAP2 AND DUP2 MSTORE PUSH1 0x20 ADD PUSH2 0x214 JUMP JUMPDEST PUSH2 0x26C PUSH1 0xA DUP2 JUMP JUMPDEST PUSH2 0x3D5 PUSH2 0x1332 JUMP JUMPDEST PUSH1 0x40 MLOAD PUSH2 0x214 SWAP2 SWAP1 PUSH2 0x2AA0 JUMP JUMPDEST PUSH2 0x3F5 PUSH2 0x3F0 CALLDATASIZE PUSH1 0x4 PUSH2 0x290C JUMP JUMPDEST PUSH2 0x1393 JUMP JUMPDEST PUSH1 0x40 MLOAD PUSH2 0x214 SWAP2 SWAP1 PUSH2 0x2AC2 JUMP JUMPDEST PUSH2 0x26C PUSH1 0xB SLOAD DUP2 JUMP JUMPDEST PUSH1 0x3 SLOAD PUSH2 0x254 SWAP1 PUSH1 0xFF AND DUP2 JUMP JUMPDEST PUSH2 0x26C PUSH2 0x426 CALLDATASIZE PUSH1 0x4 PUSH2 0x2AD0 JUMP JUMPDEST PUSH2 0x1424 JUMP JUMPDEST PUSH1 0xC SLOAD PUSH2 0x441 SWAP1 PUSH1 0xFF DUP1 DUP3 AND SWAP2 PUSH2 0x100 SWAP1 DIV AND DUP3 JUMP JUMPDEST PUSH1 0x40 MLOAD PUSH2 0x214 SWAP3 SWAP2 SWAP1 PUSH2 0x2B0C JUMP JUMPDEST PUSH2 0x230 PUSH2 0x45D CALLDATASIZE PUSH1 0x4 PUSH2 0x2B29 JUMP JUMPDEST PUSH2 0x145A JUMP JUMPDEST PUSH2 0x230 PUSH2 0x470 CALLDATASIZE PUSH1 0x4 PUSH2 0x2B66 JUMP JUMPDEST PUSH2 0x1D9D JUMP JUMPDEST PUSH2 0x488 PUSH2 0x483 CALLDATASIZE PUSH1 0x4 PUSH2 0x290C JUMP JUMPDEST PUSH2 0x2214 JUMP JUMPDEST PUSH1 0x40 MLOAD PUSH2 0x214 SWAP2 SWAP1 PUSH2 0x2B9D JUMP JUMPDEST PUSH2 0x4C3 PUSH2 0x4A3 CALLDATASIZE PUSH1 0x4 PUSH2 0x29F8 JUMP JUMPDEST PUSH1 0x4 PUSH1 0x20 MSTORE PUSH0 SWAP1 DUP2 MSTORE PUSH1 0x40 SWAP1 KECCAK256 DUP1 SLOAD PUSH1 0x1 DUP3 ADD SLOAD PUSH1 0x2 SWAP1 SWAP3 ADD SLOAD SWAP1 SWAP2 SWAP1 DUP4 JUMP JUMPDEST PUSH1 0x40 DUP1 MLOAD SWAP4 DUP5 MSTORE PUSH1 0x20 DUP5 ADD SWAP3 SWAP1 SWAP3 MSTORE SWAP1 DUP3 ADD MSTORE PUSH1 0x60 ADD PUSH2 0x214 JUMP JUMPDEST PUSH2 0x230 PUSH2 0x4EC CALLDATASIZE PUSH1 0x4 PUSH2 0x2BFD JUMP JUMPDEST PUSH2 0x22D5 JUMP JUMPDEST PUSH2 0x52B PUSH2 0x4FF CALLDATASIZE PUSH1 0x4 PUSH2 0x290C JUMP JUMPDEST PUSH1 0x6 PUSH1 0x20 MSTORE PUSH0 SWAP1 DUP2 MSTORE PUSH1 0x40 SWAP1 KECCAK256 DUP1 SLOAD PUSH1 0x1 DUP3 ADD SLOAD PUSH1 0x2 SWAP1 SWAP3 ADD SLOAD PUSH1 0xFF DUP1 DUP4 AND SWAP4 PUSH2 0x100 SWAP1 SWAP4 DIV AND SWAP2 SWAP1 DUP5 JUMP JUMPDEST PUSH1 0x40 MLOAD PUSH2 0x214 SWAP5 SWAP4 SWAP3 SWAP2 SWAP1 PUSH2 0x2C18 JUMP JUMPDEST PUSH2 0x543 PUSH2 0x230F JUMP JUMPDEST PUSH1 0x40 MLOAD PUSH4 0x31A9108F PUSH1 0xE1 SHL DUP2 MSTORE PUSH1 0x4 DUP2 ADD DUP3 SWAP1 MSTORE CALLER SWAP1 PUSH1 0x1 PUSH1 0x1 PUSH1 0xA0 SHL SUB PUSH32 0x0 AND SWAP1 PUSH4 0x6352211E SWAP1 PUSH1 0x24 ADD PUSH1 0x20 PUSH1 0x40 MLOAD DUP1 DUP4 SUB DUP2 DUP7 GAS STATICCALL ISZERO DUP1 ISZERO PUSH2 0x5A8 JUMPI RETURNDATASIZE PUSH0 DUP1 RETURNDATACOPY RETURNDATASIZE PUSH0 REVERT JUMPDEST POP POP POP POP PUSH1 0x40 MLOAD RETURNDATASIZE PUSH1 0x1F NOT PUSH1 0x1F DUP3 ADD AND DUP3 ADD DUP1 PUSH1 0x40 MSTORE POP DUP2 ADD SWAP1 PUSH2 0x5CC SWAP2 SWAP1 PUSH2 0x2C44 JUMP JUMPDEST PUSH1 0x1 PUSH1 0x1 PUSH1 0xA0 SHL SUB AND EQ PUSH2 0x5FB JUMPI PUSH1 0x40 MLOAD PUSH3 0x461BCD PUSH1 0xE5 SHL DUP2 MSTORE PUSH1 0x4 ADD PUSH2 0x5F2 SWAP1 PUSH2 0x2C5F JUMP JUMPDEST PUSH1 0x40 MLOAD DUP1 SWAP2 SUB SWAP1 REVERT JUMPDEST PUSH0 DUP2 DUP2 MSTORE PUSH1 0x9 PUSH1 0x20 MSTORE PUSH1 0x40 SWAP1 KECCAK256 SLOAD PUSH1 0xFF AND ISZERO PUSH2 0x659 JUMPI PUSH1 0x40 MLOAD PUSH3 0x461BCD PUSH1 0xE5 SHL DUP2 MSTORE PUSH1 0x20 PUSH1 0x4 DUP3 ADD MSTORE PUSH1 0x1E PUSH1 0x24 DUP3 ADD MSTORE PUSH32 0x506C617965722069732063757272656E746C7920696E20612066696768740000 PUSH1 0x44 DUP3 ADD MSTORE PUSH1 0x64 ADD PUSH2 0x5F2 JUMP JUMPDEST PUSH1 0x40 MLOAD PUSH4 0x17609459 PUSH1 0xE0 SHL DUP2 MSTORE PUSH1 0x4 DUP2 ADD DUP3 SWAP1 MSTORE PUSH0 SWAP1 PUSH32 0x0 PUSH1 0x1 PUSH1 0x1 PUSH1 0xA0 SHL SUB AND SWAP1 PUSH4 0x17609459 SWAP1 PUSH1 0x24 ADD PUSH1 0xE0 PUSH1 0x40 MLOAD DUP1 DUP4 SUB DUP2 DUP7 GAS STATICCALL ISZERO DUP1 ISZERO PUSH2 0x6BE JUMPI RETURNDATASIZE PUSH0 DUP1 RETURNDATACOPY RETURNDATASIZE PUSH0 REVERT JUMPDEST POP POP POP POP PUSH1 0x40 MLOAD RETURNDATASIZE PUSH1 0x1F NOT PUSH1 0x1F DUP3 ADD AND DUP3 ADD DUP1 PUSH1 0x40 MSTORE POP DUP2 ADD SWAP1 PUSH2 0x6E2 SWAP2 SWAP1 PUSH2 0x2C9F JUMP JUMPDEST PUSH1 0x2 PUSH0 MSTORE PUSH1 0x4 PUSH1 0x20 MSTORE PUSH32 0x91DA3FD0782E51C6B3986E9E672FD566868E71F3DBC2D6C2CD6FBB3E361AF2A7 SLOAD PUSH1 0xC0 DUP3 ADD MLOAD SWAP2 SWAP3 POP GT PUSH2 0x762 JUMPI PUSH1 0x40 MLOAD PUSH3 0x461BCD PUSH1 0xE5 SHL DUP2 MSTORE PUSH1 0x20 PUSH1 0x4 DUP3 ADD MSTORE PUSH1 0x1F PUSH1 0x24 DUP3 ADD MSTORE PUSH32 0x506C61796572207374696C6C2068617320656E6F7567682062616C616E636500 PUSH1 0x44 DUP3 ADD MSTORE PUSH1 0x64 ADD PUSH2 0x5F2 JUMP JUMPDEST DUP1 MLOAD PUSH1 0x40 MLOAD PUSH4 0x4B053409 PUSH1 0xE0 SHL DUP2 MSTORE PUSH0 SWAP2 PUSH1 0x1 PUSH1 0x1 PUSH1 0xA0 SHL SUB PUSH32 0x0 AND SWAP2 PUSH4 0x4B053409 SWAP2 PUSH2 0x7B0 SWAP2 PUSH1 0x4 ADD PUSH2 0x2D32 JUMP JUMPDEST PUSH1 0x20 PUSH1 0x40 MLOAD DUP1 DUP4 SUB DUP2 DUP7 GAS STATICCALL ISZERO DUP1 ISZERO PUSH2 0x7CB JUMPI RETURNDATASIZE PUSH0 DUP1 RETURNDATACOPY RETURNDATASIZE PUSH0 REVERT JUMPDEST POP POP POP POP PUSH1 0x40 MLOAD RETURNDATASIZE PUSH1 0x1F NOT PUSH1 0x1F DUP3 ADD AND DUP3 ADD DUP1 PUSH1 0x40 MSTORE POP DUP2 ADD SWAP1 PUSH2 0x7EF SWAP2 SWAP1 PUSH2 0x2D40 JUMP JUMPDEST GT PUSH2 0x82F JUMPI PUSH1 0x40 MLOAD PUSH3 0x461BCD PUSH1 0xE5 SHL DUP2 MSTORE PUSH1 0x20 PUSH1 0x4 DUP3 ADD MSTORE PUSH1 0x10 PUSH1 0x24 DUP3 ADD MSTORE PUSH16 0x151A1A5CC81D19585B481A5CC81BDD5D PUSH1 0x82 SHL PUSH1 0x44 DUP3 ADD MSTORE PUSH1 0x64 ADD PUSH2 0x5F2 JUMP JUMPDEST POP PUSH1 0x40 DUP1 MLOAD PUSH1 0x60 DUP2 ADD DUP3 MSTORE DUP3 DUP2 MSTORE TIMESTAMP PUSH1 0x20 DUP1 DUP4 ADD SWAP2 DUP3 MSTORE PUSH1 0x1 DUP4 DUP6 ADD DUP2 DUP2 MSTORE PUSH0 DUP8 DUP2 MSTORE PUSH1 0xA SWAP1 SWAP4 MSTORE SWAP5 SWAP1 SWAP2 KECCAK256 SWAP3 MLOAD DUP4 SSTORE SWAP1 MLOAD DUP3 DUP3 ADD SSTORE SWAP2 MLOAD PUSH1 0x2 SWAP1 SWAP2 ADD DUP1 SLOAD PUSH1 0xFF NOT AND SWAP2 ISZERO ISZERO SWAP2 SWAP1 SWAP2 OR SWAP1 SSTORE DUP1 SSTORE POP JUMP JUMPDEST POP JUMP JUMPDEST PUSH2 0x8A6 PUSH1 0x40 MLOAD DUP1 PUSH1 0x60 ADD PUSH1 0x40 MSTORE DUP1 PUSH0 DUP2 MSTORE PUSH1 0x20 ADD PUSH0 DUP2 MSTORE PUSH1 0x20 ADD PUSH0 ISZERO ISZERO DUP2 MSTORE POP SWAP1 JUMP JUMPDEST POP PUSH0 SWAP1 DUP2 MSTORE PUSH1 0xA PUSH1 0x20 SWAP1 DUP2 MSTORE PUSH1 0x40 SWAP2 DUP3 SWAP1 KECCAK256 DUP3 MLOAD PUSH1 0x60 DUP2 ADD DUP5 MSTORE DUP2 SLOAD DUP2 MSTORE PUSH1 0x1 DUP3 ADD SLOAD SWAP3 DUP2 ADD SWAP3 SWAP1 SWAP3 MSTORE PUSH1 0x2 ADD SLOAD PUSH1 0xFF AND ISZERO ISZERO SWAP2 DUP2 ADD SWAP2 SWAP1 SWAP2 MSTORE SWAP1 JUMP JUMPDEST PUSH0 PUSH1 0x5 PUSH0 DUP5 PUSH1 0x2 DUP2 GT ISZERO PUSH2 0x8F9 JUMPI PUSH2 0x8F9 PUSH2 0x299A JUMP JUMPDEST PUSH1 0x2 DUP2 GT ISZERO PUSH2 0x90A JUMPI PUSH2 0x90A PUSH2 0x299A JUMP JUMPDEST DUP2 MSTORE PUSH1 0x20 ADD SWAP1 DUP2 MSTORE PUSH1 0x20 ADD PUSH0 KECCAK256 PUSH0 DUP4 PUSH1 0x5 DUP2 GT ISZERO PUSH2 0x92A JUMPI PUSH2 0x92A PUSH2 0x299A JUMP JUMPDEST PUSH1 0x5 DUP2 GT ISZERO PUSH2 0x93B JUMPI PUSH2 0x93B PUSH2 0x299A JUMP JUMPDEST DUP2 MSTORE PUSH1 0x20 DUP2 ADD SWAP2 SWAP1 SWAP2 MSTORE PUSH1 0x40 ADD PUSH0 KECCAK256 SLOAD SWAP1 POP JUMPDEST SWAP3 SWAP2 POP POP JUMP JUMPDEST PUSH2 0x95C PUSH2 0x230F JUMP JUMPDEST PUSH1 0x40 MLOAD PUSH4 0x31A9108F PUSH1 0xE1 SHL DUP2 MSTORE PUSH1 0x4 DUP2 ADD DUP3 SWAP1 MSTORE CALLER SWAP1 PUSH1 0x1 PUSH1 0x1 PUSH1 0xA0 SHL SUB PUSH32 0x0 AND SWAP1 PUSH4 0x6352211E SWAP1 PUSH1 0x24 ADD PUSH1 0x20 PUSH1 0x40 MLOAD DUP1 DUP4 SUB DUP2 DUP7 GAS STATICCALL ISZERO DUP1 ISZERO PUSH2 0x9C1 JUMPI RETURNDATASIZE PUSH0 DUP1 RETURNDATACOPY RETURNDATASIZE PUSH0 REVERT JUMPDEST POP POP POP POP PUSH1 0x40 MLOAD RETURNDATASIZE PUSH1 0x1F NOT PUSH1 0x1F DUP3 ADD AND DUP3 ADD DUP1 PUSH1 0x40 MSTORE POP DUP2 ADD SWAP1 PUSH2 0x9E5 SWAP2 SWAP1 PUSH2 0x2C44 JUMP JUMPDEST PUSH1 0x1 PUSH1 0x1 PUSH1 0xA0 SHL SUB AND EQ PUSH2 0xA0B JUMPI PUSH1 0x40 MLOAD PUSH3 0x461BCD PUSH1 0xE5 SHL DUP2 MSTORE PUSH1 0x4 ADD PUSH2 0x5F2 SWAP1 PUSH2 0x2C5F JUMP JUMPDEST PUSH0 DUP2 DUP2 MSTORE PUSH1 0x9 PUSH1 0x20 MSTORE PUSH1 0x40 SWAP1 KECCAK256 SLOAD PUSH1 0xFF AND ISZERO ISZERO PUSH1 0x1 EQ PUSH2 0xA77 JUMPI PUSH1 0x40 MLOAD PUSH3 0x461BCD PUSH1 0xE5 SHL DUP2 MSTORE PUSH1 0x20 PUSH1 0x4 DUP3 ADD MSTORE PUSH1 0x21 PUSH1 0x24 DUP3 ADD MSTORE PUSH32 0x546F6B656E2069732063757272656E746C79206E6F7420696E206F637461676F PUSH1 0x44 DUP3 ADD MSTORE PUSH1 0x37 PUSH1 0xF9 SHL PUSH1 0x64 DUP3 ADD MSTORE PUSH1 0x84 ADD PUSH2 0x5F2 JUMP JUMPDEST PUSH1 0x40 MLOAD PUSH4 0x17609459 PUSH1 0xE0 SHL DUP2 MSTORE PUSH1 0x4 DUP2 ADD DUP3 SWAP1 MSTORE PUSH0 SWAP1 PUSH32 0x0 PUSH1 0x1 PUSH1 0x1 PUSH1 0xA0 SHL SUB AND SWAP1 PUSH4 0x17609459 SWAP1 PUSH1 0x24 ADD PUSH1 0xE0 PUSH1 0x40 MLOAD DUP1 DUP4 SUB DUP2 DUP7 GAS STATICCALL ISZERO DUP1 ISZERO PUSH2 0xADC JUMPI RETURNDATASIZE PUSH0 DUP1 RETURNDATACOPY RETURNDATASIZE PUSH0 REVERT JUMPDEST POP POP POP POP PUSH1 0x40 MLOAD RETURNDATASIZE PUSH1 0x1F NOT PUSH1 0x1F DUP3 ADD AND DUP3 ADD DUP1 PUSH1 0x40 MSTORE POP DUP2 ADD SWAP1 PUSH2 0xB00 SWAP2 SWAP1 PUSH2 0x2C9F JUMP JUMPDEST SWAP1 POP PUSH2 0xB0F DUP3 DUP3 PUSH0 ADD MLOAD PUSH2 0x233F JUMP JUMPDEST PUSH0 DUP3 DUP2 MSTORE PUSH1 0x9 PUSH1 0x20 MSTORE PUSH1 0x40 DUP2 KECCAK256 DUP1 SLOAD PUSH1 0xFF NOT AND SWAP1 SSTORE PUSH1 0xB DUP1 SLOAD SWAP2 PUSH2 0xB32 DUP4 PUSH2 0x2D6B JUMP JUMPDEST SWAP1 SWAP2 SSTORE POP POP PUSH1 0x40 MLOAD DUP3 DUP2 MSTORE PUSH32 0x6AF77FCC0CAFD8038A82931E7969C5CDCB89E1CB346F4008BAAFDBD4BF415801 SWAP1 PUSH1 0x20 ADD PUSH1 0x40 MLOAD DUP1 SWAP2 SUB SWAP1 LOG1 POP PUSH2 0x880 PUSH1 0x1 DUP1 SSTORE JUMP JUMPDEST PUSH2 0xB7C PUSH2 0x230F JUMP JUMPDEST PUSH1 0x40 MLOAD PUSH4 0x31A9108F PUSH1 0xE1 SHL DUP2 MSTORE PUSH1 0x4 DUP2 ADD DUP3 SWAP1 MSTORE CALLER SWAP1 PUSH1 0x1 PUSH1 0x1 PUSH1 0xA0 SHL SUB PUSH32 0x0 AND SWAP1 PUSH4 0x6352211E SWAP1 PUSH1 0x24 ADD PUSH1 0x20 PUSH1 0x40 MLOAD DUP1 DUP4 SUB DUP2 DUP7 GAS STATICCALL ISZERO DUP1 ISZERO PUSH2 0xBE1 JUMPI RETURNDATASIZE PUSH0 DUP1 RETURNDATACOPY RETURNDATASIZE PUSH0 REVERT JUMPDEST POP POP POP POP PUSH1 0x40 MLOAD RETURNDATASIZE PUSH1 0x1F NOT PUSH1 0x1F DUP3 ADD AND DUP3 ADD DUP1 PUSH1 0x40 MSTORE POP DUP2 ADD SWAP1 PUSH2 0xC05 SWAP2 SWAP1 PUSH2 0x2C44 JUMP JUMPDEST PUSH1 0x1 PUSH1 0x1 PUSH1 0xA0 SHL SUB AND EQ PUSH2 0xC2B JUMPI PUSH1 0x40 MLOAD PUSH3 0x461BCD PUSH1 0xE5 SHL DUP2 MSTORE PUSH1 0x4 ADD PUSH2 0x5F2 SWAP1 PUSH2 0x2C5F JUMP JUMPDEST PUSH0 DUP2 DUP2 MSTORE PUSH1 0xA PUSH1 0x20 SWAP1 DUP2 MSTORE PUSH1 0x40 SWAP2 DUP3 SWAP1 KECCAK256 DUP3 MLOAD PUSH1 0x60 DUP2 ADD DUP5 MSTORE DUP2 SLOAD DUP2 MSTORE PUSH1 0x1 DUP3 ADD SLOAD SWAP3 DUP2 ADD SWAP3 SWAP1 SWAP3 MSTORE PUSH1 0x2 ADD SLOAD PUSH1 0xFF AND ISZERO ISZERO SWAP2 DUP2 ADD DUP3 SWAP1 MSTORE SWAP1 PUSH2 0xCB0 JUMPI PUSH1 0x40 MLOAD PUSH3 0x461BCD PUSH1 0xE5 SHL DUP2 MSTORE PUSH1 0x20 PUSH1 0x4 DUP3 ADD MSTORE PUSH1 0x18 PUSH1 0x24 DUP3 ADD MSTORE PUSH32 0x506C61796572206973206E6F74207265636F766572696E670000000000000000 PUSH1 0x44 DUP3 ADD MSTORE PUSH1 0x64 ADD PUSH2 0x5F2 JUMP JUMPDEST PUSH1 0x20 DUP2 ADD MLOAD TIMESTAMP SWAP1 PUSH0 PUSH2 0xCDF PUSH1 0xA PUSH2 0xCD9 PUSH8 0xDE0B6B3A7640000 PUSH2 0xCD3 DUP8 DUP8 PUSH2 0x27A3 JUMP JUMPDEST SWAP1 PUSH2 0x27B5 JUMP JUMPDEST SWAP1 PUSH2 0x27C0 JUMP JUMPDEST SWAP1 POP PUSH0 PUSH2 0xCF9 PUSH8 0xDE0B6B3A7640000 PUSH2 0xCD9 DUP5 PUSH1 0x1 PUSH2 0x27B5 JUMP JUMPDEST SWAP1 POP PUSH2 0x3E8 DUP2 GT ISZERO PUSH2 0xD0A JUMPI POP PUSH2 0x3E8 JUMPDEST PUSH1 0x40 MLOAD PUSH4 0x6CE7F919 PUSH1 0xE1 SHL DUP2 MSTORE PUSH1 0x4 DUP2 ADD DUP8 SWAP1 MSTORE PUSH1 0x24 DUP2 ADD DUP3 SWAP1 MSTORE PUSH32 0x0 PUSH1 0x1 PUSH1 0x1 PUSH1 0xA0 SHL SUB AND SWAP1 PUSH4 0xD9CFF232 SWAP1 PUSH1 0x44 ADD PUSH0 PUSH1 0x40 MLOAD DUP1 DUP4 SUB DUP2 PUSH0 DUP8 DUP1 EXTCODESIZE ISZERO DUP1 ISZERO PUSH2 0xD70 JUMPI PUSH0 DUP1 REVERT JUMPDEST POP GAS CALL ISZERO DUP1 ISZERO PUSH2 0xD82 JUMPI RETURNDATASIZE PUSH0 DUP1 RETURNDATACOPY RETURNDATASIZE PUSH0 REVERT JUMPDEST POP POP PUSH1 0x40 DUP1 MLOAD PUSH1 0x60 DUP2 ADD DUP3 MSTORE PUSH0 DUP1 DUP3 MSTORE PUSH1 0x20 DUP1 DUP4 ADD DUP3 DUP2 MSTORE DUP4 DUP6 ADD DUP4 DUP2 MSTORE DUP14 DUP5 MSTORE PUSH1 0xA SWAP1 SWAP3 MSTORE SWAP4 SWAP1 SWAP2 KECCAK256 SWAP2 MLOAD DUP3 SSTORE SWAP2 MLOAD PUSH1 0x1 DUP3 ADD SSTORE SWAP1 MLOAD PUSH1 0x2 SWAP1 SWAP2 ADD DUP1 SLOAD PUSH1 0xFF NOT AND SWAP2 ISZERO ISZERO SWAP2 SWAP1 SWAP2 OR SWAP1 SSTORE POP PUSH2 0x880 SWAP6 POP PUSH2 0x2339 SWAP5 POP POP POP POP POP JUMP JUMPDEST PUSH1 0x8 DUP2 DUP2 SLOAD DUP2 LT PUSH2 0xDED JUMPI PUSH0 DUP1 REVERT JUMPDEST PUSH0 SWAP2 DUP3 MSTORE PUSH1 0x20 SWAP1 SWAP2 KECCAK256 ADD SLOAD SWAP1 POP DUP2 JUMP JUMPDEST PUSH2 0xE1E PUSH1 0x40 MLOAD DUP1 PUSH1 0x60 ADD PUSH1 0x40 MSTORE DUP1 PUSH0 DUP2 MSTORE PUSH1 0x20 ADD PUSH0 DUP2 MSTORE PUSH1 0x20 ADD PUSH0 DUP2 MSTORE POP SWAP1 JUMP JUMPDEST PUSH1 0x4 PUSH0 DUP4 PUSH1 0x2 DUP2 GT ISZERO PUSH2 0xE33 JUMPI PUSH2 0xE33 PUSH2 0x299A JUMP JUMPDEST PUSH1 0x2 DUP2 GT ISZERO PUSH2 0xE44 JUMPI PUSH2 0xE44 PUSH2 0x299A JUMP JUMPDEST DUP2 MSTORE PUSH1 0x20 ADD SWAP1 DUP2 MSTORE PUSH1 0x20 ADD PUSH0 KECCAK256 PUSH1 0x40 MLOAD DUP1 PUSH1 0x60 ADD PUSH1 0x40 MSTORE SWAP1 DUP2 PUSH0 DUP3 ADD SLOAD DUP2 MSTORE PUSH1 0x20 ADD PUSH1 0x1 DUP3 ADD SLOAD DUP2 MSTORE PUSH1 0x20 ADD PUSH1 0x2 DUP3 ADD SLOAD DUP2 MSTORE POP POP SWAP1 POP SWAP2 SWAP1 POP JUMP JUMPDEST PUSH2 0xE88 PUSH2 0x27CB JUMP JUMPDEST PUSH2 0xE91 PUSH0 PUSH2 0x27F7 JUMP JUMPDEST JUMP JUMPDEST PUSH1 0x3 SLOAD PUSH1 0xFF AND PUSH2 0xEDB JUMPI PUSH1 0x40 MLOAD PUSH3 0x461BCD PUSH1 0xE5 SHL DUP2 MSTORE PUSH1 0x20 PUSH1 0x4 DUP3 ADD MSTORE PUSH1 0x13 PUSH1 0x24 DUP3 ADD MSTORE PUSH19 0x47616D65206973206E6F742072756E6E696E67 PUSH1 0x68 SHL PUSH1 0x44 DUP3 ADD MSTORE PUSH1 0x64 ADD PUSH2 0x5F2 JUMP JUMPDEST PUSH1 0x40 DUP1 MLOAD PUSH1 0xC0 DUP2 ADD DUP3 MSTORE PUSH0 DUP1 DUP3 MSTORE PUSH1 0x1 PUSH1 0x20 DUP4 ADD MSTORE PUSH1 0x2 SWAP3 DUP3 ADD SWAP3 SWAP1 SWAP3 MSTORE PUSH1 0x3 PUSH1 0x60 DUP3 ADD MSTORE PUSH1 0x4 PUSH1 0x80 DUP3 ADD MSTORE PUSH1 0x5 PUSH1 0xA0 DUP3 ADD MSTORE SWAP1 DUP1 DUP1 JUMPDEST PUSH1 0x6 DUP2 LT ISZERO PUSH2 0x1155 JUMPI PUSH0 PUSH32 0x0 PUSH1 0x1 PUSH1 0x1 PUSH1 0xA0 SHL SUB AND PUSH4 0x94A02353 DUP7 DUP5 PUSH1 0x6 DUP2 LT PUSH2 0xF5D JUMPI PUSH2 0xF5D PUSH2 0x2D80 JUMP JUMPDEST PUSH1 0x20 MUL ADD MLOAD PUSH1 0x40 MLOAD DUP3 PUSH4 0xFFFFFFFF AND PUSH1 0xE0 SHL DUP2 MSTORE PUSH1 0x4 ADD PUSH2 0xF7E SWAP2 SWAP1 PUSH2 0x2D32 JUMP JUMPDEST PUSH1 0x20 PUSH1 0x40 MLOAD DUP1 DUP4 SUB DUP2 DUP7 GAS STATICCALL ISZERO DUP1 ISZERO PUSH2 0xF99 JUMPI RETURNDATASIZE PUSH0 DUP1 RETURNDATACOPY RETURNDATASIZE PUSH0 REVERT JUMPDEST POP POP POP POP PUSH1 0x40 MLOAD RETURNDATASIZE PUSH1 0x1F NOT PUSH1 0x1F DUP3 ADD AND DUP3 ADD DUP1 PUSH1 0x40 MSTORE POP DUP2 ADD SWAP1 PUSH2 0xFBD SWAP2 SWAP1 PUSH2 0x2D40 JUMP JUMPDEST GT PUSH2 0x1027 JUMPI PUSH1 0x40 MLOAD PUSH3 0x461BCD PUSH1 0xE5 SHL DUP2 MSTORE PUSH1 0x20 PUSH1 0x4 DUP3 ADD MSTORE PUSH1 0x34 PUSH1 0x24 DUP3 ADD MSTORE PUSH32 0x4174206C65617374206F6E6520746F6B656E2068617320746F206265206D696E PUSH1 0x44 DUP3 ADD MSTORE PUSH20 0x74656420696E20656163682063617465676F7279 PUSH1 0x60 SHL PUSH1 0x64 DUP3 ADD MSTORE PUSH1 0x84 ADD PUSH2 0x5F2 JUMP JUMPDEST PUSH0 PUSH32 0x0 PUSH1 0x1 PUSH1 0x1 PUSH1 0xA0 SHL SUB AND PUSH4 0x4B053409 DUP7 DUP5 PUSH1 0x6 DUP2 LT PUSH2 0x1069 JUMPI PUSH2 0x1069 PUSH2 0x2D80 JUMP JUMPDEST PUSH1 0x20 MUL ADD MLOAD PUSH1 0x40 MLOAD DUP3 PUSH4 0xFFFFFFFF AND PUSH1 0xE0 SHL DUP2 MSTORE PUSH1 0x4 ADD PUSH2 0x108A SWAP2 SWAP1 PUSH2 0x2D32 JUMP JUMPDEST PUSH1 0x20 PUSH1 0x40 MLOAD DUP1 DUP4 SUB DUP2 DUP7 GAS STATICCALL ISZERO DUP1 ISZERO PUSH2 0x10A5 JUMPI RETURNDATASIZE PUSH0 DUP1 RETURNDATACOPY RETURNDATASIZE PUSH0 REVERT JUMPDEST POP POP POP POP PUSH1 0x40 MLOAD RETURNDATASIZE PUSH1 0x1F NOT PUSH1 0x1F DUP3 ADD AND DUP3 ADD DUP1 PUSH1 0x40 MSTORE POP DUP2 ADD SWAP1 PUSH2 0x10C9 SWAP2 SWAP1 PUSH2 0x2D40 JUMP JUMPDEST SWAP1 POP DUP3 ISZERO DUP1 ISZERO SWAP1 PUSH2 0x10D9 JUMPI POP DUP1 ISZERO ISZERO JUMPDEST ISZERO PUSH2 0x111D JUMPI PUSH1 0x40 MLOAD PUSH3 0x461BCD PUSH1 0xE5 SHL DUP2 MSTORE PUSH1 0x20 PUSH1 0x4 DUP3 ADD MSTORE PUSH1 0x14 PUSH1 0x24 DUP3 ADD MSTORE PUSH20 0x11D85B59481A5CC81B9BDD081BDD995C881E595D PUSH1 0x62 SHL PUSH1 0x44 DUP3 ADD MSTORE PUSH1 0x64 ADD PUSH2 0x5F2 JUMP JUMPDEST DUP3 ISZERO DUP1 ISZERO PUSH2 0x112A JUMPI POP DUP1 ISZERO ISZERO JUMPDEST ISZERO PUSH2 0x114C JUMPI DUP5 DUP3 PUSH1 0x6 DUP2 LT PUSH2 0x1141 JUMPI PUSH2 0x1141 PUSH2 0x2D80 JUMP JUMPDEST PUSH1 0x20 MUL ADD MLOAD SWAP4 POP DUP1 SWAP3 POP JUMPDEST POP PUSH1 0x1 ADD PUSH2 0xF12 JUMP JUMPDEST POP PUSH1 0x3 DUP1 SLOAD PUSH1 0xFF NOT AND SWAP1 SSTORE PUSH1 0x40 DUP1 MLOAD DUP1 DUP3 ADD SWAP1 SWAP2 MSTORE DUP1 DUP4 PUSH1 0x5 DUP2 GT ISZERO PUSH2 0x117D JUMPI PUSH2 0x117D PUSH2 0x299A JUMP JUMPDEST DUP2 MSTORE PUSH1 0x1 PUSH1 0x20 SWAP1 SWAP2 ADD DUP2 SWAP1 MSTORE DUP2 MLOAD PUSH1 0xC DUP1 SLOAD SWAP1 SWAP3 DUP4 SWAP2 PUSH1 0xFF NOT AND SWAP1 DUP4 PUSH1 0x5 DUP2 GT ISZERO PUSH2 0x11AA JUMPI PUSH2 0x11AA PUSH2 0x299A JUMP JUMPDEST MUL OR SWAP1 SSTORE POP PUSH1 0x20 SWAP2 SWAP1 SWAP2 ADD MLOAD DUP2 SLOAD SWAP1 ISZERO ISZERO PUSH2 0x100 MUL PUSH2 0xFF00 NOT SWAP1 SWAP2 AND OR SWAP1 SSTORE POP POP POP JUMP JUMPDEST PUSH2 0x11D6 PUSH2 0x28A7 JUMP JUMPDEST PUSH1 0x40 DUP1 MLOAD PUSH1 0x80 DUP2 ADD DUP3 MSTORE PUSH0 DUP5 DUP2 MSTORE PUSH1 0x9 PUSH1 0x20 SWAP1 DUP2 MSTORE SWAP1 DUP4 SWAP1 KECCAK256 SLOAD PUSH1 0xFF AND ISZERO ISZERO DUP3 MSTORE SWAP2 MLOAD PUSH4 0x1E010439 PUSH1 0xE0 SHL DUP2 MSTORE PUSH1 0x4 DUP2 ADD DUP6 SWAP1 MSTORE SWAP1 SWAP2 DUP3 ADD SWAP1 PUSH32 0x0 PUSH1 0x1 PUSH1 0x1 PUSH1 0xA0 SHL SUB AND SWAP1 PUSH4 0x1E010439 SWAP1 PUSH1 0x24 ADD PUSH1 0x20 PUSH1 0x40 MLOAD DUP1 DUP4 SUB DUP2 DUP7 GAS STATICCALL ISZERO DUP1 ISZERO PUSH2 0x125E JUMPI RETURNDATASIZE PUSH0 DUP1 RETURNDATACOPY RETURNDATASIZE PUSH0 REVERT JUMPDEST POP POP POP POP PUSH1 0x40 MLOAD RETURNDATASIZE PUSH1 0x1F NOT PUSH1 0x1F DUP3 ADD AND DUP3 ADD DUP1 PUSH1 0x40 MSTORE POP DUP2 ADD SWAP1 PUSH2 0x1282 SWAP2 SWAP1 PUSH2 0x2D40 JUMP JUMPDEST DUP2 MSTORE PUSH0 DUP5 DUP2 MSTORE PUSH1 0xA PUSH1 0x20 SWAP1 DUP2 MSTORE PUSH1 0x40 DUP1 DUP4 KECCAK256 DUP2 MLOAD PUSH1 0x60 DUP2 ADD DUP4 MSTORE DUP2 SLOAD DUP2 MSTORE PUSH1 0x1 DUP3 ADD SLOAD DUP2 DUP6 ADD MSTORE PUSH1 0x2 SWAP2 DUP3 ADD SLOAD PUSH1 0xFF SWAP1 DUP2 AND ISZERO ISZERO DUP3 DUP6 ADD MSTORE DUP5 DUP8 ADD SWAP2 SWAP1 SWAP2 MSTORE DUP9 DUP6 MSTORE PUSH1 0x6 SWAP1 SWAP4 MSTORE SWAP3 DUP2 SWAP1 KECCAK256 DUP2 MLOAD PUSH1 0x80 DUP2 ADD DUP4 MSTORE DUP2 SLOAD SWAP3 SWAP1 SWAP6 ADD SWAP5 SWAP4 SWAP1 SWAP3 DUP5 SWAP3 AND SWAP1 DUP2 GT ISZERO PUSH2 0x12F2 JUMPI PUSH2 0x12F2 PUSH2 0x299A JUMP JUMPDEST PUSH1 0x2 DUP2 GT ISZERO PUSH2 0x1303 JUMPI PUSH2 0x1303 PUSH2 0x299A JUMP JUMPDEST DUP2 MSTORE DUP2 SLOAD PUSH2 0x100 SWAP1 DIV PUSH1 0xFF AND PUSH1 0x20 DUP3 ADD MSTORE PUSH1 0x1 DUP3 ADD SLOAD PUSH1 0x40 DUP3 ADD MSTORE PUSH1 0x2 SWAP1 SWAP2 ADD SLOAD PUSH1 0x60 SWAP1 SWAP2 ADD MSTORE SWAP1 MSTORE SWAP3 SWAP2 POP POP JUMP JUMPDEST PUSH1 0x40 DUP1 MLOAD DUP1 DUP3 ADD SWAP1 SWAP2 MSTORE PUSH0 DUP1 DUP3 MSTORE PUSH1 0x20 DUP3 ADD MSTORE PUSH1 0x40 DUP1 MLOAD DUP1 DUP3 ADD SWAP1 SWAP2 MSTORE PUSH1 0xC DUP1 SLOAD DUP3 SWAP1 PUSH1 0xFF AND PUSH1 0x5 DUP2 GT ISZERO PUSH2 0x1369 JUMPI PUSH2 0x1369 PUSH2 0x299A JUMP JUMPDEST PUSH1 0x5 DUP2 GT ISZERO PUSH2 0x137A JUMPI PUSH2 0x137A PUSH2 0x299A JUMP JUMPDEST DUP2 MSTORE SWAP1 SLOAD PUSH2 0x100 SWAP1 DIV PUSH1 0xFF AND ISZERO ISZERO PUSH1 0x20 SWAP1 SWAP2 ADD MSTORE SWAP2 SWAP1 POP JUMP JUMPDEST PUSH1 0x40 DUP1 MLOAD PUSH1 0x80 DUP2 ADD DUP3 MSTORE PUSH0 DUP1 DUP3 MSTORE PUSH1 0x20 DUP3 ADD DUP2 SWAP1 MSTORE SWAP2 DUP2 ADD DUP3 SWAP1 MSTORE PUSH1 0x60 DUP2 ADD SWAP2 SWAP1 SWAP2 MSTORE PUSH0 DUP3 DUP2 MSTORE PUSH1 0x6 PUSH1 0x20 MSTORE PUSH1 0x40 SWAP1 DUP2 SWAP1 KECCAK256 DUP2 MLOAD PUSH1 0x80 DUP2 ADD SWAP1 SWAP3 MSTORE DUP1 SLOAD DUP3 SWAP1 PUSH1 0xFF AND PUSH1 0x2 DUP2 GT ISZERO PUSH2 0x13E6 JUMPI PUSH2 0x13E6 PUSH2 0x299A JUMP JUMPDEST PUSH1 0x2 DUP2 GT ISZERO PUSH2 0x13F7 JUMPI PUSH2 0x13F7 PUSH2 0x299A JUMP JUMPDEST DUP2 MSTORE DUP2 SLOAD PUSH2 0x100 SWAP1 DIV PUSH1 0xFF AND PUSH1 0x20 DUP3 ADD MSTORE PUSH1 0x1 DUP3 ADD SLOAD PUSH1 0x40 DUP3 ADD MSTORE PUSH1 0x2 SWAP1 SWAP2 ADD SLOAD PUSH1 0x60 SWAP1 SWAP2 ADD MSTORE SWAP3 SWAP2 POP POP JUMP JUMPDEST PUSH1 0x5 PUSH1 0x20 MSTORE DUP3 PUSH0 MSTORE PUSH1 0x40 PUSH0 KECCAK256 PUSH1 0x20 MSTORE DUP2 PUSH0 MSTORE PUSH1 0x40 PUSH0 KECCAK256 DUP2 DUP2 SLOAD DUP2 LT PUSH2 0x1447 JUMPI PUSH0 DUP1 REVERT JUMPDEST SWAP1 PUSH0 MSTORE PUSH1 0x20 PUSH0 KECCAK256 ADD PUSH0 SWAP3 POP SWAP3 POP POP POP SLOAD DUP2 JUMP JUMPDEST PUSH2 0x1462 PUSH2 0x230F JUMP JUMPDEST PUSH1 0x40 MLOAD PUSH4 0x31A9108F PUSH1 0xE1 SHL DUP2 MSTORE PUSH1 0x4 DUP2 ADD DUP5 SWAP1 MSTORE CALLER SWAP1 PUSH1 0x1 PUSH1 0x1 PUSH1 0xA0 SHL SUB PUSH32 0x0 AND SWAP1 PUSH4 0x6352211E SWAP1 PUSH1 0x24 ADD PUSH1 0x20 PUSH1 0x40 MLOAD DUP1 DUP4 SUB DUP2 DUP7 GAS STATICCALL ISZERO DUP1 ISZERO PUSH2 0x14C7 JUMPI RETURNDATASIZE PUSH0 DUP1 RETURNDATACOPY RETURNDATASIZE PUSH0 REVERT JUMPDEST POP POP POP POP PUSH1 0x40 MLOAD RETURNDATASIZE PUSH1 0x1F NOT PUSH1 0x1F DUP3 ADD AND DUP3 ADD DUP1 PUSH1 0x40 MSTORE POP DUP2 ADD SWAP1 PUSH2 0x14EB SWAP2 SWAP1 PUSH2 0x2C44 JUMP JUMPDEST PUSH1 0x1 PUSH1 0x1 PUSH1 0xA0 SHL SUB AND EQ PUSH2 0x1511 JUMPI PUSH1 0x40 MLOAD PUSH3 0x461BCD PUSH1 0xE5 SHL DUP2 MSTORE PUSH1 0x4 ADD PUSH2 0x5F2 SWAP1 PUSH2 0x2C5F JUMP JUMPDEST PUSH0 DUP4 DUP2 MSTORE PUSH1 0x9 PUSH1 0x20 MSTORE PUSH1 0x40 SWAP1 KECCAK256 SLOAD PUSH1 0xFF AND ISZERO PUSH2 0x153F JUMPI PUSH1 0x40 MLOAD PUSH3 0x461BCD PUSH1 0xE5 SHL DUP2 MSTORE PUSH1 0x4 ADD PUSH2 0x5F2 SWAP1 PUSH2 0x2D94 JUMP JUMPDEST PUSH0 DUP4 DUP2 MSTORE PUSH1 0xA PUSH1 0x20 MSTORE PUSH1 0x40 SWAP1 KECCAK256 PUSH1 0x2 ADD SLOAD PUSH1 0xFF AND ISZERO PUSH2 0x15A0 JUMPI PUSH1 0x40 MLOAD PUSH3 0x461BCD PUSH1 0xE5 SHL DUP2 MSTORE PUSH1 0x20 PUSH1 0x4 DUP3 ADD MSTORE PUSH1 0x1E PUSH1 0x24 DUP3 ADD MSTORE PUSH32 0x506C617965722069732063757272656E746C79207265636F766572696E670000 PUSH1 0x44 DUP3 ADD MSTORE PUSH1 0x64 ADD PUSH2 0x5F2 JUMP JUMPDEST PUSH1 0x40 MLOAD PUSH4 0x17609459 PUSH1 0xE0 SHL DUP2 MSTORE PUSH1 0x4 DUP2 ADD DUP5 SWAP1 MSTORE PUSH0 SWAP1 PUSH32 0x0 PUSH1 0x1 PUSH1 0x1 PUSH1 0xA0 SHL SUB AND SWAP1 PUSH4 0x17609459 SWAP1 PUSH1 0x24 ADD PUSH1 0xE0 PUSH1 0x40 MLOAD DUP1 DUP4 SUB DUP2 DUP7 GAS STATICCALL ISZERO DUP1 ISZERO PUSH2 0x1605 JUMPI RETURNDATASIZE PUSH0 DUP1 RETURNDATACOPY RETURNDATASIZE PUSH0 REVERT JUMPDEST POP POP POP POP PUSH1 0x40 MLOAD RETURNDATASIZE PUSH1 0x1F NOT PUSH1 0x1F DUP3 ADD AND DUP3 ADD DUP1 PUSH1 0x40 MSTORE POP DUP2 ADD SWAP1 PUSH2 0x1629 SWAP2 SWAP1 PUSH2 0x2C9F JUMP JUMPDEST SWAP1 POP PUSH1 0x4 PUSH0 DUP5 PUSH1 0x2 DUP2 GT ISZERO PUSH2 0x1640 JUMPI PUSH2 0x1640 PUSH2 0x299A JUMP JUMPDEST PUSH1 0x2 DUP2 GT ISZERO PUSH2 0x1651 JUMPI PUSH2 0x1651 PUSH2 0x299A JUMP JUMPDEST DUP2 MSTORE PUSH1 0x20 ADD SWAP1 DUP2 MSTORE PUSH1 0x20 ADD PUSH0 KECCAK256 PUSH0 ADD SLOAD DUP2 PUSH1 0xC0 ADD MLOAD LT ISZERO PUSH2 0x16B4 JUMPI PUSH1 0x40 MLOAD PUSH3 0x461BCD PUSH1 0xE5 SHL DUP2 MSTORE PUSH1 0x20 PUSH1 0x4 DUP3 ADD MSTORE PUSH1 0x1C PUSH1 0x24 DUP3 ADD MSTORE PUSH32 0x4E6F7420656E6F7567682062616C616E636520666F72206C6576656C00000000 PUSH1 0x44 DUP3 ADD MSTORE PUSH1 0x64 ADD PUSH2 0x5F2 JUMP JUMPDEST DUP2 PUSH1 0x5 DUP2 GT ISZERO PUSH2 0x16C6 JUMPI PUSH2 0x16C6 PUSH2 0x299A JUMP JUMPDEST DUP2 MLOAD PUSH1 0x5 DUP2 GT ISZERO PUSH2 0x16D9 JUMPI PUSH2 0x16D9 PUSH2 0x299A JUMP JUMPDEST SUB PUSH2 0x1726 JUMPI PUSH1 0x40 MLOAD PUSH3 0x461BCD PUSH1 0xE5 SHL DUP2 MSTORE PUSH1 0x20 PUSH1 0x4 DUP3 ADD MSTORE PUSH1 0x19 PUSH1 0x24 DUP3 ADD MSTORE PUSH32 0x43616E277420666967687420796F7572206F776E207465616D00000000000000 PUSH1 0x44 DUP3 ADD MSTORE PUSH1 0x64 ADD PUSH2 0x5F2 JUMP JUMPDEST PUSH0 PUSH1 0x5 PUSH0 DUP6 PUSH1 0x2 DUP2 GT ISZERO PUSH2 0x173C JUMPI PUSH2 0x173C PUSH2 0x299A JUMP JUMPDEST PUSH1 0x2 DUP2 GT ISZERO PUSH2 0x174D JUMPI PUSH2 0x174D PUSH2 0x299A JUMP JUMPDEST DUP2 MSTORE PUSH1 0x20 ADD SWAP1 DUP2 MSTORE PUSH1 0x20 ADD PUSH0 KECCAK256 PUSH0 DUP5 PUSH1 0x5 DUP2 GT ISZERO PUSH2 0x176D JUMPI PUSH2 0x176D PUSH2 0x299A JUMP JUMPDEST PUSH1 0x5 DUP2 GT ISZERO PUSH2 0x177E JUMPI PUSH2 0x177E PUSH2 0x299A JUMP JUMPDEST DUP2 MSTORE PUSH1 0x20 DUP2 ADD SWAP2 SWAP1 SWAP2 MSTORE PUSH1 0x40 ADD PUSH0 KECCAK256 SLOAD SWAP1 POP DUP1 PUSH2 0x17EF JUMPI PUSH1 0x40 MLOAD PUSH3 0x461BCD PUSH1 0xE5 SHL DUP2 MSTORE PUSH1 0x20 PUSH1 0x4 DUP3 ADD MSTORE PUSH1 0x29 PUSH1 0x24 DUP3 ADD MSTORE PUSH32 0x4E6F2066696768746572732066726F6D2074686174207465616D20696E207468 PUSH1 0x44 DUP3 ADD MSTORE PUSH9 0x329037B1BA30B3B7B7 PUSH1 0xB9 SHL PUSH1 0x64 DUP3 ADD MSTORE PUSH1 0x84 ADD PUSH2 0x5F2 JUMP JUMPDEST PUSH0 PUSH2 0x17F9 DUP3 PUSH2 0x2846 JUMP JUMPDEST SWAP1 POP PUSH0 PUSH1 0x5 PUSH0 DUP8 PUSH1 0x2 DUP2 GT ISZERO PUSH2 0x1811 JUMPI PUSH2 0x1811 PUSH2 0x299A JUMP JUMPDEST PUSH1 0x2 DUP2 GT ISZERO PUSH2 0x1822 JUMPI PUSH2 0x1822 PUSH2 0x299A JUMP JUMPDEST DUP2 MSTORE PUSH1 0x20 ADD SWAP1 DUP2 MSTORE PUSH1 0x20 ADD PUSH0 KECCAK256 PUSH0 DUP7 PUSH1 0x5 DUP2 GT ISZERO PUSH2 0x1842 JUMPI PUSH2 0x1842 PUSH2 0x299A JUMP JUMPDEST PUSH1 0x5 DUP2 GT ISZERO PUSH2 0x1853 JUMPI PUSH2 0x1853 PUSH2 0x299A JUMP JUMPDEST DUP2 MSTORE PUSH1 0x20 ADD SWAP1 DUP2 MSTORE PUSH1 0x20 ADD PUSH0 KECCAK256 DUP3 DUP2 SLOAD DUP2 LT PUSH2 0x1871 JUMPI PUSH2 0x1871 PUSH2 0x2D80 JUMP JUMPDEST PUSH0 SWAP2 DUP3 MSTORE PUSH1 0x20 DUP3 KECCAK256 ADD SLOAD PUSH1 0x40 MLOAD PUSH4 0xCA39E5EF PUSH1 0xE0 SHL DUP2 MSTORE PUSH1 0x4 DUP2 ADD DUP11 SWAP1 MSTORE PUSH1 0x24 DUP2 ADD DUP3 SWAP1 MSTORE SWAP1 SWAP3 POP PUSH32 0x0 PUSH1 0x1 PUSH1 0x1 PUSH1 0xA0 SHL SUB AND SWAP1 PUSH4 0xCA39E5EF SWAP1 PUSH1 0x44 ADD PUSH1 0x20 PUSH1 0x40 MLOAD DUP1 DUP4 SUB DUP2 DUP7 GAS STATICCALL ISZERO DUP1 ISZERO PUSH2 0x18E8 JUMPI RETURNDATASIZE PUSH0 DUP1 RETURNDATACOPY RETURNDATASIZE PUSH0 REVERT JUMPDEST POP POP POP POP PUSH1 0x40 MLOAD RETURNDATASIZE PUSH1 0x1F NOT PUSH1 0x1F DUP3 ADD AND DUP3 ADD DUP1 PUSH1 0x40 MSTORE POP DUP2 ADD SWAP1 PUSH2 0x190C SWAP2 SWAP1 PUSH2 0x2D40 JUMP JUMPDEST PUSH1 0x40 DUP1 MLOAD PUSH1 0x20 DUP2 ADD DUP12 SWAP1 MSTORE SWAP1 DUP2 ADD DUP5 SWAP1 MSTORE TIMESTAMP PUSH1 0x60 DUP3 ADD MSTORE PUSH1 0x80 DUP2 ADD DUP3 SWAP1 MSTORE SWAP1 SWAP2 POP PUSH0 SWAP1 PUSH1 0xA0 ADD PUSH1 0x40 MLOAD PUSH1 0x20 DUP2 DUP4 SUB SUB DUP2 MSTORE SWAP1 PUSH1 0x40 MSTORE DUP1 MLOAD SWAP1 PUSH1 0x20 ADD KECCAK256 SWAP1 POP PUSH0 PUSH1 0x40 MLOAD DUP1 PUSH1 0xC0 ADD PUSH1 0x40 MSTORE DUP1 DUP4 DUP2 MSTORE PUSH1 0x20 ADD DUP12 DUP2 MSTORE PUSH1 0x20 ADD DUP6 DUP2 MSTORE PUSH1 0x20 ADD DUP11 PUSH1 0x2 DUP2 GT ISZERO PUSH2 0x197A JUMPI PUSH2 0x197A PUSH2 0x299A JUMP JUMPDEST DUP2 MSTORE TIMESTAMP PUSH1 0x20 DUP3 ADD MSTORE PUSH1 0x40 ADD DUP5 SWAP1 MSTORE SWAP1 POP PUSH0 PUSH1 0x4 DUP2 DUP12 PUSH1 0x2 DUP2 GT ISZERO PUSH2 0x19A0 JUMPI PUSH2 0x19A0 PUSH2 0x299A JUMP JUMPDEST PUSH1 0x2 DUP2 GT ISZERO PUSH2 0x19B1 JUMPI PUSH2 0x19B1 PUSH2 0x299A JUMP JUMPDEST DUP2 MSTORE PUSH1 0x20 DUP2 ADD SWAP2 SWAP1 SWAP2 MSTORE PUSH1 0x40 ADD PUSH0 KECCAK256 SLOAD SWAP1 POP DUP4 ISZERO PUSH2 0x1BAF JUMPI PUSH1 0x40 MLOAD PUSH4 0x6CE7F919 PUSH1 0xE1 SHL DUP2 MSTORE PUSH1 0x4 DUP2 ADD DUP6 SWAP1 MSTORE PUSH1 0x24 DUP2 ADD DUP3 SWAP1 MSTORE PUSH32 0x0 PUSH1 0x1 PUSH1 0x1 PUSH1 0xA0 SHL SUB AND SWAP1 PUSH4 0xD9CFF232 SWAP1 PUSH1 0x44 ADD PUSH0 PUSH1 0x40 MLOAD DUP1 DUP4 SUB DUP2 PUSH0 DUP8 DUP1 EXTCODESIZE ISZERO DUP1 ISZERO PUSH2 0x1A2F JUMPI PUSH0 DUP1 REVERT JUMPDEST POP GAS CALL ISZERO DUP1 ISZERO PUSH2 0x1A41 JUMPI RETURNDATASIZE PUSH0 DUP1 RETURNDATACOPY RETURNDATASIZE PUSH0 REVERT JUMPDEST POP POP POP POP PUSH0 DUP12 DUP6 EQ PUSH2 0x1A53 JUMPI DUP12 PUSH2 0x1A55 JUMP JUMPDEST DUP6 JUMPDEST PUSH1 0x40 MLOAD PUSH4 0xC635A789 PUSH1 0xE0 SHL DUP2 MSTORE PUSH1 0x4 DUP2 ADD DUP3 SWAP1 MSTORE PUSH1 0x24 DUP2 ADD DUP5 SWAP1 MSTORE SWAP1 SWAP2 POP PUSH32 0x0 PUSH1 0x1 PUSH1 0x1 PUSH1 0xA0 SHL SUB AND SWAP1 PUSH4 0xC635A789 SWAP1 PUSH1 0x44 ADD PUSH0 PUSH1 0x40 MLOAD DUP1 DUP4 SUB DUP2 PUSH0 DUP8 DUP1 EXTCODESIZE ISZERO DUP1 ISZERO PUSH2 0x1ABE JUMPI PUSH0 DUP1 REVERT JUMPDEST POP GAS CALL ISZERO DUP1 ISZERO PUSH2 0x1AD0 JUMPI RETURNDATASIZE PUSH0 DUP1 RETURNDATACOPY RETURNDATASIZE PUSH0 REVERT JUMPDEST POP POP PUSH1 0x40 MLOAD PUSH4 0x17609459 PUSH1 0xE0 SHL DUP2 MSTORE PUSH1 0x4 DUP2 ADD DUP5 SWAP1 MSTORE PUSH0 SWAP3 POP PUSH32 0x0 PUSH1 0x1 PUSH1 0x1 PUSH1 0xA0 SHL SUB AND SWAP2 POP PUSH4 0x17609459 SWAP1 PUSH1 0x24 ADD PUSH1 0xE0 PUSH1 0x40 MLOAD DUP1 DUP4 SUB DUP2 DUP7 GAS STATICCALL ISZERO DUP1 ISZERO PUSH2 0x1B39 JUMPI RETURNDATASIZE PUSH0 DUP1 RETURNDATACOPY RETURNDATASIZE PUSH0 REVERT JUMPDEST POP POP POP POP PUSH1 0x40 MLOAD RETURNDATASIZE PUSH1 0x1F NOT PUSH1 0x1F DUP3 ADD AND DUP3 ADD DUP1 PUSH1 0x40 MSTORE POP DUP2 ADD SWAP1 PUSH2 0x1B5D SWAP2 SWAP1 PUSH2 0x2C9F JUMP JUMPDEST SWAP1 POP DUP7 DUP3 EQ DUP1 ISZERO PUSH2 0x1B71 JUMPI POP DUP3 DUP2 PUSH1 0xC0 ADD MLOAD LT JUMPDEST ISZERO PUSH2 0x1BAC JUMPI PUSH2 0x1B83 DUP3 DUP3 PUSH0 ADD MLOAD PUSH2 0x233F JUMP JUMPDEST PUSH0 DUP3 DUP2 MSTORE PUSH1 0x9 PUSH1 0x20 MSTORE PUSH1 0x40 DUP2 KECCAK256 DUP1 SLOAD PUSH1 0xFF NOT AND SWAP1 SSTORE PUSH1 0xB DUP1 SLOAD SWAP2 PUSH2 0x1BA6 DUP4 PUSH2 0x2D6B JUMP JUMPDEST SWAP2 SWAP1 POP SSTORE POP JUMPDEST POP POP JUMPDEST PUSH0 DUP6 DUP2 MSTORE PUSH1 0x6 PUSH1 0x20 MSTORE PUSH1 0x40 DUP1 DUP3 KECCAK256 DUP2 MLOAD PUSH1 0x80 DUP2 ADD SWAP1 SWAP3 MSTORE DUP1 SLOAD DUP3 SWAP1 PUSH1 0xFF AND PUSH1 0x2 DUP2 GT ISZERO PUSH2 0x1BDE JUMPI PUSH2 0x1BDE PUSH2 0x299A JUMP JUMPDEST PUSH1 0x2 DUP2 GT ISZERO PUSH2 0x1BEF JUMPI PUSH2 0x1BEF PUSH2 0x299A JUMP JUMPDEST DUP2 MSTORE DUP2 SLOAD PUSH1 0xFF PUSH2 0x100 SWAP1 SWAP2 DIV DUP2 AND PUSH1 0x20 DUP1 DUP5 ADD SWAP2 SWAP1 SWAP2 MSTORE PUSH1 0x1 DUP5 ADD SLOAD PUSH1 0x40 DUP1 DUP6 ADD SWAP2 SWAP1 SWAP2 MSTORE PUSH1 0x2 SWAP1 SWAP5 ADD SLOAD PUSH1 0x60 SWAP1 SWAP4 ADD SWAP3 SWAP1 SWAP3 MSTORE PUSH0 DUP11 DUP2 MSTORE PUSH1 0x9 SWAP1 SWAP3 MSTORE SWAP2 SWAP1 KECCAK256 SLOAD SWAP2 SWAP3 POP AND DUP1 ISZERO PUSH2 0x1CBD JUMPI DUP2 PUSH1 0x20 ADD MLOAD PUSH1 0xFF AND PUSH1 0x1 SUB PUSH2 0x1C80 JUMPI PUSH2 0x1C53 DUP8 DUP13 PUSH2 0x233F JUMP JUMPDEST PUSH0 DUP8 DUP2 MSTORE PUSH1 0x9 PUSH1 0x20 MSTORE PUSH1 0x40 DUP2 KECCAK256 DUP1 SLOAD PUSH1 0xFF NOT AND SWAP1 SSTORE PUSH1 0xB DUP1 SLOAD SWAP2 PUSH2 0x1C76 DUP4 PUSH2 0x2D6B JUMP JUMPDEST SWAP2 SWAP1 POP SSTORE POP PUSH2 0x1CBD JUMP JUMPDEST PUSH0 DUP8 DUP2 MSTORE PUSH1 0x6 PUSH1 0x20 MSTORE PUSH1 0x40 SWAP1 KECCAK256 DUP1 SLOAD PUSH2 0x100 SWAP1 DIV PUSH1 0xFF AND SWAP1 PUSH1 0x1 PUSH2 0x1CA3 DUP4 PUSH2 0x2DD8 JUMP JUMPDEST SWAP2 SWAP1 PUSH2 0x100 EXP DUP2 SLOAD DUP2 PUSH1 0xFF MUL NOT AND SWAP1 DUP4 PUSH1 0xFF AND MUL OR SWAP1 SSTORE POP POP JUMPDEST DUP4 PUSH1 0x7 PUSH0 DUP8 DUP2 MSTORE PUSH1 0x20 ADD SWAP1 DUP2 MSTORE PUSH1 0x20 ADD PUSH0 KECCAK256 PUSH0 DUP3 ADD MLOAD DUP2 PUSH0 ADD SSTORE PUSH1 0x20 DUP3 ADD MLOAD DUP2 PUSH1 0x1 ADD SSTORE PUSH1 0x40 DUP3 ADD MLOAD DUP2 PUSH1 0x2 ADD SSTORE PUSH1 0x60 DUP3 ADD MLOAD DUP2 PUSH1 0x3 ADD PUSH0 PUSH2 0x100 EXP DUP2 SLOAD DUP2 PUSH1 0xFF MUL NOT AND SWAP1 DUP4 PUSH1 0x2 DUP2 GT ISZERO PUSH2 0x1D14 JUMPI PUSH2 0x1D14 PUSH2 0x299A JUMP JUMPDEST MUL OR SWAP1 SSTORE POP PUSH1 0x80 DUP3 ADD MLOAD DUP2 PUSH1 0x4 ADD SSTORE PUSH1 0xA0 DUP3 ADD MLOAD DUP2 PUSH1 0x5 ADD SSTORE SWAP1 POP POP PUSH1 0x8 DUP6 SWAP1 DUP1 PUSH1 0x1 DUP2 SLOAD ADD DUP1 DUP3 SSTORE DUP1 SWAP2 POP POP PUSH1 0x1 SWAP1 SUB SWAP1 PUSH0 MSTORE PUSH1 0x20 PUSH0 KECCAK256 ADD PUSH0 SWAP1 SWAP2 SWAP1 SWAP2 SWAP1 SWAP2 POP SSTORE DUP6 DUP8 DUP15 PUSH32 0x999413205BDE6BBF373C9CE730C0172C29849910D85128F67B53AEA3AB18D76A PUSH1 0x40 MLOAD PUSH1 0x40 MLOAD DUP1 SWAP2 SUB SWAP1 LOG4 POP POP POP POP POP POP POP POP POP POP PUSH2 0x1D98 PUSH1 0x1 DUP1 SSTORE JUMP JUMPDEST POP POP POP JUMP JUMPDEST PUSH2 0x1DA5 PUSH2 0x230F JUMP JUMPDEST PUSH1 0x40 MLOAD PUSH4 0x31A9108F PUSH1 0xE1 SHL DUP2 MSTORE PUSH1 0x4 DUP2 ADD DUP5 SWAP1 MSTORE CALLER SWAP1 PUSH1 0x1 PUSH1 0x1 PUSH1 0xA0 SHL SUB PUSH32 0x0 AND SWAP1 PUSH4 0x6352211E SWAP1 PUSH1 0x24 ADD PUSH1 0x20 PUSH1 0x40 MLOAD DUP1 DUP4 SUB DUP2 DUP7 GAS STATICCALL ISZERO DUP1 ISZERO PUSH2 0x1E0A JUMPI RETURNDATASIZE PUSH0 DUP1 RETURNDATACOPY RETURNDATASIZE PUSH0 REVERT JUMPDEST POP POP POP POP PUSH1 0x40 MLOAD RETURNDATASIZE PUSH1 0x1F NOT PUSH1 0x1F DUP3 ADD AND DUP3 ADD DUP1 PUSH1 0x40 MSTORE POP DUP2 ADD SWAP1 PUSH2 0x1E2E SWAP2 SWAP1 PUSH2 0x2C44 JUMP JUMPDEST PUSH1 0x1 PUSH1 0x1 PUSH1 0xA0 SHL SUB AND EQ PUSH2 0x1E54 JUMPI PUSH1 0x40 MLOAD PUSH3 0x461BCD PUSH1 0xE5 SHL DUP2 MSTORE PUSH1 0x4 ADD PUSH2 0x5F2 SWAP1 PUSH2 0x2C5F JUMP JUMPDEST PUSH0 DUP4 DUP2 MSTORE PUSH1 0x9 PUSH1 0x20 MSTORE PUSH1 0x40 SWAP1 KECCAK256 SLOAD PUSH1 0xFF AND ISZERO PUSH2 0x1E82 JUMPI PUSH1 0x40 MLOAD PUSH3 0x461BCD PUSH1 0xE5 SHL DUP2 MSTORE PUSH1 0x4 ADD PUSH2 0x5F2 SWAP1 PUSH2 0x2D94 JUMP JUMPDEST PUSH0 DUP4 DUP2 MSTORE PUSH1 0xA PUSH1 0x20 MSTORE PUSH1 0x40 SWAP1 KECCAK256 PUSH1 0x2 ADD SLOAD PUSH1 0xFF AND ISZERO PUSH2 0x1EE3 JUMPI PUSH1 0x40 MLOAD PUSH3 0x461BCD PUSH1 0xE5 SHL DUP2 MSTORE PUSH1 0x20 PUSH1 0x4 DUP3 ADD MSTORE PUSH1 0x1B PUSH1 0x24 DUP3 ADD MSTORE PUSH32 0x506C617965722069732063757272656E746C792072657374696E670000000000 PUSH1 0x44 DUP3 ADD MSTORE PUSH1 0x64 ADD PUSH2 0x5F2 JUMP JUMPDEST PUSH1 0x40 MLOAD PUSH4 0x17609459 PUSH1 0xE0 SHL DUP2 MSTORE PUSH1 0x4 DUP2 ADD DUP5 SWAP1 MSTORE PUSH0 SWAP1 PUSH32 0x0 PUSH1 0x1 PUSH1 0x1 PUSH1 0xA0 SHL SUB AND SWAP1 PUSH4 0x17609459 SWAP1 PUSH1 0x24 ADD PUSH1 0xE0 PUSH1 0x40 MLOAD DUP1 DUP4 SUB DUP2 DUP7 GAS STATICCALL ISZERO DUP1 ISZERO PUSH2 0x1F48 JUMPI RETURNDATASIZE PUSH0 DUP1 RETURNDATACOPY RETURNDATASIZE PUSH0 REVERT JUMPDEST POP POP POP POP PUSH1 0x40 MLOAD RETURNDATASIZE PUSH1 0x1F NOT PUSH1 0x1F DUP3 ADD AND DUP3 ADD DUP1 PUSH1 0x40 MSTORE POP DUP2 ADD SWAP1 PUSH2 0x1F6C SWAP2 SWAP1 PUSH2 0x2C9F JUMP JUMPDEST SWAP1 POP PUSH1 0x4 PUSH0 DUP5 PUSH1 0x2 DUP2 GT ISZERO PUSH2 0x1F83 JUMPI PUSH2 0x1F83 PUSH2 0x299A JUMP JUMPDEST PUSH1 0x2 DUP2 GT ISZERO PUSH2 0x1F94 JUMPI PUSH2 0x1F94 PUSH2 0x299A JUMP JUMPDEST DUP2 MSTORE PUSH1 0x20 ADD SWAP1 DUP2 MSTORE PUSH1 0x20 ADD PUSH0 KECCAK256 PUSH0 ADD SLOAD DUP2 PUSH1 0xC0 ADD MLOAD LT ISZERO PUSH2 0x2010 JUMPI PUSH1 0x40 MLOAD PUSH3 0x461BCD PUSH1 0xE5 SHL DUP2 MSTORE PUSH1 0x20 PUSH1 0x4 DUP3 ADD MSTORE PUSH1 0x30 PUSH1 0x24 DUP3 ADD MSTORE PUSH32 0x596F7520646F6E2774206861766520656E6F7567682062616C616E63652E2054 PUSH1 0x44 DUP3 ADD MSTORE PUSH16 0x7279207265636F76657279207A6F6E65 PUSH1 0x80 SHL PUSH1 0x64 DUP3 ADD MSTORE PUSH1 0x84 ADD PUSH2 0x5F2 JUMP JUMPDEST PUSH0 PUSH1 0x5 PUSH0 DUP6 PUSH1 0x2 DUP2 GT ISZERO PUSH2 0x2026 JUMPI PUSH2 0x2026 PUSH2 0x299A JUMP JUMPDEST PUSH1 0x2 DUP2 GT ISZERO PUSH2 0x2037 JUMPI PUSH2 0x2037 PUSH2 0x299A JUMP JUMPDEST DUP2 MSTORE PUSH1 0x20 ADD SWAP1 DUP2 MSTORE PUSH1 0x20 ADD PUSH0 KECCAK256 PUSH0 DUP4 PUSH0 ADD MLOAD PUSH1 0x5 DUP2 GT ISZERO PUSH2 0x205A JUMPI PUSH2 0x205A PUSH2 0x299A JUMP JUMPDEST PUSH1 0x5 DUP2 GT ISZERO PUSH2 0x206B JUMPI PUSH2 0x206B PUSH2 0x299A JUMP JUMPDEST DUP2 MSTORE PUSH1 0x20 ADD SWAP1 DUP2 MSTORE PUSH1 0x20 ADD PUSH0 KECCAK256 DUP1 SLOAD SWAP1 POP SWAP1 POP PUSH0 PUSH1 0x40 MLOAD DUP1 PUSH1 0x80 ADD PUSH1 0x40 MSTORE DUP1 DUP7 PUSH1 0x2 DUP2 GT ISZERO PUSH2 0x209C JUMPI PUSH2 0x209C PUSH2 0x299A JUMP JUMPDEST DUP2 MSTORE PUSH1 0x20 ADD DUP6 PUSH1 0xFF AND DUP2 MSTORE PUSH1 0x20 ADD DUP8 DUP2 MSTORE PUSH1 0x20 ADD DUP4 DUP2 MSTORE POP SWAP1 POP PUSH1 0x5 PUSH0 DUP7 PUSH1 0x2 DUP2 GT ISZERO PUSH2 0x20CB JUMPI PUSH2 0x20CB PUSH2 0x299A JUMP JUMPDEST PUSH1 0x2 DUP2 GT ISZERO PUSH2 0x20DC JUMPI PUSH2 0x20DC PUSH2 0x299A JUMP JUMPDEST DUP2 MSTORE PUSH1 0x20 ADD SWAP1 DUP2 MSTORE PUSH1 0x20 ADD PUSH0 KECCAK256 PUSH0 DUP5 PUSH0 ADD MLOAD PUSH1 0x5 DUP2 GT ISZERO PUSH2 0x20FF JUMPI PUSH2 0x20FF PUSH2 0x299A JUMP JUMPDEST PUSH1 0x5 DUP2 GT ISZERO PUSH2 0x2110 JUMPI PUSH2 0x2110 PUSH2 0x299A JUMP JUMPDEST DUP2 MSTORE PUSH1 0x20 DUP1 DUP3 ADD SWAP3 SWAP1 SWAP3 MSTORE PUSH1 0x40 SWAP1 DUP2 ADD PUSH0 SWAP1 DUP2 KECCAK256 DUP1 SLOAD PUSH1 0x1 DUP2 DUP2 ADD DUP4 SSTORE SWAP2 DUP4 MSTORE DUP5 DUP4 KECCAK256 ADD DUP11 SWAP1 SSTORE DUP10 DUP3 MSTORE PUSH1 0x6 SWAP1 SWAP4 MSTORE KECCAK256 DUP3 MLOAD DUP2 SLOAD DUP5 SWAP4 DUP4 SWAP2 PUSH1 0xFF NOT AND SWAP1 DUP4 PUSH1 0x2 DUP2 GT ISZERO PUSH2 0x215F JUMPI PUSH2 0x215F PUSH2 0x299A JUMP JUMPDEST MUL OR SWAP1 SSTORE POP PUSH1 0x20 DUP3 DUP2 ADD MLOAD DUP3 SLOAD PUSH1 0xFF SWAP1 SWAP2 AND PUSH2 0x100 MUL PUSH2 0xFF00 NOT SWAP1 SWAP2 AND OR DUP3 SSTORE PUSH1 0x40 DUP1 DUP5 ADD MLOAD PUSH1 0x1 DUP1 DUP6 ADD SWAP2 SWAP1 SWAP2 SSTORE PUSH1 0x60 SWAP1 SWAP5 ADD MLOAD PUSH1 0x2 SWAP1 SWAP4 ADD SWAP3 SWAP1 SWAP3 SSTORE PUSH0 DUP10 DUP2 MSTORE PUSH1 0x9 SWAP1 SWAP2 MSTORE SWAP1 DUP2 KECCAK256 DUP1 SLOAD PUSH1 0xFF NOT AND SWAP1 SWAP3 OR SWAP1 SWAP2 SSTORE PUSH1 0xB DUP1 SLOAD SWAP2 PUSH2 0x21C3 DUP4 PUSH2 0x2DF3 JUMP JUMPDEST SWAP2 SWAP1 POP SSTORE POP DUP4 PUSH1 0xFF AND DUP6 PUSH1 0x2 DUP2 GT ISZERO PUSH2 0x21DE JUMPI PUSH2 0x21DE PUSH2 0x299A JUMP JUMPDEST PUSH1 0x40 MLOAD DUP9 SWAP1 PUSH32 0xC96FB86481BF31BE9095BFB61554742F7609207E464D61452950387B7FE6607A SWAP1 PUSH0 SWAP1 LOG4 POP POP POP PUSH2 0x1D98 PUSH1 0x1 DUP1 SSTORE JUMP JUMPDEST PUSH2 0x224A PUSH1 0x40 DUP1 MLOAD PUSH1 0xC0 DUP2 ADD DUP3 MSTORE PUSH0 DUP1 DUP3 MSTORE PUSH1 0x20 DUP3 ADD DUP2 SWAP1 MSTORE SWAP2 DUP2 ADD DUP3 SWAP1 MSTORE SWAP1 PUSH1 0x60 DUP3 ADD SWAP1 DUP2 MSTORE PUSH1 0x20 ADD PUSH0 DUP2 MSTORE PUSH1 0x20 ADD PUSH0 DUP2 MSTORE POP SWAP1 JUMP JUMPDEST PUSH1 0x7 PUSH0 DUP4 DUP2 MSTORE PUSH1 0x20 ADD SWAP1 DUP2 MSTORE PUSH1 0x20 ADD PUSH0 KECCAK256 PUSH1 0x40 MLOAD DUP1 PUSH1 0xC0 ADD PUSH1 0x40 MSTORE SWAP1 DUP2 PUSH0 DUP3 ADD SLOAD DUP2 MSTORE PUSH1 0x20 ADD PUSH1 0x1 DUP3 ADD SLOAD DUP2 MSTORE PUSH1 0x20 ADD PUSH1 0x2 DUP3 ADD SLOAD DUP2 MSTORE PUSH1 0x20 ADD PUSH1 0x3 DUP3 ADD PUSH0 SWAP1 SLOAD SWAP1 PUSH2 0x100 EXP SWAP1 DIV PUSH1 0xFF AND PUSH1 0x2 DUP2 GT ISZERO PUSH2 0x22A6 JUMPI PUSH2 0x22A6 PUSH2 0x299A JUMP JUMPDEST PUSH1 0x2 DUP2 GT ISZERO PUSH2 0x22B7 JUMPI PUSH2 0x22B7 PUSH2 0x299A JUMP JUMPDEST DUP2 MSTORE PUSH1 0x4 DUP3 ADD SLOAD PUSH1 0x20 DUP3 ADD MSTORE PUSH1 0x5 SWAP1 SWAP2 ADD SLOAD PUSH1 0x40 SWAP1 SWAP2 ADD MSTORE SWAP3 SWAP2 POP POP JUMP JUMPDEST PUSH2 0x22DD PUSH2 0x27CB JUMP JUMPDEST PUSH1 0x1 PUSH1 0x1 PUSH1 0xA0 SHL SUB DUP2 AND PUSH2 0x2306 JUMPI PUSH1 0x40 MLOAD PUSH4 0x1E4FBDF7 PUSH1 0xE0 SHL DUP2 MSTORE PUSH0 PUSH1 0x4 DUP3 ADD MSTORE PUSH1 0x24 ADD PUSH2 0x5F2 JUMP JUMPDEST PUSH2 0x880 DUP2 PUSH2 0x27F7 JUMP JUMPDEST PUSH1 0x2 PUSH1 0x1 SLOAD SUB PUSH2 0x2332 JUMPI PUSH1 0x40 MLOAD PUSH4 0x3EE5AEB5 PUSH1 0xE0 SHL DUP2 MSTORE PUSH1 0x4 ADD PUSH1 0x40 MLOAD DUP1 SWAP2 SUB SWAP1 REVERT JUMPDEST PUSH1 0x2 PUSH1 0x1 SSTORE JUMP JUMPDEST PUSH1 0x1 DUP1 SSTORE JUMP JUMPDEST PUSH0 DUP3 DUP2 MSTORE PUSH1 0x6 PUSH1 0x20 MSTORE PUSH1 0x40 DUP1 DUP3 KECCAK256 DUP2 MLOAD PUSH1 0x80 DUP2 ADD SWAP1 SWAP3 MSTORE DUP1 SLOAD DUP3 SWAP1 PUSH1 0xFF AND PUSH1 0x2 DUP2 GT ISZERO PUSH2 0x236E JUMPI PUSH2 0x236E PUSH2 0x299A JUMP JUMPDEST PUSH1 0x2 DUP2 GT ISZERO PUSH2 0x237F JUMPI PUSH2 0x237F PUSH2 0x299A JUMP JUMPDEST DUP2 MSTORE DUP2 SLOAD PUSH2 0x100 SWAP1 DIV PUSH1 0xFF AND PUSH1 0x20 DUP3 ADD MSTORE PUSH1 0x1 DUP3 ADD SLOAD PUSH1 0x40 DUP3 ADD MSTORE PUSH1 0x2 SWAP2 DUP3 ADD SLOAD PUSH1 0x60 SWAP1 SWAP2 ADD MSTORE DUP2 MLOAD SWAP2 SWAP3 POP PUSH0 SWAP2 PUSH1 0x5 SWAP2 DUP4 SWAP2 SWAP1 DUP2 GT ISZERO PUSH2 0x23C2 JUMPI PUSH2 0x23C2 PUSH2 0x299A JUMP JUMPDEST PUSH1 0x2 DUP2 GT ISZERO PUSH2 0x23D3 JUMPI PUSH2 0x23D3 PUSH2 0x299A JUMP JUMPDEST DUP2 MSTORE PUSH1 0x20 ADD SWAP1 DUP2 MSTORE PUSH1 0x20 ADD PUSH0 KECCAK256 PUSH0 DUP5 PUSH1 0x5 DUP2 GT ISZERO PUSH2 0x23F3 JUMPI PUSH2 0x23F3 PUSH2 0x299A JUMP JUMPDEST PUSH1 0x5 DUP2 GT ISZERO PUSH2 0x2404 JUMPI PUSH2 0x2404 PUSH2 0x299A JUMP JUMPDEST DUP2 MSTORE PUSH1 0x20 DUP2 ADD SWAP2 SWAP1 SWAP2 MSTORE PUSH1 0x40 ADD PUSH0 KECCAK256 SLOAD SWAP1 POP PUSH2 0x2421 PUSH1 0x1 DUP3 PUSH2 0x2E0B JUMP JUMPDEST DUP3 PUSH1 0x60 ADD MLOAD SUB PUSH2 0x254D JUMPI PUSH1 0x5 PUSH0 DUP4 PUSH0 ADD MLOAD PUSH1 0x2 DUP2 GT ISZERO PUSH2 0x2443 JUMPI PUSH2 0x2443 PUSH2 0x299A JUMP JUMPDEST PUSH1 0x2 DUP2 GT ISZERO PUSH2 0x2454 JUMPI PUSH2 0x2454 PUSH2 0x299A JUMP JUMPDEST DUP2 MSTORE PUSH1 0x20 ADD SWAP1 DUP2 MSTORE PUSH1 0x20 ADD PUSH0 KECCAK256 PUSH0 DUP5 PUSH1 0x5 DUP2 GT ISZERO PUSH2 0x2474 JUMPI PUSH2 0x2474 PUSH2 0x299A JUMP JUMPDEST PUSH1 0x5 DUP2 GT ISZERO PUSH2 0x2485 JUMPI PUSH2 0x2485 PUSH2 0x299A JUMP JUMPDEST DUP2 MSTORE PUSH1 0x20 ADD SWAP1 DUP2 MSTORE PUSH1 0x20 ADD PUSH0 KECCAK256 DUP1 SLOAD DUP1 PUSH2 0x24A1 JUMPI PUSH2 0x24A1 PUSH2 0x2E1E JUMP JUMPDEST PUSH1 0x1 SWAP1 SUB DUP2 DUP2 SWAP1 PUSH0 MSTORE PUSH1 0x20 PUSH0 KECCAK256 ADD PUSH0 SWAP1 SSTORE SWAP1 SSTORE PUSH1 0x40 MLOAD DUP1 PUSH1 0x80 ADD PUSH1 0x40 MSTORE DUP1 PUSH0 PUSH1 0x2 DUP2 GT ISZERO PUSH2 0x24D1 JUMPI PUSH2 0x24D1 PUSH2 0x299A JUMP JUMPDEST DUP2 MSTORE PUSH0 PUSH1 0x20 DUP1 DUP4 ADD DUP3 SWAP1 MSTORE PUSH1 0x40 DUP1 DUP5 ADD DUP4 SWAP1 MSTORE PUSH1 0x60 SWAP1 SWAP4 ADD DUP3 SWAP1 MSTORE DUP8 DUP3 MSTORE PUSH1 0x6 SWAP1 MSTORE KECCAK256 DUP2 MLOAD DUP2 SLOAD DUP3 SWAP1 PUSH1 0xFF NOT AND PUSH1 0x1 DUP4 PUSH1 0x2 DUP2 GT ISZERO PUSH2 0x2512 JUMPI PUSH2 0x2512 PUSH2 0x299A JUMP JUMPDEST MUL OR SWAP1 SSTORE POP PUSH1 0x20 DUP3 ADD MLOAD DUP2 SLOAD PUSH1 0xFF SWAP1 SWAP2 AND PUSH2 0x100 MUL PUSH2 0xFF00 NOT SWAP1 SWAP2 AND OR DUP2 SSTORE PUSH1 0x40 DUP3 ADD MLOAD PUSH1 0x1 DUP3 ADD SSTORE PUSH1 0x60 SWAP1 SWAP2 ADD MLOAD PUSH1 0x2 SWAP1 SWAP2 ADD SSTORE POP POP POP POP JUMP JUMPDEST PUSH0 PUSH1 0x5 PUSH0 DUP5 PUSH0 ADD MLOAD PUSH1 0x2 DUP2 GT ISZERO PUSH2 0x2566 JUMPI PUSH2 0x2566 PUSH2 0x299A JUMP JUMPDEST PUSH1 0x2 DUP2 GT ISZERO PUSH2 0x2577 JUMPI PUSH2 0x2577 PUSH2 0x299A JUMP JUMPDEST DUP2 MSTORE PUSH1 0x20 ADD SWAP1 DUP2 MSTORE PUSH1 0x20 ADD PUSH0 KECCAK256 PUSH0 DUP6 PUSH1 0x5 DUP2 GT ISZERO PUSH2 0x2597 JUMPI PUSH2 0x2597 PUSH2 0x299A JUMP JUMPDEST PUSH1 0x5 DUP2 GT ISZERO PUSH2 0x25A8 JUMPI PUSH2 0x25A8 PUSH2 0x299A JUMP JUMPDEST DUP2 MSTORE PUSH1 0x20 ADD SWAP1 DUP2 MSTORE PUSH1 0x20 ADD PUSH0 KECCAK256 PUSH1 0x1 DUP4 PUSH2 0x25C2 SWAP2 SWAP1 PUSH2 0x2E0B JUMP JUMPDEST DUP2 SLOAD DUP2 LT PUSH2 0x25D2 JUMPI PUSH2 0x25D2 PUSH2 0x2D80 JUMP JUMPDEST SWAP1 PUSH0 MSTORE PUSH1 0x20 PUSH0 KECCAK256 ADD SLOAD SWAP1 POP DUP1 PUSH1 0x5 PUSH0 DUP6 PUSH0 ADD MLOAD PUSH1 0x2 DUP2 GT ISZERO PUSH2 0x25F6 JUMPI PUSH2 0x25F6 PUSH2 0x299A JUMP JUMPDEST PUSH1 0x2 DUP2 GT ISZERO PUSH2 0x2607 JUMPI PUSH2 0x2607 PUSH2 0x299A JUMP JUMPDEST DUP2 MSTORE PUSH1 0x20 ADD SWAP1 DUP2 MSTORE PUSH1 0x20 ADD PUSH0 KECCAK256 PUSH0 DUP7 PUSH1 0x5 DUP2 GT ISZERO PUSH2 0x2627 JUMPI PUSH2 0x2627 PUSH2 0x299A JUMP JUMPDEST PUSH1 0x5 DUP2 GT ISZERO PUSH2 0x2638 JUMPI PUSH2 0x2638 PUSH2 0x299A JUMP JUMPDEST DUP2 MSTORE PUSH1 0x20 ADD SWAP1 DUP2 MSTORE PUSH1 0x20 ADD PUSH0 KECCAK256 DUP5 PUSH1 0x60 ADD MLOAD DUP2 SLOAD DUP2 LT PUSH2 0x265A JUMPI PUSH2 0x265A PUSH2 0x2D80 JUMP JUMPDEST PUSH0 SWAP2 DUP3 MSTORE PUSH1 0x20 DUP1 DUP4 KECCAK256 SWAP1 SWAP2 ADD SWAP3 SWAP1 SWAP3 SSTORE PUSH1 0x60 DUP6 ADD MLOAD DUP4 DUP3 MSTORE PUSH1 0x6 SWAP1 SWAP3 MSTORE PUSH1 0x40 DUP2 KECCAK256 PUSH1 0x2 SWAP1 DUP2 ADD SWAP3 SWAP1 SWAP3 SSTORE DUP5 MLOAD PUSH1 0x5 SWAP3 DUP2 GT ISZERO PUSH2 0x2698 JUMPI PUSH2 0x2698 PUSH2 0x299A JUMP JUMPDEST PUSH1 0x2 DUP2 GT ISZERO PUSH2 0x26A9 JUMPI PUSH2 0x26A9 PUSH2 0x299A JUMP JUMPDEST DUP2 MSTORE PUSH1 0x20 ADD SWAP1 DUP2 MSTORE PUSH1 0x20 ADD PUSH0 KECCAK256 PUSH0 DUP6 PUSH1 0x5 DUP2 GT ISZERO PUSH2 0x26C9 JUMPI PUSH2 0x26C9 PUSH2 0x299A JUMP JUMPDEST PUSH1 0x5 DUP2 GT ISZERO PUSH2 0x26DA JUMPI PUSH2 0x26DA PUSH2 0x299A JUMP JUMPDEST DUP2 MSTORE PUSH1 0x20 ADD SWAP1 DUP2 MSTORE PUSH1 0x20 ADD PUSH0 KECCAK256 DUP1 SLOAD DUP1 PUSH2 0x26F6 JUMPI PUSH2 0x26F6 PUSH2 0x2E1E JUMP JUMPDEST PUSH1 0x1 SWAP1 SUB DUP2 DUP2 SWAP1 PUSH0 MSTORE PUSH1 0x20 PUSH0 KECCAK256 ADD PUSH0 SWAP1 SSTORE SWAP1 SSTORE PUSH1 0x40 MLOAD DUP1 PUSH1 0x80 ADD PUSH1 0x40 MSTORE DUP1 PUSH0 PUSH1 0x2 DUP2 GT ISZERO PUSH2 0x2726 JUMPI PUSH2 0x2726 PUSH2 0x299A JUMP JUMPDEST DUP2 MSTORE PUSH0 PUSH1 0x20 DUP1 DUP4 ADD DUP3 SWAP1 MSTORE PUSH1 0x40 DUP1 DUP5 ADD DUP4 SWAP1 MSTORE PUSH1 0x60 SWAP1 SWAP4 ADD DUP3 SWAP1 MSTORE DUP9 DUP3 MSTORE PUSH1 0x6 SWAP1 MSTORE KECCAK256 DUP2 MLOAD DUP2 SLOAD DUP3 SWAP1 PUSH1 0xFF NOT AND PUSH1 0x1 DUP4 PUSH1 0x2 DUP2 GT ISZERO PUSH2 0x2767 JUMPI PUSH2 0x2767 PUSH2 0x299A JUMP JUMPDEST MUL OR SWAP1 SSTORE POP PUSH1 0x20 DUP3 ADD MLOAD DUP2 SLOAD PUSH1 0xFF SWAP1 SWAP2 AND PUSH2 0x100 MUL PUSH2 0xFF00 NOT SWAP1 SWAP2 AND OR DUP2 SSTORE PUSH1 0x40 DUP3 ADD MLOAD PUSH1 0x1 DUP3 ADD SSTORE PUSH1 0x60 SWAP1 SWAP2 ADD MLOAD PUSH1 0x2 SWAP1 SWAP2 ADD SSTORE POP POP POP POP POP JUMP JUMPDEST PUSH0 PUSH2 0x27AE DUP3 DUP5 PUSH2 0x2E0B JUMP JUMPDEST SWAP4 SWAP3 POP POP POP JUMP JUMPDEST PUSH0 PUSH2 0x27AE DUP3 DUP5 PUSH2 0x2E32 JUMP JUMPDEST PUSH0 PUSH2 0x27AE DUP3 DUP5 PUSH2 0x2E5D JUMP JUMPDEST PUSH0 SLOAD PUSH1 0x1 PUSH1 0x1 PUSH1 0xA0 SHL SUB AND CALLER EQ PUSH2 0xE91 JUMPI PUSH1 0x40 MLOAD PUSH4 0x118CDAA7 PUSH1 0xE0 SHL DUP2 MSTORE CALLER PUSH1 0x4 DUP3 ADD MSTORE PUSH1 0x24 ADD PUSH2 0x5F2 JUMP JUMPDEST PUSH0 DUP1 SLOAD PUSH1 0x1 PUSH1 0x1 PUSH1 0xA0 SHL SUB DUP4 DUP2 AND PUSH1 0x1 PUSH1 0x1 PUSH1 0xA0 SHL SUB NOT DUP4 AND DUP2 OR DUP5 SSTORE PUSH1 0x40 MLOAD SWAP2 SWAP1 SWAP3 AND SWAP3 DUP4 SWAP2 PUSH32 0x8BE0079C531659141344CD1FD0A4F28419497F9722A3DAAFE3B4186F6B6457E0 SWAP2 SWAP1 LOG3 POP POP JUMP JUMPDEST PUSH1 0x2 DUP1 SLOAD PUSH0 SWAP2 DUP3 PUSH2 0x2856 DUP4 PUSH2 0x2DF3 JUMP JUMPDEST SWAP1 SWAP2 SSTORE POP PUSH0 SWAP1 POP PUSH2 0x2868 PUSH1 0x1 NUMBER PUSH2 0x2E0B JUMP JUMPDEST PUSH1 0x2 SLOAD PUSH1 0x40 DUP1 MLOAD SWAP3 BLOCKHASH PUSH1 0x20 DUP5 ADD MSTORE TIMESTAMP SWAP1 DUP4 ADD MSTORE PUSH1 0x60 DUP3 ADD MSTORE PUSH1 0x80 ADD PUSH1 0x40 DUP1 MLOAD PUSH1 0x1F NOT DUP2 DUP5 SUB ADD DUP2 MSTORE SWAP2 SWAP1 MSTORE DUP1 MLOAD PUSH1 0x20 SWAP1 SWAP2 ADD KECCAK256 SWAP1 POP PUSH2 0x27AE DUP4 DUP3 PUSH2 0x2E70 JUMP JUMPDEST PUSH1 0x40 MLOAD DUP1 PUSH1 0x80 ADD PUSH1 0x40 MSTORE DUP1 PUSH0 ISZERO ISZERO DUP2 MSTORE PUSH1 0x20 ADD PUSH0 DUP2 MSTORE PUSH1 0x20 ADD PUSH2 0x28E3 PUSH1 0x40 MLOAD DUP1 PUSH1 0x60 ADD PUSH1 0x40 MSTORE DUP1 PUSH0 DUP2 MSTORE PUSH1 0x20 ADD PUSH0 DUP2 MSTORE PUSH1 0x20 ADD PUSH0 ISZERO ISZERO DUP2 MSTORE POP SWAP1 JUMP JUMPDEST DUP2 MSTORE PUSH1 0x40 DUP1 MLOAD PUSH1 0x80 DUP2 ADD DUP3 MSTORE PUSH0 DUP1 DUP3 MSTORE PUSH1 0x20 DUP3 DUP2 ADD DUP3 SWAP1 MSTORE SWAP3 DUP3 ADD DUP2 SWAP1 MSTORE PUSH1 0x60 DUP3 ADD MSTORE SWAP2 ADD MSTORE SWAP1 JUMP JUMPDEST PUSH0 PUSH1 0x20 DUP3 DUP5 SUB SLT ISZERO PUSH2 0x291C JUMPI PUSH0 DUP1 REVERT JUMPDEST POP CALLDATALOAD SWAP2 SWAP1 POP JUMP JUMPDEST DUP2 MLOAD DUP2 MSTORE PUSH1 0x20 DUP1 DUP4 ADD MLOAD SWAP1 DUP3 ADD MSTORE PUSH1 0x40 DUP1 DUP4 ADD MLOAD ISZERO ISZERO SWAP1 DUP3 ADD MSTORE PUSH1 0x60 DUP2 ADD PUSH2 0x94E JUMP JUMPDEST DUP1 CALLDATALOAD PUSH1 0x3 DUP2 LT PUSH2 0x2954 JUMPI PUSH0 DUP1 REVERT JUMPDEST SWAP2 SWAP1 POP JUMP JUMPDEST PUSH1 0x6 DUP2 LT PUSH2 0x880 JUMPI PUSH0 DUP1 REVERT JUMPDEST PUSH0 DUP1 PUSH1 0x40 DUP4 DUP6 SUB SLT ISZERO PUSH2 0x2976 JUMPI PUSH0 DUP1 REVERT JUMPDEST PUSH2 0x297F DUP4 PUSH2 0x2946 JUMP JUMPDEST SWAP2 POP PUSH1 0x20 DUP4 ADD CALLDATALOAD PUSH2 0x298F DUP2 PUSH2 0x2959 JUMP JUMPDEST DUP1 SWAP2 POP POP SWAP3 POP SWAP3 SWAP1 POP JUMP JUMPDEST PUSH4 0x4E487B71 PUSH1 0xE0 SHL PUSH0 MSTORE PUSH1 0x21 PUSH1 0x4 MSTORE PUSH1 0x24 PUSH0 REVERT JUMPDEST PUSH1 0x3 DUP2 LT PUSH2 0x29BE JUMPI PUSH2 0x29BE PUSH2 0x299A JUMP JUMPDEST SWAP1 MSTORE JUMP JUMPDEST DUP7 DUP2 MSTORE PUSH1 0x20 DUP2 ADD DUP7 SWAP1 MSTORE PUSH1 0x40 DUP2 ADD DUP6 SWAP1 MSTORE PUSH1 0xC0 DUP2 ADD PUSH2 0x29E4 PUSH1 0x60 DUP4 ADD DUP7 PUSH2 0x29AE JUMP JUMPDEST PUSH1 0x80 DUP3 ADD SWAP4 SWAP1 SWAP4 MSTORE PUSH1 0xA0 ADD MSTORE SWAP5 SWAP4 POP POP POP POP JUMP JUMPDEST PUSH0 PUSH1 0x20 DUP3 DUP5 SUB SLT ISZERO PUSH2 0x2A08 JUMPI PUSH0 DUP1 REVERT JUMPDEST PUSH2 0x27AE DUP3 PUSH2 0x2946 JUMP JUMPDEST PUSH2 0x2A1C DUP3 DUP3 MLOAD PUSH2 0x29AE JUMP JUMPDEST PUSH1 0xFF PUSH1 0x20 DUP3 ADD MLOAD AND PUSH1 0x20 DUP4 ADD MSTORE PUSH1 0x40 DUP2 ADD MLOAD PUSH1 0x40 DUP4 ADD MSTORE PUSH1 0x60 DUP2 ADD MLOAD PUSH1 0x60 DUP4 ADD MSTORE POP POP JUMP JUMPDEST DUP2 MLOAD ISZERO ISZERO DUP2 MSTORE PUSH1 0x20 DUP1 DUP4 ADD MLOAD DUP2 DUP4 ADD MSTORE PUSH1 0x40 DUP1 DUP5 ADD MLOAD DUP1 MLOAD DUP3 DUP6 ADD MSTORE SWAP2 DUP3 ADD MLOAD PUSH1 0x60 DUP5 ADD MSTORE DUP2 ADD MLOAD ISZERO ISZERO PUSH1 0x80 DUP4 ADD MSTORE PUSH2 0x120 DUP3 ADD SWAP1 POP PUSH1 0x60 DUP4 ADD MLOAD PUSH2 0x2A89 PUSH1 0xA0 DUP5 ADD DUP3 PUSH2 0x2A11 JUMP JUMPDEST POP SWAP3 SWAP2 POP POP JUMP JUMPDEST PUSH1 0x6 DUP2 LT PUSH2 0x29BE JUMPI PUSH2 0x29BE PUSH2 0x299A JUMP JUMPDEST PUSH0 PUSH1 0x40 DUP3 ADD SWAP1 POP PUSH2 0x2AB2 DUP3 DUP5 MLOAD PUSH2 0x2A90 JUMP JUMPDEST PUSH1 0x20 SWAP3 DUP4 ADD MLOAD ISZERO ISZERO SWAP2 SWAP1 SWAP3 ADD MSTORE SWAP1 JUMP JUMPDEST PUSH1 0x80 DUP2 ADD PUSH2 0x94E DUP3 DUP5 PUSH2 0x2A11 JUMP JUMPDEST PUSH0 DUP1 PUSH0 PUSH1 0x60 DUP5 DUP7 SUB SLT ISZERO PUSH2 0x2AE2 JUMPI PUSH0 DUP1 REVERT JUMPDEST PUSH2 0x2AEB DUP5 PUSH2 0x2946 JUMP JUMPDEST SWAP3 POP PUSH1 0x20 DUP5 ADD CALLDATALOAD PUSH2 0x2AFB DUP2 PUSH2 0x2959 JUMP JUMPDEST SWAP3 SWAP6 SWAP3 SWAP5 POP POP POP PUSH1 0x40 SWAP2 SWAP1 SWAP2 ADD CALLDATALOAD SWAP1 JUMP JUMPDEST PUSH1 0x40 DUP2 ADD PUSH2 0x2B1A DUP3 DUP6 PUSH2 0x2A90 JUMP JUMPDEST DUP3 ISZERO ISZERO PUSH1 0x20 DUP4 ADD MSTORE SWAP4 SWAP3 POP POP POP JUMP JUMPDEST PUSH0 DUP1 PUSH0 PUSH1 0x60 DUP5 DUP7 SUB SLT ISZERO PUSH2 0x2B3B JUMPI PUSH0 DUP1 REVERT JUMPDEST DUP4 CALLDATALOAD SWAP3 POP PUSH2 0x2B4B PUSH1 0x20 DUP6 ADD PUSH2 0x2946 JUMP JUMPDEST SWAP2 POP PUSH1 0x40 DUP5 ADD CALLDATALOAD PUSH2 0x2B5B DUP2 PUSH2 0x2959 JUMP JUMPDEST DUP1 SWAP2 POP POP SWAP3 POP SWAP3 POP SWAP3 JUMP JUMPDEST PUSH0 DUP1 PUSH0 PUSH1 0x60 DUP5 DUP7 SUB SLT ISZERO PUSH2 0x2B78 JUMPI PUSH0 DUP1 REVERT JUMPDEST DUP4 CALLDATALOAD SWAP3 POP PUSH2 0x2B88 PUSH1 0x20 DUP6 ADD PUSH2 0x2946 JUMP JUMPDEST SWAP2 POP PUSH1 0x40 DUP5 ADD CALLDATALOAD PUSH1 0xFF DUP2 AND DUP2 EQ PUSH2 0x2B5B JUMPI PUSH0 DUP1 REVERT JUMPDEST PUSH0 PUSH1 0xC0 DUP3 ADD SWAP1 POP DUP3 MLOAD DUP3 MSTORE PUSH1 0x20 DUP4 ADD MLOAD PUSH1 0x20 DUP4 ADD MSTORE PUSH1 0x40 DUP4 ADD MLOAD PUSH1 0x40 DUP4 ADD MSTORE PUSH1 0x60 DUP4 ADD MLOAD PUSH2 0x2BCE PUSH1 0x60 DUP5 ADD DUP3 PUSH2 0x29AE JUMP JUMPDEST POP PUSH1 0x80 DUP4 ADD MLOAD PUSH1 0x80 DUP4 ADD MSTORE PUSH1 0xA0 DUP4 ADD MLOAD PUSH1 0xA0 DUP4 ADD MSTORE SWAP3 SWAP2 POP POP JUMP JUMPDEST PUSH1 0x1 PUSH1 0x1 PUSH1 0xA0 SHL SUB DUP2 AND DUP2 EQ PUSH2 0x880 JUMPI PUSH0 DUP1 REVERT JUMPDEST PUSH0 PUSH1 0x20 DUP3 DUP5 SUB SLT ISZERO PUSH2 0x2C0D JUMPI PUSH0 DUP1 REVERT JUMPDEST DUP2 CALLDATALOAD PUSH2 0x27AE DUP2 PUSH2 0x2BE9 JUMP JUMPDEST PUSH1 0x80 DUP2 ADD PUSH2 0x2C26 DUP3 DUP8 PUSH2 0x29AE JUMP JUMPDEST PUSH1 0xFF DUP6 AND PUSH1 0x20 DUP4 ADD MSTORE DUP4 PUSH1 0x40 DUP4 ADD MSTORE DUP3 PUSH1 0x60 DUP4 ADD MSTORE SWAP6 SWAP5 POP POP POP POP POP JUMP JUMPDEST PUSH0 PUSH1 0x20 DUP3 DUP5 SUB SLT ISZERO PUSH2 0x2C54 JUMPI PUSH0 DUP1 REVERT JUMPDEST DUP2 MLOAD PUSH2 0x27AE DUP2 PUSH2 0x2BE9 JUMP JUMPDEST PUSH1 0x20 DUP1 DUP3 MSTORE DUP2 DUP2 ADD MSTORE PUSH32 0x546F6B656E206973206E6F74206F776E6564206279206D73672E73656E646572 PUSH1 0x40 DUP3 ADD MSTORE PUSH1 0x60 ADD SWAP1 JUMP JUMPDEST DUP1 MLOAD PUSH2 0x2954 DUP2 PUSH2 0x2959 JUMP JUMPDEST PUSH0 PUSH1 0xE0 DUP3 DUP5 SUB SLT ISZERO PUSH2 0x2CAF JUMPI PUSH0 DUP1 REVERT JUMPDEST PUSH1 0x40 MLOAD PUSH1 0xE0 DUP2 ADD DUP2 DUP2 LT PUSH8 0xFFFFFFFFFFFFFFFF DUP3 GT OR ISZERO PUSH2 0x2CDE JUMPI PUSH4 0x4E487B71 PUSH1 0xE0 SHL PUSH0 MSTORE PUSH1 0x41 PUSH1 0x4 MSTORE PUSH1 0x24 PUSH0 REVERT JUMPDEST PUSH1 0x40 MSTORE PUSH2 0x2CEA DUP4 PUSH2 0x2C94 JUMP JUMPDEST DUP2 MSTORE PUSH1 0x20 DUP4 ADD MLOAD PUSH1 0x20 DUP3 ADD MSTORE PUSH1 0x40 DUP4 ADD MLOAD PUSH1 0x40 DUP3 ADD MSTORE PUSH1 0x60 DUP4 ADD MLOAD PUSH1 0x60 DUP3 ADD MSTORE PUSH1 0x80 DUP4 ADD MLOAD PUSH1 0x80 DUP3 ADD MSTORE PUSH1 0xA0 DUP4 ADD MLOAD PUSH1 0xA0 DUP3 ADD MSTORE PUSH1 0xC0 DUP4 ADD MLOAD PUSH1 0xC0 DUP3 ADD MSTORE DUP1 SWAP2 POP POP SWAP3 SWAP2 POP POP JUMP JUMPDEST PUSH1 0x20 DUP2 ADD PUSH2 0x94E DUP3 DUP5 PUSH2 0x2A90 JUMP JUMPDEST PUSH0 PUSH1 0x20 DUP3 DUP5 SUB SLT ISZERO PUSH2 0x2D50 JUMPI PUSH0 DUP1 REVERT JUMPDEST POP MLOAD SWAP2 SWAP1 POP JUMP JUMPDEST PUSH4 0x4E487B71 PUSH1 0xE0 SHL PUSH0 MSTORE PUSH1 0x11 PUSH1 0x4 MSTORE PUSH1 0x24 PUSH0 REVERT JUMPDEST PUSH0 DUP2 PUSH2 0x2D79 JUMPI PUSH2 0x2D79 PUSH2 0x2D57 JUMP JUMPDEST POP PUSH0 NOT ADD SWAP1 JUMP JUMPDEST PUSH4 0x4E487B71 PUSH1 0xE0 SHL PUSH0 MSTORE PUSH1 0x32 PUSH1 0x4 MSTORE PUSH1 0x24 PUSH0 REVERT JUMPDEST PUSH1 0x20 DUP1 DUP3 MSTORE PUSH1 0x24 SWAP1 DUP3 ADD MSTORE PUSH32 0x506C617965722069732063757272656E746C7920696E20616E6F746865722066 PUSH1 0x40 DUP3 ADD MSTORE PUSH4 0x1A59DA1D PUSH1 0xE2 SHL PUSH1 0x60 DUP3 ADD MSTORE PUSH1 0x80 ADD SWAP1 JUMP JUMPDEST PUSH0 PUSH1 0xFF DUP3 AND DUP1 PUSH2 0x2DEA JUMPI PUSH2 0x2DEA PUSH2 0x2D57 JUMP JUMPDEST PUSH0 NOT ADD SWAP3 SWAP2 POP POP JUMP JUMPDEST PUSH0 PUSH1 0x1 DUP3 ADD PUSH2 0x2E04 JUMPI PUSH2 0x2E04 PUSH2 0x2D57 JUMP JUMPDEST POP PUSH1 0x1 ADD SWAP1 JUMP JUMPDEST DUP2 DUP2 SUB DUP2 DUP2 GT ISZERO PUSH2 0x94E JUMPI PUSH2 0x94E PUSH2 0x2D57 JUMP JUMPDEST PUSH4 0x4E487B71 PUSH1 0xE0 SHL PUSH0 MSTORE PUSH1 0x31 PUSH1 0x4 MSTORE PUSH1 0x24 PUSH0 REVERT JUMPDEST DUP1 DUP3 MUL DUP2 ISZERO DUP3 DUP3 DIV DUP5 EQ OR PUSH2 0x94E JUMPI PUSH2 0x94E PUSH2 0x2D57 JUMP JUMPDEST PUSH4 0x4E487B71 PUSH1 0xE0 SHL PUSH0 MSTORE PUSH1 0x12 PUSH1 0x4 MSTORE PUSH1 0x24 PUSH0 REVERT JUMPDEST PUSH0 DUP3 PUSH2 0x2E6B JUMPI PUSH2 0x2E6B PUSH2 0x2E49 JUMP JUMPDEST POP DIV SWAP1 JUMP JUMPDEST PUSH0 DUP3 PUSH2 0x2E7E JUMPI PUSH2 0x2E7E PUSH2 0x2E49 JUMP JUMPDEST POP MOD SWAP1 JUMP INVALID LOG2 PUSH5 0x6970667358 0x22 SLT KECCAK256 0xDB 0xBC 0x4B MSTORE8 CALLER 0xDC SMOD SWAP12 0xB7 0xFC EXP PUSH24 0xA6C1F52BFBB99F1A9F6348A0BD921B91A1927FC064736F6C PUSH4 0x43000816 STOP CALLER "
		},
		"gasEstimates": {
			"creation": {
				"codeDepositCost": "2392200",
				"executionCost": "infinite",
				"totalCost": "infinite"
			},
			"external": {
				"RECOVERY_AMOUNT()": "240",
				"RECOVERY_AMOUNT_ACCRUE_DURATION()": "284",
				"concludeGame()": "infinite",
				"enterOctagon(uint256,uint8,uint8)": "infinite",
				"enterRecoveryZone(uint256)": "infinite",
				"entries(uint8,uint8,uint256)": "4907",
				"entryForToken(uint256)": "6963",
				"fightHistory(bytes32)": "13305",
				"fightIds(uint256)": "4640",
				"gameWinner()": "2503",
				"getFight(bytes32)": "13652",
				"getFightsLength()": "2358",
				"getGameWinner()": "4782",
				"getLevelInfo(uint8)": "7073",
				"getOctagonEntryForToken(uint256)": "9325",
				"getOctagonEntryLength(uint8,uint8)": "2895",
				"getRecoverInfo(uint256)": "7041",
				"getTokenInfo(uint256)": "infinite",
				"inOctagonLength()": "2383",
				"isGameRunning()": "2420",
				"isInOctagon(uint256)": "2538",
				"leaveOctagon(uint256)": "infinite",
				"leaveRecoveryZone(uint256)": "infinite",
				"levelInfo(uint8)": "6839",
				"owner()": "2367",
				"pickAFight(uint256,uint8,uint8)": "infinite",
				"recoverInfos(uint256)": "6758",
				"renounceOwnership()": "infinite",
				"transferOwnership(address)": "infinite"
			},
			"internal": {
				"_removeTokenEntry(uint256,enum Billionaire)": "infinite",
				"randomFighter(uint256)": "infinite"
			}
		},
		"methodIdentifiers": {
			"RECOVERY_AMOUNT()": "3e7373e1",
			"RECOVERY_AMOUNT_ACCRUE_DURATION()": "9794cbac",
			"concludeGame()": "795da71d",
			"enterOctagon(uint256,uint8,uint8)": "e0200a8a",
			"enterRecoveryZone(uint256)": "28775a91",
			"entries(uint8,uint8,uint256)": "c76a0822",
			"entryForToken(uint256)": "fcec8148",
			"fightHistory(bytes32)": "65a27cfa",
			"fightIds(uint256)": "6369dba9",
			"gameWinner()": "c94f598b",
			"getFight(bytes32)": "e12dd544",
			"getFightsLength()": "6ed8a312",
			"getGameWinner()": "9797e00b",
			"getLevelInfo(uint8)": "6e37da1b",
			"getOctagonEntryForToken(uint256)": "9fffc3dd",
			"getOctagonEntryLength(uint8,uint8)": "4a73313a",
			"getRecoverInfo(uint256)": "43e1cfaf",
			"getTokenInfo(uint256)": "8c7a63ae",
			"inOctagonLength()": "b1cb8578",
			"isGameRunning()": "b9df2d22",
			"isInOctagon(uint256)": "3ba8ff30",
			"leaveOctagon(uint256)": "4f15a6a6",
			"leaveRecoveryZone(uint256)": "5b7b2a6c",
			"levelInfo(uint8)": "e5cc5704",
			"owner()": "8da5cb5b",
			"pickAFight(uint256,uint8,uint8)": "da891df1",
			"recoverInfos(uint256)": "09a3dbb7",
			"renounceOwnership()": "715018a6",
			"transferOwnership(address)": "f2fde38b"
		}
	},
	"abi": [
		{
			"inputs": [
				{
					"internalType": "contract BillionaireDojo",
					"name": "_dojo",
					"type": "address"
				},
				{
					"internalType": "contract IFightLogic",
					"name": "_fightLogic",
					"type": "address"
				}
			],
			"stateMutability": "nonpayable",
			"type": "constructor"
		},
		{
			"inputs": [
				{
					"internalType": "address",
					"name": "owner",
					"type": "address"
				}
			],
			"name": "OwnableInvalidOwner",
			"type": "error"
		},
		{
			"inputs": [
				{
					"internalType": "address",
					"name": "account",
					"type": "address"
				}
			],
			"name": "OwnableUnauthorizedAccount",
			"type": "error"
		},
		{
			"inputs": [],
			"name": "ReentrancyGuardReentrantCall",
			"type": "error"
		},
		{
			"anonymous": false,
			"inputs": [
				{
					"indexed": true,
					"internalType": "uint256",
					"name": "tokenId",
					"type": "uint256"
				},
				{
					"indexed": true,
					"internalType": "uint256",
					"name": "level",
					"type": "uint256"
				},
				{
					"indexed": true,
					"internalType": "uint8",
					"name": "maxRounds",
					"type": "uint8"
				}
			],
			"name": "EnterOctagon",
			"type": "event"
		},
		{
			"anonymous": false,
			"inputs": [
				{
					"indexed": false,
					"internalType": "uint256",
					"name": "tokenId",
					"type": "uint256"
				}
			],
			"name": "EnterRecoveryZone",
			"type": "event"
		},
		{
			"anonymous": false,
			"inputs": [
				{
					"indexed": false,
					"internalType": "uint256",
					"name": "tokenId",
					"type": "uint256"
				}
			],
			"name": "LeaveOctagon",
			"type": "event"
		},
		{
			"anonymous": false,
			"inputs": [
				{
					"indexed": false,
					"internalType": "uint256",
					"name": "tokenId",
					"type": "uint256"
				}
			],
			"name": "LeaveRecoveryZone",
			"type": "event"
		},
		{
			"anonymous": false,
			"inputs": [
				{
					"indexed": true,
					"internalType": "address",
					"name": "previousOwner",
					"type": "address"
				},
				{
					"indexed": true,
					"internalType": "address",
					"name": "newOwner",
					"type": "address"
				}
			],
			"name": "OwnershipTransferred",
			"type": "event"
		},
		{
			"anonymous": false,
			"inputs": [
				{
					"indexed": true,
					"internalType": "uint256",
					"name": "player1",
					"type": "uint256"
				},
				{
					"indexed": true,
					"internalType": "uint256",
					"name": "player2",
					"type": "uint256"
				},
				{
					"indexed": true,
					"internalType": "uint256",
					"name": "winner",
					"type": "uint256"
				}
			],
			"name": "PickAFight",
			"type": "event"
		},
		{
			"inputs": [],
			"name": "RECOVERY_AMOUNT",
			"outputs": [
				{
					"internalType": "uint256",
					"name": "",
					"type": "uint256"
				}
			],
			"stateMutability": "view",
			"type": "function"
		},
		{
			"inputs": [],
			"name": "RECOVERY_AMOUNT_ACCRUE_DURATION",
			"outputs": [
				{
					"internalType": "uint256",
					"name": "",
					"type": "uint256"
				}
			],
			"stateMutability": "view",
			"type": "function"
		},
		{
			"inputs": [],
			"name": "concludeGame",
			"outputs": [],
			"stateMutability": "nonpayable",
			"type": "function"
		},
		{
			"inputs": [
				{
					"internalType": "uint256",
					"name": "_tokenId",
					"type": "uint256"
				},
				{
					"internalType": "enum OctagonLevel",
					"name": "_level",
					"type": "uint8"
				},
				{
					"internalType": "uint8",
					"name": "_maxRounds",
					"type": "uint8"
				}
			],
			"name": "enterOctagon",
			"outputs": [],
			"stateMutability": "nonpayable",
			"type": "function"
		},
		{
			"inputs": [
				{
					"internalType": "uint256",
					"name": "_tokenId",
					"type": "uint256"
				}
			],
			"name": "enterRecoveryZone",
			"outputs": [],
			"stateMutability": "nonpayable",
			"type": "function"
		},
		{
			"inputs": [
				{
					"internalType": "enum OctagonLevel",
					"name": "",
					"type": "uint8"
				},
				{
					"internalType": "enum Billionaire",
					"name": "",
					"type": "uint8"
				},
				{
					"internalType": "uint256",
					"name": "",
					"type": "uint256"
				}
			],
			"name": "entries",
			"outputs": [
				{
					"internalType": "uint256",
					"name": "",
					"type": "uint256"
				}
			],
			"stateMutability": "view",
			"type": "function"
		},
		{
			"inputs": [
				{
					"internalType": "uint256",
					"name": "",
					"type": "uint256"
				}
			],
			"name": "entryForToken",
			"outputs": [
				{
					"internalType": "enum OctagonLevel",
					"name": "level",
					"type": "uint8"
				},
				{
					"internalType": "uint8",
					"name": "rounds",
					"type": "uint8"
				},
				{
					"internalType": "uint256",
					"name": "tokenId",
					"type": "uint256"
				},
				{
					"internalType": "uint256",
					"name": "arrayIdx",
					"type": "uint256"
				}
			],
			"stateMutability": "view",
			"type": "function"
		},
		{
			"inputs": [
				{
					"internalType": "bytes32",
					"name": "",
					"type": "bytes32"
				}
			],
			"name": "fightHistory",
			"outputs": [
				{
					"internalType": "bytes32",
					"name": "id",
					"type": "bytes32"
				},
				{
					"internalType": "uint256",
					"name": "player1",
					"type": "uint256"
				},
				{
					"internalType": "uint256",
					"name": "player2",
					"type": "uint256"
				},
				{
					"internalType": "enum OctagonLevel",
					"name": "level",
					"type": "uint8"
				},
				{
					"internalType": "uint256",
					"name": "created",
					"type": "uint256"
				},
				{
					"internalType": "uint256",
					"name": "winner",
					"type": "uint256"
				}
			],
			"stateMutability": "view",
			"type": "function"
		},
		{
			"inputs": [
				{
					"internalType": "uint256",
					"name": "",
					"type": "uint256"
				}
			],
			"name": "fightIds",
			"outputs": [
				{
					"internalType": "bytes32",
					"name": "",
					"type": "bytes32"
				}
			],
			"stateMutability": "view",
			"type": "function"
		},
		{
			"inputs": [],
			"name": "gameWinner",
			"outputs": [
				{
					"internalType": "enum Billionaire",
					"name": "winnerTeam",
					"type": "uint8"
				},
				{
					"internalType": "bool",
					"name": "isValid",
					"type": "bool"
				}
			],
			"stateMutability": "view",
			"type": "function"
		},
		{
			"inputs": [
				{
					"internalType": "bytes32",
					"name": "_fightId",
					"type": "bytes32"
				}
			],
			"name": "getFight",
			"outputs": [
				{
					"components": [
						{
							"internalType": "bytes32",
							"name": "id",
							"type": "bytes32"
						},
						{
							"internalType": "uint256",
							"name": "player1",
							"type": "uint256"
						},
						{
							"internalType": "uint256",
							"name": "player2",
							"type": "uint256"
						},
						{
							"internalType": "enum OctagonLevel",
							"name": "level",
							"type": "uint8"
						},
						{
							"internalType": "uint256",
							"name": "created",
							"type": "uint256"
						},
						{
							"internalType": "uint256",
							"name": "winner",
							"type": "uint256"
						}
					],
					"internalType": "struct Fight",
					"name": "",
					"type": "tuple"
				}
			],
			"stateMutability": "view",
			"type": "function"
		},
		{
			"inputs": [],
			"name": "getFightsLength",
			"outputs": [
				{
					"internalType": "uint256",
					"name": "",
					"type": "uint256"
				}
			],
			"stateMutability": "view",
			"type": "function"
		},
		{
			"inputs": [],
			"name": "getGameWinner",
			"outputs": [
				{
					"components": [
						{
							"internalType": "enum Billionaire",
							"name": "winnerTeam",
							"type": "uint8"
						},
						{
							"internalType": "bool",
							"name": "isValid",
							"type": "bool"
						}
					],
					"internalType": "struct GameWinner",
					"name": "",
					"type": "tuple"
				}
			],
			"stateMutability": "view",
			"type": "function"
		},
		{
			"inputs": [
				{
					"internalType": "enum OctagonLevel",
					"name": "_level",
					"type": "uint8"
				}
			],
			"name": "getLevelInfo",
			"outputs": [
				{
					"components": [
						{
							"internalType": "uint256",
							"name": "buyIn",
							"type": "uint256"
						},
						{
							"internalType": "uint256",
							"name": "maxRandomVal",
							"type": "uint256"
						},
						{
							"internalType": "uint256",
							"name": "minRandomVal",
							"type": "uint256"
						}
					],
					"internalType": "struct LevelInfo",
					"name": "",
					"type": "tuple"
				}
			],
			"stateMutability": "view",
			"type": "function"
		},
		{
			"inputs": [
				{
					"internalType": "uint256",
					"name": "_tokenId",
					"type": "uint256"
				}
			],
			"name": "getOctagonEntryForToken",
			"outputs": [
				{
					"components": [
						{
							"internalType": "enum OctagonLevel",
							"name": "level",
							"type": "uint8"
						},
						{
							"internalType": "uint8",
							"name": "rounds",
							"type": "uint8"
						},
						{
							"internalType": "uint256",
							"name": "tokenId",
							"type": "uint256"
						},
						{
							"internalType": "uint256",
							"name": "arrayIdx",
							"type": "uint256"
						}
					],
					"internalType": "struct OctagonEntry",
					"name": "",
					"type": "tuple"
				}
			],
			"stateMutability": "view",
			"type": "function"
		},
		{
			"inputs": [
				{
					"internalType": "enum OctagonLevel",
					"name": "_level",
					"type": "uint8"
				},
				{
					"internalType": "enum Billionaire",
					"name": "_billionaire",
					"type": "uint8"
				}
			],
			"name": "getOctagonEntryLength",
			"outputs": [
				{
					"internalType": "uint256",
					"name": "",
					"type": "uint256"
				}
			],
			"stateMutability": "view",
			"type": "function"
		},
		{
			"inputs": [
				{
					"internalType": "uint256",
					"name": "_tokenId",
					"type": "uint256"
				}
			],
			"name": "getRecoverInfo",
			"outputs": [
				{
					"components": [
						{
							"internalType": "uint256",
							"name": "tokenId",
							"type": "uint256"
						},
						{
							"internalType": "uint256",
							"name": "recoverStart",
							"type": "uint256"
						},
						{
							"internalType": "bool",
							"name": "isRecovering",
							"type": "bool"
						}
					],
					"internalType": "struct RecoverInfo",
					"name": "",
					"type": "tuple"
				}
			],
			"stateMutability": "view",
			"type": "function"
		},
		{
			"inputs": [
				{
					"internalType": "uint256",
					"name": "_tokenId",
					"type": "uint256"
				}
			],
			"name": "getTokenInfo",
			"outputs": [
				{
					"components": [
						{
							"internalType": "bool",
							"name": "isInOctagon",
							"type": "bool"
						},
						{
							"internalType": "uint256",
							"name": "balance",
							"type": "uint256"
						},
						{
							"components": [
								{
									"internalType": "uint256",
									"name": "tokenId",
									"type": "uint256"
								},
								{
									"internalType": "uint256",
									"name": "recoverStart",
									"type": "uint256"
								},
								{
									"internalType": "bool",
									"name": "isRecovering",
									"type": "bool"
								}
							],
							"internalType": "struct RecoverInfo",
							"name": "recoverInfo",
							"type": "tuple"
						},
						{
							"components": [
								{
									"internalType": "enum OctagonLevel",
									"name": "level",
									"type": "uint8"
								},
								{
									"internalType": "uint8",
									"name": "rounds",
									"type": "uint8"
								},
								{
									"internalType": "uint256",
									"name": "tokenId",
									"type": "uint256"
								},
								{
									"internalType": "uint256",
									"name": "arrayIdx",
									"type": "uint256"
								}
							],
							"internalType": "struct OctagonEntry",
							"name": "octagonEntry",
							"type": "tuple"
						}
					],
					"internalType": "struct TokenInfo",
					"name": "",
					"type": "tuple"
				}
			],
			"stateMutability": "view",
			"type": "function"
		},
		{
			"inputs": [],
			"name": "inOctagonLength",
			"outputs": [
				{
					"internalType": "uint256",
					"name": "",
					"type": "uint256"
				}
			],
			"stateMutability": "view",
			"type": "function"
		},
		{
			"inputs": [],
			"name": "isGameRunning",
			"outputs": [
				{
					"internalType": "bool",
					"name": "",
					"type": "bool"
				}
			],
			"stateMutability": "view",
			"type": "function"
		},
		{
			"inputs": [
				{
					"internalType": "uint256",
					"name": "",
					"type": "uint256"
				}
			],
			"name": "isInOctagon",
			"outputs": [
				{
					"internalType": "bool",
					"name": "",
					"type": "bool"
				}
			],
			"stateMutability": "view",
			"type": "function"
		},
		{
			"inputs": [
				{
					"internalType": "uint256",
					"name": "_tokenId",
					"type": "uint256"
				}
			],
			"name": "leaveOctagon",
			"outputs": [],
			"stateMutability": "nonpayable",
			"type": "function"
		},
		{
			"inputs": [
				{
					"internalType": "uint256",
					"name": "_tokenId",
					"type": "uint256"
				}
			],
			"name": "leaveRecoveryZone",
			"outputs": [],
			"stateMutability": "nonpayable",
			"type": "function"
		},
		{
			"inputs": [
				{
					"internalType": "enum OctagonLevel",
					"name": "",
					"type": "uint8"
				}
			],
			"name": "levelInfo",
			"outputs": [
				{
					"internalType": "uint256",
					"name": "buyIn",
					"type": "uint256"
				},
				{
					"internalType": "uint256",
					"name": "maxRandomVal",
					"type": "uint256"
				},
				{
					"internalType": "uint256",
					"name": "minRandomVal",
					"type": "uint256"
				}
			],
			"stateMutability": "view",
			"type": "function"
		},
		{
			"inputs": [],
			"name": "owner",
			"outputs": [
				{
					"internalType": "address",
					"name": "",
					"type": "address"
				}
			],
			"stateMutability": "view",
			"type": "function"
		},
		{
			"inputs": [
				{
					"internalType": "uint256",
					"name": "_tokenId",
					"type": "uint256"
				},
				{
					"internalType": "enum OctagonLevel",
					"name": "_level",
					"type": "uint8"
				},
				{
					"internalType": "enum Billionaire",
					"name": "_opponentTeam",
					"type": "uint8"
				}
			],
			"name": "pickAFight",
			"outputs": [],
			"stateMutability": "nonpayable",
			"type": "function"
		},
		{
			"inputs": [
				{
					"internalType": "uint256",
					"name": "",
					"type": "uint256"
				}
			],
			"name": "recoverInfos",
			"outputs": [
				{
					"internalType": "uint256",
					"name": "tokenId",
					"type": "uint256"
				},
				{
					"internalType": "uint256",
					"name": "recoverStart",
					"type": "uint256"
				},
				{
					"internalType": "bool",
					"name": "isRecovering",
					"type": "bool"
				}
			],
			"stateMutability": "view",
			"type": "function"
		},
		{
			"inputs": [],
			"name": "renounceOwnership",
			"outputs": [],
			"stateMutability": "nonpayable",
			"type": "function"
		},
		{
			"inputs": [
				{
					"internalType": "address",
					"name": "newOwner",
					"type": "address"
				}
			],
			"name": "transferOwnership",
			"outputs": [],
			"stateMutability": "nonpayable",
			"type": "function"
		}
	]
}